:100000000C9463000C9415050C94EE040C948B0076
:100010000C948B000C948B000C948B000C948B0034
:100020000C948B000C948B000C948B000C948B0024
:100030000C948B000C948B000C948B000C948B0014
:100040000C94A4040C948B000C94DC020C94B60267
:100050000C948B000C948B000C948B000C948B00F4
:100060000C943C050C948B00000000002400270039
:100070002A0000000000250028002B0000000000DE
:1000800023002600290004040404040404040202DA
:100090000202020203030303030301020408102007
:1000A0004080010204081020010204081020000012
:1000B0000008000201000003040700000000000027
:1000C00000003D10371011241FBECFEFD8E0DEBF77
:1000D000CDBF11E0A0E0B1E0E2E2F9E202C005909C
:1000E0000D92AE39B107D9F723E0AEE9B1E001C016
:1000F0001D92A835B207E1F710E0C2E6D0E004C0D7
:100100002197FE010E94CE10C136D107C9F70E9487
:1001100034090C9484140C940000FC01918D828DA0
:10012000981761F0828DDF01A80FB11D5D968C914B
:10013000928D9F5F9F73928F90E008958FEF9FEF56
:100140000895FC01918D828D981731F0828DE80F12
:10015000F11D858D90E008958FEF9FEF0895FC01CC
:10016000918D228D892F90E0805C9F4F821B910999
:100170008F739927089584EA92E00E94AF0021E0EE
:10018000892B09F420E0822F0895FC01848DDF0182
:10019000A80FB11DA35ABF4F2C91848D90E00196FA
:1001A0008F739927848FA689B7892C93A089B189E9
:1001B0008C9180648C93938D848D981306C00288F3
:1001C000F389E02D80818F7D80830895EF92FF92E7
:1001D0000F931F93CF93DF93EC0181E0888F9B8D6A
:1001E0008C8D981305C0E889F989808185FD24C02C
:1001F000F62E0B8D10E00F5F1F4F0F731127E02EAF
:100200008C8DE8120CC00FB607FCFACFE889F9898B
:10021000808185FFF5CFCE010E94C500F1CF8B8D87
:10022000FE01E80FF11DE35AFF4FF0820B8FEA89C0
:10023000FB898081806207C0EE89FF896083E8893D
:10024000F98980818064808381E090E0DF91CF91A3
:100250001F910F91FF90EF900895CF93DF93EC01E2
:10026000888D8823C9F0EA89FB89808185FD05C0D6
:10027000A889B9898C9186FD0FC00FB607FCF5CF10
:10028000808185FFF2CFA889B9898C9185FFEDCF58
:10029000CE010E94C500E7CFDF91CF91089580E0A5
:1002A00090E0892B29F00E94BB0081110C94000082
:1002B0000895833081F028F4813099F08230A1F0E4
:1002C00008958730A9F08830B9F08430D1F4809156
:1002D00080008F7D03C0809180008F7780938000A5
:1002E000089584B58F7702C084B58F7D84BD08954D
:1002F0008091B0008F7703C08091B0008F7D809394
:10030000B0000895CF93DF93282F30E0F901E25534
:10031000FF4F8491F901E656FF4FD491F901EA5756
:10032000FF4FC491CC2391F081110E945901EC2F11
:10033000F0E0EE0FFF1FE458FF4FA591B491EC9150
:10034000ED2381E090E021F480E002C080E090E0C5
:10035000DF91CF910895089585ED8093BC00809141
:10036000BC0084FDFCCF10924C0208954091F8012E
:10037000262F30E0240F311D21323105DCF420918D
:100380004C022430C9F4FC0180E090E0861758F458
:100390003091F8012191DC01AA52BE4FA30FB11D8B
:1003A0002C930196F3CF8091F801680F6093F801C8
:1003B00080E0089581E0089582E0089508958FEF28
:1003C0009FEF08958FEF9FEF08958091D50190E002
:1003D0009195819591090895CF92DF92EF92FF92C6
:1003E0000F931F93CF93DF937C01262F972F8A01C2
:1003F00080916F02882391F0C62FD72F6E01C40E13
:10040000D51ECC15DD0571F06991D701ED91FC91F8
:100410000190F081E02DC7010995F3CF642F822F61
:100420000E94B601C801DF91CF911F910F91FF90FB
:10043000EF90DF90CF900895CF93DF931F92CDB7C9
:10044000DEB7698320916F022223D1F020916D02E3
:10045000203240F021E030E0FC013383228380E051
:1004600090E015C080916E02E82FF0E0E35BFD4F55
:10047000998190838F5F80936E0280936D0205C097
:1004800061E0CE0101960E94B60181E090E00F90FC
:10049000DF91CF910895DC01ED91FC9180819181F4
:1004A00008950E94D411CF93DF93FC01A081B18104
:1004B000CD91DC91119712968D919C911397918318
:1004C0008083248535852150310935872487CD01E6
:1004D0000E947E12CE01DF91CF910895CF92DF92DC
:1004E000EF92FF920F931F93CF93DF9300D0CDB77E
:1004F000DEB76C0184E090E069837A830E94E911A1
:100500008C01D6011496ED90FC901597C7010E94BE
:10051000E911F8019183808313821282A701698116
:100520007A810E94D911D6018D919C911197892BC6
:1005300019F40D931C9307C0D6011296ED91FC910E
:10054000139713830283F6011383028384859585B1
:100550000196958784870F900F90DF91CF911F911F
:100560000F91FF90EF90DF90CF9008951F920F9220
:100570000FB60F9211242F933F934F935F936F9376
:100580007F938F939F93AF93BF93EF93FF9384EAEF
:1005900092E00E94C500FF91EF91BF91AF919F91B2
:1005A0008F917F916F915F914F913F912F910F901C
:1005B0000FBE0F901F9018951F920F920FB60F92BB
:1005C00011242F938F939F93EF93FF93E091B402A5
:1005D000F091B5028081E091BA02F091BB0282FDF8
:1005E00012C090818091BD028F5F8F732091BE02F7
:1005F000821751F0E091BD02F0E0EC55FD4F958F70
:100600008093BD0201C08081FF91EF919F918F91F6
:100610002F910F900FBE0F901F9018951F93CF939F
:10062000DF93282F30E0F901E255FF4F8491F90163
:10063000E656FF4FD491F901EA57FF4FC491CC23FE
:10064000C9F0162F81110E945901EC2FF0E0EE0F36
:10065000FF1FEE58FF4FA591B4918FB7F894111179
:1006600005C09C91ED2FE095E92302C0EC91ED2BA4
:10067000EC938FBFDF91CF911F9108950F931F933C
:10068000CF93DF938C01EB018130910581F08230B3
:100690009105E9F0892B39F51B861A868E819F8199
:1006A00061E00E940E038885998560E00AC09B87FF
:1006B0008A878E819F8160E00E940E0388859985DC
:1006C00061E0DF91CF911F910F910C940E038E8109
:1006D0009F8160E00E940E038885998560E00E94FA
:1006E0000E031B870A87DF91CF911F910F91089509
:1006F000CF93DF932FB7F894809122029091230239
:10070000A0912402B09125022FBF8093D101909334
:10071000D201A093D301B093D4018091A00188238A
:1007200009F473C0E091A202F091A302828593853F
:10073000009721F0019709F444C067C040815181BE
:10074000C0919E01D0919F01A885B9851196AA0FED
:10075000BB1FAC0FBD1F8D919C919C012250310994
:100760004217530784F08FEF90E00E948008609159
:10077000A2027091A30282E090E00E943E0381E019
:100780008093A10142C0408151819C0128523109CE
:10079000421753074CF0E259F24019F488E790E011
:1007A0000CC08EE690E009C0208131818C529140CE
:1007B0002817390754F18CE890E0DF91CF910C9421
:1007C000800840815181C0919E01D0919F01A885F0
:1007D000B9851196AA0FBB1FAC0FBD1F8D919C91BF
:1007E0009C012E5F3F4F241735070CF0BCCF408192
:1007F00051812A5D3F4F241735076CF620813181E6
:10080000845D9E4F82179307B4F6DF91CF910895D0
:1008100083E00E948201E091A202F091A30226856A
:1008200037852817390719F197878687009719F0B8
:10083000019771F01AC084859585892B21F48081F8
:100840009181019603C0808191810197918380837A
:1008500084859585892B21F480819181019703C03E
:10086000808191810196918380830C94780308950F
:1008700082E00E948201E091A202F091A30224850D
:1008800035852817390719F195878487009719F05E
:10089000019771F01AC086859785892B21F4808194
:1008A0009181019703C0808191810196918380831A
:1008B00086859785892B21F480819181019603C0DB
:1008C000808191810197918380830C9478030895AE
:1008D000CF93DF9390E0FC01E656FF4F2491FC019B
:1008E000EA57FF4F8491882361F190E0880F991FA8
:1008F000FC01E859FF4FC591D491FC01EE58FF4F20
:10090000A591B491611109C09FB7F8948881209591
:1009100082238883EC912E230BC0623061F49FB751
:10092000F8943881822F809583238883EC912E2B35
:100930002C939FBF06C08FB7F894E8812E2B288395
:100940008FBFDF91CF9108951F920F920FB60F9234
:1009500011242F933F938F939F93AF93BF938091D5
:10096000220290912302A0912402B091250230919D
:10097000210223E0230F2D3720F40196A11DB11D84
:1009800005C026E8230F0296A11DB11D2093210268
:100990008093220290932302A0932402B093250215
:1009A00080911D0290911E02A0911F02B091200221
:1009B0000196A11DB11D80931D0290931E02A0936C
:1009C0001F02B0932002BF91AF919F918F913F91F1
:1009D0002F910F900FBE0F901F9018951F920F929E
:1009E0000FB60F9211242F933F934F935F936F9302
:1009F0007F938F939F93AF93BF93EF93FF93E09178
:100A00000201F09103010995FF91EF91BF91AF9120
:100A10009F918F917F916F915F914F913F912F9116
:100A20000F900FBE0F901F9018951F920F920FB648
:100A30000F9211242F933F934F935F936F937F9364
:100A40008F939F93AF93BF93EF93FF93E091000138
:100A5000F09101010995FF91EF91BF91AF919F91A5
:100A60008F917F916F915F914F913F912F910F9057
:100A70000FBE0F901F9018951F920F920FB60F92F6
:100A800011242F933F934F935F936F937F938F9393
:100A90009F93AF93BF93EF93FF938091B900887FAB
:100AA000803609F49CC068F5883209F45BC090F484
:100AB000803109F454C038F4882309F4F6C0883032
:100AC00009F44DC0F6C0883109F44CC0803209F4F5
:100AD0005DC0EFC0803409F468C048F4803309F485
:100AE00055C0883309F0E5C080934A02D8C08035EC
:100AF00009F44FC0883509F45DC0883409F0D9C0C5
:100B0000D6C0883909F4C7C0A8F4883709F467C08B
:100B100038F4883609F463C0803709F460C0C9C06E
:100B2000883809F4B8C0803909F45FC0803809F00A
:100B3000C0C05BC0803B09F486C038F4803A09F439
:100B400066C0883A09F47FC0B4C0803C09F4A7C0ED
:100B5000883C09F4A4C0883B09F48AC0AAC08091EB
:100B6000270210C09091490280914802981770F5B1
:100B7000E091490281E08E0F80934902F0E0E85D48
:100B8000FD4F80818093BB0085EC86C080934A0234
:100B90008EC0E091490281E08E0F809349028091DE
:100BA000BB00F0E0E85DFD4F8083909149028091A9
:100BB00048026EC0E091490281E08E0F80934902A5
:100BC0008091BB00F0E0E85DFD4F808380914B0297
:100BD00081116DC081E08093260284EA61C083E0C8
:100BE00080934C0210921C02CFCF80911C02803265
:100BF00008F051C0E0911C0281E08E0F80931C022E
:100C00008091BB00F0E0E450FE4F8083BDCF85ECC7
:100C10008093BC0010924C0280911C02803230F410
:100C2000E0911C02F0E0E450FE4F108260911C0243
:100C300070E0E091FA01F091FB018CEF91E00995F1
:100C400010921C0236C084E080934C021092F9018D
:100C50001092F801E091F601F091F7010995809169
:100C6000F801811105C081E08093F8011092D6014E
:100C7000E091F90181E08E0F8093F901F0E0EA52F2
:100C8000FE4F80818093BB009091F9018091F80123
:100C9000981708F479CF85E88093BC000AC085ECEA
:100CA0008093BC0010924C0204C010924A020E9431
:100CB000AC01FF91EF91BF91AF919F918F917F9187
:100CC0006F915F914F913F912F910F900FBE0F90B9
:100CD0001F9018950E942D076091A2027091A302A7
:100CE00081E090E00E943E032FB7F89480912202A9
:100CF00090912302A0912402B09125022FBF8093EE
:100D0000D1019093D201A093D301B093D4018FB7B6
:100D1000F894409122025091230260912402709134
:100D200025028FBF8091D1019091D201A091D30172
:100D3000B091D40188539F4FAF4FBF4F8417950791
:100D4000A607B70720F76091A2027091A30282E084
:100D500090E00E943E03E091A202F091A302118272
:100D600010820895AF92BF92CF92DF92EF92FF92DE
:100D70000F931F93CF93DF93EC015B016A0179011D
:100D8000CB010E94EE0781E691E00E946607C60152
:100D90000E94EE0783E891E00E947807B501BB0C42
:100DA000880B990B0E94541320E030E046E152E496
:100DB0000E948F130E94D4107B836A83B601DD0CDE
:100DC000880B990B0E94541320E030E046E152E476
:100DD0000E948F130E94D4107D836C83FF82EE8269
:100DE0001B870A871986188619821882CE01DF911F
:100DF000CF911F910F91FF90EF90DF90CF90BF9018
:100E0000AF900895CF92DF92EF92FF920F931F93CE
:100E1000CF93DF936C017A018B01C0E0D0E0CE1557
:100E2000DF0589F0D8016D918D01D601ED91FC911E
:100E30000190F081E02DC6010995892B11F47E0106
:100E400002C02196ECCFC701DF91CF911F910F9186
:100E5000FF90EF90DF90CF90089581309105A1F041
:100E60008230910501F1892B81F560E08CE00E94D0
:100E70000E0361E08BE00E940E0360E08AE00E94B6
:100E80000E0382E892E01DC061E08CE00E940E0338
:100E900060E08BE00E940E0360E08AE00E940E0397
:100EA00082E792E00EC060E08CE00E940E0360E0FA
:100EB0008BE00E940E0360E08AE00E940E0382E94C
:100EC00092E09093A3028093A2020895009769F0A4
:100ED000FC0101900020E9F73197AF01481B590B45
:100EE000BC0184EA92E00C94020780E090E008954F
:100EF000CF93DF930E946607EC018AE391E00E94A2
:100F000066078C0F9D1FDF91CF9108958F929F925E
:100F1000AF92BF920F931F93CF93DF93CDB7DEB7FE
:100F2000A1970FB6F894DEBF0FBECDBF19A2423015
:100F300008F44AE08E010F5D1F4F842E912CA12CE6
:100F4000B12CA50194010E949810E62FB901CA01A5
:100F500001501109EA3014F4E05D01C0E95CD801E8
:100F6000EC93232B242B252B61F7C8010E946607E5
:100F7000A1960FB6F894DEBF0FBECDBFDF91CF9123
:100F80001F910F91BF90AF909F908F900895CF9237
:100F9000DF92EF92FF92CF93DF936B017C01E091A0
:100FA000A402F091A5020190F081E02D6DE284EAA7
:100FB00092E00995EC0166277727CB016C197D0932
:100FC0008E099F094AE00E9486078C0F9D1FDF91C2
:100FD000CF91FF90EF90DF90CF900895BC01990FD3
:100FE000880B990B97FD0C94C7074AE00C94860771
:100FF000CF93DF93BC01990F880B990B97FF03C028
:101000000E94C70703C04AE00E948607EC018AE3FA
:1010100091E00E9466078C0F9D1FDF91CF9108958C
:1010200081E080936F0280E28093470310926E020A
:1010300010926D0262E188E493E00E941C0261E07C
:1010400088E493E00E941C0289E891E00E94660710
:1010500081E090E00E94F80790916D028091470333
:10106000913208F046C020914C022111FCCF22E0C1
:1010700020934C0221E020934B022FEF20934A0251
:101080001092490290934802ADE4B2E048E252E087
:10109000FA012E2F241B291718F42D912193F9CF33
:1010A0001092270290912702880F892B80932702A4
:1010B00080912602813061F41092260280912702ED
:1010C0008093BB008091BC0083FDF8CF85EC01C00C
:1010D00085EE8093BC0080914C028230E1F38091D8
:1010E0004A028F3F31F080914A02803211F08091A4
:1010F0004A0210926E0210926D0210926F020895D1
:10110000CF93DF93EC0161E089E00E9468042097AF
:1011100011F460E004C0CF3FD10531F461E089E013
:10112000DF91CF910C940E03E7EBF0E0E491E33014
:10113000F9F048F4E130B9F0E230A1F584B580620D
:1011400084BDC8BD34C0E730E9F0E83019F1E430BF
:1011500049F580918000806280938000D0938B005D
:10116000C0938A0024C084B5806884BDC7BD1FC0F9
:1011700080918000806880938000D0938900C09324
:10118000880015C08091B00080688093B000C09343
:10119000B3000DC08091B00080628093B000C09316
:1011A000B40005C0C038D1050CF0B8CFB2CFDF9184
:1011B000CF9108950F931F93CF93DF93EC01888114
:1011C0009981009729F02A813B812617370788F4F7
:1011D0008B016F5F7F4F0E940A11009761F0998326
:1011E00088831B830A832C813D81232B11F4FC010E
:1011F000108281E001C080E0DF91CF911F910F91BB
:101200000895CF93DF93EC0188819981009711F0C5
:101210000E947E12198218821D821C821B821A82F1
:10122000DF91CF910895EF92FF920F931F93CF9389
:10123000DF93EC017B018A01BA010E94DA08811177
:1012400004C0CE010E94010907C01D830C83B701B1
:10125000888199810E94E211CE01DF91CF911F9187
:101260000F91FF90EF900895CF93DF93CDB7DEB746
:10127000CE5AD1090FB6F894DEBF0FBECDBF789419
:1012800084B5826084BD84B5816084BD85B582608B
:1012900085BD85B5816085BD80916E00816080933C
:1012A0006E001092810080918100826080938100A5
:1012B00080918100816080938100809180008160B5
:1012C000809380008091B10084608093B100809110
:1012D000B00081608093B00080917A008460809338
:1012E0007A0080917A00826080937A0080917A00FF
:1012F000816080937A0080917A00806880937A0080
:101300001092C10061E08AE00E94680461E08BE015
:101310000E94680461E08CE00E94680461E084E05F
:101320000E94680461E085E00E94680461E086E054
:101330000E94680461E087E00E94680461E088E040
:101340000E94680461E08DE00E94680461E089E029
:101350000E94680462E082E00E94680462E083E028
:101360000E94680488E394E0909301018093000157
:10137000809169008C7F816080936900E89A88E0A1
:1013800094E0909303018093020180916900837F30
:10139000846080936900E99AE091B402F091B5020B
:1013A00082E08083E091B002F091B1021082E0917E
:1013B000B202F091B3028FEC80831092BC02E091F4
:1013C000B802F091B90286E08083E091B602F09114
:1013D000B702808180618083E091B602F091B7020C
:1013E000808188608083E091B602F091B7028081AD
:1013F00080688083E091B602F091B70280818F7D92
:1014000080831092B2011092B1011092B401109237
:10141000B3018CE090E09093B6018093B5016EE645
:1014200072E07093B8016093B70123E532E0309326
:10143000BA012093B9018BE492E09093BC018093B0
:10144000BB011092BE011092BD011092AE0110922C
:10145000AF011092B0011092C2011092C10110921E
:10146000C4011092C30145E050E05093C60140937F
:10147000C5017093C8016093C7013093CA012093DE
:10148000C9019093CC018093CB011092CE011092B0
:10149000CD011EAA1DAA2AE134E038AF2FAB1AAE47
:1014A00019AE88E090E09CAF8BAF8DE090E09EAFEE
:1014B0008DAF82E090E021969FAF8EAF219723966B
:1014C0001FAE1EAE239725961FAE1EAE25972796FC
:1014D0001FAE1EAE279729963FAF2EAF29972B96AA
:1014E0001FAE1EAE2B9766E070E02D967FAF6EAFFD
:1014F0002D9767E070E02F967FAF6EAF2F976196C4
:101500009FAF8EAF619763961FAE1EAE63976596D1
:101510001FAE1EAE659767961FAE1EAE67976996A3
:101520003FAF2EAF69976B961FAE1EAE6B9724E050
:1015300030E06D963FAF2EAF6D976F965FAF4EAFB9
:101540006F97A1969FAF8EAFA197A3961FAE1EAEC9
:10155000A397A5961FAE1EAEA597CE018B599F4FA0
:1015600020E1FE01EB5AFF4FDC0101900D922A951C
:10157000E1F720E1FE01EB5BFF4FDE01AB58BF4F0F
:1015800001900D922A95E1F720E1FE01F596DE012A
:10159000AB57BF4F01900D922A95E1F71A8219823D
:1015A00020E1FC01DE01139601900D922A95E1F7EE
:1015B00020E1FE01EB58FF4FDE01539601900D92A2
:1015C0002A95E1F720E1FE01EB57FF4FDE019396EC
:1015D00001900D922A95E1F79CAB8BAB84E3FE0161
:1015E0003196A0E7B2E001900D928A95E1F781E093
:1015F00090E00E942D0780919E0190919F010E9492
:101600007E128091BD019091BE01892B21F481E071
:101610008093040102C01092040181EB91E00E94CA
:10162000530290939F0180939E0184EB90E00E946F
:10163000800880E090E00E946A0684EB90E00E94BF
:10164000800882E090E00E946A0684EB90E00E94AD
:10165000800881E090E00E946A0611E01093A001EA
:101660008FEF90E00E9480081093A1012E0121EAE3
:10167000420E511C5DE2B52E8091CF019091D001B8
:10168000892B09F0D3C084EA92E00E94AF00892B35
:1016900009F492C084EA92E00E94A1008B3609F41A
:1016A0005DC084EA92E00E948D00182FF201118241
:1016B000108213821282158214826091410370910C
:1016C00042036115710541F0409145035091460375
:1016D000C2010E94130903C0C2010E940109C95539
:1016E000DF4F1883C75AD040C855DF4F1882C85AF9
:1016F000D040F201048115810F5F1F4FB801C20174
:101700000E94DA08882381F0F201208131818481EE
:101710009581BE0169557F4F820F931F0E94E21190
:10172000F2011583048303C0C2010E940109F20182
:10173000608171816115710539F04481558181E4C1
:1017400093E00E94130904C081E493E00E94010920
:10175000F201808191810E947E122EC084EA92E083
:101760000E948D008091AC019091AD019C012F5F92
:101770003F4F3093AD012093AC0165E070E00E94D3
:1017800084108C018091410390914203009719F0DD
:101790000E94161301C060E0000F111FF801EE5502
:1017A000FE4F70E07183608340E050E06CE371E0D5
:1017B00081E493E00E9413092091AC013091AD01C6
:1017C000C90165E070E00E948410892BF9F4232B95
:1017D000E9F085E090E00E94E911FC018091A2010E
:1017E00080838091A40181838091A601828380916E
:1017F000A80183838091AA018483BF0181EC91E0D9
:101800000E946E021092AD011092AC0184EA92E047
:101810000E94A100853651F484EA92E00E948D0076
:1018200021E030E03093D0012093CF018091CF01AF
:101830009091D001019709F0EAC086EA92E00E94F7
:10184000E9118C0120E030E080E090E040E050E0E1
:10185000BC01620F731FFA01E60FF71FE00FF11FC3
:1018600010824F5F5F4F4F305105A9F70F968D32B1
:10187000910561F7235D3F4F233A42E0340721F79A
:101880008091540390915503009711F488E593E0FB
:10189000F201E81BF90BCF010E94F807F801ED55A2
:1018A000FD4F108231961082319610828BE291E0CA
:1018B0000E946607F80165AD70E080E090E04AE0C4
:1018C0000E9486078AE391E00E946607FF24F39452
:1018D0008091CD019091CE01892B09F47BC081ECE0
:1018E00091E00E945302DC0114962C9114978FEF23
:1018F000820F833008F06BC09C919F3008F067C066
:101900001196EC911197EF3008F061C012963C915E
:1019100012973F3008F05BC013968C918F3008F01F
:1019200056C0931328C0E81709F451C06E2F70E019
:10193000A82FB0E0E81718F4AB01BD0101C0AD015C
:1019400030E0FDE29F9FC0011124641775070CF47D
:10195000BFCFFA01E80FF91FE00FF11FF08221302D
:10196000310519F44F5F5F4FF0CFF7862330310513
:10197000C9F7F68EF7CFE8132AC0492F50E0632F3E
:1019800070E0931718F4CA01AB0101C0CB0130E03D
:10199000B89EB001B99E700D11246E0F711DA0E0AC
:1019A000B0E0481759070CF493CFFD01E60FF71F7D
:1019B000E00FF11FF0822130310519F401969D9658
:1019C000F0CFF78623303105C9F7F68EF7CF0E94A6
:1019D00010087ECF1093C0010093BF018BE291E00D
:1019E0000E946607E091BF01F091C00165AD70E013
:1019F00080E090E04AE00E9486078AE391E00E943E
:101A0000660782E090E09093D0018093CF018091AF
:101A1000CF019091D001029709F026C38091BD01BA
:101A20009091BE0180970CF01FC300E010E03FE0F2
:101A3000A32E8CE391E00E947807E12CF12CA09E6C
:101A40006001A19ED00C11248CE391E00E947807E4
:101A5000812C912C8091BF019091C001B89CF00124
:101A6000B99CF00D1124EC0DFD1DE80FF91FEE0DD2
:101A7000FF1D608170E080E090E04AE00E948607F0
:101A80002FEF821A920A3FE08316910419F74FEF65
:101A9000E41AF40A5FE0E516F104B1F60F5F1F4F98
:101AA0000330110531F68CE391E00E9478078DE355
:101AB00091E00E9478070091BF011091C00184E479
:101AC00091E00E9478078091AF01682E712C90916F
:101AD000B001E92FF0E0C555DF4FF983E883CB5A19
:101AE000D0402091AE01622F70E0FFE08F9FC001D7
:101AF0001124AC01EDE22E9F400D511D1124C7555C
:101B0000DF4F59834883C95AD04020E030E043E09A
:101B1000641671040CF045C2C555DF4FE880F980AA
:101B2000CB5AD040C755DF4F48815981C95AD04060
:101B3000420F531F465A5F4F4301F2E08F1A91083C
:101B4000EFE0EE16F1040CF026C2DA01AE0DBF1D77
:101B5000A00FB11F6B018FE0C816D1040CF017C2A3
:101B6000FD01EA55F1098081F60132961F018130AD
:101B700009F009C28C91813031F008F459C08230EB
:101B800009F001C255C0BC9CB001BD9C700D112470
:101B90002FE0269DC001279D900D1124680F791F0D
:101BA000600F711FFB01EE0DFF1D22E0A22EA0822F
:101BB0004601FFEF8F1A9F0AB89CA001B99C500DF7
:101BC0001124480F591F400F511FFA01EE0DFF1D40
:101BD000A082B29C9001B39C300D1124280F391FB4
:101BE000200F311FF901EE0DFF1DA082D6011396C3
:101BF000BA9EF001BB9EF00D11248E0F9F1F080F9F
:101C0000191FF801EE0DFF1DA082C7010196FB010F
:101C1000E80FF91FA082FA01E80FF91FA082F9016D
:101C2000E80FF91FA082F801E80FF91FA0828DC00C
:101C3000C6010297C355DF4F99838883CD5AD040A0
:101C4000CD01845B9109FC018081813031F008F481
:101C500091C0823009F097C18DC0BC9CA001BD9C91
:101C6000500D11248FE0869D9001879D300D112429
:101C7000420F531F400F511FDA01AE0DBF1D92E0FE
:101C80009C934601F1E08F1A9108B89CD001B99C51
:101C9000B00D1124A20FB31FA00FB11FAE0DBF1DB9
:101CA0009C93C355DF4FE881F981CD5AD040BE9E49
:101CB000B001BF9E700D1124FB01E20FF31FE00F76
:101CC000F11FEE0DFF1D9083F6013397BE9EB0010C
:101CD000BF9E700D1124FB01E20FF31FE00FF11FF7
:101CE000EE0DFF1D9083B7016F5F7F4FFA01E60F86
:101CF000F71F9083F6013196BE9EA001BF9E500D46
:101D00001124FA01E20FF31FE00FF11FE60FF71F96
:101D10009083B29CF001B39CF00D1124E20FF31FED
:101D2000E00FF11FE60FF71F9083A6014D5F5F4F95
:101D3000B49EF001B59EF00D11242E0F3F1F200F11
:101D4000311FF901E60FF71F9083C092AE01609238
:101D5000AF01E092B00183E591E00E94780702E0D4
:101D600010E09301A701B401CE018B569F4F0E9452
:101D7000B20617C1FD01FC978081813031F008F473
:101D800058C0823009F0FFC054C0BC9CC001BD9C4B
:101D9000900D11244FE0469D9001479D300D112478
:101DA000820F931F800F911FFC01EE0DFF1DA2E01B
:101DB000A0834701FFEF8F1A9F0AFC01E80DF91D70
:101DC000A083B7016E5F7F4FFC01E60FF71FA08372
:101DD000A7014D5F5F4FFC01E40FF51FA083C60113
:101DE0000196B89EF001B99EF00D11242E0F3F1FF1
:101DF000020F131FF801EE0DFF1DA083F801E80D7F
:101E0000F91DA083F801E60FF71FA083F801E40F86
:101E1000F51FA083C092AE016092AF01E092B001C5
:101E200088E591E00E94780701E010E09301A401A9
:101E3000A8C0FD01E857F1098081813031F008F434
:101E400065C0823009F09FC061C0BC9CB001BD9CE0
:101E5000700D11243FE0369DC001379D900D112477
:101E6000FB01E80FF91FE00FF11FEE0DFF1D22E04F
:101E70002083F30131973E9FA0013F9F500D112415
:101E8000FB01E40FF51FE00FF11FEE0DFF1D208396
:101E9000389DF001399DF00D1124E60FF71FE00F7A
:101EA000F11FEE0DFF1D2083F30133973E9FA0012C
:101EB0003F9F500D1124FB01E40FF51FE00FF11FB0
:101EC000EE0DFF1D2083A6014F5F5F4FB49EF00112
:101ED000B59EF00D1124E80FF91FE00FF11FEE0D74
:101EE000FF1D2083218322832383C092AE01609251
:101EF000AF01E092B00188E591E00E947807A70168
:101F00004150510901E010E093013BC0BC9C90019D
:101F1000BD9C300D11244FE0469DC001479D900DA2
:101F20001124280F391F200F311FF901EE0DFF1D5D
:101F300062E06083A6014F5F5F4FB49EF001B59EE3
:101F4000F00D11248E0F9F1F080F191FF801EE0DC1
:101F5000FF1D6083F7013196D901AE0FBF1F6C934F
:101F6000E00FF11F6083C092AE016092AF01E0927A
:101F7000B0018CE591E00E94780700E010E0930149
:101F8000A701B601F1CE6101A65ABF4FE4CD92E0A0
:101F9000E90EF11CD5CDFFEF6F1A7F0A215F3F4F8D
:101FA000B6CDBE016B567F4F81EB91E00E946E0271
:101FB0006091AE0170E080E090E04AE00E94860708
:101FC00081E691E00E9466076091B00170E080E0D8
:101FD00090E04AE00E94860781E691E00E94660751
:101FE0006091AF0170E080E090E04AE00E948607D7
:101FF00084E691E00E947807C156DF4F888199817D
:10200000CF59D0400E94EE0783E791E00E94780705
:10201000C956DF4F88819981C759D0400E94EE0789
:102020008AE791E00E947807C756DF4F888199813F
:10203000C959D0400E94EE078DE791E00E947807D1
:10204000C556DF4F88819981CB59D0400E94EE0759
:1020500080E891E00E9478078CE391E00E94780785
:1020600081EB91E00E9453020E944F0105CB8091C9
:102070004103909142030C947E12E4EAF2E0138251
:10208000128288EE93E0A0E0B0E084839583A6837B
:10209000B7832FE031E03183208325EC30E03587B2
:1020A000248724EC30E03787268720EC30E0318B22
:1020B000208B21EC30E0338B228B22EC30E0358B0F
:1020C000248B26EC30E0378B268B118E128E138EEC
:1020D000148EE8E4F3E01382128284839583A6834E
:1020E000B7838FE191E091838083E1E4F3E0118293
:1020F0001082138212821582148240E050E06CE359
:1021000071E0CF010C94130997FB072E16F400948D
:1021100007D077FD09D00E94BA1007FC05D03EF425
:10212000909581959F4F0895709561957F4F089583
:10213000A1E21A2EAA1BBB1BFD010DC0AA1FBB1FCB
:10214000EE1FFF1FA217B307E407F50720F0A21B3D
:10215000B30BE40BF50B661F771F881F991F1A94AA
:1021600069F760957095809590959B01AC01BD01D4
:10217000CF010895AA1BBB1B51E107C0AA1FBB1FBB
:10218000A617B70710F0A61BB70B881F991F5A9503
:10219000A9F780959095BC01CD010895EE0FFF1F22
:1021A0000590F491E02D09940E94DB106894B11120
:1021B0000C94471408950E942C1488F09F5798F0AF
:1021C000B92F9927B751B0F0E1F0660F771F881F3C
:1021D000991F1AF0BA95C9F714C0B13091F00E9456
:1021E0004614B1E008950C944614672F782F882781
:1021F000B85F39F0B93FCCF3869577956795B3957D
:10220000D9F73EF490958095709561957F4F8F4FEB
:102210009F4F0895A0E0B0E0E0E1F1E10C9451148B
:10222000EC01009721F4CB010E94E911B8C0FC0138
:10223000E60FF71F9C0122503109E217F30708F45B
:10224000ACC0D9010D911C91119706171707B0F07A
:102250000530110508F49FC0C80104978617970739
:1022600008F499C002501109061B170B0193119332
:102270006D937C93CF010E947E128DC05B01A01AEA
:10228000B10A4C01800E911EA0915603B0915703E4
:1022900040E050E0E12CF12C109709F44AC0A81559
:1022A000B905D1F56D907C901197630182E0C80E5D
:1022B000D11CCA14DB0480F1A3014A195B096A012D
:1022C00082E0C80ED11C1296BC9012971396AC9166
:1022D000B5E0CB16D10440F0B282A3835183408392
:1022E000D9016D937C930AC00E5F1F4FC301800F0D
:1022F000911FF90191838083EB2DFA2FE114F104F2
:1023000031F0D7011396FC93EE93129744C0F093EB
:102310005703E09356033FC08D919C911197481746
:10232000590708F4AC017D0112960D90BC91A02DC7
:10233000B3CF809154039091550388159905E1F42A
:1023400046175707C8F48091050190910601009740
:1023500041F48DB79EB74091090150910A01841B49
:10236000950BE817F907C8F4F0935503E09354036D
:10237000F901718360830FC0CB010E94E9117C01D8
:10238000009759F0A801BE010E94D911CE010E9408
:102390007E12C70104C0CE0102C080E090E0CDB73C
:1023A000DEB7EEE00C946D1481E090E0F8940C94AC
:1023B0008414FB01DC0102C001900D924150504099
:1023C000D8F70895FB01DC0101900D920020E1F7A0
:1023D0000895CF93DF938230910510F482E090E06E
:1023E000E0915603F091570320E030E0C0E0D0E0E8
:1023F000309711F14081518148175907C0F04817B3
:10240000590761F482819381209719F09B838A8315
:102410002BC0909357038093560326C02115310596
:1024200019F04217530718F49A01BE01DF01EF01BA
:102430000280F381E02DDCCF2115310509F1281B45
:10244000390B2430310590F412968D919C9113979D
:102450006115710521F0FB019383828304C0909381
:10246000570380935603FD01329644C0FD01E20FED
:10247000F31F81939193225031092D933C933AC0DD
:102480002091540330915503232B41F420910701EF
:102490003091080130935503209354032091050196
:1024A000309106012115310541F42DB73EB7409119
:1024B000090150910A01241B350BE0915403F0915E
:1024C0005503E217F307A0F42E1B3F0B281739071B
:1024D00078F0AC014E5F5F4F2417350748F04E0F80
:1024E0005F1F50935503409354038193919302C00F
:1024F000E0E0F0E0CF01DF91CF9108950F931F93BB
:10250000CF93DF93009709F48CC0FC0132971382BC
:10251000128200915603109157030115110581F4A1
:1025200020813181820F931F2091540330915503F4
:102530002817390779F5F0935503E093540371C0D8
:10254000D80140E050E0AE17BF0750F412962D912D
:102550003C911397AD012115310509F1D901F3CF54
:102560009D01DA013383228360817181860F971F79
:102570008217930769F4EC0128813981260F371FF0
:102580002E5F3F4F318320838A819B819383828397
:10259000452B29F4F0935703E093560342C013965A
:1025A000FC93EE931297ED01499159919E01240FEE
:1025B000351FE217F30771F480819181840F951F15
:1025C000029611969C938E938281938113969C938D
:1025D0008E931297E0E0F0E0D80112968D919C91D5
:1025E0001397009719F0F8018C01F6CF8D919C910B
:1025F00098012E5F3F4F820F931F2091540330911B
:1026000055032817390769F4309729F410925703B6
:102610001092560302C01382128210935503009346
:102620005403DF91CF911F910F9108951F93FC01E7
:1026300099278827BC01E89411911032E9F31930E9
:1026400010F01E30C8F31B3251F01D3249F468946B
:1026500006C00E943D13610F711D811D911D1191D6
:1026600010531A30B0F33EF49095809570956195B3
:102670007F4F8F4F9F4F1F910895592F482F372F0E
:10268000262F660F771F881F991F660F771F881FD9
:10269000991F620F731F841F951F660F771F881F76
:1026A000991F0895E89409C097FB3EF49095809592
:1026B000709561957F4F8F4F9F4F9923A9F0F92F08
:1026C00096E9BB279395F695879577956795B79586
:1026D000F111F8CFFAF4BB0F11F460FF1BC06F5F6C
:1026E0007F4F8F4F9F4F16C0882311F096E911C07E
:1026F000772321F09EE8872F762F05C0662371F09F
:1027000096E8862F70E060E02AF09A95660F771FB2
:10271000881FDAF7880F9695879597F908950E9494
:10272000A2130C9413140E94051438F00E940C1488
:1027300020F0952311F00C94FC130C940214112436
:102740000C9447140E94241470F3959FC1F3950FC5
:1027500050E0551F629FF001729FBB27F00DB11D25
:10276000639FAA27F00DB11DAA1F649F6627B00DB5
:10277000A11D661F829F2227B00DA11D621F739F9E
:10278000B00DA11D621F839FA00D611D221F749FAC
:102790003327A00D611D231F849F600D211D822FF3
:1027A000762F6A2F11249F5750409AF0F1F088231A
:1027B0004AF0EE0FFF1FBB1F661F771F881F915047
:1027C0005040A9F79E3F510580F00C94FC130C94E7
:1027D00047145F3FE4F3983ED4F386957795679569
:1027E000B795F795E7959F5FC1F7FE2B880F911D71
:1027F0009695879597F9089597F99F6780E870E017
:1028000060E008959FEF80EC089500240A94161666
:10281000170618060906089500240A9412161306CE
:10282000140605060895092E0394000C11F488235C
:1028300052F0BB0F40F4BF2B11F460FF04C06F5F78
:102840007F4F8F4F9F4F089557FD9058440F551F4E
:1028500059F05F3F71F04795880F97FB991F61F022
:102860009F3F79F087950895121613061406551F99
:10287000F2CF4695F1DF08C0161617061806991F05
:10288000F1CF86957105610508940895E894BB27FA
:1028900066277727CB0197F908952F923F924F92A1
:1028A0005F926F927F928F929F92AF92BF92CF92E0
:1028B000DF92EF92FF920F931F93CF93DF93CDB7E9
:1028C000DEB7CA1BDB0B0FB6F894DEBF0FBECDBF61
:1028D00009942A88398848885F846E847D848C8432
:1028E0009B84AA84B984C884DF80EE80FD800C813B
:1028F0001B81AA81B981CE0FD11D0FB6F894DEBF1E
:102900000FBECDBFED01089510E0C2E6D0E004C0D7
:10291000FE010E94CE102196C336D107C9F7F89464
:02292000FFCFE7
:10292200AB01AB010100005803800000000000E68B
:10293200000207AF008D00A1002D01000000001C65
:1029420002EC01E501E201DF01DE01436F6F726417
:1029520028312C312C31293A20000D0A00426566BB
:102962006F726520476574496E737472756374691A
:102972006F6E004C423930004C42300053423930C5
:10298200002C20002070726F6772657373706F691C
:102992006E740020627269636B00207800207A00F6
:1029A2002079002042434F52004552524F52204557
:0E29B2004E434F554E54455245443A200000C6
:00000001FF
