:100000000C9463000C9415050C94EE040C948B0076
:100010000C948B000C948B000C948B000C948B0034
:100020000C948B000C948B000C948B000C948B0024
:100030000C948B000C948B000C948B000C948B0014
:100040000C94A4040C948B000C94DC020C94B60267
:100050000C948B000C948B000C948B000C948B00F4
:100060000C943C050C948B00000000002400270039
:100070002A0000000000250028002B0000000000DE
:1000800023002600290004040404040404040202DA
:100090000202020203030303030301020408102007
:1000A0004080010204081020010204081020000012
:1000B0000008000201000003040700000000000027
:1000C00000005D10571011241FBECFEFD8E0DEBF37
:1000D000CDBF12E0A0E0B1E0E2E6F9E202C0059097
:1000E0000D92A230B107D9F723E0A2E0B2E001C03F
:1000F0001D92A03CB207E1F710E0C2E6D0E004C0D8
:100100002197FE010E94EE10C136D107C9F70E9467
:1001100034090C94A4140C940000FC01918D828D80
:10012000981761F0828DDF01A80FB11D5D968C914B
:10013000928D9F5F9F73928F90E008958FEF9FEF56
:100140000895FC01918D828D981731F0828DE80F12
:10015000F11D858D90E008958FEF9FEF0895FC01CC
:10016000918D228D892F90E0805C9F4F821B910999
:100170008F73992708958CE093E00E94AF0021E0EF
:10018000892B09F420E0822F0895FC01848DDF0182
:10019000A80FB11DA35ABF4F2C91848D90E00196FA
:1001A0008F739927848FA689B7892C93A089B189E9
:1001B0008C9180648C93938D848D981306C00288F3
:1001C000F389E02D80818F7D80830895EF92FF92E7
:1001D0000F931F93CF93DF93EC0181E0888F9B8D6A
:1001E0008C8D981305C0E889F989808185FD24C02C
:1001F000F62E0B8D10E00F5F1F4F0F731127E02EAF
:100200008C8DE8120CC00FB607FCFACFE889F9898B
:10021000808185FFF5CFCE010E94C500F1CF8B8D87
:10022000FE01E80FF11DE35AFF4FF0820B8FEA89C0
:10023000FB898081806207C0EE89FF896083E8893D
:10024000F98980818064808381E090E0DF91CF91A3
:100250001F910F91FF90EF900895CF93DF93EC01E2
:10026000888D8823C9F0EA89FB89808185FD05C0D6
:10027000A889B9898C9186FD0FC00FB607FCF5CF10
:10028000808185FFF2CFA889B9898C9185FFEDCF58
:10029000CE010E94C500E7CFDF91CF91089580E0A5
:1002A00090E0892B29F00E94BB0081110C94000082
:1002B0000895833081F028F4813099F08230A1F0E4
:1002C00008958730A9F08830B9F08430D1F4809156
:1002D00080008F7D03C0809180008F7780938000A5
:1002E000089584B58F7702C084B58F7D84BD08954D
:1002F0008091B0008F7703C08091B0008F7D809394
:10030000B0000895CF93DF93282F30E0F901E25534
:10031000FF4F8491F901E656FF4FD491F901EA5756
:10032000FF4FC491CC2391F081110E945901EC2F11
:10033000F0E0EE0FFF1FE458FF4FA591B491EC9150
:10034000ED2381E090E021F480E002C080E090E0C5
:10035000DF91CF910895089585ED8093BC00809141
:10036000BC0084FDFCCF1092B4020895409160025D
:10037000262F30E0240F311D21323105DCF420918D
:10038000B4022430C9F4FC0180E090E0861758F4F0
:10039000309160022191DC01A25CBD4FA30FB11D21
:1003A0002C930196F3CF80916002680F60936002F6
:1003B00080E0089581E0089582E0089508958FEF28
:1003C0009FEF08958FEF9FEF089580913D0290E099
:1003D0009195819591090895CF92DF92EF92FF92C6
:1003E0000F931F93CF93DF937C01262F972F8A01C2
:1003F0008091D702882391F0C62FD72F6E01C40EAB
:10040000D51ECC15DD0571F06991D701ED91FC91F8
:100410000190F081E02DC7010995F3CF642F822F61
:100420000E94B601C801DF91CF911F910F91FF90FB
:10043000EF90DF90CF900895CF93DF931F92CDB7C9
:10044000DEB769832091D7022223D1F02091D50213
:10045000203240F021E030E0FC013383228380E051
:1004600090E015C08091D602E82FF0E0EB54FD4FEC
:10047000998190838F5F8093D6028093D50205C0C7
:1004800061E0CE0101960E94B60181E090E00F90FC
:10049000DF91CF910895DC01ED91FC9180819181F4
:1004A00008950E94F411CF93DF93FC01A081B181E4
:1004B000CD91DC91119712968D919C911397918318
:1004C0008083248535852150310935872487CD01E6
:1004D0000E949E12CE01DF91CF910895CF92DF92BC
:1004E000EF92FF920F931F93CF93DF9300D0CDB77E
:1004F000DEB76C0184E090E069837A830E94091280
:100500008C01D6011496ED90FC901597C7010E94BE
:100510000912F8019183808313821282A7016981F5
:100520007A810E94F911D6018D919C911197892BA6
:1005300019F40D931C9307C0D6011296ED91FC910E
:10054000139713830283F6011383028384859585B1
:100550000196958784870F900F90DF91CF911F911F
:100560000F91FF90EF90DF90CF9008951F920F9220
:100570000FB60F9211242F933F934F935F936F9376
:100580007F938F939F93AF93BF93EF93FF938CE0F1
:1005900093E00E94C500FF91EF91BF91AF919F91B1
:1005A0008F917F916F915F914F913F912F910F901C
:1005B0000FBE0F901F9018951F920F920FB60F92BB
:1005C00011242F938F939F93EF93FF93E0911C033C
:1005D000F0911D038081E0912203F091230382FDBD
:1005E00012C09081809125038F5F8F732091260325
:1005F000821751F0E0912503F0E0E45FFC4F958F06
:100600008093250301C08081FF91EF919F918F918D
:100610002F910F900FBE0F901F9018951F93CF939F
:10062000DF93282F30E0F901E255FF4F8491F90163
:10063000E656FF4FD491F901EA57FF4FC491CC23FE
:10064000C9F0162F81110E945901EC2FF0E0EE0F36
:10065000FF1FEE58FF4FA591B4918FB7F894111179
:1006600005C09C91ED2FE095E92302C0EC91ED2BA4
:10067000EC938FBFDF91CF911F9108950F931F933C
:10068000CF93DF938C01EB018130910581F08230B3
:100690009105E9F0892B39F51B861A868E819F8199
:1006A00061E00E940E038885998560E00AC09B87FF
:1006B0008A878E819F8160E00E940E0388859985DC
:1006C00061E0DF91CF911F910F910C940E038E8109
:1006D0009F8160E00E940E038885998560E00E94FA
:1006E0000E031B870A87DF91CF911F910F91089509
:1006F000CF93DF932FB7F89480918A0290918B0269
:10070000A0918C02B0918D022FBF809339029093FB
:100710003A02A0933B02B0933C02809104028823EA
:1007200009F473C0E0910A03F0910B03828593856D
:10073000009721F0019709F444C067C040815181BE
:10074000C0910202D0910302A885B9851196AA0F23
:10075000BB1FAC0FBD1F8D919C919C012250310994
:100760004217530784F08FEF90E00E948008609159
:100770000A0370910B0382E090E00E943E0381E047
:100780008093050242C0408151819C012852310969
:10079000421753074CF0EA5FF24019F488E790E003
:1007A0000CC08EE690E009C0208131818C529140CE
:1007B0002817390754F18CE890E0DF91CF910C9421
:1007C000800840815181C0910202D0910302A88526
:1007D000B9851196AA0FBB1FAC0FBD1F8D919C91BF
:1007E0009C012E5F3F4F241735070CF0BCCF408192
:1007F00051812A5D3F4F241735076CF620813181E6
:10080000845D9E4F82179307B4F6DF91CF910895D0
:1008100083E00E948201E0910A03F0910B03268598
:1008200037852817390719F197878687009719F0B8
:10083000019771F01AC084859585892B21F48081F8
:100840009181019603C0808191810197918380837A
:1008500084859585892B21F480819181019703C03E
:10086000808191810196918380830C94780308950F
:1008700082E00E948201E0910A03F0910B0324853B
:1008800035852817390719F195878487009719F05E
:10089000019771F01AC086859785892B21F4808194
:1008A0009181019703C0808191810196918380831A
:1008B00086859785892B21F480819181019603C0DB
:1008C000808191810197918380830C9478030895AE
:1008D000CF93DF9390E0FC01E656FF4F2491FC019B
:1008E000EA57FF4F8491882361F190E0880F991FA8
:1008F000FC01E859FF4FC591D491FC01EE58FF4F20
:10090000A591B491611109C09FB7F8948881209591
:1009100082238883EC912E230BC0623061F49FB751
:10092000F8943881822F809583238883EC912E2B35
:100930002C939FBF06C08FB7F894E8812E2B288395
:100940008FBFDF91CF9108951F920F920FB60F9234
:1009500011242F933F938F939F93AF93BF938091D5
:100960008A0290918B02A0918C02B0918D023091FD
:10097000890223E0230F2D3720F40196A11DB11D1C
:1009800005C026E8230F0296A11DB11D2093890200
:1009900080938A0290938B02A0938C02B0938D0275
:1009A0008091850290918602A0918702B091880281
:1009B0000196A11DB11D8093850290938602A0939C
:1009C0008702B0938802BF91AF919F918F913F9121
:1009D0002F910F900FBE0F901F9018951F920F929E
:1009E0000FB60F9211242F933F934F935F936F9302
:1009F0007F938F939F93AF93BF93EF93FF93E09178
:100A00000201F09103010995FF91EF91BF91AF9120
:100A10009F918F917F916F915F914F913F912F9116
:100A20000F900FBE0F901F9018951F920F920FB648
:100A30000F9211242F933F934F935F936F937F9364
:100A40008F939F93AF93BF93EF93FF93E091000138
:100A5000F09101010995FF91EF91BF91AF919F91A5
:100A60008F917F916F915F914F913F912F910F9057
:100A70000FBE0F901F9018951F920F920FB60F92F6
:100A800011242F933F934F935F936F937F938F9393
:100A90009F93AF93BF93EF93FF938091B900887FAB
:100AA000803609F49CC068F5883209F45BC090F484
:100AB000803109F454C038F4882309F4F6C0883032
:100AC00009F44DC0F6C0883109F44CC0803209F4F5
:100AD0005DC0EFC0803409F468C048F4803309F485
:100AE00055C0883309F0E5C08093B202D8C0803584
:100AF00009F44FC0883509F45DC0883409F0D9C0C5
:100B0000D6C0883909F4C7C0A8F4883709F467C08B
:100B100038F4883609F463C0803709F460C0C9C06E
:100B2000883809F4B8C0803909F45FC0803809F00A
:100B3000C0C05BC0803B09F486C038F4803A09F439
:100B400066C0883A09F47FC0B4C0803C09F4A7C0ED
:100B5000883C09F4A4C0883B09F48AC0AAC08091EB
:100B60008F0210C09091B1028091B002981770F579
:100B7000E091B10281E08E0F8093B102F0E0E05786
:100B8000FD4F80818093BB0085EC86C08093B202CC
:100B90008EC0E091B10281E08E0F8093B10280910E
:100BA000BB00F0E0E057FD4F80839091B10280914F
:100BB000B0026EC0E091B10281E08E0F8093B1026D
:100BC0008091BB00F0E0E057FD4F80838091B3023D
:100BD00081116DC081E080938E0284EA61C083E060
:100BE0008093B40210928402CFCF8091840280322D
:100BF00008F051C0E091840281E08E0F809384025E
:100C00008091BB00F0E0EC59FD4F8083BDCF85ECB7
:100C10008093BC001092B40280918402803230F440
:100C2000E0918402F0E0EC59FD4F10826091840263
:100C300070E0E0916202F091630284E692E009952F
:100C40001092840236C084E08093B4021092610254
:100C500010926002E0915E02F0915F02099580912E
:100C60006002811105C081E08093600210923E0213
:100C7000E091610281E08E0F80936102F0E0E25C1E
:100C8000FD4F80818093BB00909161028091600252
:100C9000981708F479CF85E88093BC000AC085ECEA
:100CA0008093BC001092B40204C01092B2020E9461
:100CB000AC01FF91EF91BF91AF919F918F917F9187
:100CC0006F915F914F913F912F910F900FBE0F90B9
:100CD0001F9018950E942D0760910A0370910B03D5
:100CE00081E090E00E943E032FB7F89480918A0241
:100CF00090918B02A0918C02B0918D022FBF8093B6
:100D0000390290933A02A0933B02B0933C028FB712
:100D1000F89440918A0250918B0260918C027091FC
:100D20008D028FBF8091390290913A02A0913B02CF
:100D3000B0913C0288539F4FAF4FBF4F8417950728
:100D4000A607B70720F760910A0370910B0382E0B2
:100D500090E00E943E03E0910A03F0910B031182A0
:100D600010820895AF92BF92CF92DF92EF92FF92DE
:100D70000F931F93CF93DF93EC015B016A0179011D
:100D8000CB010E94EE078BEB91E00E946607C60143
:100D90000E94EE0787EE91E00E947807B501BB0C38
:100DA000880B990B0E94741320E030E046E152E476
:100DB0000E94AF130E94F4107B836A83B601DD0C9E
:100DC000880B990B0E94741320E030E046E152E456
:100DD0000E94AF130E94F4107D836C83FF82EE8229
:100DE0001B870A871986188619821882CE01DF911F
:100DF000CF911F910F91FF90EF90DF90CF90BF9018
:100E0000AF900895CF92DF92EF92FF920F931F93CE
:100E1000CF93DF936C017A018B01C0E0D0E0CE1557
:100E2000DF0589F0D8016D918D01D601ED91FC911E
:100E30000190F081E02DC6010995892B11F47E0106
:100E400002C02196ECCFC701DF91CF911F910F9186
:100E5000FF90EF90DF90CF90089581309105A1F041
:100E60008230910501F1892B81F560E08CE00E94D0
:100E70000E0361E08BE00E940E0360E08AE00E94B6
:100E80000E038AEE92E01DC061E08CE00E940E032A
:100E900060E08BE00E940E0360E08AE00E940E0397
:100EA0008AED92E00EC060E08CE00E940E0360E0EC
:100EB0008BE00E940E0360E08AE00E940E038AEF3E
:100EC00092E090930B0380930A030895009769F0D2
:100ED000FC0101900020E9F73197AF01481B590B45
:100EE000BC018CE093E00C94020780E090E0089550
:100EF000CF93DF930E946607EC018AE391E00E94A2
:100F000066078C0F9D1FDF91CF9108958F929F925E
:100F1000AF92BF920F931F93CF93DF93CDB7DEB7FE
:100F2000A1970FB6F894DEBF0FBECDBF19A2423015
:100F300008F44AE08E010F5D1F4F842E912CA12CE6
:100F4000B12CA50194010E94B810E62FB901CA0185
:100F500001501109EA3014F4E05D01C0E95CD801E8
:100F6000EC93232B242B252B61F7C8010E946607E5
:100F7000A1960FB6F894DEBF0FBECDBFDF91CF9123
:100F80001F910F91BF90AF909F908F900895CF9237
:100F9000DF92EF92FF92CF93DF936B017C01E091A0
:100FA0000C03F0910D030190F081E02D6DE28CE0D7
:100FB00093E00995EC0166277727CB016C197D0931
:100FC0008E099F094AE00E9486078C0F9D1FDF91C2
:100FD000CF91FF90EF90DF90CF900895BC01990FD3
:100FE000880B990B97FD0C94C7074AE00C94860771
:100FF000CF93DF93BC01990F880B990B97FF03C028
:101000000E94C70703C04AE00E948607EC018AE3FA
:1010100091E00E9466078C0F9D1FDF91CF9108958C
:1010200081E08093D70280E28093AF031092D602D2
:101030001092D50262E180EB93E00E941C0261E015
:1010400080EB93E00E941C028DEE91E00E94660707
:1010500081E090E00E94F8079091D5028091AF0363
:10106000913208F046C02091B4022111FCCF22E059
:101070002093B40221E02093B3022FEF2093B20219
:101080001092B1029093B002A5EBB2E040E952E0B9
:10109000FA012E2F241B291718F42D912193F9CF33
:1010A00010928F0290918F02880F892B80938F026C
:1010B00080918E02813061F410928E0280918F02B5
:1010C0008093BB008091BC0083FDF8CF85EC01C00C
:1010D00085EE8093BC008091B4028230E1F3809170
:1010E000B2028F3F31F08091B202803211F08091D4
:1010F000B2021092D6021092D5021092D702089531
:10110000CF93DF93EC0161E089E00E9468042097AF
:1011100011F460E004C0CF3FD10531F461E089E013
:10112000DF91CF910C940E03E7EBF0E0E491E33014
:10113000F9F048F4E130B9F0E230A1F584B580620D
:1011400084BDC8BD34C0E730E9F0E83019F1E430BF
:1011500049F580918000806280938000D0938B005D
:10116000C0938A0024C084B5806884BDC7BD1FC0F9
:1011700080918000806880938000D0938900C09324
:10118000880015C08091B00080688093B000C09343
:10119000B3000DC08091B00080628093B000C09316
:1011A000B40005C0C038D1050CF0B8CFB2CFDF9184
:1011B000CF9108950F931F93CF93DF93EC01888114
:1011C0009981009729F02A813B812617370788F4F7
:1011D0008B016F5F7F4F0E942A11009761F0998306
:1011E00088831B830A832C813D81232B11F4FC010E
:1011F000108281E001C080E0DF91CF911F910F91BB
:101200000895CF93DF93EC0188819981009711F0C5
:101210000E949E12198218821D821C821B821A82D1
:10122000DF91CF910895EF92FF920F931F93CF9389
:10123000DF93EC017B018A01BA010E94DA08811177
:1012400004C0CE010E94010907C01D830C83B701B1
:10125000888199810E940212CE01DF91CF911F9166
:101260000F91FF90EF900895CF93DF93CDB7DEB746
:10127000CE5AD1090FB6F894DEBF0FBECDBF789419
:1012800084B5826084BD84B5816084BD85B582608B
:1012900085BD85B5816085BD80916E00816080933C
:1012A0006E001092810080918100826080938100A5
:1012B00080918100816080938100809180008160B5
:1012C000809380008091B10084608093B100809110
:1012D000B00081608093B00080917A008460809338
:1012E0007A0080917A00826080937A0080917A00FF
:1012F000816080937A0080917A00806880937A0080
:101300001092C10061E08AE00E94680461E08BE015
:101310000E94680461E08CE00E94680461E084E05F
:101320000E94680461E085E00E94680461E086E054
:101330000E94680461E087E00E94680461E088E040
:101340000E94680461E08DE00E94680461E089E029
:101350000E94680462E082E00E94680462E083E028
:101360000E94680488E394E0909301018093000157
:10137000809169008C7F816080936900E89A88E0A1
:1013800094E0909303018093020180916900837F30
:10139000846080936900E99AE0911C03F0911D0339
:1013A00082E08083E0911803F09119031082E091AC
:1013B0001A03F0911B038FEC808310922403E091B9
:1013C0002003F091210386E08083E0911E03F091D9
:1013D0001F03808180618083E0911E03F0911F03D1
:1013E000808188608083E0911E03F0911F038081DB
:1013F00080688083E0911E03F0911F0380818F7DC0
:10140000808310921A021092190210921C021092FC
:101410001B028CE090E090931E0280931D026EE60A
:1014200072E07093200260931F0223E532E0309354
:101430002202209321028BE492E090932402809375
:10144000230210922602109225021092140210928A
:1014500013021092160210921502109218021092A6
:10146000170210922A021092290210922C02109256
:101470002B0245E050E050932E0240932D027093D2
:10148000300260932F023093320220933102909306
:1014900034028093330210923602109235021EAA53
:1014A0001DAA2AE134E038AF2FAB1AAE19AE88E09E
:1014B00090E09CAF8BAF8DE090E09EAF8DAF82E06F
:1014C00090E021969FAF8EAF219723961FAE1EAE60
:1014D000239725961FAE1EAE259727961FAE1EAEEC
:1014E000279729963FAF2EAF29972B961FAE1EAE9A
:1014F0002B9766E070E02D967FAF6EAF2D9767E07B
:1015000070E02F967FAF6EAF2F9761969FAF8EAF33
:10151000619763961FAE1EAE639765961FAE1EAEB3
:10152000659767961FAE1EAE679769963FAF2EAF61
:1015300069976B961FAE1EAE6B9724E030E06D96F8
:101540003FAF2EAF6D976F965FAF4EAF6F97A1967F
:101550009FAF8EAFA197A3961FAE1EAEA397A59681
:101560001FAE1EAEA597CE018B599F4F20E1FE0105
:10157000EB5AFF4FDC0101900D922A95E1F720E133
:10158000FE01EB5BFF4FDE01AB58BF4F01900D92A8
:101590002A95E1F720E1FE01F596DE01AB57BF4F3A
:1015A00001900D922A95E1F71A82198220E1FC013F
:1015B000DE01139601900D922A95E1F720E1FE01DC
:1015C000EB58FF4FDE01539601900D922A95E1F7FB
:1015D00020E1FE01EB57FF4FDE01939601900D9243
:1015E0002A95E1F79CAB8BAB84E3FE013196A8ED25
:1015F000B2E001900D928A95E1F781E090E00E94BF
:101600002D0780910202909103020E949E12809108
:10161000250290912602892B21F481E08093040118
:1016200002C01092040189E192E00E94530290935B
:1016300003028093020284EB90E00E94800880E025
:1016400090E00E946A0684EB90E00E94800882E0AD
:1016500090E00E946A0684EB90E00E94800881E09E
:1016600090E00E946A0611E0109304028FEF90E070
:101670000E948008109305022E0121EA420E511C9F
:101680002DE2B22E8091370290913802892B09F019
:10169000D3C08CE093E00E94AF00892B09F492C084
:1016A0008CE093E00E94A1008B3609F45DC08CE0D1
:1016B00093E00E948D00182FF20111821082138294
:1016C0001282158214826091A9037091AA03611598
:1016D000710541F04091AD035091AE03C2010E94EB
:1016E000130903C0C2010E940109C955DF4F1883C5
:1016F000C75AD040C855DF4F1882C85AD040F201AF
:10170000048115810F5F1F4FB801C2010E94DA08E2
:10171000882381F0F2012081318184819581BE018D
:1017200069557F4F820F931F0E940212F2011583A9
:10173000048303C0C2010E940109F201608171812A
:101740006115710539F04481558189EA93E00E9461
:10175000130904C089EA93E00E940109F201808123
:1017600091810E949E122EC08CE093E00E948D0019
:1017700080911002909111029C012F5F3F4F309396
:1017800011022093100265E070E00E94A4108C0109
:101790008091A9039091AA03009719F00E94361333
:1017A00001C060E0000F111FF801EA5FFD4F70E01B
:1017B0007183608340E050E06CE371E089EA93E07C
:1017C0000E9413092091100230911102C90165E0B5
:1017D00070E00E94A410892BF9F4232BE9F085E036
:1017E00090E00E940912FC018091060280838091A2
:1017F0000802818380910A02828380910C02838394
:1018000080910E028483BF0189E292E00E946E0201
:1018100010921102109210028CE093E00E94A1003D
:10182000853651F48CE093E00E948D0021E030E099
:10183000309338022093370280913702909138021A
:10184000019709F0E7C089EA92E00E9409128C0131
:1018500020E030E080E090E040E050E0BC01620F2A
:10186000731FFA01E60FF71FE00FF11F10824F5FA1
:101870005F4F4F305105A9F70F968D32910561F7F3
:10188000235D3F4F233A62E0360721F78091BC0386
:101890009091BD03009711F480EC93E0F201E81BF6
:1018A000F90BCF010E94F807F801ED55FD4F1182A9
:1018B00010823296118210823296118210828BE24F
:1018C00091E00E946607F80165AD70E080E090E06D
:1018D0004AE00E9486078AE391E00E946607FF249F
:1018E000F3948091350290913602892B09F475C0EA
:1018F00089E292E00E945302FC0124818FEF820F63
:10190000833008F067C090819F3008F063C0718118
:101910007F3008F05FC032813F3008F05BC08381C8
:101920008F3008F057C0931328C0781709F452C0BD
:10193000E72FF0E0A82FB0E0781718F4AF01BD0151
:1019400002C0AD01BF0130E0FDE29F9FC001112444
:101950006417750734F2FA01E80FF91FE00FF11F61
:10196000F0822130310519F44F5F5F4FF1CFF786D8
:1019700023303105C9F7F68EF7CF78132BC0492FE6
:1019800050E0E32FF0E0931718F4CA01AF0101C053
:10199000CF0130E0B89ED001B99EB00D1124A70F41
:1019A000B11D60E070E0481759070CF49ACFFB01B5
:1019B000EA0FFB1FE00FF11FF0822130310521F407
:1019C0000196635D7F4FEFCFF78623303105C1F776
:1019D000F68EF6CF0E94100884CF10932802009351
:1019E00027028BE291E00E946607E0912702F091C6
:1019F000280265AD70E080E090E04AE00E94860732
:101A00008AE391E00E94660782E090E090933802BA
:101A1000809337028091370290913802029709F043
:101A200043C3809125029091260249970CF03CC354
:101A300000E010E08FE0A82E8CE391E00E94780790
:101A4000E12CF12CA09E6001A19ED00C11248CE30E
:101A500091E00E947807812C912C8091270290912F
:101A60002802B89CF001B99CF00D1124EC0DFD1D6D
:101A7000E80FF91FEE0DFF1D608170E080E090E03F
:101A80004AE00E9486072FEF821A920A3FE08316EF
:101A9000910419F76FEFE61AF60A7FE0E716F104F2
:101AA000B1F60F5F1F4F0330110531F68CE391E063
:101AB0000E9478078DE391E00E9478070091270249
:101AC0001091280284E491E00E947807A09015020A
:101AD00082E08A150CF46CC26A2C0A2C000C770880
:101AE000C3010E94EE0781E691E00E9478078A2DEB
:101AF000817031F41092120288E691E00E9478071A
:101B0000E0901702F09018029A2DEFE09E02C001BB
:101B10001124C355DF4F99838883CD5AD0407FE08D
:101B2000E716F1040CF03AC2C0901302D0901402F0
:101B3000BC9CA001BD9C500D1124C355DF4F2881D2
:101B40003981CD5AD040420F531F4E0D5F1D80E0AA
:101B500090E0B7016E5F7F4FC755DF4F7983688391
:101B6000C95AD040F7013297C555DF4FF983E88352
:101B7000CB5AD0403FE0C316D1040CF007C2D0923C
:101B80001402C09213027092160260921502F09233
:101B90001802E0921702FC01E40FF51FE00FF11F9D
:101BA0002081213009F0EDC1160122E0220E311C06
:101BB000DF01A65ABF4F2C91213009F06BC03CE0E9
:101BC000C316D10408F066C0A7FC64C0F7FC62C06D
:101BD0006EE0E616F10409F45DC0BC9CF001BD9C0A
:101BE000F00D11242FE0269DC001279D900D11249A
:101BF000E80FF91FE00FF11FDF01AE0DBF1D62E01E
:101C00006C9346017FEF871A970AB89CA001B99C94
:101C1000500D1124480F591F400F511FDA01AE0D0E
:101C2000BF1D6C93B29C9001B39C300D1124280F02
:101C3000391F200F311FD901AE0DBF1D6C9373E00A
:101C4000C70ED11CBC9CD001BD9CB00D11248A0FC5
:101C50009B1F080F191FD801AE0DBF1D6C93D70134
:101C60001196EA0FFB1F6083FA01EA0FFB1F6083E6
:101C7000F901EA0FFB1F6083F801EA0FFB1F608385
:101C800087E791E00E94780702E010E09301A70146
:101C9000B4019AC1160122E0221A3108DF01AA55C7
:101CA000B1092C91213009F066C0460133E0831A56
:101CB00091086CE08616910408F05DC0A7FC5BC03B
:101CC0001E141F040CF057C0BC9CA001BD9C500DFD
:101CD00011242FE0269DC001279D900D1124480F4F
:101CE000591F400F511FFA01EE0DFF1DA2E0A08306
:101CF00071E0C71AD108BC9CB001BD9C700D1124C5
:101D0000680F791F600F711FFB01EE0DFF1DA0838F
:101D1000B29C9001B39C300D1124280F391F200F65
:101D2000311FF901EE0DFF1DA083B89CF001B99C95
:101D3000F00D11248E0F9F1F080F191FF801EE0DD3
:101D4000FF1DA083C7010196FA01E80FF91FA083C8
:101D5000FB01E80FF91FA083F901E80FF91FA08329
:101D6000F801E80FF91FA08386E791E00E94780749
:101D700002E010E002C1628196012F5F3F4F6130A7
:101D800009F059C06EE0C616D10408F054C0A7FC93
:101D900052C07CE0E716F10408F04DC0BC9CC001C5
:101DA000BD9C900D11246FE0669DA001679D500DB4
:101DB0001124840F951F800F911FFC01EE0DFF1D54
:101DC000A2E0A0834701EFEF8E1A9E0AFC01E80D06
:101DD000F91DA083C755DF4FE881F981C95AD0406A
:101DE000E80FF91FA083B7016D5F7F4FFC01E60F7D
:101DF000F71FA083B29EC001B39E900D1124480F1F
:101E0000591F400F511FFA01EE0DFF1DA083FA016B
:101E1000E80DF91DA083C755DF4FE881F981C95A44
:101E2000D040E40FF51FA083FA01E60FF71FA0834F
:101E30008CE891E05DC032976081613009F05FC04D
:101E4000FEE0CF16D10408F05AC0A7FC58C06CE0E1
:101E5000E616F10408F053C0BC9CC001BD9C900D77
:101E600011246FE0669DA001679D500D1124840F21
:101E7000951F800F911FFC01EE0DFF1DA2E0A083B6
:101E8000470171E0871A9108FC01E80DF91DA08354
:101E9000C555DF4FE881F981CB5AD040E80FF91FD3
:101EA000A083B70163507109FC01E60FF71FA083FF
:101EB000B29EC001B39E900D1124480F591F400FD0
:101EC000511FFA01EE0DFF1DA083FA01E80DF91D67
:101ED000A083C555DF4FE881F981CB5AD040E40F8C
:101EE000F51FA083FA01E60FF71FA0838BE891E0AE
:101EF0000E94780701E010E09301A40140C0EEE0E9
:101F0000CE16D104F0F5A7FC3CC0F7FC3AC0FEE0C9
:101F1000EF16F104B1F1BC9CC001BD9C900D1124E1
:101F20006FE0669DA001679D500D1124840F951FE1
:101F3000800F911FFC01EE0DFF1DA2E0A083B29E59
:101F4000B001B39E700D1124460F571F040F151FCB
:101F5000F801EE0DFF1DA083B7016F5F7F4FFC01FD
:101F6000E60FF71FA083F801E60FF71FA0838EE9A5
:101F700091E00E94780700E010E09301A701B6010C
:101F800023C02FEFC21AD20A8D96F4CD10921402FC
:101F9000109213026FEFE61AF60AC1CD7092160284
:101FA000609215021092180210921702A39490CD1D
:101FB00083EA91E00E94780703E010E020E030E03F
:101FC00040E050E060E070E0CE018B569F4F0E94F1
:101FD000B206BE016B567F4F89E192E00E946E020D
:101FE00080911302909114020E94EE078BEB91E016
:101FF0000E94660780911702909118020E94EE07D6
:102000008BEB91E00E946607809115029091160279
:102010000E94EE078EEB91E00E947807C156DF4FD9
:1020200088819981CF59D0400E94EE078DEC91E0D4
:102030000E947807C956DF4F88819981C759D040DF
:102040000E94EE0784ED91E00E947807C756DF4FAB
:1020500088819981C959D0400E94EE0787ED91E0AF
:102060000E947807C556DF4F88819981CB59D040AF
:102070000E94EE078AED91E00E9478078DED91E0D5
:102080000E9466078091BC039091BD03009711F4F4
:1020900080EC93E0F201E81BF90BCF010E94F807F6
:1020A0008CE391E00E9478070E944F01EBCA809177
:1020B000A9039091AA030C949E12ECE0F3E0138222
:1020C000128288EE93E0A0E0B0E084839583A6833B
:1020D000B7832FE031E03183208325EC30E0358772
:1020E000248724EC30E03787268720EC30E0318BE2
:1020F000208B21EC30E0338B228B22EC30E0358BCF
:10210000248B26EC30E0378B268B118E128E138EAB
:10211000148EE0EBF3E01382128284839583A6830E
:10212000B7838FE191E091838083E9EAF3E0118244
:102130001082138212821582148240E050E06CE318
:1021400071E0CF010C94130997FB072E16F400944D
:1021500007D077FD09D00E94DA1007FC05D03EF4C5
:10216000909581959F4F0895709561957F4F089543
:10217000A1E21A2EAA1BBB1BFD010DC0AA1FBB1F8B
:10218000EE1FFF1FA217B307E407F50720F0A21BFD
:10219000B30BE40BF50B661F771F881F991F1A946A
:1021A00069F760957095809590959B01AC01BD0194
:1021B000CF010895AA1BBB1B51E107C0AA1FBB1F7B
:1021C000A617B70710F0A61BB70B881F991F5A95C3
:1021D000A9F780959095BC01CD010895EE0FFF1FE2
:1021E0000590F491E02D09940E94FB106894B111C0
:1021F0000C94671408950E944C1488F09F5798F02F
:10220000B92F9927B751B0F0E1F0660F771F881FFB
:10221000991F1AF0BA95C9F714C0B13091F00E9415
:102220006614B1E008950C946614672F782F882700
:10223000B85F39F0B93FCCF3869577956795B3953C
:10224000D9F73EF490958095709561957F4F8F4FAB
:102250009F4F0895A0E0B0E0E0E3F1E10C94711429
:10226000EC01009721F4CB010E940912B8C0FC01D7
:10227000E60FF71F9C0122503109E217F30708F41B
:10228000ACC0D9010D911C91119706171707B0F03A
:102290000530110508F49FC0C801049786179707F9
:1022A00008F499C002501109061B170B01931193F2
:1022B0006D937C93CF010E949E128DC05B01A01A8A
:1022C000B10A4C01800E911EA091BE03B091BF03D4
:1022D00040E050E0E12CF12C109709F44AC0A81519
:1022E000B905D1F56D907C901197630182E0C80E1D
:1022F000D11CCA14DB0480F1A3014A195B096A01ED
:1023000082E0C80ED11C1296BC9012971396AC9125
:10231000B5E0CB16D10440F0B282A3835183408351
:10232000D9016D937C930AC00E5F1F4FC301800FCC
:10233000911FF90191838083EB2DFA2FE114F104B1
:1023400031F0D7011396FC93EE93129744C0F093AB
:10235000BF03E093BE033FC08D919C911197481736
:10236000590708F4AC017D0112960D90BC91A02D87
:10237000B3CF8091BC039091BD0388159905E1F41A
:1023800046175707C8F48091050190910601009700
:1023900041F48DB79EB74091090150910A01841B09
:1023A000950BE817F907C8F4F093BD03E093BC035D
:1023B000F901718360830FC0CB010E9409127C0177
:1023C000009759F0A801BE010E94F911CE010E94A8
:1023D0009E12C70104C0CE0102C080E090E0CDB7DC
:1023E000DEB7EEE00C948D1481E090E0F8940C944C
:1023F000A414FB01DC0102C001900D924150504039
:10240000D8F70895FB01DC0101900D920020E1F75F
:102410000895CF93DF938230910510F482E090E02D
:10242000E091BE03F091BF0320E030E0C0E0D0E0D7
:10243000309711F14081518148175907C0F0481772
:10244000590761F482819381209719F09B838A83D5
:102450002BC09093BF038093BE0326C02115310586
:1024600019F04217530718F49A01BE01DF01EF017A
:102470000280F381E02DDCCF2115310509F1281B05
:10248000390B2430310590F412968D919C9113975D
:102490006115710521F0FB019383828304C0909341
:1024A000BF038093BE03FD01329644C0FD01E20FDD
:1024B000F31F81939193225031092D933C933AC09D
:1024C0002091BC033091BD03232B41F420910701DF
:1024D000309108013093BD032093BC032091050186
:1024E000309106012115310541F42DB73EB74091D9
:1024F000090150910A01241B350BE091BC03F091B6
:10250000BD03E217F307A0F42E1B3F0B2817390772
:1025100078F0AC014E5F5F4F2417350748F04E0F3F
:102520005F1F5093BD034093BC038193919302C0FE
:10253000E0E0F0E0CF01DF91CF9108950F931F937A
:10254000CF93DF93009709F48CC0FC01329713827C
:1025500012820091BE031091BF030115110581F491
:1025600020813181820F931F2091BC033091BD03E4
:102570002817390779F5F093BD03E093BC0371C0C8
:10258000D80140E050E0AE17BF0750F412962D91ED
:102590003C911397AD012115310509F1D901F3CF14
:1025A0009D01DA013383228360817181860F971F39
:1025B0008217930769F4EC0128813981260F371FB0
:1025C0002E5F3F4F318320838A819B819383828357
:1025D000452B29F4F093BF03E093BE0342C013964A
:1025E000FC93EE931297ED01499159919E01240FAE
:1025F000351FE217F30771F480819181840F951FD5
:10260000029611969C938E938281938113969C934C
:102610008E931297E0E0F0E0D80112968D919C9194
:102620001397009719F0F8018C01F6CF8D919C91CA
:1026300098012E5F3F4F820F931F2091BC03309172
:10264000BD032817390769F4309729F41092BF03A6
:102650001092BE0302C0138212821093BD03009336
:10266000BC03DF91CF911F910F9108951F93FC013F
:1026700099278827BC01E89411911032E9F31930A9
:1026800010F01E30C8F31B3251F01D3249F468942B
:1026900006C00E945D13610F711D811D911D119176
:1026A00010531A30B0F33EF4909580957095619573
:1026B0007F4F8F4F9F4F1F910895592F482F372FCE
:1026C000262F660F771F881F991F660F771F881F99
:1026D000991F620F731F841F951F660F771F881F36
:1026E000991F0895E89409C097FB3EF49095809552
:1026F000709561957F4F8F4F9F4F9923A9F0F92FC8
:1027000096E9BB279395F695879577956795B79545
:10271000F111F8CFFAF4BB0F11F460FF1BC06F5F2B
:102720007F4F8F4F9F4F16C0882311F096E911C03D
:10273000772321F09EE8872F762F05C0662371F05E
:1027400096E8862F70E060E02AF09A95660F771F72
:10275000881FDAF7880F9695879597F908950E9454
:10276000C2130C9433140E94251438F00E942C14C8
:1027700020F0952311F00C941C140C9422141124B5
:102780000C9467140E94441470F3959FC1F3950F45
:1027900050E0551F629FF001729FBB27F00DB11DE5
:1027A000639FAA27F00DB11DAA1F649F6627B00D75
:1027B000A11D661F829F2227B00DA11D621F739F5E
:1027C000B00DA11D621F839FA00D611D221F749F6C
:1027D0003327A00D611D231F849F600D211D822FB3
:1027E000762F6A2F11249F5750409AF0F1F08823DA
:1027F0004AF0EE0FFF1FBB1F661F771F881F915007
:102800005040A9F79E3F510580F00C941C140C9485
:1028100067145F3FE4F3983ED4F386957795679508
:10282000B795F795E7959F5FC1F7FE2B880F911D30
:102830009695879597F9089597F99F6780E870E0D6
:1028400060E008959FEF80EC089500240A94161626
:10285000170618060906089500240A94121613068E
:10286000140605060895092E0394000C11F488231C
:1028700052F0BB0F40F4BF2B11F460FF04C06F5F38
:102880007F4F8F4F9F4F089557FD9058440F551F0E
:1028900059F05F3F71F04795880F97FB991F61F0E2
:1028A0009F3F79F087950895121613061406551F59
:1028B000F2CF4695F1DF08C0161617061806991FC5
:1028C000F1CF86957105610508940895E894BB27BA
:1028D00066277727CB0197F908952F923F924F9261
:1028E0005F926F927F928F929F92AF92BF92CF92A0
:1028F000DF92EF92FF920F931F93CF93DF93CDB7A9
:10290000DEB7CA1BDB0B0FB6F894DEBF0FBECDBF20
:1029100009942A88398848885F846E847D848C84F1
:102920009B84AA84B984C884DF80EE80FD800C81FA
:102930001B81AA81B981CE0FD11D0FB6F894DEBFDD
:102940000FBECDBFED01089510E0C2E6D0E004C097
:10295000FE010E94EE102196C336D107C9F7F89404
:02296000FFCFA7
:10296200AB01AB01010000C003800000000000E6E3
:10297200000207AF008D00A1002D01000000001C25
:1029820002EC01E501E201DF01DE01436F6F7264D7
:1029920028312C312C31293A20000D0A004265667B
:1029A2006F726520476574496E73747275637469DA
:1029B2006F6E00736B6970436173653D3D74727530
:1029C2000020796178697300636865636B657220C2
:1029D2007265736574002D4C423930002D6C62397A
:1029E2003020736B697063617365002D4C42300057
:1029F2002D6C623020736B697063617365005342A2
:102A02003930004E6F20696E737472756374696F2A
:102A12006E20637265617465642E002C2000207044
:102A2200726F6772657373706F696E740020627281
:102A320069636B00207800207A0020790052414DB2
:102A4200465245453A20002042434F5200455252D9
:102A52004F5220454E434F554E54455245443A201D
:022A6200000072
:00000001FF
