:100000000C9463000C944A040C9423040C948B000D
:100010000C948B000C948B000C948B000C948B0034
:100020000C948B000C948B000C948B000C948B0024
:100030000C948B000C948B000C948B000C948B0014
:100040000C94D9030C948B000C9401030C94DB02E8
:100050000C948B000C948B000C948B000C948B00F4
:100060000C9471040C948B00000000002400270005
:100070002A0000000000250028002B0000000000DE
:1000800023002600290004040404040404040202DA
:100090000202020203030303030301020408102007
:1000A0004080010204081020010204081020000012
:1000B0000008000201000003040700000000000027
:1000C0000000EC10E61011241FBECFEFD8E0DEBF19
:1000D000CDBF11E0A0E0B1E0E0E8FAE202C0059097
:1000E0000D92A036B107D9F723E0A0E6B1E001C038
:1000F0001D92AD31B207E1F710E0C2E6D0E004C0D6
:100100002197FE010E947D11C136D107C9F70E94D7
:100110004A090C9433150C940000FC01918D828DDA
:10012000981761F0828DDF01A80FB11D5D968C914B
:10013000928D9F5F9F73928F90E008958FEF9FEF56
:100140000895FC01918D828D981731F0828DE80F12
:10015000F11D858D90E008958FEF9FEF0895FC01CC
:10016000918D228D892F90E0805C9F4F821B910999
:100170008F739927089589E692E00E94AF0021E0ED
:10018000892B09F420E0822F0895FC01848DDF0182
:10019000A80FB11DA35ABF4F2C91848D90E00196FA
:1001A0008F739927848FA689B7892C93A089B189E9
:1001B0008C9180648C93938D848D981306C00288F3
:1001C000F389E02D80818F7D80830895EF92FF92E7
:1001D0000F931F93CF93DF93EC0181E0888F9B8D6A
:1001E0008C8D981305C0E889F989808185FD24C02C
:1001F000F62E0B8D10E00F5F1F4F0F731127E02EAF
:100200008C8DE8120CC00FB607FCFACFE889F9898B
:10021000808185FFF5CFCE010E94C500F1CF8B8D87
:10022000FE01E80FF11DE35AFF4FF0820B8FEA89C0
:10023000FB898081806207C0EE89FF896083E8893D
:10024000F98980818064808381E090E0DF91CF91A3
:100250001F910F91FF90EF900895CF93DF93EC01E2
:10026000888D8823C9F0EA89FB89808185FD05C0D6
:10027000A889B9898C9186FD0FC00FB607FCF5CF10
:10028000808185FFF2CFA889B9898C9185FFEDCF58
:10029000CE010E94C500E7CFDF91CF91089580E0A5
:1002A00090E0892B29F00E94BB0081110C94000082
:1002B0000895833081F028F4813099F08230A1F0E4
:1002C00008958730A9F08830B9F08430D1F4809156
:1002D00080008F7D03C0809180008F7780938000A5
:1002E000089584B58F7702C084B58F7D84BD08954D
:1002F0008091B0008F7703C08091B0008F7D809394
:10030000B0000895CF93DF93282F30E0F901E25534
:10031000FF4F8491F901E656FF4FD491F901EA5756
:10032000FF4FC491CC2391F081110E945901EC2F11
:10033000F0E0EE0FFF1FE458FF4FA591B491EC9150
:10034000ED2381E090E021F480E002C080E090E0C5
:10035000DF91CF9108953FB7F8948091E701909194
:10036000E801A091E901B091EA0126B5A89B05C07A
:100370002F3F19F00196A11DB11D3FBFBA2FA92F24
:10038000982F8827820F911DA11DB11DBC01CD01A1
:1003900042E0660F771F881F991F4A95D1F708958D
:1003A000089585ED8093BC008091BC0084FDFCCF56
:1003B0001092110208954091BD01262F30E0240FC4
:1003C000311D21323105DCF4209111022430C9F4B1
:1003D000FC0180E090E0861758F43091BD01219136
:1003E000DC01A556BE4FA30FB11D2C930196F3CF90
:1003F0008091BD01680F6093BD0180E0089581E0A8
:10040000089582E0089508958FEF9FEF08958FEF8C
:100410009FEF089580919A0190E0919581959109BF
:100420000895CF92DF92EF92FF920F931F93CF9395
:10043000DF937C01262F972F8A0180913402882335
:1004400091F0C62FD72F6E01C40ED51ECC15DD0539
:1004500071F06991D701ED91FC910190F081E02D4F
:10046000C7010995F3CF642F822F0E94DB01C801D9
:10047000DF91CF911F910F91FF90EF90DF90CF9080
:100480000895CF93DF931F92CDB7DEB76983209194
:1004900034022223D1F020913202203240F021E0B8
:1004A00030E0FC013383228380E090E015C080912E
:1004B0003302E82FF0E0EE5EFD4F998190838F5F6D
:1004C000809333028093320205C061E0CE01019631
:1004D0000E94DB0181E090E00F90DF91CF910895C1
:1004E000DC01ED91FC918081918108950E9483123D
:1004F000CF93DF93FC01A081B181CD91DC91119765
:1005000012968D919C9113979183808324853585D4
:100510002150310935872487CD010E942D13CE014A
:10052000DF91CF910895CF92DF92EF92FF920F93D8
:100530001F93CF93DF9300D0CDB7DEB76C0184E07B
:1005400090E069837A830E9498128C01D6011496F8
:10055000ED90FC901597C7010E949812F8019183C5
:10056000808313821282A70169817A810E94881296
:10057000D6018D919C911197892B19F40D931C93A1
:1005800007C0D6011296ED91FC9113971383028355
:10059000F601138302838485958501969587848768
:1005A0000F900F90DF91CF911F910F91FF90EF90DF
:1005B000DF90CF9008951F920F920FB60F921124E3
:1005C0002F933F934F935F936F937F938F939F935B
:1005D000AF93BF93EF93FF9389E692E00E94C5002B
:1005E000FF91EF91BF91AF919F918F917F916F910B
:1005F0005F914F913F912F910F900FBE0F901F90E1
:1006000018951F920F920FB60F9211242F938F936C
:100610009F93EF93FF93E0917902F0917A028081AA
:10062000E0917F02F091800282FD12C09081809162
:1006300082028F5F8F7320918302821751F0E091C5
:100640008202F0E0E759FD4F958F8093820201C04E
:100650008081FF91EF919F918F912F910F900FBE0D
:100660000F901F9018951F93CF93DF93282F30E0A2
:10067000F901E255FF4F8491F901E656FF4FD491FD
:10068000F901EA57FF4FC491CC23C9F0162F81110D
:100690000E945901EC2FF0E0EE0FFF1FEE58FF4FC4
:1006A000A591B4918FB7F894111105C09C91ED2FCD
:1006B000E095E92302C0EC91ED2BEC938FBFDF9125
:1006C000CF911F910895CF93DF9390E0FC01E65600
:1006D000FF4F2491FC01EA57FF4F8491882361F179
:1006E00090E0880F991FFC01E859FF4FC591D49104
:1006F000FC01EE58FF4FA591B491611109C09FB75D
:10070000F8948881209582238883EC912E230BC056
:10071000623061F49FB7F8943881822F80958323EB
:100720008883EC912E2B2C939FBF06C08FB7F89433
:10073000E8812E2B28838FBFDF91CF9108958F9270
:100740009F92AF92BF92CF92DF92EF92FF926B0196
:100750007C010E94AB014B015C01C114D104E10496
:10076000F104F1F00E94AB01DC01CB018819990979
:10077000AA09BB09883E9340A105B10570F321E0A9
:10078000C21AD108E108F10888EE880E83E0981EAD
:10079000A11CB11CC114D104E104F10419F7DDCF8F
:1007A000FF90EF90DF90CF90BF90AF909F908F9091
:1007B00008951F920F920FB60F9211242F933F931B
:1007C0008F939F93AF93BF938091E3019091E40146
:1007D000A091E501B091E6013091E20123E0230F01
:1007E0002D3720F40196A11DB11D05C026E8230F69
:1007F0000296A11DB11D2093E2018093E301909325
:10080000E401A093E501B093E6018091E7019091A6
:10081000E801A091E901B091EA010196A11DB11D85
:100820008093E7019093E801A093E901B093EA0176
:10083000BF91AF919F918F913F912F910F900FBEDC
:100840000F901F9018951F920F920FB60F921124C0
:100850002F933F934F935F936F937F938F939F93C8
:10086000AF93BF93EF93FF93E0910201F0910301E7
:100870000995FF91EF91BF91AF919F918F917F91DA
:100880006F915F914F913F912F910F900FBE0F90FD
:100890001F9018951F920F920FB60F9211242F934D
:1008A0003F934F935F936F937F938F939F93AF93F8
:1008B000BF93EF93FF93E0910001F091010109953F
:1008C000FF91EF91BF91AF919F918F917F916F9128
:1008D0005F914F913F912F910F900FBE0F901F90FE
:1008E00018951F920F920FB60F9211242F933F93DA
:1008F0004F935F936F937F938F939F93AF93BF9328
:10090000EF93FF938091B900887F803609F49CC0F3
:1009100068F5883209F45BC090F4803109F454C062
:1009200038F4882309F4F6C0883009F44DC0F6C0C5
:10093000883109F44CC0803209F45DC0EFC08034C6
:1009400009F468C048F4803309F455C0883309F0CD
:10095000E5C080930F02D8C0803509F44FC08835B8
:1009600009F45DC0883409F0D9C0D6C0883909F4CB
:10097000C7C0A8F4883709F467C038F4883609F48A
:1009800063C0803709F460C0C9C0883809F4B8C0B2
:10099000803909F45FC0803809F0C0C05BC0803B7B
:1009A00009F486C038F4803A09F466C0883A09F43C
:1009B0007FC0B4C0803C09F4A7C0883C09F4A4C03F
:1009C000883B09F48AC0AAC08091EC0110C09091C4
:1009D0000E0280910D02981770F5E0910E0281E0F1
:1009E0008E0F80930E02F0E0E351FE4F80818093E2
:1009F000BB0085EC86C080930F028EC0E0910E0292
:100A000081E08E0F80930E028091BB00F0E0E351F5
:100A1000FE4F808390910E0280910D026EC0E09196
:100A20000E0281E08E0F80930E028091BB00F0E0F9
:100A3000E351FE4F80838091100281116DC081E0EF
:100A40008093EB0184EA61C083E0809311021092ED
:100A5000E101CFCF8091E101803208F051C0E091F7
:100A6000E10181E08E0F8093E1018091BB00F0E015
:100A7000EF53FE4F8083BDCF85EC8093BC00109276
:100A800011028091E101803230F4E091E101F0E067
:100A9000EF53FE4F10826091E10170E0E091BF01E1
:100AA000F091C00181EC91E009951092E10136C00E
:100AB00084E0809311021092BE011092BD01E0917A
:100AC000BB01F091BC0109958091BD01811105C068
:100AD00081E08093BD0110929B01E091BE0181E015
:100AE0008E0F8093BE01F0E0E556FE4F808180932B
:100AF000BB009091BE018091BD01981708F479CF99
:100B000085E88093BC000AC085EC8093BC001092FD
:100B1000110204C010920F020E94D101FF91EF91C7
:100B2000BF91AF919F918F917F916F915F914F9105
:100B30003F912F910F900FBE0F901F90189581E05D
:100B400090E00E94660780916101909162010E948D
:100B50002D138091700190917101892B21F481E016
:100B60008093040102C01092040184E691E00E9487
:100B70007802909362018093610108950F931F930F
:100B80008FB7F8940091E3011091E4012091E50101
:100B90003091E6018FBF409196015091970160918D
:100BA00098017091990148535F4F6F4F7F4F81E0DB
:100BB000401751076207730708F480E01F910F91F7
:100BC00008950F931F93CF93DF938C01EB01813036
:100BD000910581F082309105E9F0892B39F51B866A
:100BE0001A868E819F8161E00E94330388859985F2
:100BF00060E00AC09B878A878E819F8160E00E94A7
:100C000033038885998561E0DF91CF911F910F9122
:100C10000C9433038E819F8160E00E9433038885AA
:100C2000998560E00E9433031B870A87DF91CF918B
:100C30001F910F9108950E9466076091670270915D
:100C4000680281E090E00E94E1052FB7F89480915E
:100C5000E3019091E401A091E501B091E6012FBF7D
:100C60008093960190939701A0939801B093990176
:100C70000E94BE058111FCCF6091670270916802ED
:100C800082E090E00E94E105E0916702F091680245
:100C9000118210820895CF93DF932FB7F89480913B
:100CA000E3019091E401A091E501B091E6012FBF2D
:100CB0008093960190939701A0939801B093990126
:100CC00080916001882309F473C0E0916702F0917C
:100CD000680282859385009721F0019709F444C04A
:100CE00067C040815181C0916101D0916201A885A6
:100CF000B9851196AA0FBB1FAC0FBD1F8D919C919A
:100D00009C01225031094217530784F08FEF90E085
:100D10000E945708609167027091680282E090E03B
:100D20000E94E10581E08093630142C040815181CE
:100D30009C0128523109421753074CF0E755F24005
:100D400019F488E790E00CC08EE690E009C020819D
:100D500031818C5291402817390754F18CE890E08A
:100D6000DF91CF910C94570840815181C09161016E
:100D7000D0916201A885B9851196AA0FBB1FAC0F4F
:100D8000BD1F8D919C919C012E5F3F4F241735070D
:100D90000CF0BCCF408151812A5D3F4F24173507AD
:100DA0006CF620813181845D9E4F82179307B4F6E3
:100DB000DF91CF91089583E00E948201E091670264
:100DC000F0916802268537852817390719F197872A
:100DD0008687009719F0019771F01AC08485958570
:100DE000892B21F480819181019603C080819181BA
:100DF00001979183808384859585892B21F4808157
:100E00009181019703C080819181019691838083B4
:100E10000C944B06089582E00E948201E0916702E3
:100E2000F0916802248535852817390719F19587CF
:100E30008487009719F0019771F01AC0868597850D
:100E4000892B21F480819181019703C08081918158
:100E500001969183808386859785892B21F48081F3
:100E60009181019603C08081918101979183808354
:100E70000C944B060895CF92DF92EF92FF920F935E
:100E80001F93CF93DF936C017A018B01C0E0D0E018
:100E9000CE15DF0589F0D8016D918D01D601ED9158
:100EA000FC910190F081E02DC6010995892B11F488
:100EB0007E0102C02196ECCFC701DF91CF911F9137
:100EC0000F91FF90EF90DF90CF90089581309105C2
:100ED000A1F08230910501F1892B81F560E08CE071
:100EE0000E94330361E08BE00E94330360E08AE0FC
:100EF0000E94330387E492E01DC061E08CE00E9411
:100F0000330360E08BE00E94330360E08AE00E94DC
:100F1000330387E392E00EC060E08CE00E9433036D
:100F200060E08BE00E94330360E08AE00E943303BC
:100F300087E592E090936802809367020895009796
:100F400069F0FC0101900020E9F73197AF01481BDF
:100F5000590BBC0189E692E00C943B0780E090E0DD
:100F600008958F929F92AF92BF920F931F93CF934A
:100F7000DF93CDB7DEB7A1970FB6F894DEBF0FBEF3
:100F8000CDBF19A2423008F44AE08E010F5D1F4F19
:100F9000842E912CA12CB12CA50194010E94471103
:100FA000E62FB901CA0101501109EA3014F4E05DDD
:100FB00001C0E95CD801EC93232B242B252B61F78E
:100FC000C8010E949F07A1960FB6F894DEBF0FBE1E
:100FD000CDBFDF91CF911F910F91BF90AF909F90A8
:100FE0008F90089581E08093340280E280930C0317
:100FF000109233021092320262E18DE093E00E947F
:10100000410261E08DE093E00E9441028091320252
:10101000813208F045C0909111029111FCCF92E00D
:101020009093110291E0909310029FEF90930F0222
:1010300010920E0280930D02A2E1B2E02DEE31E09B
:10104000F9019E2F921B981718F49D919193F9CF57
:101050001092EC018091EC0180648093EC0180910E
:10106000EB01813061F41092EB018091EC018093EF
:10107000BB008091BC0083FDF8CF85EC01C085EEFC
:101080008093BC00809111028230E1F380910F02C5
:101090008F3F31F080910F02803211F080910F026A
:1010A0001092330210923202109234020895CF93BC
:1010B000DF93EC0161E089E00E946303209711F463
:1010C00060E004C0CF3FD10531F461E089E0DF91F9
:1010D000CF910C943303E7EBF0E0E491E330F9F0C7
:1010E00048F4E130B9F0E230A1F584B5806284BD06
:1010F000C8BD34C0E730E9F0E83019F1E43049F513
:1011000080918000806280938000D0938B00C09398
:101110008A0024C084B5806884BDC7BD1FC080918B
:101120008000806880938000D0938900C0938800FD
:1011300015C08091B00080688093B000C093B30068
:101140000DC08091B00080628093B000C093B40065
:1011500005C0C038D1050CF0B8CFB2CFDF91CF9128
:101160000895CF93DF930E949F07EC018BE291E0FB
:101170000E949F078C0F9D1FDF91CF910895CF9202
:10118000DF92EF92FF92CF93DF936B017C01E091AE
:101190006902F0916A020190F081E02D6DE289E62A
:1011A00092E00995EC0166277727CB016C197D0940
:1011B0008E099F094AE00E94B1078C0F9D1FDF91A5
:1011C000CF91FF90EF90DF90CF900895BC01990FE1
:1011D000880B990B97FD0C94BF084AE00C94B1075B
:1011E0000F931F93CF93DF93EC0188819981009730
:1011F00029F02A813B812617370788F48B016F5F1E
:101200007F4F0E94B911009761F0998388831B83F7
:101210000A832C813D81232B11F4FC01108281E093
:1012200001C080E0DF91CF911F910F910895CF937E
:10123000DF93EC0188819981009711F00E942D13B2
:10124000198218821D821C821B821A82DF91CF9123
:101250000895EF92FF920F931F93CF93DF93EC01CA
:101260007B018A01BA010E94F008811104C0CE01FD
:101270000E94170907C01D830C83B70188819981DB
:101280000E949112CE01DF91CF911F910F91FF909B
:10129000EF900895CF93DF93CDB7DEB7C65BD1094A
:1012A0000FB6F894DEBF0FBECDBF789484B58260D0
:1012B00084BD84B5816084BD85B5826085BD85B5FA
:1012C000816085BD80916E00816080936E00109278
:1012D00081008091810082608093810080918100F3
:1012E0008160809381008091800081608093800084
:1012F0008091B10084608093B1008091B0008160E2
:101300008093B00080917A00846080937A0080910D
:101310007A00826080937A0080917A008160809365
:101320007A0080917A00806880937A001092C100E0
:1013300061E08AE00E94630361E08BE00E94630346
:1013400061E08CE00E94630361E084E00E9463033B
:1013500061E085E00E94630361E086E00E94630330
:1013600061E087E00E94630361E088E00E9463031C
:1013700061E08DE00E94630361E089E00E94630305
:1013800062E082E00E94630362E083E00E94630304
:101390008BE097E0909301018093000180916900B8
:1013A0008C7F816080936900E89A8BED96E0909342
:1013B00003018093020180916900837F84608093A0
:1013C0006900E99AE0917902F0917A0282E08083E3
:1013D000E0917502F09176021082E0917702F0912F
:1013E00078028FEC808310928102E0917D02F0916F
:1013F0007E0286E08083E0917B02F0917C02808116
:1014000080618083E0917B02F0917C028081886022
:101410008083E0917B02F0917C02808180688083F0
:10142000E0917B02F0917C0280818F7D808310921D
:1014300065011092640110926701109266018CE0C0
:1014400090E0909369018093680163E972E0709382
:101450006B0160936A0128E732E030936D012093BD
:101460006C0180E792E090936F0180936E0110927F
:1014700071011092700110928101109282011092FC
:1014800083011092870110928601109289011092B7
:10149000880145E050E050938B0140938A0170939E
:1014A0008D0160938C0130938F0120938E01909376
:1014B00091018093900110929301109292011EAAC3
:1014C0001DAA2AE134E038AF2FAB1AAE19AE88E07E
:1014D00090E09CAF8BAF8DE090E09EAF8DAF82E04F
:1014E00090E021969FAF8EAF219723961FAE1EAE40
:1014F000239725961FAE1EAE259727961FAE1EAECC
:10150000279729963FAF2EAF29972B961FAE1EAE79
:101510002B9766E070E02D967FAF6EAF2D9767E05A
:1015200070E02F967FAF6EAF2F9761969FAF8EAF13
:10153000619763961FAE1EAE639765961FAE1EAE93
:10154000659767961FAE1EAE679769963FAF2EAF41
:1015500069976B961FAE1EAE6B9724E030E06D96D8
:101560003FAF2EAF6D976F965FAF4EAF6F97A1965F
:101570009FAF8EAFA197A3961FAE1EAEA397A59661
:101580001FAE1EAEA597CE018B599F4F20E1FE01E5
:10159000EB5AFF4FDC0101900D922A95E1F720E113
:1015A000FE01EB5BFF4FDE01AB58BF4F01900D9288
:1015B0002A95E1F720E1FE01F596DE01AB57BF4F1A
:1015C00001900D922A95E1F71A82198220E1FC011F
:1015D000DE01139601900D922A95E1F720E1FE01BC
:1015E000EB58FF4FDE01539601900D922A95E1F7DB
:1015F00020E1FE01EB57FF4FDE01939601900D9223
:101600002A95E1F79CAB8BAB84E3FE013196A5E311
:10161000B2E001900D928A95E1F77E0145E9E40E72
:10162000F11C8BEB90E0D70113969C938E9312974D
:1016300015969C938E93149717961C921E9216974C
:101640001B961C921E921A9719961C921E9218971E
:101650001D921C92B70184E691E00E94930282ECF5
:1016600091E0F701938382839583848317821682A6
:10167000138612861186108611821082B70184E6C5
:1016800091E00E9493020E949F0584EB90E00E94EB
:10169000570880E090E00E941B0684EB90E00E94D7
:1016A000570882E090E00E941B0684EB90E00E94C5
:1016B000570881E090E00E941B0611E01093600142
:1016C0008FEF90E00E9457081093630145E0842E4D
:1016D000912C66246394712C6DE2B62EAA24A394F7
:1016E00072E0472E512C8091940190919501892BA5
:1016F00009F0DAC089E692E00E94AF00892B09F474
:101700009CC089E692E00E94A1008B3609F468C073
:1017100089E692E00E948D00182FD70111961C9245
:101720001E9213961C921E92129715961C921E9250
:10173000149760910603709107036115710541F0DC
:1017400040910A0350910B03C7010E94290903C06D
:10175000C7010E941709CF55DF4F1883C15AD040E7
:10176000CE55DF4F1882C25AD040F701048115814F
:101770000F5F1F4FB801C7010E94F008882399F03E
:10178000D7012D913C91119714968D919C911597AD
:10179000BE016F557F4F820F931F0E949112F70178
:1017A0001583048303C0C7010E941709D7016D91F7
:1017B0007C9111976115710549F014964D915C91DA
:1017C000159786E093E00E94290904C086E093E023
:1017D0000E941709F701808191810E942D132DC06D
:1017E00089E692E00E948D0080917C0190917D01BC
:1017F0009C012F5F3F4F30937D0120937C01B4010A
:101800000E9433118C018091060390910703009789
:1018100019F00E94C51301C060E0000F111FF8010C
:10182000EE58FE4F70E07183608340E050E06DE25F
:1018300071E086E093E00E94290920917C013091BB
:101840007D01C901B4010E943311892BF9F4232BC6
:10185000E9F085E090E00E949812FC01809172010D
:10186000808380917401818380917601828380914D
:101870007801838380917A018483BF0186E891E0B7
:101880000E94930210927D0110927C0189E692E001
:101890000E94A100853641F489E692E00E948D0005
:1018A00070929501609294018091940190919501BC
:1018B000019709F0EFC08091190390911A030097E6
:1018C00011F48DE193E0B701681B790B072E000C32
:1018D000880B990B97FF03C00E94BF0803C04AE022
:1018E0000E94B1078BE291E00E949F0785E994E096
:1018F0000E9498128C0120E030E080E090E040E00F
:1019000050E0BC01620F731FFA01E60FF71FE00FF2
:10191000F11F10824F5F5F4F4F305105A9F70F96AF
:101920008D32910561F7235D3F4F2239F4E03F0787
:1019300021F7F801EE56FB4F108231961082319656
:1019400010828EE291E00E949F07D801DD966C9193
:1019500070E080E090E04AE00E94B1078BE291E005
:101960000E949F078091920190919301892B09F425
:1019700076C086E891E00E947802FC0124818FEF16
:10198000820F833008F068C090819A3108F064C0FB
:1019900071817F3008F060C032813A3108F05CC05C
:1019A00083818F3008F058C0931328C0781709F44A
:1019B00053C0E72FF0E0A82FB0E0781718F4AF017C
:1019C000BD0102C0AD01BF0130E0BDE29B9FC0017F
:1019D00011246417750734F2FA01E80FF91FE00FBC
:1019E000F11FA0822130310519F44F5F5F4FF1CF15
:1019F000A78623303105C9F7A68EF7CF78132CC000
:101A0000492F50E0E32FF0E0931718F4CA01AF011B
:101A100001C0CF0130E0B89EF001B99EF00D112455
:101A2000DF01A70FB11DBD01A0E0B0E048175907C5
:101A30000CF498CFFD01E60FF71FE00FF11FA08215
:101A40002130310519F401969D96F0CFA7862330F9
:101A50003105C9F7A68EF7CF0E94F20783CF109306
:101A60008501009384018EE291E00E949F07E0913E
:101A70008401F091850165AD70E080E090E04AE07E
:101A80000E94B1078BE291E00E949F07509295015E
:101A9000409294018091940190919501029709F0F0
:101AA00080C2809170019091710180970CF073C297
:101AB000809184019091850120918201C22ED12CC8
:101AC00030918301E32FF0E0CF54DF4FF983E883B7
:101AD000C15BD04040918101642F70E0CD54DF4F55
:101AE00079836883C35BD0407FE0279F90011124F6
:101AF000D901EDE24E9FA00DB11D1124C155DF4F5C
:101B0000B983A883CF5AD04020E030E043E0C41628
:101B1000D1040CF0DEC1CF54DF4F08811981C15BC5
:101B2000D040C155DF4F48815981CF5AD040420F34
:101B3000531FBA01665A7F4FC355DF4F79836883BD
:101B4000CD5AD040D6011297CB54DF4FB983A8832A
:101B5000C55BD0400F3011050CF0B5C1C355DF4F48
:101B6000E881F981CD5AD040E00FF11FE80FF91F4D
:101B7000CD54DF4F68817981C35BD0406A317105F4
:101B80000CF09EC1DF01AA55B1094C91DB01129600
:101B90001D01413009F090C14081413029F068F1C8
:101BA000423009F089C129C0B69EF001B79EF00D00
:101BB00011244FE04C9D90014D9D300D1124E20FFA
:101BC000F31FE80FF91FE00FF11FA2E0A083B29C02
:101BD000A001B39C500D1124240F351F820F931FB9
:101BE000FC01E00FF11FA08360938101C09282018C
:101BF000009383016F5F7F4F36C0AB0142505109A4
:101C0000DF01A45BB109AC91A13031F008F46CC0E4
:101C1000A23009F051C168C0B69EF001B79EF00D28
:101C20001124AFE0AC9D9001AD9D300D1124E20F69
:101C3000F31FE80FF91FE00FF11FA2E0A083B49E8D
:101C4000F001B59EF00D1124E20FF31FE80FF91F0C
:101C5000E00FF11FA08360938101C0928201009385
:101C6000830161507109072E000C880B990B0E94AB
:101C7000031420E030E046E152E40E943E140E944A
:101C80008311CD55DF4F79836883C35AD040B801A3
:101C9000110F880B990B0E94031420E030E046E1FD
:101CA00052E40E943E140E948311CB55DF4F79838A
:101CB0006883C55AD040C955DF4FD982C882C75AF8
:101CC000D040C555DF4F59824882CB5AD040C755C6
:101CD000DF4F19821882C95AD040CF55DF4F198281
:101CE0001882C15AD040FEC0DF01DC974C914130D0
:101CF00029F0B8F1423009F0DFC033C0B69EF001E0
:101D0000B79EF00D11244FE04C9D90014D9D300D7C
:101D10001124E20FF31F8E0F9F1FFC01E00FF11F34
:101D200082E08083828360938101C092820100936C
:101D30008301072E000C880B990B0E94031420E0EE
:101D400030E046E152E40E943E140E948311CD55DA
:101D5000DF4F79836883C35AD040B8016F5F7F4FEC
:101D60004FC0DF01A857B1094C91413031F008F460
:101D700068C0423009F0A0C064C0B69EA001B79E02
:101D8000500D1124AFE0AC9DF001AD9DF00D11247C
:101D9000E40FF51FE80FF91FE00FF11FB2E0B08369
:101DA000CB54DF4FE881F981C55BD040AE9F9001F5
:101DB000AF9F300D1124240F351F820F931FFC019C
:101DC000E00FF11FB08360938101C0928201009304
:101DD0008301072E000C880B990B0E94031420E04E
:101DE00030E046E152E40E943E140E948311CD553A
:101DF000DF4F79836883C35AD040B80161507109BD
:101E0000072E000C880B990B0E94031420E030E091
:101E100046E152E40E943E140E948311CB55DF4FED
:101E200079836883C55AD040C955DF4FD982C882AB
:101E3000C75AD040C555DF4F79826882CB5AD0400F
:101E400046CF60938101C092820100938301072EE7
:101E5000000C880B990B0E94031420E030E046E14F
:101E600052E40E943E140E948311CD55DF4F7983C6
:101E70006883C35AD040B801110F880B990B0E9498
:101E8000031420E030E046E152E40E943E140E9438
:101E90008311CB55DF4F79836883C55AD040C9552C
:101EA000DF4FD982C882C75AD040C555DF4F19824B
:101EB0001882CB5AD0400BCFB101E65AFF4F5ECE0D
:101EC0000E5F1F4F47CEFFEFCF1ADF0A215F3F4F54
:101ED0001DCE8CE0F701DE01AF55BF4F01900D9292
:101EE0008A95E1F7BE016F557F4F84E691E00E942D
:101EF0009302E0916401F09165010081118160918C
:101F0000810170E080E090E04AE00E94B1078DE33B
:101F100091E00E949F076091830170E080E090E073
:101F20004AE00E94B1078DE391E00E949F07609113
:101F3000820170E080E090E04AE00E94B10780E416
:101F400091E00E94B108D8011A968D919C911B973F
:101F50000E94E6088FE491E00E94B108F8018281B6
:101F600093810E94E60886E591E00E94B108D801BD
:101F700014968D919C9115970E94E60889E591E051
:101F80000E94B108F801868197810E94E6088CE5DD
:101F900091E00E94B10883E090E0909395018093D6
:101FA0009401809163018823C9F10E94BE058111CB
:101FB00035C0109263010091610110916201D80156
:101FC00018968D919C9119970097B9F5D8018D912C
:101FD0009C91892B61F51093800100937F018CE027
:101FE00090E00E949812FC0171826082138212823A
:101FF00015821482178216821186108683E090E083
:1020000093878287F0936201E0936101B1E0B0931E
:102010007E0180910401882309F452C06AE070E0D7
:1020200080E090E00E949F030E944F015CCBF8018A
:102030007186608682E090E039C0019751F7D8013F
:102040008D919C9161E0019709F082C089E00E9426
:10205000330367E472E080E090E00E94E10568EEFF
:1020600073E080E090E00E949F0367E472E081E00B
:1020700090E00E94E10568EE73E080E090E00E944D
:102080009F0367E472E082E090E00E94E105C801EE
:102090000E942D13E0917F01F0918001F093620185
:1020A000E09361015182408281E090E00E946607E6
:1020B000B0CF009709F084C081E090E00E946607ED
:1020C000E0916101F091620160917E0180859185CE
:1020D0000196DC01AA0FBB1FAE0FBF1F0D911C9113
:1020E000A0916702B091680212962D913C911397CE
:1020F000201731070CF450C0A0916702B09168021C
:102100004D915C9198012E5F3F4F241735073CF4A9
:10211000609167027091680281E090E012C0A09126
:102120006702B09168024D915C919801225031098B
:10213000421753078CF5609167027091680280E046
:1021400090E00E94E105109336020093350266CFBD
:1021500089E00E94330367E472E080E090E00E942F
:10216000E10560ED77E080E090E00E949F0367E486
:1021700072E081E090E00E94E10560ED77E080E0B0
:1021800090E00E949F0367E472E082E090E00E948A
:10219000E1050E949F053DCF662331F010927E013C
:1021A000B1E0B09363013ACF918780878230910587
:1021B00009F07FCF71866086E1E0E09363012ECF66
:1021C000019709F083CF82E090E078CF80910603F9
:1021D000909107030C942D13E9E6F2E0138212822A
:1021E00088EE93E0A0E0B0E084839583A683B78374
:1021F0002FE031E03183208325EC30E035872487E0
:1022000024EC30E03787268720EC30E0318B208BC0
:1022100021EC30E0338B228B22EC30E0358B248BA9
:1022200026EC30E0378B268B118E128E138E148E97
:10223000EDE0F3E01382128284839583A683B78353
:102240008FE191E091838083E6E0F3E011821082D8
:10225000138212821582148240E050E06DE271E038
:10226000CF010C94290997FB072E16F4009407D090
:1022700077FD09D00E94691107FC05D03EF49095C6
:1022800081959F4F0895709561957F4F0895A1E2C4
:102290001A2EAA1BBB1BFD010DC0AA1FBB1FEE1FE0
:1022A000FF1FA217B307E407F50720F0A21BB30B2B
:1022B000E40BF50B661F771F881F991F1A9469F7A7
:1022C00060957095809590959B01AC01BD01CF0103
:1022D0000895AA1BBB1B51E107C0AA1FBB1FA6176D
:1022E000B70710F0A61BB70B881F991F5A95A9F7BF
:1022F00080959095BC01CD010895EE0FFF1F0590CC
:10230000F491E02D09940E948A116894B1110C9403
:10231000F61408950E94DB1488F09F5798F0B92FA7
:102320009927B751B0F0E1F0660F771F881F991F0A
:102330001AF0BA95C9F714C0B13091F00E94F514A3
:10234000B1E008950C94F514672F782F8827B85FB3
:1023500039F0B93FCCF3869577956795B395D9F762
:102360003EF490958095709561957F4F8F4F9F4F6C
:102370000895A0E0B0E0EFEBF1E10C940015EC0162
:10238000009721F4CB010E949812B8C0FC01E60F1F
:10239000F71F9C0122503109E217F30708F4ACC083
:1023A000D9010D911C91119706171707B0F0053050
:1023B000110508F49FC0C80104978617970708F411
:1023C00099C002501109061B170B019311936D93CD
:1023D0007C93CF010E942D138DC05B01A01AB10A1E
:1023E0004C01800E911EA0911B03B0911C0340E094
:1023F00050E0E12CF12C109709F44AC0A815B9055A
:10240000D1F56D907C901197630182E0C80ED11CCC
:10241000CA14DB0480F1A3014A195B096A0182E056
:10242000C80ED11C1296BC9012971396AC91B5E0D1
:10243000CB16D10440F0B282A38351834083D901EB
:102440006D937C930AC00E5F1F4FC301800F911FD5
:10245000F90191838083EB2DFA2FE114F10431F01F
:10246000D7011396FC93EE93129744C0F0931C038C
:10247000E0931B033FC08D919C911197481759071A
:1024800008F4AC017D0112960D90BC91A02DB3CF44
:102490008091190390911A0388159905E1F4461764
:1024A0005707C8F48091050190910601009741F407
:1024B0008DB79EB74091090150910A01841B950B7D
:1024C000E817F907C8F4F0931A03E0931903F90128
:1024D000718360830FC0CB010E9498127C0100972A
:1024E00059F0A801BE010E948812CE010E942D134E
:1024F000C70104C0CE0102C080E090E0CDB7DEB7D6
:10250000EEE00C941C1581E090E0F8940C943315E7
:10251000FB01DC0102C001900D9241505040D8F700
:102520000895FB01DC0101900D920020E1F7089570
:10253000CF93DF938230910510F482E090E0E09138
:102540001B03F0911C0320E030E0C0E0D0E03097A6
:1025500011F14081518148175907C0F048175907B8
:1025600061F482819381209719F09B838A832BC029
:1025700090931C0380931B0326C02115310519F08D
:102580004217530718F49A01BE01DF01EF010280E0
:10259000F381E02DDCCF2115310509F1281B390B22
:1025A0002430310590F412968D919C91139761150A
:1025B000710521F0FB019383828304C090931C0377
:1025C00080931B03FD01329644C0FD01E20FF31F0F
:1025D00081939193225031092D933C933AC02091DD
:1025E000190330911A03232B41F4209107013091F4
:1025F000080130931A0320931903209105013091AB
:1026000006012115310541F42DB73EB7409109016E
:1026100050910A01241B350BE0911903F0911A0324
:10262000E217F307A0F42E1B3F0B2817390778F0A9
:10263000AC014E5F5F4F2417350748F04E0F5F1F08
:1026400050931A03409319038193919302C0E0E0E1
:10265000F0E0CF01DF91CF9108950F931F93CF93B7
:10266000DF93009709F48CC0FC0132971382128229
:1026700000911B0310911C030115110581F42081A9
:102680003181820F931F2091190330911A0328176B
:10269000390779F5F0931A03E093190371C0D80153
:1026A00040E050E0AE17BF0750F412962D913C91D8
:1026B0001397AD012115310509F1D901F3CF9D0122
:1026C000DA013383228360817181860F971F82171D
:1026D000930769F4EC0128813981260F371F2E5F9B
:1026E0003F4F318320838A819B8193838283452B53
:1026F00029F4F0931C03E0931B0342C01396FC9350
:10270000EE931297ED01499159919E01240F351FC7
:10271000E217F30771F480819181840F951F02966F
:1027200011969C938E938281938113969C938E93A2
:102730001297E0E0F0E0D80112968D919C911397EA
:10274000009719F0F8018C01F6CF8D919C919801BA
:102750002E5F3F4F820F931F2091190330911A0370
:102760002817390769F4309729F410921C03109246
:102770001B0302C01382128210931A0300931903E1
:10278000DF91CF911F910F9108951F93FC0199271D
:102790008827BC01E89411911032E9F3193010F048
:1027A0001E30C8F31B3251F01D3249F4689406C044
:1027B0000E94EC13610F711D811D911D1191105329
:1027C0001A30B0F33EF490958095709561957F4FE7
:1027D0008F4F9F4F1F910895592F482F372F262F26
:1027E000660F771F881F991F660F771F881F991F15
:1027F000620F731F841F951F660F771F881F991F15
:102800000895E89409C097FB3EF4909580957095E3
:1028100061957F4F8F4F9F4F9923A9F0F92F96E92C
:10282000BB279395F695879577956795B795F111A1
:10283000F8CFFAF4BB0F11F460FF1BC06F5F7F4F3E
:102840008F4F9F4F16C0882311F096E911C0772350
:1028500021F09EE8872F762F05C0662371F096E859
:10286000862F70E060E02AF09A95660F771F881F28
:10287000DAF7880F9695879597F908950E94511475
:102880000C94C2140E94B41438F00E94BB1420F0BF
:10289000952311F00C94AB140C94B11411240C94E6
:1028A000F6140E94D31470F3959FC1F3950F50E076
:1028B000551F629FF001729FBB27F00DB11D639FF2
:1028C000AA27F00DB11DAA1F649F6627B00DA11D98
:1028D000661F829F2227B00DA11D621F739FB00D3E
:1028E000A11D621F839FA00D611D221F749F3327AE
:1028F000A00D611D231F849F600D211D822F762F47
:102900006A2F11249F5750409AF0F1F088234AF023
:10291000EE0FFF1FBB1F661F771F881F915050408F
:10292000A9F79E3F510580F00C94AB140C94F6145B
:102930005F3FE4F3983ED4F3869577956795B79516
:10294000F795E7959F5FC1F7FE2B880F911D969530
:10295000879597F9089597F99F6780E870E060E0A0
:1029600008959FEF80EC089500240A941616170628
:1029700018060906089500240A9412161306140670
:1029800005060895092E0394000C11F4882352F0D3
:10299000BB0F40F4BF2B11F460FF04C06F5F7F4F8B
:1029A0008F4F9F4F089557FD9058440F551F59F072
:1029B0005F3F71F04795880F97FB991F61F09F3F2C
:1029C00079F087950895121613061406551FF2CF55
:1029D0004695F1DF08C0161617061806991FF1CFA5
:1029E00086957105610508940895E894BB276627CC
:1029F0007727CB0197F908952F923F924F925F92DC
:102A00006F927F928F929F92AF92BF92CF92DF92FE
:102A1000EF92FF920F931F93CF93DF93CDB7DEB763
:102A2000CA1BDB0B0FB6F894DEBF0FBECDBF0994F7
:102A30002A88398848885F846E847D848C849B844E
:102A4000AA84B984C884DF80EE80FD800C811B815C
:102A5000AA81B981CE0FD11D0FB6F894DEBF0FBE8B
:102A6000CDBFED01089510E0C2E6D0E004C0FE0144
:102A70000E947D112196C336D107C9F7F894FFCF84
:102A8000D001D0010100001D03800000000000E61D
:102A9000003B07AF008D00A1002D010000000041A8
:102AA0000211020A020702040203020D0A00436F28
:102AB0006F726428312C312C31293A20002C2000EF
:102AC0002070726F6772657373706F696E74002027
:102AD000627269636B00207800207A002079000020
:00000001FF
