:100000000C9463000C9415050C94EE040C948B0076
:100010000C948B000C948B000C948B000C948B0034
:100020000C948B000C948B000C948B000C948B0024
:100030000C948B000C948B000C948B000C948B0014
:100040000C94A4040C948B000C94DC020C94B60267
:100050000C948B000C948B000C948B000C948B00F4
:100060000C943C050C948B00000000002400270039
:100070002A0000000000250028002B0000000000DE
:1000800023002600290004040404040404040202DA
:100090000202020203030303030301020408102007
:1000A0004080010204081020010204081020000012
:1000B0000008000201000003040700000000000027
:1000C0000000770F710F11241FBECFEFD8E0DEBF05
:1000D000CDBF11E0A0E0B1E0E6E9F7E202C0059093
:1000E0000D92AC36B107D9F723E0ACE6B1E001C020
:1000F0001D92A632B207E1F710E0C2E6D0E004C0DC
:100100002197FE010E940810C136D107C9F70E944D
:10011000C1080C94BE130C940000FC01918D828DDB
:10012000981761F0828DDF01A80FB11D5D968C914B
:10013000928D9F5F9F73928F90E008958FEF9FEF56
:100140000895FC01918D828D981731F0828DE80F12
:10015000F11D858D90E008958FEF9FEF0895FC01CC
:10016000918D228D892F90E0805C9F4F821B910999
:100170008F739927089582E792E00E94AF0021E0F3
:10018000892B09F420E0822F0895FC01848DDF0182
:10019000A80FB11DA35ABF4F2C91848D90E00196FA
:1001A0008F739927848FA689B7892C93A089B189E9
:1001B0008C9180648C93938D848D981306C00288F3
:1001C000F389E02D80818F7D80830895EF92FF92E7
:1001D0000F931F93CF93DF93EC0181E0888F9B8D6A
:1001E0008C8D981305C0E889F989808185FD24C02C
:1001F000F62E0B8D10E00F5F1F4F0F731127E02EAF
:100200008C8DE8120CC00FB607FCFACFE889F9898B
:10021000808185FFF5CFCE010E94C500F1CF8B8D87
:10022000FE01E80FF11DE35AFF4FF0820B8FEA89C0
:10023000FB898081806207C0EE89FF896083E8893D
:10024000F98980818064808381E090E0DF91CF91A3
:100250001F910F91FF90EF900895CF93DF93EC01E2
:10026000888D8823C9F0EA89FB89808185FD05C0D6
:10027000A889B9898C9186FD0FC00FB607FCF5CF10
:10028000808185FFF2CFA889B9898C9185FFEDCF58
:10029000CE010E94C500E7CFDF91CF91089580E0A5
:1002A00090E0892B29F00E94BB0081110C94000082
:1002B0000895833081F028F4813099F08230A1F0E4
:1002C00008958730A9F08830B9F08430D1F4809156
:1002D00080008F7D03C0809180008F7780938000A5
:1002E000089584B58F7702C084B58F7D84BD08954D
:1002F0008091B0008F7703C08091B0008F7D809394
:10030000B0000895CF93DF93282F30E0F901E25534
:10031000FF4F8491F901E656FF4FD491F901EA5756
:10032000FF4FC491CC2391F081110E945901EC2F11
:10033000F0E0EE0FFF1FE458FF4FA591B491EC9150
:10034000ED2381E090E021F480E002C080E090E0C5
:10035000DF91CF910895089585ED8093BC00809141
:10036000BC0084FDFCCF10921A0208954091C60192
:10037000262F30E0240F311D21323105DCF420918D
:100380001A022430C9F4FC0180E090E0861758F48A
:100390003091C6012191DC01AC55BE4FA30FB11DB8
:1003A0002C930196F3CF8091C601680F6093C6012C
:1003B00080E0089581E0089582E0089508958FEF28
:1003C0009FEF08958FEF9FEF08958091A30190E034
:1003D0009195819591090895CF92DF92EF92FF92C6
:1003E0000F931F93CF93DF937C01262F972F8A01C2
:1003F00080913D02882391F0C62FD72F6E01C40E45
:10040000D51ECC15DD0571F06991D701ED91FC91F8
:100410000190F081E02DC7010995F3CF642F822F61
:100420000E94B601C801DF91CF911F910F91FF90FB
:10043000EF90DF90CF900895CF93DF931F92CDB7C9
:10044000DEB7698320913D022223D1F020913B0247
:10045000203240F021E030E0FC013383228380E051
:1004600090E015C080913C02E82FF0E0E55EFD4F82
:10047000998190838F5F80933C0280933B0205C0FB
:1004800061E0CE0101960E94B60181E090E00F90FC
:10049000DF91CF910895DC01ED91FC9180819181F4
:1004A00008950E940E11CF93DF93FC01A081B181CA
:1004B000CD91DC91119712968D919C911397918318
:1004C0008083248535852150310935872487CD01E6
:1004D0000E94B811CE01DF91CF910895CF92DF92A3
:1004E000EF92FF920F931F93CF93DF9300D0CDB77E
:1004F000DEB76C0184E090E069837A830E94231167
:100500008C01D6011496ED90FC901597C7010E94BE
:100510002311F8019183808313821282A7016981DC
:100520007A810E941311D6018D919C911197892B8C
:1005300019F40D931C9307C0D6011296ED91FC910E
:10054000139713830283F6011383028384859585B1
:100550000196958784870F900F90DF91CF911F911F
:100560000F91FF90EF90DF90CF9008951F920F9220
:100570000FB60F9211242F933F934F935F936F9376
:100580007F938F939F93AF93BF93EF93FF9382E7F4
:1005900092E00E94C500FF91EF91BF91AF919F91B2
:1005A0008F917F916F915F914F913F912F910F901C
:1005B0000FBE0F901F9018951F920F920FB60F92BB
:1005C00011242F938F939F93EF93FF93E0918202D7
:1005D000F09183028081E0918802F091890282FD8E
:1005E00012C0908180918B028F5F8F7320918C025B
:1005F000821751F0E0918B02F0E0EE58FD4F958F9D
:1006000080938B0201C08081FF91EF919F918F9128
:100610002F910F900FBE0F901F9018951F93CF939F
:10062000DF93282F30E0F901E255FF4F8491F90163
:10063000E656FF4FD491F901EA57FF4FC491CC23FE
:10064000C9F0162F81110E945901EC2FF0E0EE0F36
:10065000FF1FEE58FF4FA591B4918FB7F894111179
:1006600005C09C91ED2FE095E92302C0EC91ED2BA4
:10067000EC938FBFDF91CF911F9108950F931F933C
:10068000CF93DF938C01EB018130910581F08230B3
:100690009105E9F0892B39F51B861A868E819F8199
:1006A00061E00E940E038885998560E00AC09B87FF
:1006B0008A878E819F8160E00E940E0388859985DC
:1006C00061E0DF91CF911F910F910C940E038E8109
:1006D0009F8160E00E940E038885998560E00E94FA
:1006E0000E031B870A87DF91CF911F910F91089509
:1006F000CF93DF932FB7F8948091F0019091F1019F
:10070000A091F201B091F3012FBF80939F019093CC
:10071000A001A093A101B093A20180916E01882352
:1007200009F473C0E0917002F091710282859385A3
:10073000009721F0019709F444C067C040815181BE
:10074000C0916C01D0916D01A885B9851196AA0F51
:10075000BB1FAC0FBD1F8D919C919C012250310994
:100760004217530784F08FEF90E00E940D086091CC
:1007700070027091710282E090E00E943E0381E07D
:1007800080936F0142C0408151819C012852310900
:10079000421753074CF0E056F24019F488E790E016
:1007A0000CC08EE690E009C0208131818C529140CE
:1007B0002817390754F18CE890E0DF91CF910C9421
:1007C0000D0840815181C0916C01D0916D01A885C7
:1007D000B9851196AA0FBB1FAC0FBD1F8D919C91BF
:1007E0009C012E5F3F4F241735070CF0BCCF408192
:1007F00051812A5D3F4F241735076CF620813181E6
:10080000845D9E4F82179307B4F6DF91CF910895D0
:1008100083E00E948201E0917002F09171022685CE
:1008200037852817390719F197878687009719F0B8
:10083000019771F01AC084859585892B21F48081F8
:100840009181019603C0808191810197918380837A
:1008500084859585892B21F480819181019703C03E
:10086000808191810196918380830C94780308950F
:1008700082E00E948201E0917002F0917102248571
:1008800035852817390719F195878487009719F05E
:10089000019771F01AC086859785892B21F4808194
:1008A0009181019703C0808191810196918380831A
:1008B00086859785892B21F480819181019603C0DB
:1008C000808191810197918380830C9478030895AE
:1008D000CF93DF9390E0FC01E656FF4F2491FC019B
:1008E000EA57FF4F8491882361F190E0880F991FA8
:1008F000FC01E859FF4FC591D491FC01EE58FF4F20
:10090000A591B491611109C09FB7F8948881209591
:1009100082238883EC912E230BC0623061F49FB751
:10092000F8943881822F809583238883EC912E2B35
:100930002C939FBF06C08FB7F894E8812E2B288395
:100940008FBFDF91CF9108951F920F920FB60F9234
:1009500011242F933F938F939F93AF93BF938091D5
:10096000F0019091F101A091F201B091F301309169
:10097000EF0123E0230F2D3720F40196A11DB11DB7
:1009800005C026E8230F0296A11DB11D2093EF019B
:100990008093F0019093F101A093F201B093F301E1
:1009A0008091EB019091EC01A091ED01B091EE01ED
:1009B0000196A11DB11D8093EB019093EC01A093D2
:1009C000ED01B093EE01BF91AF919F918F913F9157
:1009D0002F910F900FBE0F901F9018951F920F929E
:1009E0000FB60F9211242F933F934F935F936F9302
:1009F0007F938F939F93AF93BF93EF93FF93E09178
:100A00000201F09103010995FF91EF91BF91AF9120
:100A10009F918F917F916F915F914F913F912F9116
:100A20000F900FBE0F901F9018951F920F920FB648
:100A30000F9211242F933F934F935F936F937F9364
:100A40008F939F93AF93BF93EF93FF93E091000138
:100A5000F09101010995FF91EF91BF91AF919F91A5
:100A60008F917F916F915F914F913F912F910F9057
:100A70000FBE0F901F9018951F920F920FB60F92F6
:100A800011242F933F934F935F936F937F938F9393
:100A90009F93AF93BF93EF93FF938091B900887FAB
:100AA000803609F49CC068F5883209F45BC090F484
:100AB000803109F454C038F4882309F4F6C0883032
:100AC00009F44DC0F6C0883109F44CC0803209F4F5
:100AD0005DC0EFC0803409F468C048F4803309F485
:100AE00055C0883309F0E5C080931802D8C080351E
:100AF00009F44FC0883509F45DC0883409F0D9C0C5
:100B0000D6C0883909F4C7C0A8F4883709F467C08B
:100B100038F4883609F463C0803709F460C0C9C06E
:100B2000883809F4B8C0803909F45FC0803809F00A
:100B3000C0C05BC0803B09F486C038F4803A09F439
:100B400066C0883A09F47FC0B4C0803C09F4A7C0ED
:100B5000883C09F4A4C0883B09F48AC0AAC08091EB
:100B6000F50110C09091170280911602981770F548
:100B7000E091170281E08E0F80931702F0E0EA50B7
:100B8000FE4F80818093BB0085EC86C08093180265
:100B90008EC0E091170281E08E0F80931702809142
:100BA000BB00F0E0EA50FE4F8083909117028091E5
:100BB00016026EC0E091170281E08E0F809317023B
:100BC0008091BB00F0E0EA50FE4F808380911902D3
:100BD00081116DC081E08093F40184EA61C083E0FB
:100BE00080931A021092EA01CFCF8091EA018032FD
:100BF00008F051C0E091EA0181E08E0F8093EA0194
:100C00008091BB00F0E0E653FE4F8083BDCF85ECC2
:100C10008093BC0010921A028091EA01803230F475
:100C2000E091EA01F0E0E653FE4F10826091EA01A4
:100C300070E0E091C801F091C9018AEC91E009955A
:100C40001092EA0136C084E080931A021092C70124
:100C50001092C601E091C401F091C50109958091FF
:100C6000C601811105C081E08093C6011092A401E4
:100C7000E091C70181E08E0F8093C701F0E0EC5551
:100C8000FE4F80818093BB009091C7018091C60187
:100C9000981708F479CF85E88093BC000AC085ECEA
:100CA0008093BC0010921A0204C0109218020E9495
:100CB000AC01FF91EF91BF91AF919F918F917F9187
:100CC0006F915F914F913F912F910F900FBE0F90B9
:100CD0001F9018950E94DD0660917002709171025C
:100CE00081E090E00E943E032FB7F8948091F001DC
:100CF0009091F101A091F201B091F3012FBF809387
:100D00009F019093A001A093A101B093A2018FB77E
:100D1000F8944091F0015091F1016091F2017091CD
:100D2000F3018FBF80919F019091A001A091A1013B
:100D3000B091A20188539F4FAF4FBF4F84179507C3
:100D4000A607B70720F7609170027091710282E0E8
:100D500090E00E943E03E0917002F09171021182D6
:100D600010820895CF92DF92EF92FF920F931F931C
:100D7000CF93DF936C017A018B01C0E0D0E0CE15F8
:100D8000DF0589F0D8016D918D01D601ED91FC91BF
:100D90000190F081E02DC6010995892B11F47E01A7
:100DA00002C02196ECCFC701DF91CF911F910F9127
:100DB000FF90EF90DF90CF90089581309105A1F0E2
:100DC0008230910501F1892B81F560E08CE00E9471
:100DD0000E0361E08BE00E940E0360E08AE00E9457
:100DE0000E0380E592E01DC061E08CE00E940E03DE
:100DF00060E08BE00E940E0360E08AE00E940E0338
:100E000080E492E00EC060E08CE00E940E0360E09F
:100E10008BE00E940E0360E08AE00E940E0380E6F1
:100E200092E090937102809370020895009769F0A8
:100E3000FC0101900020E9F73197AF01481B590BE5
:100E4000BC0182E792E00C94B20680E090E0089545
:100E50008F929F92AF92BF920F931F93CF93DF9386
:100E6000CDB7DEB7A1970FB6F894DEBF0FBECDBFEA
:100E700019A2423008F44AE08E010F5D1F4F842E04
:100E8000912CA12CB12CA50194010E94D20FE62F28
:100E9000B901CA0101501109EA3014F4E05D01C042
:100EA000E95CD801EC93232B242B252B61F7C80197
:100EB0000E941607A1960FB6F894DEBF0FBECDBFF5
:100EC000DF91CF911F910F91BF90AF909F908F9026
:100ED0000895CF92DF92EF92FF92CF93DF936B0151
:100EE0007C01E0917202F09173020190F081E02D9B
:100EF0006DE282E792E00995EC0166277727CB0146
:100F00006C197D098E099F094AE00E9428078C0F01
:100F10009D1FDF91CF91FF90EF90DF90CF900895CC
:100F2000BC01990F880B990B97FD0C9469074AE057
:100F30000C942807CF93DF930E941607EC018BE2F5
:100F400091E00E9416078C0F9D1FDF91CF910895AD
:100F500081E080933D0280E28093150310923C0271
:100F600010923B0262E186E193E00E941C0261E084
:100F700086E193E00E941C0280913B02813208F0DE
:100F800045C090911A029111FCCF92E090931A0201
:100F900091E0909319029FEF90931802109217021C
:100FA00080931602ABE1B2E026EF31E0F9019E2F0B
:100FB000921B981718F49D919193F9CF1092F50117
:100FC0008091F50180648093F5018091F401813076
:100FD00061F41092F4018091F5018093BB0080913F
:100FE000BC0083FDF8CF85EC01C085EE8093BC008A
:100FF00080911A028230E1F3809118028F3F31F024
:1010000080911802803211F08091180210923C02F7
:1010100010923B0210923D020895CF93DF93EC01B2
:1010200061E089E00E946804209711F460E004C048
:10103000CF3FD10531F461E089E0DF91CF910C948D
:101040000E03E7EBF0E0E491E330F9F048F4E1302F
:10105000B9F0E230A1F584B5806284BDC8BD34C06A
:10106000E730E9F0E83019F1E43049F5809180008B
:10107000806280938000D0938B00C0938A0024C04C
:1010800084B5806884BDC7BD1FC080918000806822
:1010900080938000D0938900C093880015C0809110
:1010A000B00080688093B000C093B3000DC0809101
:1010B000B00080628093B000C093B40005C0C03817
:1010C000D1050CF0B8CFB2CFDF91CF9108950F9337
:1010D0001F93CF93DF93EC0188819981009729F0CA
:1010E0002A813B812617370788F48B016F5F7F4F7A
:1010F0000E944410009761F0998388831B830A83C0
:101100002C813D81232B11F4FC01108281E001C070
:1011100080E0DF91CF911F910F910895CF93DF93DE
:10112000EC0188819981009711F00E94B811198211
:1011300018821D821C821B821A82DF91CF91089532
:10114000EF92FF920F931F93CF93DF93EC017B01FC
:101150008A01BA010E946708811104C0CE010E9471
:101160008E0807C01D830C83B701888199810E9476
:101170001C11CE01DF91CF911F910F91FF90EF9045
:101180000895CF93DF93CDB7DEB7C65BD1090FB615
:10119000F894DEBF0FBECDBF789484B5826084BD65
:1011A00084B5816084BD85B5826085BD85B581606B
:1011B00085BD80916E00816080936E0010928100E9
:1011C00080918100826080938100809181008160A4
:1011D0008093810080918000816080938000809165
:1011E000B10084608093B1008091B00081608093F1
:1011F000B00080917A00846080937A0080917A00B8
:10120000826080937A0080917A00816080937A0076
:1012100080917A00806880937A001092C10061E02A
:101220008AE00E94680461E08BE00E94680461E04B
:101230008CE00E94680461E084E00E94680461E040
:1012400085E00E94680461E086E00E94680461E035
:1012500087E00E94680461E088E00E94680461E021
:101260008DE00E94680461E089E00E94680462E009
:1012700082E00E94680462E083E00E94680488E3E0
:1012800094E09093010180930001809169008C7F2C
:10129000816080936900E89A88E094E0909303016C
:1012A0008093020180916900837F8460809369004C
:1012B000E99AE0918202F091830282E08083E091DA
:1012C0007E02F0917F021082E0918002F091810213
:1012D0008FEC808310928A02E0918602F09187025F
:1012E00086E08083E0918402F091850280818061B4
:1012F0008083E0918402F091850280818860808300
:10130000E0918402F0918502808180688083E09181
:101310008402F091850280818F7D8083109280010C
:1013200010927F0110928201109281018CE090E076
:1013300090938401809383016EE672E0709386013E
:101340006093850123E532E0309388012093870183
:101350008BE492E090938A018093890110928C0132
:1013600010928B0110927C0110927D0110927E01EF
:101370001092900110928F0110929201109291019F
:1013800045E050E05093940140939301709396018F
:1013900060939501309398012093970190939A015F
:1013A0008093990110929C0110929B011EAA1DAA84
:1013B0002AE134E038AF2FAB1AAE19AE88E090E0E6
:1013C0009CAF8BAF8DE090E09EAF8DAF82E090E060
:1013D00021969FAF8EAF219723961FAE1EAE239707
:1013E00025961FAE1EAE259727961FAE1EAE2797D9
:1013F00029963FAF2EAF29972B961FAE1EAE2B9787
:1014000066E070E02D967FAF6EAF2D9767E070E0DD
:101410002F967FAF6EAF2F9761969FAF8EAF61977C
:1014200063961FAE1EAE639765961FAE1EAE6597A0
:1014300067961FAE1EAE679769963FAF2EAF69974E
:101440006B961FAE1EAE6B9724E030E06D963FAFFB
:101450002EAF6D976F965FAF4EAF6F97A1969FAF10
:101460008EAFA197A3961FAE1EAEA397A5961FAEF3
:101470001EAEA597CE018B599F4F20E1FE01EB5A7E
:10148000FF4FDC0101900D922A95E1F720E1FE016A
:10149000EB5BFF4FDE01AB58BF4F01900D922A95D9
:1014A000E1F720E1FE01F596DE01AB57BF4F019059
:1014B0000D922A95E1F71A82198220E1FC01DE01E2
:1014C000139601900D922A95E1F720E1FE01EB5869
:1014D000FF4FDE01539601900D922A95E1F720E12E
:1014E000FE01EB57FF4FDE01939601900D922A9576
:1014F000E1F79CAB8BAB84E3FE013196AEE3B2E047
:1015000001900D928A95E1F77E0125E9E20EF11C2A
:101510008BEB90E0D70113969C938E9312971596C0
:101520009C938E93149717961C921E9216971B9657
:101530001C921E921A9719961C921E9218971D9231
:101540001C92B7018FE791E00E946E0282EC91E05D
:10155000F70193838283958384831782168213868F
:1015600012861186108611821082B7018FE791E0F2
:101570000E946E0281E090E00E94DD0680916C0185
:1015800090916D010E94B81180918B0190918C0116
:10159000892B21F481E08093040102C010920401A0
:1015A0008FE791E00E94530290936D0180936C014C
:1015B00084EB90E00E940D0880E090E00E946A06B3
:1015C00084EB90E00E940D0882E090E00E946A06A1
:1015D00084EB90E00E940D0881E090E00E946A0692
:1015E00011E010936E018FEF90E00E940D081093B0
:1015F0006F0195E0292E312C66246394712C3DE215
:10160000B32EAA24A39442E0842E912C80919D01B4
:1016100090919E01892B09F0DAC082E792E00E9446
:10162000AF00892B09F49CC082E792E00E94A100E0
:101630008B3609F468C082E792E00E948D00182F73
:10164000D70111961C921E9213961C921E9212970D
:1016500015961C921E92149760910F0370911003BF
:101660006115710541F04091130350911403C701B6
:101670000E94A00803C0C7010E948E08CF55DF4F0B
:101680001883C15AD040CE55DF4F1882C25AD0407D
:10169000F701048115810F5F1F4FB801C7010E9438
:1016A0006708882399F0D7012D913C9111971496E2
:1016B0008D919C911597BE016F557F4F820F931F9F
:1016C0000E941C11F7011583048303C0C7010E9407
:1016D0008E08D7016D917C9111976115710549F0C4
:1016E00014964D915C9115978FE093E00E94A008AD
:1016F00004C08FE093E00E948E08F7018081918101
:101700000E94B8112DC082E792E00E948D00809166
:101710007A0190917B019C012F5F3F4F30937B01B9
:1017200020937A01B1010E94BE0F8C0180910F03BA
:1017300090911003009719F00E94501201C060E0D0
:10174000000F111FF801E059FE4F70E071836083B4
:1017500040E050E06DE271E08FE093E00E94A0086D
:1017600020917A0130917B01C901B1010E94BE0F25
:10177000892BF9F4232BE9F085E090E00E942311F6
:10178000FC0180917001808380917201818380913E
:1017900074018283809176018383809178018483B0
:1017A000BF018FE891E00E946E0210927B011092BF
:1017B0007A0182E792E00E94A100853641F482E737
:1017C00092E00E948D0070929E0160929D01809136
:1017D0009D0190919E01019709F0F4C086EA92E084
:1017E0000E9423118C0120E030E080E090E040E096
:1017F00050E0BC01620F731FFA01E60FF71FE00F04
:10180000F11F10824F5F5F4F4F305105A9F70F96C0
:101810008D32910561F7235D3F4F233AF2E03F0798
:1018200021F78091220390912303009711F486E21F
:1018300093E0B701681B790B072E000C880B990BFE
:1018400097FF03C00E94690703C04AE00E9428076F
:101850008BE291E00E941607F801ED55FD4F1082D2
:1018600031961082319610828EE291E00E94160726
:10187000D801DD966C9170E080E090E04AE00E9433
:1018800028078BE291E00E94160780919B019091BE
:101890009C01892B09F47BC08FE891E00E945302E0
:1018A000DC0114962C9114978FEF820F833008F08F
:1018B0006BC09C919F3008F067C01196EC91119716
:1018C000EF3008F061C012963C9112973F3008F05B
:1018D0005BC013968C918F3008F056C0931328C0CC
:1018E000E81709F451C06E2F70E0A82FB0E0E81798
:1018F00018F4AB01BD0101C0AD0130E0BDE29B9F1A
:10190000C0011124641775070CF4BFCFFA01E80F6A
:10191000F91FE00FF11FA0822130310519F44F5F4C
:101920005F4FF0CFA78623303105C9F7A68EF7CFDA
:10193000E8132AC0492F50E0632F70E0931718F482
:10194000CA01AB0101C0CB0130E0B89EB001B99E25
:10195000700D11246E0F711DA0E0B0E048175907FB
:101960000CF493CFFD01E60FF71FE00FF11FA082EB
:101970002130310519F401969D96F0CFA7862330CA
:101980003105C9F7A68EF7CF0E94A8077ECF109326
:101990008E0100938D018EE291E00E941607E09186
:1019A0008D01F0918E0165AD70E080E090E04AE03D
:1019B0000E9428078BE291E00E94160790929E01F8
:1019C00080929D0180919D0190919E01029709F066
:1019D00085C280918B0190918C01803291050CF031
:1019E0007DC20E9490078DE391E00E949A0780914A
:1019F0008D0190918E0120917D01C22ED12C3091CC
:101A00007E01E32FF0E0CF54DF4FF983E883C15B21
:101A1000D04040917C01642F70E0CD54DF4F79833A
:101A20006883C35BD0407FE0279F90011124D901D8
:101A3000EDE24E9FA00DB11D1124C155DF4FB983BA
:101A4000A883CF5AD04040E050E023E0C216D10432
:101A50000CF0DEC1CF54DF4F08811981C15BD0404B
:101A6000C155DF4F28813981CF5AD040240F351F0F
:101A7000B901665A7F4FC355DF4F79836883CD5ACA
:101A8000D040D6011297CB54DF4FB983A883C55BF2
:101A9000D0400F3011050CF0B5C1C355DF4FE881C0
:101AA000F981CD5AD040E00FF11FE80FF91FCD5456
:101AB000DF4F68817981C35BD0406F3071050CF0D6
:101AC0009EC1DF01AA55B1092C91DB0112962D01AF
:101AD000213009F090C12081213029F068F12230B5
:101AE00009F089C129C0B69EF001B79EF00D1124FE
:101AF0004FE04C9D90014D9D300D1124E20FF31FDE
:101B0000E80FF91FE00FF11FA2E0A083B49CA00131
:101B1000B59C500D1124240F351F820F931FFC011B
:101B2000E00FF11FA08360937C01C0927D010093C0
:101B30007E016F5F7F4F36C09B0122503109DF016C
:101B4000A45BB109AC91A13031F008F46CC0A230B3
:101B500009F051C168C0B69EF001B79EF00D112486
:101B6000AFE0AC9DA001AD9D500D1124E40FF51F19
:101B7000E80FF91FE00FF11FA2E0A083B29EF00171
:101B8000B39EF00D1124E40FF51FE80FF91FE00FCD
:101B9000F11FA08360937C01C0927D0100937E01C0
:101BA00061507109072E000C880B990B0E948E1250
:101BB00020E030E046E152E40E94C9120E940E107B
:101BC000CD55DF4F79836883C35AD040B801110FD8
:101BD000880B990B0E948E1220E030E046E152E41F
:101BE0000E94C9120E940E10CB55DF4F7983688383
:101BF000C55AD040C955DF4FD982C882C75AD04094
:101C0000C555DF4F99828882CB5AD040C755DF4FE8
:101C100019821882C95AD040CF55DF4F19821882D5
:101C2000C15AD040FEC0DF01DC972C91213029F051
:101C3000B8F1223009F0DFC033C0B69EF001B79E84
:101C4000F00D11244FE04C9D90014D9D300D11245D
:101C5000E20FF31F8E0F9F1FFC01E00FF11F82E0C8
:101C60008083828360937C01C0927D0100937E011A
:101C7000072E000C880B990B0E948E1220E030E09A
:101C800046E152E40E94C9120E940E10CD55DF4F6A
:101C900079836883C35AD040B8016F5F7F4F4FC0CC
:101CA000DF01A857B1092C91213031F008F468C048
:101CB000223009F0A0C064C0B69EA001B79E500DAE
:101CC0001124AFE0AC9DF001AD9DF00D1124E40FA7
:101CD000F51FE80FF91FE00FF11FB2E0B083CB54FE
:101CE000DF4FE881F981C55BD040AE9F9001AF9F87
:101CF000300D1124240F351F820F931FFC01E00FBC
:101D0000F11FB08360937C01C0927D0100937E013E
:101D1000072E000C880B990B0E948E1220E030E0F9
:101D200046E152E40E94C9120E940E10CD55DF4FC9
:101D300079836883C35AD040B80161507109072E76
:101D4000000C880B990B0E948E1220E030E046E1D7
:101D500052E40E94C9120E940E10CB55DF4F7983C6
:101D60006883C55AD040C955DF4FD982C882C75A47
:101D7000D040C555DF4F79826882CB5AD04046CFDC
:101D800060937C01C0927D0100937E01072E000CC0
:101D9000880B990B0E948E1220E030E046E152E45D
:101DA0000E94C9120E940E10CD55DF4F79836883BF
:101DB000C35AD040B801110F880B990B0E948E12A4
:101DC00020E030E046E152E40E94C9120E940E1069
:101DD000CB55DF4F79836883C55AD040C955DF4F53
:101DE000D982C882C75AD040C555DF4F19821882A0
:101DF000CB5AD0400BCFB201E65AFF4F5ECE0E5FFA
:101E00001F4F47CEFFEFCF1ADF0A415F5F4F1DCE56
:101E10008CE0F701DE01AF55BF4F01900D928A951E
:101E2000E1F7BE016F557F4F8FE791E00E946E0290
:101E3000E0917F01F09180010081118160917C012E
:101E400070E080E090E04AE00E94280789E491E099
:101E50000E94160760917E0170E080E090E04AE009
:101E60000E94280789E491E00E94160760917D0195
:101E700070E080E090E04AE00E9428078CE491E066
:101E80000E949A07D8011A968D919C911B970E94E7
:101E900090078BE591E00E949A07F8018281938177
:101EA0000E94900782E691E00E949A07D80114965A
:101EB0008D919C9115970E94900785E691E00E9474
:101EC0009A07F801868197810E94900788E691E041
:101ED0000E949A078FE791E00E9453020E944F01EF
:101EE00095CB80910F03909110030C94B811E2E709
:101EF000F2E01382128288EE93E0A0E0B0E08483E7
:101F00009583A683B7832FE031E03183208325ECCE
:101F100030E03587248724EC30E03787268720ECB3
:101F200030E0318B208B21EC30E0338B228B22ECA4
:101F300030E0358B248B26EC30E0378B268B118EEE
:101F4000128E138E148EE6E1F3E0138212828483E4
:101F50009583A683B7838FE191E091838083EFE03F
:101F6000F3E011821082138212821582148240E003
:101F700050E06DE271E0CF010C94A00897FB072EB2
:101F800016F4009407D077FD09D00E94F40F07FCE7
:101F900005D03EF4909581959F4F08957095619579
:101FA0007F4F0895A1E21A2EAA1BBB1BFD010DC095
:101FB000AA1FBB1FEE1FFF1FA217B307E407F507F9
:101FC00020F0A21BB30BE40BF50B661F771F881FD5
:101FD000991F1A9469F760957095809590959B016B
:101FE000AC01BD01CF010895AA1BBB1B51E107C085
:101FF000AA1FBB1FA617B70710F0A61BB70B881F99
:10200000991F5A95A9F780959095BC01CD01089527
:10201000EE0FFF1F0590F491E02D09940E9415101A
:102020006894B1110C94811308950E94661388F08E
:102030009F5798F0B92F9927B751B0F0E1F0660F8C
:10204000771F881F991F1AF0BA95C9F714C0B130CD
:1020500091F00E948013B1E008950C948013672FD3
:10206000782F8827B85F39F0B93FCCF386957795FC
:102070006795B395D9F73EF49095809570956195E5
:102080007F4F8F4F9F4F0895A0E0B0E0EAE4F0E16A
:102090000C948B13EC01009721F4CB010E942311C7
:1020A000B8C0FC01E60FF71F9C0122503109E2176E
:1020B000F30708F4ACC0D9010D911C9111970617D4
:1020C0001707B0F00530110508F49FC0C801049748
:1020D0008617970708F499C002501109061B170BC1
:1020E000019311936D937C93CF010E94B8118DC021
:1020F0005B01A01AB10A4C01800E911EA09124032D
:10210000B091250340E050E0E12CF12C109709F448
:102110004AC0A815B905D1F56D907C90119763015F
:1021200082E0C80ED11CCA14DB0480F1A3014A1955
:102130005B096A0182E0C80ED11C1296BC9012970E
:102140001396AC91B5E0CB16D10440F0B282A383D4
:1021500051834083D9016D937C930AC00E5F1F4F5A
:10216000C301800F911FF90191838083EB2DFA2F1A
:10217000E114F10431F0D7011396FC93EE9312971A
:1021800044C0F0932503E09324033FC08D919C91BC
:1021900011974817590708F4AC017D0112960D906C
:1021A000BC91A02DB3CF8091220390912303881579
:1021B0009905E1F446175707C8F4809105019091FD
:1021C0000601009741F48DB79EB7409109015091E7
:1021D0000A01841B950BE817F907C8F4F093230351
:1021E000E0932203F901718360830FC0CB010E9449
:1021F00023117C01009759F0A801BE010E94131120
:10220000CE010E94B811C70104C0CE0102C080E017
:1022100090E0CDB7DEB7EEE00C94A71381E090E03C
:10222000F8940C94BE13FB01DC0102C001900D92E6
:1022300041505040D8F70895FB01DC0101900D9208
:102240000020E1F70895CF93DF938230910510F4D9
:1022500082E090E0E0912403F091250320E030E05B
:10226000C0E0D0E0309711F1408151814817590703
:10227000C0F04817590761F482819381209719F0C3
:102280009B838A832BC0909325038093240326C0CD
:102290002115310519F04217530718F49A01BE01B0
:1022A000DF01EF010280F381E02DDCCF2115310544
:1022B00009F1281B390B2430310590F412968D91C9
:1022C0009C9113976115710521F0FB019383828323
:1022D00004C09093250380932403FD01329644C0EB
:1022E000FD01E20FF31F81939193225031092D9349
:1022F0003C933AC02091220330912303232B41F4D5
:102300002091070130910801309323032093220389
:1023100020910501309106012115310541F42DB7B9
:102320003EB74091090150910A01241B350BE09101
:102330002203F0912303E217F307A0F42E1B3F0BB7
:102340002817390778F0AC014E5F5F4F2417350727
:1023500048F04E0F5F1F5093230340932203819355
:10236000919302C0E0E0F0E0CF01DF91CF910895BA
:102370000F931F93CF93DF93009709F48CC0FC0158
:1023800032971382128200912403109125030115C4
:10239000110581F420813181820F931F2091220346
:1023A000309123032817390779F5F0932303E0933D
:1023B000220371C0D80140E050E0AE17BF0750F4CF
:1023C00012962D913C911397AD012115310509F11C
:1023D000D901F3CF9D01DA013383228360817181BA
:1023E000860F971F8217930769F4EC0128813981C2
:1023F000260F371F2E5F3F4F318320838A819B81B9
:1024000093838283452B29F4F0932503E0932403DF
:1024100042C01396FC93EE931297ED0149915991A6
:102420009E01240F351FE217F30771F4808191811B
:10243000840F951F029611969C938E9382819381AF
:1024400013969C938E931297E0E0F0E0D8011296D9
:102450008D919C911397009719F0F8018C01F6CF9C
:102460008D919C9198012E5F3F4F820F931F209179
:102470002203309123032817390769F4309729F490
:10248000109225031092240302C01382128210932B
:10249000230300932203DF91CF911F910F910895A1
:1024A0001F93FC0199278827BC01E89411911032F1
:1024B000E9F3193010F01E30C8F31B3251F01D3211
:1024C00049F4689406C00E947712610F711D811D46
:1024D000911D119110531A30B0F33EF490958095F0
:1024E000709561957F4F8F4F9F4F1F910895592F82
:1024F000482F372F262F660F771F881F991F660FCB
:10250000771F881F991F620F731F841F951F660F07
:10251000771F881F991F0895E89409C097FB3EF420
:1025200090958095709561957F4F8F4F9F4F992320
:10253000A9F0F92F96E9BB279395F695879577959E
:102540006795B795F111F8CFFAF4BB0F11F460FF5E
:102550001BC06F5F7F4F8F4F9F4F16C0882311F0B6
:1025600096E911C0772321F09EE8872F762F05C0CA
:10257000662371F096E8862F70E060E02AF09A9565
:10258000660F771F881FDAF7880F9695879597F95A
:1025900008950E94DC120C944D130E943F1338F0F2
:1025A0000E94461320F0952311F00C9436130C94DE
:1025B0003C1311240C9481130E945E1370F3959FB9
:1025C000C1F3950F50E0551F629FF001729FBB272A
:1025D000F00DB11D639FAA27F00DB11DAA1F649FC6
:1025E0006627B00DA11D661F829F2227B00DA11D79
:1025F000621F739FB00DA11D621F839FA00D611DFF
:10260000221F749F3327A00D611D231F849F600D1F
:10261000211D822F762F6A2F11249F5750409AF048
:10262000F1F088234AF0EE0FFF1FBB1F661F771FD4
:10263000881F91505040A9F79E3F510580F00C949F
:1026400036130C9481135F3FE4F3983ED4F38695E0
:1026500077956795B795F795E7959F5FC1F7FE2B3F
:10266000880F911D9695879597F9089597F99F671B
:1026700080E870E060E008959FEF80EC089500240A
:102680000A941616170618060906089500240A94D7
:1026900012161306140605060895092E0394000C5D
:1026A00011F4882352F0BB0F40F4BF2B11F460FFEC
:1026B00004C06F5F7F4F8F4F9F4F089557FD905815
:1026C000440F551F59F05F3F71F04795880F97FBF6
:1026D000991F61F09F3F79F08795089512161306B0
:1026E0001406551FF2CF4695F1DF08C016161706DF
:1026F0001806991FF1CF8695710561050894089514
:10270000E894BB2766277727CB0197F908952F9286
:102710003F924F925F926F927F928F929F92AF9271
:10272000BF92CF92DF92EF92FF920F931F93CF93BE
:10273000DF93CDB7DEB7CA1BDB0B0FB6F894DEBF55
:102740000FBECDBF09942A88398848885F846E847B
:102750007D848C849B84AA84B984C884DF80EE80C5
:10276000FD800C811B81AA81B981CE0FD11D0FB6CE
:10277000F894DEBF0FBECDBFED01089510E0C2E6B4
:10278000D0E004C0FE010E9408102196C336D10794
:06279000C9F7F894FFCF29
:10279600AB01AB010100002603800000000000E64B
:1027A60000B206AF008D00A1002D01000000001C44
:1027B60002EC01E501E201DF01DE010D0A00436FD3
:1027C6006F726428312C312C31293A200020717522
:1027D6006575652073697A65002C20002070726F1C
:1027E6006772657373706F696E74002062726963D5
:0C27F6006B00207800207A0020790000A1
:00000001FF
