:100000000C9463000C9415050C94EE040C948B0076
:100010000C948B000C948B000C948B000C948B0034
:100020000C948B000C948B000C948B000C948B0024
:100030000C948B000C948B000C948B000C948B0014
:100040000C94A4040C948B000C94DC020C94B60267
:100050000C948B000C948B000C948B000C948B00F4
:100060000C943C050C948B00000000002400270039
:100070002A0000000000250028002B0000000000DE
:1000800023002600290004040404040404040202DA
:100090000202020203030303030301020408102007
:1000A0004080010204081020010204081020000012
:1000B0000008000201000003040700000000000027
:1000C00000002910D30F11241FBECFEFD8E0DEBFF0
:1000D000CDBF11E0A0E0B1E0EAEFF8E202C0059088
:1000E0000D92A03AB107D9F723E0A0EAB1E001C030
:1000F0001D92AA35B207E1F710E0C2E6D0E004C0D5
:100100002197FE010E94BA10C136D107C9F70E949B
:10011000E4080C9470140C940000FC01918D828D05
:10012000981761F0828DDF01A80FB11D5D968C914B
:10013000928D9F5F9F73928F90E008958FEF9FEF56
:100140000895FC01918D828D981731F0828DE80F12
:10015000F11D858D90E008958FEF9FEF0895FC01CC
:10016000918D228D892F90E0805C9F4F821B910999
:100170008F739927089586EA92E00E94AF0021E0EC
:10018000892B09F420E0822F0895FC01848DDF0182
:10019000A80FB11DA35ABF4F2C91848D90E00196FA
:1001A0008F739927848FA689B7892C93A089B189E9
:1001B0008C9180648C93938D848D981306C00288F3
:1001C000F389E02D80818F7D80830895EF92FF92E7
:1001D0000F931F93CF93DF93EC0181E0888F9B8D6A
:1001E0008C8D981305C0E889F989808185FD24C02C
:1001F000F62E0B8D10E00F5F1F4F0F731127E02EAF
:100200008C8DE8120CC00FB607FCFACFE889F9898B
:10021000808185FFF5CFCE010E94C500F1CF8B8D87
:10022000FE01E80FF11DE35AFF4FF0820B8FEA89C0
:10023000FB898081806207C0EE89FF896083E8893D
:10024000F98980818064808381E090E0DF91CF91A3
:100250001F910F91FF90EF900895CF93DF93EC01E2
:10026000888D8823C9F0EA89FB89808185FD05C0D6
:10027000A889B9898C9186FD0FC00FB607FCF5CF10
:10028000808185FFF2CFA889B9898C9185FFEDCF58
:10029000CE010E94C500E7CFDF91CF91089580E0A5
:1002A00090E0892B29F00E94BB0081110C94000082
:1002B0000895833081F028F4813099F08230A1F0E4
:1002C00008958730A9F08830B9F08430D1F4809156
:1002D00080008F7D03C0809180008F7780938000A5
:1002E000089584B58F7702C084B58F7D84BD08954D
:1002F0008091B0008F7703C08091B0008F7D809394
:10030000B0000895CF93DF93282F30E0F901E25534
:10031000FF4F8491F901E656FF4FD491F901EA5756
:10032000FF4FC491CC2391F081110E945901EC2F11
:10033000F0E0EE0FFF1FE458FF4FA591B491EC9150
:10034000ED2381E090E021F480E002C080E090E0C5
:10035000DF91CF910895089585ED8093BC00809141
:10036000BC0084FDFCCF10924E0208954091FA012A
:10037000262F30E0240F311D21323105DCF420918D
:100380004E022430C9F4FC0180E090E0861758F456
:100390003091FA012191DC01A852BE4FA30FB11D8B
:1003A0002C930196F3CF8091FA01680F6093FA01C4
:1003B00080E0089581E0089582E0089508958FEF28
:1003C0009FEF08958FEF9FEF08958091D70190E000
:1003D0009195819591090895CF92DF92EF92FF92C6
:1003E0000F931F93CF93DF937C01262F972F8A01C2
:1003F00080917102882391F0C62FD72F6E01C40E11
:10040000D51ECC15DD0571F06991D701ED91FC91F8
:100410000190F081E02DC7010995F3CF642F822F61
:100420000E94B601C801DF91CF911F910F91FF90FB
:10043000EF90DF90CF900895CF93DF931F92CDB7C9
:10044000DEB76983209171022223D1F020916F02DF
:10045000203240F021E030E0FC013383228380E051
:1004600090E015C080917002E82FF0E0E15BFD4F55
:10047000998190838F5F8093700280936F0205C093
:1004800061E0CE0101960E94B60181E090E00F90FC
:10049000DF91CF910895DC01ED91FC9180819181F4
:1004A00008950E94C011CF93DF93FC01A081B18118
:1004B000CD91DC91119712968D919C911397918318
:1004C0008083248535852150310935872487CD01E6
:1004D0000E946A12CE01DF91CF910895CF92DF92F0
:1004E000EF92FF920F931F93CF93DF9300D0CDB77E
:1004F000DEB76C0184E090E069837A830E94D511B5
:100500008C01D6011496ED90FC901597C7010E94BE
:10051000D511F8019183808313821282A70169812A
:100520007A810E94C511D6018D919C911197892BDA
:1005300019F40D931C9307C0D6011296ED91FC910E
:10054000139713830283F6011383028384859585B1
:100550000196958784870F900F90DF91CF911F911F
:100560000F91FF90EF90DF90CF9008951F920F9220
:100570000FB60F9211242F933F934F935F936F9376
:100580007F938F939F93AF93BF93EF93FF9386EAED
:1005900092E00E94C500FF91EF91BF91AF919F91B2
:1005A0008F917F916F915F914F913F912F910F901C
:1005B0000FBE0F901F9018951F920F920FB60F92BB
:1005C00011242F938F939F93EF93FF93E091B602A3
:1005D000F091B7028081E091BC02F091BD0282FDF2
:1005E00012C090818091BF028F5F8F732091C002F3
:1005F000821751F0E091BF02F0E0EA55FD4F958F70
:100600008093BF0201C08081FF91EF919F918F91F4
:100610002F910F900FBE0F901F9018951F93CF939F
:10062000DF93282F30E0F901E255FF4F8491F90163
:10063000E656FF4FD491F901EA57FF4FC491CC23FE
:10064000C9F0162F81110E945901EC2FF0E0EE0F36
:10065000FF1FEE58FF4FA591B4918FB7F894111179
:1006600005C09C91ED2FE095E92302C0EC91ED2BA4
:10067000EC938FBFDF91CF911F9108950F931F933C
:10068000CF93DF938C01EB018130910581F08230B3
:100690009105E9F0892B39F51B861A868E819F8199
:1006A00061E00E940E038885998560E00AC09B87FF
:1006B0008A878E819F8160E00E940E0388859985DC
:1006C00061E0DF91CF911F910F910C940E038E8109
:1006D0009F8160E00E940E038885998560E00E94FA
:1006E0000E031B870A87DF91CF911F910F91089509
:1006F000CF93DF932FB7F894809124029091250235
:10070000A0912602B09127022FBF8093D30190932E
:10071000D401A093D501B093D6018091A201882382
:1007200009F473C0E091A402F091A502828593853B
:10073000009721F0019709F444C067C040815181BE
:10074000C091A001D091A101A885B9851196AA0FE9
:10075000BB1FAC0FBD1F8D919C919C012250310994
:100760004217530784F08FEF90E00E9430086091A9
:10077000A4027091A50282E090E00E943E0381E015
:100780008093A30142C0408151819C0128523109CC
:10079000421753074CF0E459F24019F488E790E00F
:1007A0000CC08EE690E009C0208131818C529140CE
:1007B0002817390754F18CE890E0DF91CF910C9421
:1007C000300840815181C091A001D091A101A8853C
:1007D000B9851196AA0FBB1FAC0FBD1F8D919C91BF
:1007E0009C012E5F3F4F241735070CF0BCCF408192
:1007F00051812A5D3F4F241735076CF620813181E6
:10080000845D9E4F82179307B4F6DF91CF910895D0
:1008100083E00E948201E091A402F091A502268566
:1008200037852817390719F197878687009719F0B8
:10083000019771F01AC084859585892B21F48081F8
:100840009181019603C0808191810197918380837A
:1008500084859585892B21F480819181019703C03E
:10086000808191810196918380830C94780308950F
:1008700082E00E948201E091A402F091A502248509
:1008800035852817390719F195878487009719F05E
:10089000019771F01AC086859785892B21F4808194
:1008A0009181019703C0808191810196918380831A
:1008B00086859785892B21F480819181019603C0DB
:1008C000808191810197918380830C9478030895AE
:1008D000CF93DF9390E0FC01E656FF4F2491FC019B
:1008E000EA57FF4F8491882361F190E0880F991FA8
:1008F000FC01E859FF4FC591D491FC01EE58FF4F20
:10090000A591B491611109C09FB7F8948881209591
:1009100082238883EC912E230BC0623061F49FB751
:10092000F8943881822F809583238883EC912E2B35
:100930002C939FBF06C08FB7F894E8812E2B288395
:100940008FBFDF91CF9108951F920F920FB60F9234
:1009500011242F933F938F939F93AF93BF938091D5
:10096000240290912502A0912602B0912702309195
:10097000230223E0230F2D3720F40196A11DB11D82
:1009800005C026E8230F0296A11DB11D2093230266
:100990008093240290932502A0932602B09327020D
:1009A00080911F0290912002A0912102B091220219
:1009B0000196A11DB11D80931F0290932002A09368
:1009C0002102B0932202BF91AF919F918F913F91ED
:1009D0002F910F900FBE0F901F9018951F920F929E
:1009E0000FB60F9211242F933F934F935F936F9302
:1009F0007F938F939F93AF93BF93EF93FF93E09178
:100A00000201F09103010995FF91EF91BF91AF9120
:100A10009F918F917F916F915F914F913F912F9116
:100A20000F900FBE0F901F9018951F920F920FB648
:100A30000F9211242F933F934F935F936F937F9364
:100A40008F939F93AF93BF93EF93FF93E091000138
:100A5000F09101010995FF91EF91BF91AF919F91A5
:100A60008F917F916F915F914F913F912F910F9057
:100A70000FBE0F901F9018951F920F920FB60F92F6
:100A800011242F933F934F935F936F937F938F9393
:100A90009F93AF93BF93EF93FF938091B900887FAB
:100AA000803609F49CC068F5883209F45BC090F484
:100AB000803109F454C038F4882309F4F6C0883032
:100AC00009F44DC0F6C0883109F44CC0803209F4F5
:100AD0005DC0EFC0803409F468C048F4803309F485
:100AE00055C0883309F0E5C080934C02D8C08035EA
:100AF00009F44FC0883509F45DC0883409F0D9C0C5
:100B0000D6C0883909F4C7C0A8F4883709F467C08B
:100B100038F4883609F463C0803709F460C0C9C06E
:100B2000883809F4B8C0803909F45FC0803809F00A
:100B3000C0C05BC0803B09F486C038F4803A09F439
:100B400066C0883A09F47FC0B4C0803C09F4A7C0ED
:100B5000883C09F4A4C0883B09F48AC0AAC08091EB
:100B6000290210C090914B0280914A02981770F5AB
:100B7000E0914B0281E08E0F80934B02F0E0E65D46
:100B8000FD4F80818093BB0085EC86C080934C0232
:100B90008EC0E0914B0281E08E0F80934B028091DA
:100BA000BB00F0E0E65DFD4F808390914B028091A9
:100BB0004A026EC0E0914B0281E08E0F80934B029F
:100BC0008091BB00F0E0E65DFD4F808380914D0297
:100BD00081116DC081E08093280284EA61C083E0C6
:100BE00080934E0210921E02CFCF80911E0280325F
:100BF00008F051C0E0911E0281E08E0F80931E022A
:100C00008091BB00F0E0E250FE4F8083BDCF85ECC9
:100C10008093BC0010924E0280911E02803230F40C
:100C2000E0911E02F0E0E250FE4F108260911E0241
:100C300070E0E091FC01F091FD018EEF91E00995EB
:100C400010921E0236C084E080934E021092FB0187
:100C50001092FA01E091F801F091F9010995809163
:100C6000FA01811105C081E08093FA011092D80148
:100C7000E091FB0181E08E0F8093FB01F0E0E852F0
:100C8000FE4F80818093BB009091FB018091FA011F
:100C9000981708F479CF85E88093BC000AC085ECEA
:100CA0008093BC0010924E0204C010924C020E942D
:100CB000AC01FF91EF91BF91AF919F918F917F9187
:100CC0006F915F914F913F912F910F900FBE0F90B9
:100CD0001F9018950E94DD066091A4027091A502F4
:100CE00081E090E00E943E032FB7F89480912402A7
:100CF00090912502A0912602B09127022FBF8093E8
:100D0000D3019093D401A093D501B093D6018FB7AE
:100D1000F89440912402509125026091260270912E
:100D200027028FBF8091D3019091D401A091D5016A
:100D3000B091D60188539F4FAF4FBF4F841795078F
:100D4000A607B70720F76091A4027091A50282E080
:100D500090E00E943E03E091A402F091A50211826E
:100D600010820895CF92DF92EF92FF920F931F931C
:100D7000CF93DF936C017A018B01C0E0D0E0CE15F8
:100D8000DF0589F0D8016D918D01D601ED91FC91BF
:100D90000190F081E02DC6010995892B11F47E01A7
:100DA00002C02196ECCFC701DF91CF911F910F9127
:100DB000FF90EF90DF90CF90089581309105A1F0E2
:100DC0008230910501F1892B81F560E08CE00E9471
:100DD0000E0361E08BE00E940E0360E08AE00E9457
:100DE0000E0384E892E01DC061E08CE00E940E03D7
:100DF00060E08BE00E940E0360E08AE00E940E0338
:100E000084E792E00EC060E08CE00E940E0360E098
:100E10008BE00E940E0360E08AE00E940E0384E9EA
:100E200092E09093A5028093A4020895009769F040
:100E3000FC0101900020E9F73197AF01481B590BE5
:100E4000BC0186EA92E00C94B20680E090E008953E
:100E5000CF93DF930E941607EC018AE391E00E9492
:100E600016078C0F9D1FDF91CF9108958F929F924F
:100E7000AF92BF920F931F93CF93DF93CDB7DEB79F
:100E8000A1970FB6F894DEBF0FBECDBF19A24230B6
:100E900008F44AE08E010F5D1F4F842E912CA12C87
:100EA000B12CA50194010E948410E62FB901CA015A
:100EB00001501109EA3014F4E05D01C0E95CD80189
:100EC000EC93232B242B252B61F7C8010E941607D6
:100ED000A1960FB6F894DEBF0FBECDBFDF91CF91C4
:100EE0001F910F91BF90AF909F908F900895CF92D8
:100EF000DF92EF92FF92CF93DF936B017C01E09141
:100F0000A602F091A7020190F081E02D6DE286EA41
:100F100092E00995EC0166277727CB016C197D09D2
:100F20008E099F094AE00E9436078C0F9D1FDF91B2
:100F3000CF91FF90EF90DF90CF900895BC01990F73
:100F4000880B990B97FD0C9477074AE00C943607B1
:100F5000CF93DF93BC01990F880B990B97FF03C0C8
:100F60000E94770703C04AE00E943607EC018AE33B
:100F700091E00E9416078C0F9D1FDF91CF9108957D
:100F800081E08093710280E28093490310927002A5
:100F900010926F0262E18AE493E00E941C0261E019
:100FA0008AE493E00E941C028BE891E00E941607FD
:100FB00081E090E00E94A80790916F028091490320
:100FC000913208F046C020914E022111FCCF22E060
:100FD00020934E0221E020934D022FEF20934C02EC
:100FE00010924B0290934A02AFE4B2E04AE252E020
:100FF000FA012E2F241B291718F42D912193F9CFD4
:101000001092290290912902880F892B809329023E
:1010100080912802813061F4109228028091290287
:101020008093BB008091BC0083FDF8CF85EC01C0AC
:1010300085EE8093BC0080914E028230E1F3809176
:101040004C028F3F31F080914C02803211F0809140
:101050004C021092700210926F0210927102089569
:10106000CF93DF93EC0161E089E00E946804209750
:1010700011F460E004C0CF3FD10531F461E089E0B4
:10108000DF91CF910C940E03E7EBF0E0E491E330B5
:10109000F9F048F4E130B9F0E230A1F584B58062AE
:1010A00084BDC8BD34C0E730E9F0E83019F1E43060
:1010B00049F580918000806280938000D0938B00FE
:1010C000C0938A0024C084B5806884BDC7BD1FC09A
:1010D00080918000806880938000D0938900C093C5
:1010E000880015C08091B00080688093B000C093E4
:1010F000B3000DC08091B00080628093B000C093B7
:10110000B40005C0C038D1050CF0B8CFB2CFDF9124
:10111000CF9108950F931F93CF93DF93EC018881B4
:101120009981009729F02A813B812617370788F497
:101130008B016F5F7F4F0E94F610009761F09983DB
:1011400088831B830A832C813D81232B11F4FC01AE
:10115000108281E001C080E0DF91CF911F910F915B
:101160000895CF93DF93EC0188819981009711F066
:101170000E946A12198218821D821C821B821A82A6
:10118000DF91CF910895EF92FF920F931F93CF932A
:10119000DF93EC017B018A01BA010E948A08811168
:1011A00004C0CE010E94B10807C01D830C83B701A3
:1011B000888199810E94CE11CE01DF91CF911F913C
:1011C0000F91FF90EF900895CF93DF93CDB7DEB7E7
:1011D000C05BD1090FB6F894DEBF0FBECDBF7894C7
:1011E00084B5826084BD84B5816084BD85B582602C
:1011F00085BD85B5816085BD80916E0081608093DD
:101200006E00109281008091810082608093810045
:101210008091810081608093810080918000816055
:10122000809380008091B10084608093B1008091B0
:10123000B00081608093B00080917A0084608093D8
:101240007A0080917A00826080937A0080917A009F
:10125000816080937A0080917A00806880937A0020
:101260001092C10061E08AE00E94680461E08BE0B6
:101270000E94680461E08CE00E94680461E084E000
:101280000E94680461E085E00E94680461E086E0F5
:101290000E94680461E087E00E94680461E088E0E1
:1012A0000E94680461E08DE00E94680461E089E0CA
:1012B0000E94680462E082E00E94680462E083E0C9
:1012C0000E94680488E394E09093010180930001F8
:1012D000809169008C7F816080936900E89A88E042
:1012E00094E0909303018093020180916900837FD1
:1012F000846080936900E99AE091B602F091B702A8
:1013000082E08083E091B202F091B3021082E0911A
:10131000B402F091B5028FEC80831092BE02E0918E
:10132000BA02F091BB0286E08083E091B802F091AE
:10133000B902808180618083E091B802F091B902A6
:10134000808188608083E091B802F091B902808149
:1013500080688083E091B802F091B90280818F7D2E
:1013600080831092B4011092B3011092B6011092D2
:10137000B5018CE090E09093B8018093B7016EE6E0
:1013800072E07093BA016093B90123E532E03093C3
:10139000BC012093BB018BE492E09093BE0180934B
:1013A000BD011092C0011092BF011092B0011092C5
:1013B000B1011092B2011092C4011092C3011092B7
:1013C000C6011092C50145E050E05093C80140931A
:1013D000C7017093CA016093C9013093CC01209377
:1013E000CB019093CE018093CD011092D001109249
:1013F000CF011EAA1DAA2AE134E038AF2FAB1AAEE6
:1014000019AE88E090E09CAF8BAF8DE090E09EAF8E
:101410008DAF82E090E021969FAF8EAF219723960B
:101420001FAE1EAE239725961FAE1EAE259727969C
:101430001FAE1EAE279729963FAF2EAF29972B964A
:101440001FAE1EAE2B9766E070E02D967FAF6EAF9D
:101450002D9767E070E02F967FAF6EAF2F97619664
:101460009FAF8EAF619763961FAE1EAE6397659672
:101470001FAE1EAE659767961FAE1EAE6797699644
:101480003FAF2EAF69976B961FAE1EAE6B9724E0F1
:1014900030E06D963FAF2EAF6D976F965FAF4EAF5A
:1014A0006F97A1969FAF8EAFA197A3961FAE1EAE6A
:1014B000A397A5961FAE1EAEA597CE018B599F4F41
:1014C00020E1FE01EB5AFF4FDC0101900D922A95BD
:1014D000E1F720E1FE01EB5BFF4FDE01AB58BF4FB0
:1014E00001900D922A95E1F720E1FE01F596DE01CB
:1014F000AB57BF4F01900D922A95E1F71A821982DE
:1015000020E1FC01DE01139601900D922A95E1F78E
:1015100020E1FE01EB58FF4FDE01539601900D9242
:101520002A95E1F720E1FE01EB57FF4FDE0193968C
:1015300001900D922A95E1F79CAB8BAB84E3FE0101
:101540003196A2E7B2E001900D928A95E1F781E031
:1015500090E00E94DD068091A0019091A1010E947F
:101560006A128091BF019091C001892B21F481E022
:101570008093040102C01092040183EB91E00E9469
:1015800053029093A1018093A00184EB90E00E940C
:10159000300880E090E00E946A0684EB90E00E94B0
:1015A000300882E090E00E946A0684EB90E00E949E
:1015B000300881E090E00E946A0611E01093A201D9
:1015C0008FEF90E00E9430081093A3012E0121EAD2
:1015D000420E511C3DE2B32E4DE2A42E8091D1016A
:1015E0009091D201892B09F0D3C086EA92E00E9443
:1015F000AF00892B09F492C086EA92E00E94A10014
:101600008B3609F45DC086EA92E00E948D00182FA7
:10161000F20111821082138212821582148260916B
:101620004303709144036115710541F040914703F4
:1016300050914803C2010E94C30803C0C2010E9426
:10164000B108C955DF4F1883C75AD040C855DF4F7E
:101650001882C85AD040F201048115810F5F1F4FD4
:10166000B801C2010E948A08882381F0F20120811A
:10167000318184819581BE0169557F4F820F931F0F
:101680000E94CE11F2011583048303C0C2010E949F
:10169000B108F201608171816115710539F04481F1
:1016A000558183E493E00E94C30804C083E493E07F
:1016B0000E94B108F201808191810E946A122EC0BD
:1016C00086EA92E00E948D008091AE019091AF0178
:1016D0009C012F5F3F4F3093AF012093AE0165E037
:1016E00070E00E9470108C0180914303909144033C
:1016F000009719F00E94021301C060E0000F111F53
:10170000F801EC55FE4F70E07183608340E050E0DB
:101710006CE371E083E493E00E94C3082091AE0182
:101720003091AF01C90165E070E00E947010892B13
:10173000F9F4232BE9F085E090E00E94D511FC013B
:101740008091A40180838091A60181838091A8016A
:1017500082838091AA0183838091AC018483BF013D
:1017600083EC91E00E946E021092AF011092AE01E4
:1017700086EA92E00E94A100853651F486EA92E062
:101780000E948D0021E030E03093D2012093D101FE
:101790008091D1019091D201019709F0E4C086EACD
:1017A00092E00E94D5118C0120E030E080E090E0D2
:1017B00040E050E0BC01620F731FFA01E60FF71F13
:1017C000E00FF11F10824F5F5F4F4F305105A9F7B7
:1017D0000F968D32910561F7235D3F4F233A62E00A
:1017E000360721F78091560390915703009711F423
:1017F0008AE593E0F201E81BF90BCF010E94A807EC
:10180000F801ED55FD4F108231961082319610820D
:101810008BE291E00E941607F80165AD70E080E070
:1018200090E04AE00E9436078AE391E00E941607A2
:10183000FF24F3948091CF019091D001892B09F47A
:1018400075C083EC91E00E945302FC0124818FEF6C
:10185000820F833008F067C090819F3008F063C02A
:1018600071817F3008F05FC032813F3008F05BC08B
:1018700083818F3008F057C0931328C0781709F47C
:1018800052C0E72FF0E0A82FB0E0781718F4AF01AE
:10189000BD0102C0AD01BF0130E0FDE29F9FC0016C
:1018A00011246417750734F2FA01E80FF91FE00FED
:1018B000F11FF0822130310519F44F5F5F4FF1CFF6
:1018C000F78623303105C9F7F68EF7CF78132BC092
:1018D000492F50E0E32FF0E0931718F4CA01AF014D
:1018E00001C0CF0130E0B89ED001B99EB00D1124E7
:1018F000A70FB11D60E070E0481759070CF49ACFAC
:10190000FB01EA0FFB1FE00FF11FF08221303105D0
:1019100021F40196635D7F4FEFCFF78623303105C9
:10192000C1F7F68EF6CF0E94C00784CF1093C20194
:101930000093C1018BE291E00E941607E091C10182
:10194000F091C20165AD70E080E090E04AE00E9455
:1019500036078AE391E00E94160782E090E09093B8
:10196000D2018093D1018091D1019091D20102974F
:1019700009F016C38091BF019091C00149970CF006
:101980000FC300E010E09FE0792E8CE391E00E940D
:101990002807E12CF12C709E6001719ED00C11245F
:1019A0008CE391E00E942807812C912C8091C10149
:1019B0009091C201B89CF001B99CF00D1124EC0D7E
:1019C000FD1DE80FF91FEE0DFF1D608170E080E046
:1019D00090E04AE00E9436072FEF821A920A3FE019
:1019E0008316910419F76FEFE61AF60A8FE0E816EE
:1019F000F104B1F60F5F1F4F0330110531F68CE390
:101A000091E00E9428078DE391E00E942807009151
:101A1000C1011091C20184E491E00E9428079090D6
:101A2000B1018FE0882E62E069150CF450C283E8A2
:101A300091E00E9428072091B201292C092C000C6A
:101A40003308829C3001839C700C11242F300CF0E1
:101A500038C280E891E0C055DF4F2883C05BD0409A
:101A60000E9428073091B001C055DF4F2881C05B2C
:101A7000D040E22E022E000CFF08F7013296C55529
:101A8000DF4FF983E883CB5AD040C7010297C35593
:101A9000DF4F99838883CD5AD0403F300CF00BC282
:101AA0008DE791E0C055DF4F2883C05BD040C15522
:101AB000DF4F3883CF5AD0400E942807C155DF4FEF
:101AC0003881CF5AD0403093B0019092B101C055C7
:101AD000DF4F2881C05BD0402093B201C32E032E7C
:101AE000000CDD08BC9CF001BD9CF00D1124E60D3E
:101AF000F71DC8018E0F9F1FC755DF4F998388833D
:101B0000C95AD040FC01EE0DFF1D8081813009F0E3
:101B1000D0C1C6010296B89EB001B99E700D1124C5
:101B2000660D771D600F711FDB01AE0DBF1D8C911F
:101B3000813031F008F44DC0823009F0BAC149C09B
:101B40003C3008F046C097FC44C027FD42C02E3010
:101B500009F43FC022E0208346019FEF891A990AC9
:101B6000A89CC001A99C900D1124860D971D800F83
:101B7000911FFC01EE0DFF1D20832C93E3E0CE0EA0
:101B8000D11CAC9CF001AD9CF00D1124E60DF71DAD
:101B90000E0F1F1FF801EE0DFF1D2083A7014F5FE1
:101BA0005F4FC755DF4FE881F981C95AD040E40F34
:101BB000F51F2083FC01E40FF51F2083FB01E40FD8
:101BC000F51F2083F801E40FF51F208384E591E0E1
:101BD00066C0A60142505109B49EC001B59E900D49
:101BE0001124860D971D800F911FFC01EE0DFF1D26
:101BF0004081413031F008F45AC0423009F059C1F7
:101C000056C04DEF430F4C3008F051C097FC4FC009
:101C100012160CF04CC0AC9CA001AD9C500D1124D0
:101C2000460D571D400F511FDA01AE0DBF1D72E06A
:101C30007C93460121E0821A9108A89C9001A99CFE
:101C4000300D1124260D371D200F311FD901AE0D87
:101C5000BF1D7C93708363E0C61AD108AC9CF00171
:101C6000AD9CF00D1124E60DF71D0E0F1F1FF8019E
:101C7000EE0DFF1D7083D7011196FA01EA0FFB1FCD
:101C80007083F901EA0FFB1F7083FC01EA0FFB1F51
:101C90007083F801EA0FFB1F708383E591E00E94D7
:101CA000280702E010E09101A701B40118C1BC9C13
:101CB000C001BD9C900D1124860D971D800F911FB2
:101CC000C555DF4FE881F981CB5AD040E80FF91FA5
:101CD0004081413031F008F441C0423009F0E9C0A0
:101CE0003DC03E30D8F597FC39C02C30B8F5DC014A
:101CF000AE0DBF1D52E05C9347012FEF821A920A8E
:101D0000DC01A80DB91D5C93508397012D5F3F4FF7
:101D1000FC01E20FF31F5083C6010196A89EF0015B
:101D2000A99EF00D1124E60DF71DE00FF11FDF0154
:101D3000AE0DBF1D5C93DF01A80DB91D5C93C555A9
:101D4000DF4FA881B981CB5AD040AE0FBF1F5C9343
:101D5000E20FF31F50838AE591E057C0BC9CC0019D
:101D6000BD9C900D1124860D971D800F911FC355AA
:101D7000DF4FE881F981CD5AD040E80FF91F40814B
:101D8000413031F008F448C0423009F092C044C0FC
:101D90003E3008F041C097FC3FC02C30E8F5DC0134
:101DA000AE0DBF1D52E05C93470131E0831A9108EC
:101DB000DC01A80DB91D5C935083970123503109B4
:101DC000FC01E20FF31F5083C6010196A89EF001AB
:101DD000A99EF00D1124E60DF71DE00FF11FDF01A4
:101DE000AE0DBF1D5C93DF01A80DB91D5C93C355FB
:101DF000DF4FA881B981CD5AD040AE0FBF1F5C9391
:101E0000E20FF31F508389E591E00E94280701E06B
:101E100010E09101A4014BC03E3008F04AC097FC8D
:101E200048C027FD46C02E3009F443C0BC9CB00119
:101E3000BD9C700D1124BFE0B29DF001B39DF00D6B
:101E40001124E60FF71FE00FF11FEE0DFF1DA2E0BA
:101E5000A083C6010196A10141505109B89E90018D
:101E6000B99E300D1124B49FC001B59F900D11246F
:101E7000280F391F200F311FF901EE0DFF1DA08320
:101E8000A7014F5F5F4F860F971F800F911FFC01C7
:101E9000E40FF51FA083F901E40FF51FA0838EE581
:101EA00091E00E94280700E010E09101A701B6012F
:101EB00016C03F5FF2CD2093B2011092B0012F5FA8
:101EC000C5CD9092B1011092B2019394ACCD03E0D4
:101ED00010E020E030E040E050E060E070E0CE0153
:101EE0008B569F4F0E94D90FBE016B567F4F83EBDD
:101EF00091E00E946E028091B001082E000C990BB7
:101F00000E949E0783E691E00E9416078091B2012D
:101F1000082E000C990B0E949E0783E691E00E9418
:101F200016078091B101082E000C990B0E949E07A4
:101F300086E691E00E942807C156DF4F888199818B
:101F4000CF59D0400E949E0785E791E00E94280764
:101F5000C956DF4F88819981C759D0400E949E079A
:101F60008CE791E00E942807C756DF4F888199814E
:101F7000C959D0400E949E078FE791E00E94280730
:101F8000C556DF4F88819981CB59D0400E949E076A
:101F900082E891E00E9428078CE391E00E942807E4
:101FA0000E944F011BCB80914303909144030C94FA
:101FB0006A12AF92BF92CF92DF92EF92FF920F938D
:101FC0001F93CF93DF93EC015B016A017901CB0191
:101FD0000E949E0783E691E00E941607C6010E94B8
:101FE0009E0785E891E00E942807B501BB0C880B8D
:101FF000990B0E94401320E030E046E152E40E9439
:102000007B130E94C0107B836A83B601DD0C880BB2
:10201000990B0E94401320E030E046E152E40E9418
:102020007B130E94C0107D836C83FF82EE821B872E
:102030000A871986188619821882CE01DF91CF91FE
:102040001F910F91FF90EF90DF90CF90BF90AF90D6
:102050000895E6EAF2E01382128288EE93E0A0E0AF
:10206000B0E084839583A683B7832FE031E031838A
:10207000208325EC30E03587248724EC30E0378757
:10208000268720EC30E0318B208B21EC30E0338B45
:10209000228B22EC30E0358B248B26EC30E0378B22
:1020A000268B118E128E138E148EEAE4F3E01382C7
:1020B000128284839583A683B7838FE191E0918315
:1020C0008083E3E4F3E0118210821382128215828E
:1020D000148240E050E06CE371E0CF010C94C3083F
:1020E00097FB072E16F4009407D077FD09D00E94C5
:1020F000A61007FC05D03EF4909581959F4F08955A
:10210000709561957F4F0895A1E21A2EAA1BBB1B03
:10211000FD010DC0AA1FBB1FEE1FFF1FA217B307B3
:10212000E407F50720F0A21BB30BE40BF50B661FC9
:10213000771F881F991F1A9469F76095709580958D
:1021400090959B01AC01BD01CF010895AA1BBB1B5B
:1021500051E107C0AA1FBB1FA617B70710F0A61BA7
:10216000B70B881F991F5A95A9F780959095BC01C8
:10217000CD010895EE0FFF1F0590F491E02D099415
:102180000E94C7106894B1110C94331408950E94F2
:10219000181488F09F5798F0B92F9927B751B0F0CD
:1021A000E1F0660F771F881F991F1AF0BA95C9F7DB
:1021B00014C0B13091F00E943214B1E008950C9433
:1021C0003214672F782F8827B85F39F0B93FCCF3E6
:1021D000869577956795B395D9F73EF49095809558
:1021E000709561957F4F8F4F9F4F0895A0E0B0E0AD
:1021F000ECEFF0E10C943D14EC01009721F4CB01DD
:102200000E94D511B8C0FC01E60FF71F9C012250B7
:102210003109E217F30708F4ACC0D9010D911C9104
:10222000119706171707B0F00530110508F49FC085
:10223000C80104978617970708F499C0025011093E
:10224000061B170B019311936D937C93CF010E9492
:102250006A128DC05B01A01AB10A4C01800E911E5A
:10226000A0915803B091590340E050E0E12CF12CCB
:10227000109709F44AC0A815B905D1F56D907C9066
:102280001197630182E0C80ED11CCA14DB0480F1EF
:10229000A3014A195B096A0182E0C80ED11C12969B
:1022A000BC9012971396AC91B5E0CB16D10440F0D8
:1022B000B282A38351834083D9016D937C930AC07A
:1022C0000E5F1F4FC301800F911FF901918380831F
:1022D000EB2DFA2FE114F10431F0D7011396FC93A2
:1022E000EE93129744C0F0935903E09358033FC014
:1022F0008D919C9111974817590708F4AC017D0105
:1023000012960D90BC91A02DB3CF80915603909161
:10231000570388159905E1F446175707C8F48091CB
:10232000050190910601009741F48DB79EB7409149
:10233000090150910A01841B950BE817F907C8F4AD
:10234000F0935703E0935603F901718360830FC044
:10235000CB010E94D5117C01009759F0A801BE0164
:102360000E94C511CE010E946A12C70104C0CE01AD
:1023700002C080E090E0CDB7DEB7EEE00C945914D7
:1023800081E090E0F8940C947014FB01DC0102C031
:1023900001900D9241505040D8F70895FB01DC01A7
:1023A00001900D920020E1F70895CF93DF938230E2
:1023B000910510F482E090E0E0915803F091590308
:1023C00020E030E0C0E0D0E0309711F14081518151
:1023D00048175907C0F04817590761F48281938163
:1023E000209719F09B838A832BC090935903809385
:1023F000580326C02115310519F04217530718F468
:102400009A01BE01DF01EF010280F381E02DDCCFF4
:102410002115310509F1281B390B2430310590F4C1
:1024200012968D919C9113976115710521F0FB0116
:102430009383828304C09093590380935803FD01D2
:10244000329644C0FD01E20FF31F81939193225015
:1024500031092D933C933AC0209156033091570394
:10246000232B41F420910701309108013093570349
:102470002093560320910501309106012115310565
:1024800041F42DB73EB74091090150910A01241B38
:10249000350BE0915603F0915703E217F307A0F4D0
:1024A0002E1B3F0B2817390778F0AC014E5F5F4FAA
:1024B0002417350748F04E0F5F1F50935703409382
:1024C00056038193919302C0E0E0F0E0CF01DF91E9
:1024D000CF9108950F931F93CF93DF93009709F443
:1024E0008CC0FC0132971382128200915803109124
:1024F00059030115110581F420813181820F931F49
:1025000020915603309157032817390779F5F09336
:102510005703E093560371C0D80140E050E0AE1776
:10252000BF0750F412962D913C911397AD012115E0
:10253000310509F1D901F3CF9D01DA0133832283FB
:1025400060817181860F971F8217930769F4EC01F0
:1025500028813981260F371F2E5F3F4F318320831B
:102560008A819B8193838283452B29F4F0935903BD
:10257000E093580342C01396FC93EE931297ED013B
:10258000499159919E01240F351FE217F30771F409
:1025900080819181840F951F029611969C938E9352
:1025A0008281938113969C938E931297E0E0F0E0E2
:1025B000D80112968D919C911397009719F0F8010C
:1025C0008C01F6CF8D919C9198012E5F3F4F820F29
:1025D000931F20915603309157032817390769F448
:1025E000309729F4109259031092580302C01382B5
:1025F00012821093570300935603DF91CF911F91DE
:102600000F9108951F93FC0199278827BC01E89436
:1026100011911032E9F3193010F01E30C8F31B325B
:1026200051F01D3249F4689406C00E942913610FCD
:10263000711D811D911D119110531A30B0F33EF49C
:1026400090958095709561957F4F8F4F9F4F1F910B
:102650000895592F482F372F262F660F771F881F71
:10266000991F660F771F881F991F620F731F841FA2
:10267000951F660F771F881F991F0895E89409C05A
:1026800097FB3EF490958095709561957F4F8F4FA5
:102690009F4F9923A9F0F92F96E9BB279395F695BB
:1026A000879577956795B795F111F8CFFAF4BB0F39
:1026B00011F460FF1BC06F5F7F4F8F4F9F4F16C09D
:1026C000882311F096E911C0772321F09EE8872F27
:1026D000762F05C0662371F096E8862F70E060E0E3
:1026E0002AF09A95660F771F881FDAF7880F96955C
:1026F000879597F908950E948E130C94FF130E94FA
:10270000F11338F00E94F81320F0952311F00C9487
:10271000E8130C94EE1311240C9433140E9410143B
:1027200070F3959FC1F3950F50E0551F629FF00124
:10273000729FBB27F00DB11D639FAA27F00DB11D3D
:10274000AA1F649F6627B00DA11D661F829F2227C6
:10275000B00DA11D621F739FB00DA11D621F839F4D
:10276000A00D611D221F749F3327A00D611D231F23
:10277000849F600D211D822F762F6A2F11249F5771
:1027800050409AF0F1F088234AF0EE0FFF1FBB1F74
:10279000661F771F881F91505040A9F79E3F510533
:1027A00080F00C94E8130C9433145F3FE4F3983EEC
:1027B000D4F3869577956795B795F795E7959F5FDD
:1027C000C1F7FE2B880F911D9695879597F908956F
:1027D00097F99F6780E870E060E008959FEF80ECD4
:1027E000089500240A941616170618060906089577
:1027F00000240A9412161306140605060895092EDD
:102800000394000C11F4882352F0BB0F40F4BF2B4B
:1028100011F460FF04C06F5F7F4F8F4F9F4F08958B
:1028200057FD9058440F551F59F05F3F71F0479581
:10283000880F97FB991F61F09F3F79F08795089566
:10284000121613061406551FF2CF4695F1DF08C085
:10285000161617061806991FF1CF869571056105A2
:1028600008940895E894BB2766277727CB0197F94A
:1028700008952F923F924F925F926F927F928F9224
:102880009F92AF92BF92CF92DF92EF92FF920F93FF
:102890001F93CF93DF93CDB7DEB7CA1BDB0B0FB609
:1028A000F894DEBF0FBECDBF09942A8839884888C6
:1028B0005F846E847D848C849B84AA84B984C8845C
:1028C000DF80EE80FD800C811B81AA81B981CE0F53
:1028D000D11D0FB6F894DEBF0FBECDBFED01089538
:1028E00010E0C2E6D0E004C0FE010E94BA102196BA
:0A28F000C336D107C9F7F894FFCFF3
:1028FA00AB01AB010100005A03800000000000E6B2
:10290A0000B206AF008D00A1002D01000000001CDE
:10291A0002EC01E501E201DF01DE01436F6F72643F
:10292A0028312C312C31293A20000D0A00426566E3
:10293A006F726520476574496E7374727563746942
:10294A006F6E002D4C423930002D4C4230005342FC
:10295A003930002C20002070726F677265737370B3
:10296A006F696E740020627269636B0020780020C0
:10297A007A002079002042434F52004552524F526A
:10298A0020454E434F554E54455245443A20000087
:00000001FF
