:100000000C9463000C9415050C94EE040C948B0076
:100010000C948B000C948B000C948B000C948B0034
:100020000C948B000C948B000C948B000C948B0024
:100030000C948B000C948B000C948B000C948B0014
:100040000C94A4040C948B000C94DC020C94B60267
:100050000C948B000C948B000C948B000C948B00F4
:100060000C943C050C948B00000000002400270039
:100070002A0000000000250028002B0000000000DE
:1000800023002600290004040404040404040202DA
:100090000202020203030303030301020408102007
:1000A0004080010204081020010204081020000012
:1000B0000008000201000003040700000000000027
:1000C0000000BC10B61011241FBECFEFD8E0DEBF79
:1000D000CDBF11E0A0E0B1E0E0E2FAE202C005909D
:1000E0000D92AE3DB107D9F723E0AEEDB1E001C00E
:1000F0001D92A839B207E1F710E0C2E6D0E004C0D3
:100100002197FE010E944D11C136D107C9F70E9407
:1001100034090C9403150C940000FC01918D828D20
:10012000981761F0828DDF01A80FB11D5D968C914B
:10013000928D9F5F9F73928F90E008958FEF9FEF56
:100140000895FC01918D828D981731F0828DE80F12
:10015000F11D858D90E008958FEF9FEF0895FC01CC
:10016000918D228D892F90E0805C9F4F821B910999
:100170008F739927089584EE92E00E94AF0021E0EA
:10018000892B09F420E0822F0895FC01848DDF0182
:10019000A80FB11DA35ABF4F2C91848D90E00196FA
:1001A0008F739927848FA689B7892C93A089B189E9
:1001B0008C9180648C93938D848D981306C00288F3
:1001C000F389E02D80818F7D80830895EF92FF92E7
:1001D0000F931F93CF93DF93EC0181E0888F9B8D6A
:1001E0008C8D981305C0E889F989808185FD24C02C
:1001F000F62E0B8D10E00F5F1F4F0F731127E02EAF
:100200008C8DE8120CC00FB607FCFACFE889F9898B
:10021000808185FFF5CFCE010E94C500F1CF8B8D87
:10022000FE01E80FF11DE35AFF4FF0820B8FEA89C0
:10023000FB898081806207C0EE89FF896083E8893D
:10024000F98980818064808381E090E0DF91CF91A3
:100250001F910F91FF90EF900895CF93DF93EC01E2
:10026000888D8823C9F0EA89FB89808185FD05C0D6
:10027000A889B9898C9186FD0FC00FB607FCF5CF10
:10028000808185FFF2CFA889B9898C9185FFEDCF58
:10029000CE010E94C500E7CFDF91CF91089580E0A5
:1002A00090E0892B29F00E94BB0081110C94000082
:1002B0000895833081F028F4813099F08230A1F0E4
:1002C00008958730A9F08830B9F08430D1F4809156
:1002D00080008F7D03C0809180008F7780938000A5
:1002E000089584B58F7702C084B58F7D84BD08954D
:1002F0008091B0008F7703C08091B0008F7D809394
:10030000B0000895CF93DF93282F30E0F901E25534
:10031000FF4F8491F901E656FF4FD491F901EA5756
:10032000FF4FC491CC2391F081110E945901EC2F11
:10033000F0E0EE0FFF1FE458FF4FA591B491EC9150
:10034000ED2381E090E021F480E002C080E090E0C5
:10035000DF91CF910895089585ED8093BC00809141
:10036000BC0084FDFCCF10928C02089540913802AD
:10037000262F30E0240F311D21323105DCF420918D
:100380008C022430C9F4FC0180E090E0861758F418
:10039000309138022191DC01AA5EBD4FA30FB11D3F
:1003A0002C930196F3CF80913802680F6093380246
:1003B00080E0089581E0089582E0089508958FEF28
:1003C0009FEF08958FEF9FEF08958091150290E0C1
:1003D0009195819591090895CF92DF92EF92FF92C6
:1003E0000F931F93CF93DF937C01262F972F8A01C2
:1003F0008091AF02882391F0C62FD72F6E01C40ED3
:10040000D51ECC15DD0571F06991D701ED91FC91F8
:100410000190F081E02DC7010995F3CF642F822F61
:100420000E94B601C801DF91CF911F910F91FF90FB
:10043000EF90DF90CF900895CF93DF931F92CDB7C9
:10044000DEB769832091AF022223D1F02091AD0263
:10045000203240F021E030E0FC013383228380E051
:1004600090E015C08091AE02E82FF0E0E357FD4F19
:10047000998190838F5F8093AE028093AD0205C017
:1004800061E0CE0101960E94B60181E090E00F90FC
:10049000DF91CF910895DC01ED91FC9180819181F4
:1004A00008950E945312CF93DF93FC01A081B18184
:1004B000CD91DC91119712968D919C911397918318
:1004C0008083248535852150310935872487CD01E6
:1004D0000E94FD12CE01DF91CF910895CF92DF925D
:1004E000EF92FF920F931F93CF93DF9300D0CDB77E
:1004F000DEB76C0184E090E069837A830E94681221
:100500008C01D6011496ED90FC901597C7010E94BE
:100510006812F8019183808313821282A701698196
:100520007A810E945812D6018D919C911197892B46
:1005300019F40D931C9307C0D6011296ED91FC910E
:10054000139713830283F6011383028384859585B1
:100550000196958784870F900F90DF91CF911F911F
:100560000F91FF90EF90DF90CF9008951F920F9220
:100570000FB60F9211242F933F934F935F936F9376
:100580007F938F939F93AF93BF93EF93FF9384EEEB
:1005900092E00E94C500FF91EF91BF91AF919F91B2
:1005A0008F917F916F915F914F913F912F910F901C
:1005B0000FBE0F901F9018951F920F920FB60F92BB
:1005C00011242F938F939F93EF93FF93E091F40265
:1005D000F091F5028081E091FA02F091FB0282FD38
:1005E00012C090818091FD028F5F8F732091FE0277
:1005F000821751F0E091FD02F0E0EC51FD4F958F34
:100600008093FD0201C08081FF91EF919F918F91B6
:100610002F910F900FBE0F901F9018951F93CF939F
:10062000DF93282F30E0F901E255FF4F8491F90163
:10063000E656FF4FD491F901EA57FF4FC491CC23FE
:10064000C9F0162F81110E945901EC2FF0E0EE0F36
:10065000FF1FEE58FF4FA591B4918FB7F894111179
:1006600005C09C91ED2FE095E92302C0EC91ED2BA4
:10067000EC938FBFDF91CF911F9108950F931F933C
:10068000CF93DF938C01EB018130910581F08230B3
:100690009105E9F0892B39F51B861A868E819F8199
:1006A00061E00E940E038885998560E00AC09B87FF
:1006B0008A878E819F8160E00E940E0388859985DC
:1006C00061E0DF91CF911F910F910C940E038E8109
:1006D0009F8160E00E940E038885998560E00E94FA
:1006E0000E031B870A87DF91CF911F910F91089509
:1006F000CF93DF932FB7F8948091620290916302B9
:10070000A0916402B09165022FBF80931102909373
:100710001202A0931302B09314028091E001882387
:1007200009F473C0E091E202F091E30282859385BF
:10073000009721F0019709F444C067C040815181BE
:10074000C091DE01D091DF01A885B9851196AA0F6D
:10075000BB1FAC0FBD1F8D919C919C012250310994
:100760004217530784F08FEF90E00E948008609159
:10077000E2027091E30282E090E00E943E0381E099
:100780008093E10142C0408151819C01285231098E
:10079000421753074CF0E25DF24019F488E790E00D
:1007A0000CC08EE690E009C0208131818C529140CE
:1007B0002817390754F18CE890E0DF91CF910C9421
:1007C000800840815181C091DE01D091DF01A88570
:1007D000B9851196AA0FBB1FAC0FBD1F8D919C91BF
:1007E0009C012E5F3F4F241735070CF0BCCF408192
:1007F00051812A5D3F4F241735076CF620813181E6
:10080000845D9E4F82179307B4F6DF91CF910895D0
:1008100083E00E948201E091E202F091E3022685EA
:1008200037852817390719F197878687009719F0B8
:10083000019771F01AC084859585892B21F48081F8
:100840009181019603C0808191810197918380837A
:1008500084859585892B21F480819181019703C03E
:10086000808191810196918380830C94780308950F
:1008700082E00E948201E091E202F091E30224858D
:1008800035852817390719F195878487009719F05E
:10089000019771F01AC086859785892B21F4808194
:1008A0009181019703C0808191810196918380831A
:1008B00086859785892B21F480819181019603C0DB
:1008C000808191810197918380830C9478030895AE
:1008D000CF93DF9390E0FC01E656FF4F2491FC019B
:1008E000EA57FF4F8491882361F190E0880F991FA8
:1008F000FC01E859FF4FC591D491FC01EE58FF4F20
:10090000A591B491611109C09FB7F8948881209591
:1009100082238883EC912E230BC0623061F49FB751
:10092000F8943881822F809583238883EC912E2B35
:100930002C939FBF06C08FB7F894E8812E2B288395
:100940008FBFDF91CF9108951F920F920FB60F9234
:1009500011242F933F938F939F93AF93BF938091D5
:10096000620290916302A0916402B091650230919D
:10097000610223E0230F2D3720F40196A11DB11D44
:1009800005C026E8230F0296A11DB11D2093610228
:100990008093620290936302A0936402B093650215
:1009A00080915D0290915E02A0915F02B091600221
:1009B0000196A11DB11D80935D0290935E02A093EC
:1009C0005F02B0936002BF91AF919F918F913F9171
:1009D0002F910F900FBE0F901F9018951F920F929E
:1009E0000FB60F9211242F933F934F935F936F9302
:1009F0007F938F939F93AF93BF93EF93FF93E09178
:100A00000201F09103010995FF91EF91BF91AF9120
:100A10009F918F917F916F915F914F913F912F9116
:100A20000F900FBE0F901F9018951F920F920FB648
:100A30000F9211242F933F934F935F936F937F9364
:100A40008F939F93AF93BF93EF93FF93E091000138
:100A5000F09101010995FF91EF91BF91AF919F91A5
:100A60008F917F916F915F914F913F912F910F9057
:100A70000FBE0F901F9018951F920F920FB60F92F6
:100A800011242F933F934F935F936F937F938F9393
:100A90009F93AF93BF93EF93FF938091B900887FAB
:100AA000803609F49CC068F5883209F45BC090F484
:100AB000803109F454C038F4882309F4F6C0883032
:100AC00009F44DC0F6C0883109F44CC0803209F4F5
:100AD0005DC0EFC0803409F468C048F4803309F485
:100AE00055C0883309F0E5C080938A02D8C08035AC
:100AF00009F44FC0883509F45DC0883409F0D9C0C5
:100B0000D6C0883909F4C7C0A8F4883709F467C08B
:100B100038F4883609F463C0803709F460C0C9C06E
:100B2000883809F4B8C0803909F45FC0803809F00A
:100B3000C0C05BC0803B09F486C038F4803A09F439
:100B400066C0883A09F47FC0B4C0803C09F4A7C0ED
:100B5000883C09F4A4C0883B09F48AC0AAC08091EB
:100B6000670210C09091890280918802981770F5F1
:100B7000E091890281E08E0F80938902F0E0E859CC
:100B8000FD4F80818093BB0085EC86C080938A02F4
:100B90008EC0E091890281E08E0F8093890280915E
:100BA000BB00F0E0E859FD4F80839091890280916D
:100BB00088026EC0E091890281E08E0F80938902E5
:100BC0008091BB00F0E0E859FD4F808380918B025B
:100BD00081116DC081E08093660284EA61C083E088
:100BE00080938C0210925C02CFCF80915C028032A5
:100BF00008F051C0E0915C0281E08E0F80935C02AE
:100C00008091BB00F0E0E45CFD4F8083BDCF85ECBC
:100C10008093BC0010928C0280915C02803230F490
:100C2000E0915C02F0E0E45CFD4F108260915C02B8
:100C300070E0E0913A02F0913B028CE392E009957A
:100C400010925C0236C084E080938C0210923902CC
:100C500010923802E0913602F091370209958091A6
:100C60003802811105C081E080933802109216028B
:100C7000E091390281E08E0F80933902F0E0EA5E64
:100C8000FD4F80818093BB009091390280913802A2
:100C9000981708F479CF85E88093BC000AC085ECEA
:100CA0008093BC0010928C0204C010928A020E94B1
:100CB000AC01FF91EF91BF91AF919F918F917F9187
:100CC0006F915F914F913F912F910F900FBE0F90B9
:100CD0001F9018950E942D076091E2027091E30227
:100CE00081E090E00E943E032FB7F8948091620269
:100CF00090916302A0916402B09165022FBF80932E
:100D0000110290931202A0931302B09314028FB7B2
:100D1000F894409162025091630260916402709174
:100D200065028FBF8091110290911202A09113026F
:100D3000B091140288539F4FAF4FBF4F8417950750
:100D4000A607B70720F76091E2027091E30282E004
:100D500090E00E943E03E091E202F091E3021182F2
:100D600010820895AF92BF92CF92DF92EF92FF92DE
:100D70000F931F93CF93DF93EC015B016A0179011D
:100D8000CB010E94EE0788E991E00E946607C60148
:100D90000E94EE0784EC91E00E947807B501BB0C3D
:100DA000880B990B0E94D31320E030E046E152E417
:100DB0000E940E140E9453117B836A83B601DD0CDE
:100DC000880B990B0E94D31320E030E046E152E4F7
:100DD0000E940E140E9453117D836C83FF82EE8269
:100DE0001B870A871986188619821882CE01DF911F
:100DF000CF911F910F91FF90EF90DF90CF90BF9018
:100E0000AF900895CF92DF92EF92FF920F931F93CE
:100E1000CF93DF936C017A018B01C0E0D0E0CE1557
:100E2000DF0589F0D8016D918D01D601ED91FC911E
:100E30000190F081E02DC6010995892B11F47E0106
:100E400002C02196ECCFC701DF91CF911F910F9186
:100E5000FF90EF90DF90CF90089581309105A1F041
:100E60008230910501F1892B81F560E08CE00E94D0
:100E70000E0361E08BE00E940E0360E08AE00E94B6
:100E80000E0382EC92E01DC061E08CE00E940E0334
:100E900060E08BE00E940E0360E08AE00E940E0397
:100EA00082EB92E00EC060E08CE00E940E0360E0F6
:100EB0008BE00E940E0360E08AE00E940E0382ED48
:100EC00092E09093E3028093E2020895009769F024
:100ED000FC0101900020E9F73197AF01481B590B45
:100EE000BC0184EE92E00C94020780E090E008954B
:100EF000CF93DF930E946607EC018AE391E00E94A2
:100F000066078C0F9D1FDF91CF9108958F929F925E
:100F1000AF92BF920F931F93CF93DF93CDB7DEB7FE
:100F2000A1970FB6F894DEBF0FBECDBF19A2423015
:100F300008F44AE08E010F5D1F4F842E912CA12CE6
:100F4000B12CA50194010E941711E62FB901CA0125
:100F500001501109EA3014F4E05D01C0E95CD801E8
:100F6000EC93232B242B252B61F7C8010E946607E5
:100F7000A1960FB6F894DEBF0FBECDBFDF91CF9123
:100F80001F910F91BF90AF909F908F900895CF9237
:100F9000DF92EF92FF92CF93DF936B017C01E091A0
:100FA000E402F091E5020190F081E02D6DE284EE23
:100FB00092E00995EC0166277727CB016C197D0932
:100FC0008E099F094AE00E9486078C0F9D1FDF91C2
:100FD000CF91FF90EF90DF90CF900895BC01990FD3
:100FE000880B990B97FD0C94C7074AE00C94860771
:100FF000CF93DF93BC01990F880B990B97FF03C028
:101000000E94C70703C04AE00E948607EC018AE3FA
:1010100091E00E9466078C0F9D1FDF91CF9108958C
:1010200081E08093AF0280E2809387031092AE024A
:101030001092AD0262E188E893E00E941C0261E038
:1010400088E893E00E941C028AEC91E00E94660707
:1010500081E090E00E94F8079091AD0280918703B3
:10106000913208F046C020918C022111FCCF22E081
:1010700020938C0221E020938B022FEF20938A0291
:101080001092890290938802ADE8B2E048E652E0FF
:10109000FA012E2F241B291718F42D912193F9CF33
:1010A0001092670290916702880F892B80936702E4
:1010B00080916602813061F410926602809167022D
:1010C0008093BB008091BC0083FDF8CF85EC01C00C
:1010D00085EE8093BC0080918C028230E1F3809198
:1010E0008A028F3F31F080918A02803211F0809124
:1010F0008A021092AE021092AD021092AF020895D1
:10110000CF93DF93EC0161E089E00E9468042097AF
:1011100011F460E004C0CF3FD10531F461E089E013
:10112000DF91CF910C940E03E7EBF0E0E491E33014
:10113000F9F048F4E130B9F0E230A1F584B580620D
:1011400084BDC8BD34C0E730E9F0E83019F1E430BF
:1011500049F580918000806280938000D0938B005D
:10116000C0938A0024C084B5806884BDC7BD1FC0F9
:1011700080918000806880938000D0938900C09324
:10118000880015C08091B00080688093B000C09343
:10119000B3000DC08091B00080628093B000C09316
:1011A000B40005C0C038D1050CF0B8CFB2CFDF9184
:1011B000CF9108950F931F93CF93DF93EC01888114
:1011C0009981009729F02A813B812617370788F4F7
:1011D0008B016F5F7F4F0E948911009761F09983A7
:1011E00088831B830A832C813D81232B11F4FC010E
:1011F000108281E001C080E0DF91CF911F910F91BB
:101200000895CF93DF93EC0188819981009711F0C5
:101210000E94FD12198218821D821C821B821A8272
:10122000DF91CF910895EF92FF920F931F93CF9389
:10123000DF93EC017B018A01BA010E94DA08811177
:1012400004C0CE010E94010907C01D830C83B701B1
:10125000888199810E946112CE01DF91CF911F9107
:101260000F91FF90EF900895CF93DF93CDB7DEB746
:10127000C65BD1090FB6F894DEBF0FBECDBF789420
:1012800084B5826084BD84B5816084BD85B582608B
:1012900085BD85B5816085BD80916E00816080933C
:1012A0006E001092810080918100826080938100A5
:1012B00080918100816080938100809180008160B5
:1012C000809380008091B10084608093B100809110
:1012D000B00081608093B00080917A008460809338
:1012E0007A0080917A00826080937A0080917A00FF
:1012F000816080937A0080917A00806880937A0080
:101300001092C10061E08AE00E94680461E08BE015
:101310000E94680461E08CE00E94680461E084E05F
:101320000E94680461E085E00E94680461E086E054
:101330000E94680461E087E00E94680461E088E040
:101340000E94680461E08DE00E94680461E089E029
:101350000E94680462E082E00E94680462E083E028
:101360000E94680488E394E0909301018093000157
:10137000809169008C7F816080936900E89A88E0A1
:1013800094E0909303018093020180916900837F30
:10139000846080936900E99AE091F402F091F5028B
:1013A00082E08083E091F002F091F1021082E091FE
:1013B000F202F091F3028FEC80831092FC02E09134
:1013C000F802F091F90286E08083E091F602F09154
:1013D000F702808180618083E091F602F091F7024C
:1013E000808188608083E091F602F091F70280812D
:1013F00080688083E091F602F091F70280818F7D12
:1014000080831092F2011092F1011092F401109277
:10141000F3018CE090E09093F6018093F5016EE685
:1014200072E07093F8016093F70123E532E03093A6
:10143000FA012093F9018BE492E09093FC018093F0
:10144000FB011092FE011092FD011092EE0110922C
:10145000EF011092F001109202021092010210921C
:1014600004021092030245E050E0509306024093BC
:101470000502709308026093070230930A022093DA
:10148000090290930C0280930B0210920E021092AC
:101490000D021EAA1DAA2AE134E038AF2FAB1AAE06
:1014A00019AE88E090E09CAF8BAF8DE090E09EAFEE
:1014B0008DAF82E090E021969FAF8EAF219723966B
:1014C0001FAE1EAE239725961FAE1EAE25972796FC
:1014D0001FAE1EAE279729963FAF2EAF29972B96AA
:1014E0001FAE1EAE2B9766E070E02D967FAF6EAFFD
:1014F0002D9767E070E02F967FAF6EAF2F976196C4
:101500009FAF8EAF619763961FAE1EAE63976596D1
:101510001FAE1EAE659767961FAE1EAE67976996A3
:101520003FAF2EAF69976B961FAE1EAE6B9724E050
:1015300030E06D963FAF2EAF6D976F965FAF4EAFB9
:101540006F97A1969FAF8EAFA197A3961FAE1EAEC9
:10155000A397A5961FAE1EAEA597CE018B599F4FA0
:1015600020E1FE01EB5AFF4FDC0101900D922A951C
:10157000E1F720E1FE01EB5BFF4FDE01AB58BF4F0F
:1015800001900D922A95E1F720E1FE01F596DE012A
:10159000AB57BF4F01900D922A95E1F71A8219823D
:1015A00020E1FC01DE01139601900D922A95E1F7EE
:1015B00020E1FE01EB58FF4FDE01539601900D92A2
:1015C0002A95E1F720E1FE01EB57FF4FDE019396EC
:1015D00001900D922A95E1F79CAB8BAB84E3FE0161
:1015E0003196A0EBB2E001900D928A95E1F781E08F
:1015F00090E00E942D078091DE019091DF010E9412
:10160000FD128091FD019091FE01892B21F481E072
:101610008093040102C01092040181EF91E00E94C6
:1016200053029093DF018093DE0184EB90E00E94EF
:10163000800880E090E00E946A0684EB90E00E94BF
:10164000800882E090E00E946A0684EB90E00E94AD
:10165000800881E090E00E946A0611E01093E001AA
:101660008FEF90E00E9480081093E1012E0121EAA3
:10167000420E511C2DE2B22E80910F029091100269
:10168000892B09F0D3C084EE92E00E94AF00892B31
:1016900009F492C084EE92E00E94A1008B3609F416
:1016A0005DC084EE92E00E948D00182FF20111823D
:1016B00010821382128215821482609181037091CC
:1016C00082036115710541F04091850350918603B5
:1016D000C2010E94130903C0C2010E940109C95539
:1016E000DF4F1883C75AD040C855DF4F1882C85AF9
:1016F000D040F201048115810F5F1F4FB801C20174
:101700000E94DA08882381F0F201208131818481EE
:101710009581BE0169557F4F820F931F0E94611210
:10172000F2011583048303C0C2010E940109F20182
:10173000608171816115710539F04481558181E8BD
:1017400093E00E94130904C081E893E00E9401091C
:10175000F201808191810E94FD122EC084EE92E000
:101760000E948D008091EC019091ED019C012F5F12
:101770003F4F3093ED012093EC0165E070E00E9453
:1017800003118C018091810390918203009719F0DD
:101790000E94951301C060E0000F111FF801EE5187
:1017A000FE4F70E07183608340E050E06CE371E0D5
:1017B00081E893E00E9413092091EC013091ED0142
:1017C000C90165E070E00E940311892BF9F4232B15
:1017D000E9F085E090E00E946812FC018091E2014E
:1017E00080838091E40181838091E60182838091EE
:1017F000E80183838091EA018483BF0181E092E064
:101800000E946E021092ED011092EC0184EE92E0C3
:101810000E94A100853651F484EE92E00E948D0072
:1018200021E030E03093100220930F0280910F02EC
:1018300090911002019709F0E4C086EA92E00E94BC
:1018400068128C0120E030E080E090E040E050E061
:10185000BC01620F731FFA01E60FF71FE00FF11FC3
:1018600010824F5F5F4F4F305105A9F70F968D32B1
:10187000910561F7235D3F4F233A42E0340721F79A
:101880008091940390919503009711F488E993E077
:10189000F201E81BF90BCF010E94F807F801ED55A2
:1018A000FD4F108231961082319610828BE291E0CA
:1018B0000E946607F80165AD70E080E090E04AE0C4
:1018C0000E9486078AE391E00E946607FF24F39452
:1018D00080910D0290910E02892B09F475C081E070
:1018E00092E00E945302FC0124818FEF820F83302B
:1018F00008F067C090819F3008F063C071817F302D
:1019000008F05FC032813F3008F05BC083818F30C8
:1019100008F057C0931328C0781709F452C0E72F76
:10192000F0E0A82FB0E0781718F4AF01BD0102C0B5
:10193000AD01BF0130E0FDE29F9FC001112464179B
:10194000750734F2FA01E80FF91FE00FF11FF0827A
:101950002130310519F44F5F5F4FF1CFF786233007
:101960003105C9F7F68EF7CF78132BC0492F50E019
:10197000E32FF0E0931718F4CA01AF0101C0CF01C3
:1019800030E0B89ED001B99EB00D1124A70FB11D53
:1019900060E070E0481759070CF49ACFFB01EA0F9A
:1019A000FB1FE00FF11FF0822130310521F4019679
:1019B000635D7F4FEFCFF78623303105C1F7F68E99
:1019C000F6CF0E94100884CF109300020093FF010D
:1019D0008BE291E00E946607E091FF01F091000226
:1019E00065AD70E080E090E04AE00E9486078AE3FF
:1019F00091E00E94660782E090E09093100280934D
:101A00000F0280910F0290911002029709F0ABC370
:101A10008091FD019091FE0149970CF0A4C300E074
:101A200010E08FE0782E8CE391E00E947807E12CA3
:101A3000F12C709E6001719ED00C11248CE391E01A
:101A40000E947807812C912C8091FF0190910002D7
:101A5000B89CF001B99CF00D1124EC0DFD1DE80FB0
:101A6000F91FEE0DFF1D608170E080E090E04AE01C
:101A70000E9486072FEF821A920A3FE08316910494
:101A800019F74FEFE41AF40A5FE0E516F104B1F636
:101A90000F5F1F4F0330110531F68CE391E00E9478
:101AA00078078DE391E00E9478070091FF01109183
:101AB000000284E491E00E947807A090EF0180E0AA
:101AC00042E04A150CF4D0C2A0FC81E0E090F001A5
:101AD0000E2C000CFF08C755DF4FF982E882C95A67
:101AE000D0403A2D4FE0340290011124CB54DF4F07
:101AF00039832883C55BD0402A2C0A2C000C33087C
:101B00003FE0E316F1040CF0A9C29091EE01C92E5A
:101B1000092E000CDD084601CB54DF4F28813981A6
:101B2000C55BD0405DE29502200D311D1124C755E3
:101B3000DF4F48815981C95AD040420F531FCD54BD
:101B4000DF4F59834883C35BD040C355DF4F1982B1
:101B50001882CD5AD04097012E5F3F4FC155DF4FBD
:101B600039832883CF5AD040A70142505109CF541E
:101B7000DF4F59834883C15BD0403FE0C316D10497
:101B80000CF056C2C355DF4FE881F981CD5AD040E1
:101B9000CD54DF4F28813981C35BD040E20FF31F62
:101BA000A8014E0F5F1FC555DF4F59834883CB5A9D
:101BB000D040FA019081913009F023C23601F2E061
:101BC0006F0E711CFA01E65AFF4F9081913009F0B7
:101BD0006BC02CE08216910408F066C0A7FC64C0BC
:101BE000F7FC62C03EE0E316F10409F45DC0811128
:101BF00056C0BC9CF001BD9CF00D11242FE0229D2D
:101C0000C001239D900D1124E80FF91FE00FF11F73
:101C1000DF01AE0DBF1D62E06C9346014FEF841AE9
:101C2000940AB89CA001B99C500D1124480F591F6B
:101C3000400F511FDA01AE0DBF1D6C93B69C900191
:101C4000B79C300D1124280F391F200F311FD901E7
:101C5000AE0DBF1D6C9373E0C70ED11CBC9CD001B0
:101C6000BD9CB00D11248A0F9B1F080F191FD801AE
:101C7000AE0DBF1D6C93D7011196EA0FFB1F608359
:101C8000FA01EA0FFB1F6083F901EA0FFB1F608373
:101C9000F801EA0FFB1F608384E591E079C08AE5D3
:101CA00091E00E94780780E0360192E0691A71089D
:101CB000C555DF4FE881F981CB5AD040EA55F1098B
:101CC0009081913009F071C09401235031092C307A
:101CD000310508F06AC0A7FC68C01E141F040CF090
:101CE00064C081115DC0BC9CF001BD9CF00D11244D
:101CF0002FE0229DC001239D900D1124E80FF91FB4
:101D0000E00FF11FDF01AE0DBF1D62E06C934601D5
:101D100021E0821A9108B89CA001B99C500D1124B1
:101D2000480F591F400F511FDA01AE0DBF1D6C93B4
:101D3000B69C9001B79C300D1124280F391F200F3D
:101D4000311FD901AE0DBF1D6C9373E0C71AD108C6
:101D5000BC9CD001BD9CB00D11248A0F9B1F080FA5
:101D6000191FD801AE0DBF1D6C93D7011196EA0F54
:101D7000FB1F6083FA01EA0FFB1F6083F901EA0F82
:101D8000FB1F6083F801EA0FFB1F608383E591E08E
:101D90000E94780702E010E09101A701B40170C130
:101DA00089E591E00E94780780E0C555DF4FE88122
:101DB000F981CB5AD040928196012F5F3F4F390174
:101DC000913009F065C03EE08316910408F060C0D0
:101DD000A7FC5EC0C755DF4F48815981C95AD04022
:101DE0004C30510508F054C081114DC0BC9CC0015D
:101DF000BD9C900D11244FE0429D9001439D300DFC
:101E00001124820F931F800F911FFC01EE0DFF1D07
:101E100052E0508347017FEF871A970AFC01E80DD3
:101E2000F91D5083C155DF4FE881F981CF5AD04069
:101E3000E80FF91F5083B7016D5F7F4FFC01E60F7C
:101E4000F71F5083B69CC001B79C900D1124280F3A
:101E5000391F200F311FF901EE0DFF1D5083F901CD
:101E6000E80DF91D5083C155DF4FE881F981CF5A44
:101E7000D040E20FF31F5083F901E60FF71F5083A4
:101E800089E691E06FC08EE691E00E94780780E0DD
:101E9000C555DF4FE881F981CB5AD0403297908108
:101EA000913009F06CC09EE08916910408F0A9C039
:101EB000A7FCA7C0C755DF4F28813981C95AD04038
:101EC0002C30310508F061C0811153C0BC9CC001A9
:101ED000BD9C900D11244FE0429D9001439D300D1B
:101EE0001124820F931F800F911FFC01EE0DFF1D27
:101EF00052E05083470141E0841A9108FC01E80D4B
:101F0000F91D5083CF54DF4FE881F981C15BD04088
:101F1000E80FF91F5083B70163507109FC01E60F08
:101F2000F71F5083B69CC001B79C900D1124280F59
:101F3000391F200F311FF901EE0DFF1D5083F901EC
:101F4000E80DF91D5083CF54DF4FE881F981C15B63
:101F5000D040E20FF31F5083F901E60FF71F5083C3
:101F600088E691E00E94780701E010E09101A40169
:101F700046C08DE691E00E94780780E006C05EE0F2
:101F800085169104F0F5A7FC3CC0F7FC3AC07EE052
:101F9000E716F104B1F1BC9CC001BD9C900D112469
:101FA0004FE0429D9001439D300D1124820F931FFD
:101FB000800F911FFC01EE0DFF1D62E06083B69C57
:101FC000A001B79C500D1124240F351F020F131FC1
:101FD000F801EE0DFF1D6083A7014F5F5F4FFC010D
:101FE000E40FF51F6083F801E40FF51F60838BE7B2
:101FF00091E00E94780700E010E09101A701B6018E
:102000003FC0C092EE019FEFC91AD90AEFEF8E1AB6
:102010009E0AC355DF4F28813981CD5AD040235DB8
:102020003F4FC355DF4F39832883CD5AD040A5CDCC
:10203000E092F0011092EE014FEFE41AF40AC75556
:10204000DF4F28813981C95AD0402F5F3F4FC75594
:10205000DF4F39832883C95AD04052CDA092EF0177
:102060001092F001A3942CCD80E891E00E947807B3
:1020700003E010E020E030E040E050E060E070E09D
:10208000CE018B569F4F0E94B206BE016B567F4F0A
:1020900081EF91E00E946E028091EE01082E000C0B
:1020A000990B0E94EE0788E991E00E9466078091F3
:1020B000F001082E000C990B0E94EE0788E991E0D0
:1020C0000E9466078091EF01082E000C990B0E9478
:1020D000EE078BE991E00E947807C156DF4F8881B7
:1020E0009981CF59D0400E94EE078AEA91E00E9480
:1020F0007807C956DF4F88819981C759D0400E941F
:10210000EE0781EB91E00E947807C756DF4F888188
:102110009981C959D0400E94EE0784EB91E00E945A
:102120007807C556DF4F88819981CB59D0400E94EE
:10213000EE0787EB91E00E9478078AEB91E00E941E
:1021400066078091940390919503009711F488E9B4
:1021500093E0F201E81BF90BCF010E94F8078CE332
:1021600091E00E9478070E944F0186CA8091810306
:10217000909182030C94FD12E4EEF2E0138212823D
:1021800088EE93E0A0E0B0E084839583A683B783D4
:102190002FE031E03183208325EC30E03587248740
:1021A00024EC30E03787268720EC30E0318B208B21
:1021B00021EC30E0338B228B22EC30E0358B248B0A
:1021C00026EC30E0378B268B118E128E138E148EF8
:1021D000E8E8F3E01382128284839583A683B783B1
:1021E0008FE191E091838083E1E8F3E01182108236
:1021F000138212821582148240E050E06CE371E099
:10220000CF010C94130997FB072E16F4009407D006
:1022100077FD09D00E94391107FC05D03EF4909556
:1022200081959F4F0895709561957F4F0895A1E224
:102230001A2EAA1BBB1BFD010DC0AA1FBB1FEE1F40
:10224000FF1FA217B307E407F50720F0A21BB30B8B
:10225000E40BF50B661F771F881F991F1A9469F707
:1022600060957095809590959B01AC01BD01CF0163
:102270000895AA1BBB1B51E107C0AA1FBB1FA617CD
:10228000B70710F0A61BB70B881F991F5A95A9F71F
:1022900080959095BC01CD010895EE0FFF1F05902C
:1022A000F491E02D09940E945A116894B1110C9494
:1022B000C61408950E94AB1488F09F5798F0B92F68
:1022C0009927B751B0F0E1F0660F771F881F991F6B
:1022D0001AF0BA95C9F714C0B13091F00E94C51434
:1022E000B1E008950C94C514672F782F8827B85F44
:1022F00039F0B93FCCF3869577956795B395D9F7C3
:102300003EF490958095709561957F4F8F4F9F4FCC
:102310000895A0E0B0E0EFE8F1E10C94D014EC01F6
:10232000009721F4CB010E946812B8C0FC01E60FAF
:10233000F71F9C0122503109E217F30708F4ACC0E3
:10234000D9010D911C91119706171707B0F00530B0
:10235000110508F49FC0C80104978617970708F471
:1023600099C002501109061B170B019311936D932D
:102370007C93CF010E94FD128DC05B01A01AB10AAF
:102380004C01800E911EA0919603B091970340E0FE
:1023900050E0E12CF12C109709F44AC0A815B905BA
:1023A000D1F56D907C901197630182E0C80ED11C2D
:1023B000CA14DB0480F1A3014A195B096A0182E0B7
:1023C000C80ED11C1296BC9012971396AC91B5E032
:1023D000CB16D10440F0B282A38351834083D9014C
:1023E0006D937C930AC00E5F1F4FC301800F911F36
:1023F000F90191838083EB2DFA2FE114F10431F080
:10240000D7011396FC93EE93129744C0F093970371
:10241000E09396033FC08D919C91119748175907FF
:1024200008F4AC017D0112960D90BC91A02DB3CFA4
:10243000809194039091950388159905E1F44617CE
:102440005707C8F48091050190910601009741F467
:102450008DB79EB74091090150910A01841B950BDD
:10246000E817F907C8F4F0939503E0939403F90192
:10247000718360830FC0CB010E9468127C010097BA
:1024800059F0A801BE010E945812CE010E94FD120F
:10249000C70104C0CE0102C080E090E0CDB7DEB736
:1024A000EEE00C94EC1481E090E0F8940C940315A9
:1024B000FB01DC0102C001900D9241505040D8F761
:1024C0000895FB01DC0101900D920020E1F70895D1
:1024D000CF93DF938230910510F482E090E0E09199
:1024E0009603F091970320E030E0C0E0D0E0309711
:1024F00011F14081518148175907C0F04817590719
:1025000061F482819381209719F09B838A832BC089
:10251000909397038093960326C02115310519F0F7
:102520004217530718F49A01BE01DF01EF01028040
:10253000F381E02DDCCF2115310509F1281B390B82
:102540002430310590F412968D919C91139761156A
:10255000710521F0FB019383828304C0909397035C
:1025600080939603FD01329644C0FD01E20FF31FF4
:1025700081939193225031092D933C933AC020913D
:10258000940330919503232B41F42091070130915E
:102590000801309395032093940320910501309115
:1025A00006012115310541F42DB73EB740910901CF
:1025B00050910A01241B350BE0919403F09195038F
:1025C000E217F307A0F42E1B3F0B2817390778F00A
:1025D000AC014E5F5F4F2417350748F04E0F5F1F69
:1025E00050939503409394038193919302C0E0E04C
:1025F000F0E0CF01DF91CF9108950F931F93CF9318
:10260000DF93009709F48CC0FC0132971382128289
:1026100000919603109197030115110581F4208113
:102620003181820F931F20919403309195032817D5
:10263000390779F5F0939503E093940371C0D801BD
:1026400040E050E0AE17BF0750F412962D913C9138
:102650001397AD012115310509F1D901F3CF9D0182
:10266000DA013383228360817181860F971F82177D
:10267000930769F4EC0128813981260F371F2E5FFB
:102680003F4F318320838A819B8193838283452BB3
:1026900029F4F0939703E093960342C01396FC93BA
:1026A000EE931297ED01499159919E01240F351F28
:1026B000E217F30771F480819181840F951F0296D0
:1026C00011969C938E938281938113969C938E9303
:1026D0001297E0E0F0E0D80112968D919C9113974B
:1026E000009719F0F8018C01F6CF8D919C9198011B
:1026F0002E5F3F4F820F931F2091940330919503DB
:102700002817390769F4309729F41092970310922B
:10271000960302C0138212821093950300939403D0
:10272000DF91CF911F910F9108951F93FC0199277D
:102730008827BC01E89411911032E9F3193010F0A8
:102740001E30C8F31B3251F01D3249F4689406C0A4
:102750000E94BC13610F711D811D911D11911053B9
:102760001A30B0F33EF490958095709561957F4F47
:102770008F4F9F4F1F910895592F482F372F262F86
:10278000660F771F881F991F660F771F881F991F75
:10279000620F731F841F951F660F771F881F991F75
:1027A0000895E89409C097FB3EF490958095709544
:1027B00061957F4F8F4F9F4F9923A9F0F92F96E98D
:1027C000BB279395F695879577956795B795F11102
:1027D000F8CFFAF4BB0F11F460FF1BC06F5F7F4F9F
:1027E0008F4F9F4F16C0882311F096E911C07723B1
:1027F00021F09EE8872F762F05C0662371F096E8BA
:10280000862F70E060E02AF09A95660F771F881F88
:10281000DAF7880F9695879597F908950E94211405
:102820000C9492140E94841438F00E948B1420F0AF
:10283000952311F00C947B140C94811411240C94A6
:10284000C6140E94A31470F3959FC1F3950F50E036
:10285000551F629FF001729FBB27F00DB11D639F52
:10286000AA27F00DB11DAA1F649F6627B00DA11DF8
:10287000661F829F2227B00DA11D621F739FB00D9E
:10288000A11D621F839FA00D611D221F749F33270E
:10289000A00D611D231F849F600D211D822F762FA7
:1028A0006A2F11249F5750409AF0F1F088234AF084
:1028B000EE0FFF1FBB1F661F771F881F91505040F0
:1028C000A9F79E3F510580F00C947B140C94C6141C
:1028D0005F3FE4F3983ED4F3869577956795B79577
:1028E000F795E7959F5FC1F7FE2B880F911D969591
:1028F000879597F9089597F99F6780E870E060E001
:1029000008959FEF80EC089500240A941616170688
:1029100018060906089500240A94121613061406D0
:1029200005060895092E0394000C11F4882352F033
:10293000BB0F40F4BF2B11F460FF04C06F5F7F4FEB
:102940008F4F9F4F089557FD9058440F551F59F0D2
:102950005F3F71F04795880F97FB991F61F09F3F8C
:1029600079F087950895121613061406551FF2CFB5
:102970004695F1DF08C0161617061806991FF1CF05
:1029800086957105610508940895E894BB2766272C
:102990007727CB0197F908952F923F924F925F923C
:1029A0006F927F928F929F92AF92BF92CF92DF925F
:1029B000EF92FF920F931F93CF93DF93CDB7DEB7C4
:1029C000CA1BDB0B0FB6F894DEBF0FBECDBF099458
:1029D0002A88398848885F846E847D848C849B84AF
:1029E000AA84B984C884DF80EE80FD800C811B81BD
:1029F000AA81B981CE0FD11D0FB6F894DEBF0FBEEC
:102A0000CDBFED01089510E0C2E6D0E004C0FE01A4
:102A10000E944D112196C336D107C9F7F894FFCF14
:102A2000AB01AB010100009803800000000000E64C
:102A3000000207AF008D00A1002D01000000001C66
:102A400002EC01E501E201DF01DE01436F6F726418
:102A500028312C312C31293A20000D0A00426566BC
:102A60006F726520476574496E737472756374691B
:102A70006F6E002D4C423930002D6C62393020735E
:102A80006B697063617365002D4C4230002D6C6280
:102A90003020736B69706361736500534239300095
:102AA0004E6F20696E737472756374696F6E206304
:102AB0007265617465642E002C20002070726F674F
:102AC00072657373706F696E740020627269636BF4
:102AD00000207800207A0020790052414D4652456E
:102AE000453A20002042434F52004552524F522057
:0E2AF000454E434F554E54455245443A200042
:00000001FF
