:100000000C9463000C9456040C942F040C948B00F5
:100010000C948B000C948B000C948B000C948B0034
:100020000C948B000C948B000C948B000C948B0024
:100030000C948B000C948B000C948B000C948B0014
:100040000C94E5030C948B000C9401030C94DB02DC
:100050000C948B000C948B000C948B000C948B00F4
:100060000C947D040C948B000000000024002700F9
:100070002A0000000000250028002B0000000000DE
:1000800023002600290004040404040404040202DA
:100090000202020203030303030301020408102007
:1000A0004080010204081020010204081020000012
:1000B0000008000201000003040700000000000027
:1000C0000000C712C11211241FBECFEFD8E0DEBF5F
:1000D000CDBF11E0A0E0B1E0E0E1FFE202C0059099
:1000E0000D92AE3BB107D9F723E0AEEBB1E001C012
:1000F0001D92A63BB207E1F710E0C2E6D0E004C0D3
:100100002197FE010E94A313C136D107C9F70E94AF
:100110002C090C947B170C940000FC01918D828DAE
:10012000981761F0828DDF01A80FB11D5D968C914B
:10013000928D9F5F9F73928F90E008958FEF9FEF56
:100140000895FC01918D828D981731F0828DE80F12
:10015000F11D858D90E008958FEF9FEF0895FC01CC
:10016000918D228D892F90E0805C9F4F821B910999
:100170008F739927089582E093E00E94AF0021E0F9
:10018000892B09F420E0822F0895FC01848DDF0182
:10019000A80FB11DA35ABF4F2C91848D90E00196FA
:1001A0008F739927848FA689B7892C93A089B189E9
:1001B0008C9180648C93938D848D981306C00288F3
:1001C000F389E02D80818F7D80830895EF92FF92E7
:1001D0000F931F93CF93DF93EC0181E0888F9B8D6A
:1001E0008C8D981305C0E889F989808185FD24C02C
:1001F000F62E0B8D10E00F5F1F4F0F731127E02EAF
:100200008C8DE8120CC00FB607FCFACFE889F9898B
:10021000808185FFF5CFCE010E94C500F1CF8B8D87
:10022000FE01E80FF11DE35AFF4FF0820B8FEA89C0
:10023000FB898081806207C0EE89FF896083E8893D
:10024000F98980818064808381E090E0DF91CF91A3
:100250001F910F91FF90EF900895CF93DF93EC01E2
:10026000888D8823C9F0EA89FB89808185FD05C0D6
:10027000A889B9898C9186FD0FC00FB607FCF5CF10
:10028000808185FFF2CFA889B9898C9185FFEDCF58
:10029000CE010E94C500E7CFDF91CF91089580E0A5
:1002A00090E0892B29F00E94BB0081110C94000082
:1002B0000895833081F028F4813099F08230A1F0E4
:1002C00008958730A9F08830B9F08430D1F4809156
:1002D00080008F7D03C0809180008F7780938000A5
:1002E000089584B58F7702C084B58F7D84BD08954D
:1002F0008091B0008F7703C08091B0008F7D809394
:10030000B0000895CF93DF93282F30E0F901E25534
:10031000FF4F8491F901E656FF4FD491F901EA5756
:10032000FF4FC491CC2391F081110E945901EC2F11
:10033000F0E0EE0FFF1FE458FF4FA591B491EC9150
:10034000ED2381E090E021F480E002C080E090E0C5
:10035000DF91CF9108953FB7F894809180029091FA
:100360008102A0918202B091830226B5A89B05C0AC
:100370002F3F19F00196A11DB11D3FBFBA2FA92F24
:10038000982F8827820F911DA11DB11DBC01CD01A1
:1003900042E0660F771F881F991F4A95D1F708958D
:1003A000089585ED8093BC008091BC0084FDFCCF56
:1003B0001092AA02089540915602262F30E0240F91
:1003C000311D21323105DCF42091AA022430C9F418
:1003D000FC0180E090E0861758F43091560221919C
:1003E000DC01AC5CBD4FA30FB11D2C930196F3CF84
:1003F00080915602680F6093560280E0089581E074
:10040000089582E0089508958FEF9FEF08958FEF8C
:100410009FEF08958091330290E091958195910925
:100420000895CF92DF92EF92FF920F931F93CF9395
:10043000DF937C01262F972F8A018091CD0288239C
:1004400091F0C62FD72F6E01C40ED51ECC15DD0539
:1004500071F06991D701ED91FC910190F081E02D4F
:10046000C7010995F3CF642F822F0E94DB01C801D9
:10047000DF91CF911F910F91FF90EF90DF90CF9080
:100480000895CF93DF931F92CDB7DEB76983209194
:10049000CD022223D1F02091CB02203240F021E086
:1004A00030E0FC013383228380E090E015C080912E
:1004B000CC02E82FF0E0E555FD4F998190838F5FE6
:1004C0008093CC028093CB0205C061E0CE010196FF
:1004D0000E94DB0181E090E00F90DF91CF910895C1
:1004E000DC01ED91FC918081918108950E94A91415
:1004F000CF93DF93FC01A081B181CD91DC91119765
:1005000012968D919C9113979183808324853585D4
:100510002150310935872487CD010E945315CE0122
:10052000DF91CF910895CF92DF92EF92FF920F93D8
:100530001F93CF93DF9300D0CDB7DEB76C0184E07B
:1005400090E069837A830E94BE148C01D6011496D0
:10055000ED90FC901597C7010E94BE14F80191839D
:10056000808313821282A70169817A810E94AE146E
:10057000D6018D919C911197892B19F40D931C93A1
:1005800007C0D6011296ED91FC9113971383028355
:10059000F601138302838485958501969587848768
:1005A0000F900F90DF91CF911F910F91FF90EF90DF
:1005B000DF90CF9008951F920F920FB60F921124E3
:1005C0002F933F934F935F936F937F938F939F935B
:1005D000AF93BF93EF93FF9382E093E00E94C50037
:1005E000FF91EF91BF91AF919F918F917F916F910B
:1005F0005F914F913F912F910F900FBE0F901F90E1
:1006000018951F920F920FB60F9211242F938F936C
:100610009F93EF93FF93E0911203F0911303808176
:10062000E0911803F091190382FD12C0908180912E
:100630001B038F5F8F7320911C03821751F0E09191
:100640001B03F0E0EE5FFC4F958F80931B0301C00E
:100650008081FF91EF919F918F912F910F900FBE0D
:100660000F901F9018951F93CF93DF93282F30E0A2
:10067000F901E255FF4F8491F901E656FF4FD491FD
:10068000F901EA57FF4FC491CC23C9F0162F81110D
:100690000E945901EC2FF0E0EE0FFF1FEE58FF4FC4
:1006A000A591B4918FB7F894111105C09C91ED2FCD
:1006B000E095E92302C0EC91ED2BEC938FBFDF9125
:1006C000CF911F910895CF93DF9390E0FC01E65600
:1006D000FF4F2491FC01EA57FF4F8491882361F179
:1006E00090E0880F991FFC01E859FF4FC591D49104
:1006F000FC01EE58FF4FA591B491611109C09FB75D
:10070000F8948881209582238883EC912E230BC056
:10071000623061F49FB7F8943881822F80958323EB
:100720008883EC912E2B2C939FBF06C08FB7F89433
:10073000E8812E2B28838FBFDF91CF9108958F9270
:100740009F92AF92BF92CF92DF92EF92FF926B0196
:100750007C010E94AB014B015C01C114D104E10496
:10076000F104F1F00E94AB01DC01CB018819990979
:10077000AA09BB09883E9340A105B10570F321E0A9
:10078000C21AD108E108F10888EE880E83E0981EAD
:10079000A11CB11CC114D104E104F10419F7DDCF8F
:1007A000FF90EF90DF90CF90BF90AF909F908F9091
:1007B00008952FB7F89460917C0270917D0280912A
:1007C0007E0290917F022FBF08951F920F920FB665
:1007D0000F9211242F933F938F939F93AF93BF93C7
:1007E00080917C0290917D02A0917E02B0917F0267
:1007F00030917B0223E0230F2D3720F40196A11DB9
:10080000B11D05C026E8230F0296A11DB11D20933E
:100810007B0280937C0290937D02A0937E02B09332
:100820007F028091800290918102A0918202B0911A
:1008300083020196A11DB11D8093800290938102D5
:10084000A0938202B0938302BF91AF919F918F9149
:100850003F912F910F900FBE0F901F9018951F92F0
:100860000F920FB60F9211242F933F934F935F93E4
:100870006F937F938F939F93AF93BF93EF93FF9368
:10088000E0910201F09103010995FF91EF91BF9171
:10089000AF919F918F917F916F915F914F913F9118
:1008A0002F910F900FBE0F901F9018951F920F92CF
:1008B0000FB60F9211242F933F934F935F936F9333
:1008C0007F938F939F93AF93BF93EF93FF93E091A9
:1008D0000001F09101010995FF91EF91BF91AF9156
:1008E0009F918F917F916F915F914F913F912F9148
:1008F0000F900FBE0F901F9018951F920F920FB67A
:100900000F9211242F933F934F935F936F937F9395
:100910008F939F93AF93BF93EF93FF938091B90011
:10092000887F803609F49CC068F5883209F45BC082
:1009300090F4803109F454C038F4882309F4F6C0E7
:10094000883009F44DC0F6C0883109F44CC08032BB
:1009500009F45DC0EFC0803409F468C048F4803306
:1009600009F455C0883309F0E5C08093A802D8C0C7
:10097000803509F44FC0883509F45DC0883409F02A
:10098000D9C0D6C0883909F4C7C0A8F4883709F49B
:1009900067C038F4883609F463C0803709F460C052
:1009A000C9C0883809F4B8C0803909F45FC08038FC
:1009B00009F0C0C05BC0803B09F486C038F4803ABF
:1009C00009F466C0883A09F47FC0B4C0803C09F4D9
:1009D000A7C0883C09F4A4C0883B09F48AC0AAC017
:1009E0008091850210C09091A7028091A60298176D
:1009F00070F5E091A70281E08E0F8093A702F0E0EE
:100A0000EA57FD4F80818093BB0085EC86C08093C0
:100A1000A8028EC0E091A70281E08E0F8093A7020A
:100A20008091BB00F0E0EA57FD4F80839091A702D0
:100A30008091A6026EC0E091A70281E08E0F8093A4
:100A4000A7028091BB00F0E0EA57FD4F80838091C0
:100A5000A90281116DC081E08093840284EA61C0A3
:100A600083E08093AA0210927A02CFCF80917A021B
:100A7000803208F051C0E0917A0281E08E0F8093BD
:100A80007A028091BB00F0E0E65AFD4F8083BDCF33
:100A900085EC8093BC001092AA0280917A02803289
:100AA00030F4E0917A02F0E0E65AFD4F1082609156
:100AB0007A0270E0E0915802F09159028AE592E0E2
:100AC000099510927A0236C084E08093AA021092AF
:100AD000570210925602E0915402F0915502099586
:100AE00080915602811105C081E0809356021092D8
:100AF0003402E091570281E08E0F80935702F0E0BC
:100B0000EC5CFD4F80818093BB00909157028091F7
:100B10005602981708F479CF85E88093BC000AC084
:100B200085EC8093BC001092AA0204C01092A80227
:100B30000E94D101FF91EF91BF91AF919F918F9151
:100B40007F916F915F914F913F912F910F900FBEC9
:100B50000F901F90189581E090E00E9450078091BF
:100B6000D1019091D2010E9453158091CA019091B8
:100B7000CB01892B21F481E08093040102C0109203
:100B800004018EEB91E00E9478029093D201809351
:100B9000D10108950F931F93CF93DF938C01EB0145
:100BA0008130910581F082309105E9F0892B39F58A
:100BB0001B861A868E819F8161E00E94330388859F
:100BC000998560E00AC09B878A878E819F8160E05B
:100BD0000E9433038885998561E0DF91CF911F9151
:100BE0000F910C9433038E819F8160E00E94330348
:100BF0008885998560E00E9433031B870A87DF910F
:100C0000CF911F910F9108950F931F930E9450074A
:100C1000609100037091010381E090E00E94CA0599
:100C20000E94D9036093CC017093CD018093CE01D3
:100C30009093CF010E94D9030091CC011091CD0176
:100C40002091CE013091CF01085A1D4F2F4F3F4FB9
:100C5000061717072807390768F760910003709196
:100C6000010382E090E00E94CA05E0910003F09148
:100C70000103118210821F910F910895CF93DF938A
:100C80000E94D9036093CC017093CD018093CE0173
:100C90009093CF018091D001882309F473C0E09133
:100CA0000003F091010382859385009721F001975D
:100CB00009F444C067C040815181C091D101D091F5
:100CC000D201A885B9851196AA0FBB1FAC0FBD1F15
:100CD0008D919C919C01265031094217530784F055
:100CE0008FEF90E00E94B1076091000370910103C3
:100CF00082E090E00E94CA0581E08093D30142C067
:100D0000408151819C0128573109421753074CF00B
:100D1000E05FF24019F480E590E00CC08EE690E0D0
:100D200009C020813181885592402817390754F134
:100D30008CE890E0DF91CF910C94B1074081518114
:100D4000C091D101D091D201A885B9851196AA0F81
:100D5000BB1FAC0FBD1F8D919C919C012A5F3F4F23
:100D6000241735070CF0BCCF408151812E583F4FDE
:100D7000241735076CF620813181885A9D4F8217E0
:100D80009307B4F6DF91CF91089583E00E9482012A
:100D9000E0910003F0910103268537852817390774
:100DA00019F197878687009719F0019771F01AC09B
:100DB00084859585892B21F480819181019603C0DA
:100DC0008081918101979183808384859585892B8A
:100DD00021F480819181019703C0808191810196E6
:100DE000918380830C943E06089582E00E948201E4
:100DF000E0910003F0910103248535852817390718
:100E000019F195878487009719F0019771F01AC03E
:100E100086859785892B21F480819181019703C074
:100E20008081918101969183808386859785892B26
:100E300021F480819181019603C080819181019785
:100E4000918380830C943E060895CF92DF92EF92B7
:100E5000FF920F931F93CF93DF936C017A018B0165
:100E6000C0E0D0E0CE15DF0589F0D8016D918D018D
:100E7000D601ED91FC910190F081E02DC60109951C
:100E8000892B11F47E0102C02196ECCFC701DF91BE
:100E9000CF911F910F91FF90EF90DF90CF90089529
:100EA00081309105A1F08230910501F1892B81F506
:100EB00060E08CE00E94330361E08BE00E9433032A
:100EC00060E08AE00E94330380EE92E01DC061E0A2
:100ED0008CE00E94330360E08BE00E94330360E00B
:100EE0008AE00E94330380ED92E00EC060E08CE067
:100EF0000E94330360E08BE00E94330360E08AE0ED
:100F00000E94330380EF92E09093010380930003EB
:100F10000895E2E0F3E0A089B18982E08C93A48592
:100F2000B5851C92A685B7858FEC8C93108EA4890D
:100F3000B58986E08C93A289B3898C9180618C936A
:100F4000A289B3898C9188608C93A289B3898C9192
:100F500080688C930288F389E02D80818F7D808367
:100F60000895CF93DF93EC0161E089E00E94630371
:100F7000209711F460E004C0CF3FD10531F461E067
:100F800089E0DF91CF910C943303E7EBF0E0E4913B
:100F9000E330F9F048F4E130B9F0E230A1F584B57E
:100FA000806284BDC8BD34C0E730E9F0E83019F193
:100FB000E43049F580918000806280938000D09376
:100FC0008B00C0938A0024C084B5806884BDC7BDEF
:100FD0001FC080918000806880938000D09389003A
:100FE000C093880015C08091B00080688093B000E5
:100FF000C093B3000DC08091B00080628093B000B8
:10100000C093B40005C0C038D1050CF0B8CFB2CF42
:10101000DF91CF9108950F931F93CF93DF93EC014E
:1010200088819981009729F02A813B81261737070B
:1010300088F48B016F5F7F4F0E94DF13009761F090
:10104000998388831B830A832C813D81232B11F490
:10105000FC01108281E001C080E0DF91CF911F91FF
:101060000F910895CF93DF93EC01888199810097C8
:1010700011F00E945315198218821D821C821B8256
:101080001A82DF91CF910895EF92FF920F931F93F1
:10109000CF93DF93EC017B018A01BA010E940B0818
:1010A000811104C0CE010E94320807C01D830C8349
:1010B000B701888199810E94B714CE01DF91CF9149
:1010C0001F910F91FF90EF9008956115710579F0D0
:1010D000FB0101900020E9F73197AF01461B570B48
:1010E000DC01ED91FC910280F381E02D099480E018
:1010F00090E00895CF93DF93BC0182E093E00E94DB
:101100006508EC016AE371E082E093E00E94650803
:101110008C0F9D1FDF91CF9108954F925F926F9238
:101120007F92EF92FF920F931F93CF93DF93CDB7F0
:10113000DEB7A1970FB6F894DEBF0FBECDBF7C011E
:10114000FA01CB0119A2223008F42AE08E010F5DCA
:101150001F4F422E512C612C712CBF01A301920113
:101160000E942217F901CA01015011096A3014F4D2
:10117000605D01C0695CD8016C93232B242B252B67
:1011800061F7B801C7010E946508A1960FB6F894EF
:10119000DEBF0FBECDBFDF91CF911F910F91FF90AA
:1011A000EF907F906F905F904F900895CF92DF9275
:1011B000EF92FF92CF93DF936B017C01E0910203EA
:1011C000F09103030190F081E02D6DE282E093E065
:1011D0000995EC0144275527BA014C195D096E09A0
:1011E0007F092AE082E093E00E948D088C0F9D1F0A
:1011F000DF91CF91FF90EF90DF90CF900895CF9344
:10120000DF93AC01990F660B770B77FF05C0CB011D
:10121000BA010E94D60805C02AE082E093E00E944D
:101220008D08EC016AE371E082E093E00E946508BA
:101230008C0F9D1FDF91CF910895AC01990F660B24
:10124000770B77FF04C0CB01BA010C94D6082AE0D3
:1012500082E093E00C948D08CF93DF93CDB7DEB797
:10126000CE5AD1090FB6F894DEBF0FBECDBF789429
:1012700084B5826084BD84B5816084BD85B582609B
:1012800085BD85B5816085BD80916E00816080934C
:101290006E001092810080918100826080938100B5
:1012A00080918100816080938100809180008160C5
:1012B000809380008091B10084608093B100809120
:1012C000B00081608093B00080917A008460809348
:1012D0007A0080917A00826080937A0080917A000F
:1012E000816080937A0080917A00806880937A0090
:1012F0001092C10010920702109208021092090287
:1013000010920A021092D5011092D6011092D701C4
:101310001092D80160ED77E080E090E00E949F039A
:1013200082E093E090930602809305020E94890771
:101330000E94D9030091D5011091D6012091D701C7
:101340003091D801DC01CB01801B910BA20BB30BB8
:10135000C297A105B10538F463E070E080E090E049
:101360000E949F03E5CF0E94D9036093D50170933B
:10137000D6018093D7019093D8016BE271E0809100
:101380000502909106020E9465086AE070E080E024
:1013900090E00E949F0311E01093D90161E08AE080
:1013A0000E94630361E08BE00E94630361E08CE0D4
:1013B0000E94630361E085E00E94630361E084E0D2
:1013C0000E94630361E086E00E94630361E087E0BE
:1013D0000E94630361E08DE00E94630361E088E0A6
:1013E0000E94630361E089E00E94630362E082E09F
:1013F0000E94630362E083E00E94630385EF96E04E
:101400009093010180930001809169008C7F81603D
:1014100080936900E89A85EC96E0909303018093AD
:10142000020180916900837F846080936900E99A5A
:101430000E9489071092BF011092BE011092C10153
:101440001092C0018CE090E09093C3018093C201A0
:1014500063E972E07093C5016093C40148E752E00C
:101460005093C7014093C60180E792E09093C90171
:101470008093C8011092CB011092CA0110921902F8
:101480001092180210921B0210921A0210921D0262
:1014900010921C021092210210922002109223023C
:1014A0001092220225E030E030932502209324029E
:1014B00070932702609326025093290240932802DA
:1014C00090932B0280932A0210922D0210922C02EC
:1014D0001EAA1DAA4AEE5BE058AF4FAB1AAE19AE7A
:1014E0008DE090E09CAF8BAF88E090E09EAF8DAF39
:1014F00082E090E021969FAF8EAF219723961FAE9A
:101500001EAE239725961FAE1EAE259727961FAEBB
:101510001EAE279729965FAF4EAF29972B961FAE29
:101520001EAE2B9746E050E02D965FAF4EAF2D9745
:1015300047E050E02F965FAF4EAF2F9761969FAF79
:101540008EAF619763961FAE1EAE639765961FAE12
:101550001EAE659767961FAE1EAE679748EB5BE0C1
:1015600069965FAF4EAF69976B961FAE1EAE6B97D5
:101570006D963FAF2EAF6D9724E030E06F963FAF92
:101580002EAF6F97A1969FAF8EAFA197A3961FAE78
:101590001EAEA397A5961FAE1EAEA597CE018B5982
:1015A0009F4F20E1FE01EB5AFF4FDC0101900D92AD
:1015B0002A95E1F720E1FE01EB5BFF4FDE01AB581E
:1015C000BF4F01900D922A95E1F720E1FE01F596BB
:1015D000DE01AB57BF4F01900D922A95E1F71A82B9
:1015E000198220E1FC01DE01139601900D922A95EB
:1015F000E1F720E1FE01EB58FF4FDE015396019029
:101600000D922A95E1F720E1FE01EB57FF4FDE0135
:10161000939601900D922A95E1F79CAB8BAB84E3F6
:10162000FE013196AEECB2E001900D928A95E1F7A1
:1016300084EB90E00E94B10780E090E00E940406F5
:101640008CE890E00E94B10782E090E00E940406DE
:101650008CE890E00E94B10781E090E00E940406CF
:101660001093D0018FEF90E00E94B1077E0125E931
:10167000E20EF11C2E0131EA430E511CFDE2DF2E79
:101680008091310290913202892B09F0D3C082E01F
:1016900093E00E94AF00892B09F492C082E093E0AE
:1016A0000E94A1008B3609F45DC082E093E00E94A5
:1016B0008D00182FD70111961C921E9213961C9222
:1016C0001E92129715961C921E92149760919F037A
:1016D0007091A0036115710541F04091A3035091F1
:1016E000A403C7010E94440803C0C7010E94320836
:1016F000F20110831182D70114960D911C91159758
:101700000F5F1F4FB801C7010E940B08882381F0AB
:10171000F7012081318184819581B201820F931F6D
:101720000E94B714D70115961C930E93149703C00B
:10173000C7010E943208F70160817181611571054E
:1017400039F0448155818FE993E00E94440804C038
:101750008FE993E00E943208D7018D919C910E94FD
:1017600053152EC082E093E00E948D0080911502F7
:10177000909116029C012F5F3F4F309316022093E9
:10178000150265E070E00E947B138C0180919F033D
:101790009091A003009719F00E94EB1501C060E042
:1017A000000F111FF801E55FFD4F70E0718360834A
:1017B00040E050E06CE371E08FE993E00E94440860
:1017C0002091150230911602C90165E070E00E9477
:1017D0007B13892BF9F4232BE9F085E090E00E943C
:1017E000BE14FC0180910B02808380910D028183E5
:1017F00080910F0282838091110283838091130272
:101800008483BF0180E292E00E949302109216024C
:101810001092150282E093E00E94A100853651F4F7
:1018200082E093E00E948D0081E090E0909332028C
:101830008093310280913102909132028130910582
:1018400009F0C7C089EA92E00E94BE148C0120E032
:1018500030E080E090E040E050E0BC01620F731F98
:10186000FA01E60FF71FE00FF11F10824F5F5F4F85
:101870004F305105A9F70F968D32910561F7235D21
:101880003F4F233AB2E03B0721F78091B20390919A
:10189000B303009711F486EB93E0F701E81BF90B13
:1018A000CF010E94FF08F801ED55FD4F1182108213
:1018B000329611821082329611821082CC24C39407
:1018C00080912C0290912D02892B09F47BC080E23B
:1018D00092E00E947802DC0114962C9114978FEF0D
:1018E000820F833008F06BC09C919F3008F067C076
:1018F0001196EC911197EF3008F061C012963C916F
:1019000012973F3008F05BC013968C918F3008F02F
:1019100056C0931328C0E81709F451C06E2F70E029
:10192000A82FB0E0E81718F4AB01BD0101C0AD016C
:1019300030E0FDE29F9FC0011124641775070CF48D
:10194000BFCFFA01E80FF91FE00FF11FC08221306D
:10195000310519F44F5F5F4FF0CFC7862330310553
:10196000C9F7C68EF7CFE8132AC0492F50E0632F7E
:1019700070E0931718F4CA01AB0101C0CB0130E04D
:10198000D89EB001D99E700D11246E0F711DA0E07C
:10199000B0E0481759070CF493CFFD01E60FF71F8D
:1019A000E00FF11FC0822130310519F401969D9698
:1019B000F0CFC78623303105C9F7C68EF7CF0E9416
:1019C0000E137ECF10931F0200931E0282E090E060
:1019D00016C4029709F017C400E010E08CE391E010
:1019E0000E947A08A12CB12C2FE0209F3001219F6A
:1019F000700C11248CE391E00E947A08812C912CC8
:101A000020911E0230911F02D89CC001D99C900DDC
:101A10001124860D971D820F931FFC01EA0DFB1DFB
:101A2000408150E060E070E02AE082E093E00E94B4
:101A30008D083FEF831A930A4FE08416910401F753
:101A40005FEFA51AB50A6FE0A616B10499F60F5F0D
:101A50001F4F0330110511F68CE391E00E947A08C4
:101A60008DE391E00E947A0880901E0290901F0200
:101A700060911A0270911B02862FE091180250911A
:101A800019029091170200911C0210911D0240E072
:101A900083300CF01DC3282F217827FF03C021506D
:101AA0002E6F2F5F213019F4911101C041E080FFAA
:101AB00090E0FFE08F02D0011124C755DF4FB983BA
:101AC000A883C95AD0402E2F352F682E082E000C1F
:101AD00077080F3011050CF0F1C2D29EF001D39EB1
:101AE000F00D1124C755DF4F68817981C95AD04064
:101AF000600F711FDB01AE0FBF1FC555DF4FB983EC
:101B0000A883CB5AD040CD55DF4F19821882C35AD3
:101B1000D040F8013296CB55DF4FF983E883C55AA0
:101B2000D040B80162507109C955DF4F798368838D
:101B3000C75AD0402F3031050CF0BBC21301CD5530
:101B4000DF4F68817981C35AD040C555DF4FA881E6
:101B5000B981CB5AD0406A0F7B1F680D791DFB01FC
:101B60005081513009F095C25901F2E0AF0EB11C1D
:101B7000FB01E65AFF4F5081513009F070C02C3004
:101B8000310508F06CC087FD6AC017FD68C00E30D3
:101B9000110509F464C0411160C09093170230939D
:101BA00019022093180270921B0260921A0210937D
:101BB0001D0200931C02D29ED001D39EB00D1124B1
:101BC0004FE0469DC001479D900D1124A80FB91FFD
:101BD000A80DB91DFD01E00FF11F72E0C72EC082F4
:101BE000B9016F5F7F4FD69EF001D79EF00D112493
:101BF000E80FF91F3F01680C791CA301400F511F2A
:101C0000FA01C082DA9CA001DB9C500D1124480F20
:101C1000591F480D591D5A01A00EB11EF501C08271
:101C20002D5F3F4FD29E5001D39EB00C11248A0DE0
:101C30009B1D880E991EC401800F911FFC01C0825C
:101C40005801FFEFAF1ABF0AAA0DBB1DCC92F301DA
:101C5000EA0DFB1DC082FA0182C091E040E059010B
:101C600052E0A51AB108FB01EA55F1095081513043
:101C700009F0A0C0D9011397C355DF4FB983A883DA
:101C8000CD5AD0401C9708F095C087FD93C0101620
:101C900011060CF08FC041118BC090931702309346
:101CA00019022093180270921B0260921A0210937C
:101CB0001D0200931C02D29EF001D39EF00D112450
:101CC000BFE0B69DC001B79D900D1124E80FF91F2C
:101CD000E80DF91DAF01400F511F62E0C62EDA0179
:101CE000CC92B90161507109D69EA001D79E500DCA
:101CF0001124480F591F480D591D9A01200F311FFB
:101D0000D901CC92DA9C9001DB9C300D1124280F74
:101D1000391F280D391D5901A00EB11ED501CC92D5
:101D2000C355DF4FA881B981CD5AD040DA9E50010A
:101D3000DB9EB00C11248A0D9B1D880E991ED401C8
:101D4000A00FB11FCC925801BFEFAB1ABB0AEA0D2E
:101D5000FB1DC082FA01EA0DFB1DC082F901EA0DEC
:101D6000FB1DC082F401EA0DFB1DC082072E000C92
:101D7000880B990B0E94291620E030E041EE52E4D6
:101D80000E9464160E94A9135B01B801110F880B11
:101D9000990B0E94291620E030E041EE52E40E94A7
:101DA00064160E94A9136F5B7F4F82E090E0AAC186
:101DB00091E040E0FB015281D9011196513009F0C8
:101DC00066C02E30310508F062C087FD60C00C305F
:101DD000110508F05CC0411158C090931702309370
:101DE00019022093180270921B0260921A0210933B
:101DF0001D0200931C02D29EA001D39E500D1124FF
:101E0000FFE0F69DB001F79D700D1124460F571F9E
:101E1000480D591DFA01E00FF11F92E0908338013F
:101E20008FEF681A780AFA01E60DF71D9083CB55FB
:101E3000DF4FE881F981C55AD040E40FF51F908348
:101E4000F8013396CD55DF4FF983E883C35AD0406C
:101E50004E0F5F1FFA019083DA9E5001DB9EB00C9B
:101E600011246A0D7B1D5401A60EB71ED501A00FCB
:101E7000B11F9C93D501A60DB71D9C93CB55DF4F89
:101E8000A881B981C55AD0406BC091E040E0FB0108
:101E900032975081513009F093C02E30310508F04F
:101EA0008FC087FD8DC00C30110508F089C041112D
:101EB00085C09093170230931902209318027092F4
:101EC0001B0260921A0210931D0200931C02D29E04
:101ED000A001D39E500D1124FFE0F69DB001F79DA7
:101EE000700D1124460F571F480D591DFA01E00FC0
:101EF000F11F92E09083380181E0681A7108FA01BD
:101F0000E60DF71D9083C955DF4FE881F981C75A67
:101F1000D040E40FF51F9083F8013397CD55DF4F84
:101F2000F983E883C35AD0404E0F5F1FFA019083B4
:101F3000DA9E5001DB9EB00C11246A0D7B1D54010A
:101F4000A60EB71ED501A00FB11F9C93D501A60DFB
:101F5000B71D9C93C955DF4FA881B981C75AD0409E
:101F6000AA0DBB1D9C93CD55DF4FE881F981C35A63
:101F7000D040EA0DFB1D9083B901330F880B990BFC
:101F80000E94291620E030E041EE52E40E946416DF
:101F90000E94A9135B01B301770C880B990B0E9477
:101FA000291620E030E041EE52E40E9464160E94BF
:101FB000A9136F5B7F4F81E090E0A4C091E040E007
:101FC0002E30310508F065C087FD63C017FD61C084
:101FD0000E30110509F45DC0909317023093190279
:101FE0002093180270921B0260921A0210931D0235
:101FF00000931C02D29EA001D39E500D1124FFE03D
:10200000F69DC001F79D900D1124480F591F480DF2
:10201000591DFA01E00FF11F62E06083DA9E500162
:10202000DB9EB00C11248A0D9B1D880E991EF401B5
:10203000E00FF11F608358017FEFA71AB70AFA017A
:10204000EA0DFB1D6083F401EA0DFB1D6083B901FD
:10205000330F880B990B0E94291620E030E041EEE7
:1020600052E40E9464160E94A9135B01B801110F8B
:10207000880B990B0E94291620E030E041EE52E4D3
:102080000E9464160E94A9136F5B7F4F80E090E06E
:1020900039C02F5F3F4FCD55DF4FA881B981C35A5B
:1020A000D0409D96CD55DF4FB983A883C35AD04009
:1020B00041CD0F5F1F4F20E030E00BCD682F082E81
:1020C000000C770B8F5FE22F532F00E010E0E0CC85
:1020D00090931702E09318025093190270931B0219
:1020E00060931A0210931D0200931C0283E591E095
:1020F0000E947A0883E090E0212C312C61E470E0AA
:10210000A12CB12CF70111821082B382A2827583B7
:102110006483378226821186108693878287809116
:102120001802909119020E941D096BE671E082E08D
:1021300093E00E94650880911C0290911D020E940C
:102140001D096BE671E082E093E00E9465088091D2
:102150001A0290911B020E941D098EE691E00E94D6
:102160007A08D7011A968D919C911B970E941D09A0
:102170008DE791E00E947A08F701828193810E94A5
:102180001D0984E891E00E947A08D70114968D9188
:102190009C9115970E941D0987E891E00E947A089A
:1021A000F701868197810E941D098AE891E00E94CB
:1021B0007A086DE871E082E093E00E946508809102
:1021C000B2039091B303009711F486EB93E0920170
:1021D000281B390BC9010E94FF088CE391E00E9483
:1021E0007A08D7011A968D919C911B97833091059F
:1021F00031F0B7018EEB91E00E949302EDCB90930A
:102200003202809331028091310290913202833008
:10221000910561F40E94AB0581E08093D30184E0D5
:1022200090E0909332028093310289C1049709F0C3
:1022300086C18091D301882309F481C10E94D9030A
:102240000091CC011091CD012091CE013091CF01B0
:10225000085A1D4F2F4F3F4F0617170728073907FA
:1022600008F06DC11092D301E091D101F091D2013B
:1022700080859185009721F0019709F45AC015C116
:1022800080819181892B09F04DC0F0933002E09359
:102290002F02A284B3848CE090E00E94BE148C01D3
:1022A00067E971E082E093E00E946508C5010E9441
:1022B000FF08B1E0AB16B10449F0E2E0AE16B1049C
:1022C00041F0AB2849F484E593E008C081E490E054
:1022D00005C088E696E002C080E090E021E030E0B2
:1022E000D80111963C932E9313961C921E9212972E
:1022F00015969C938E93149717961C921E92169780
:1023000019961C921E92189783E090E01B969C935E
:102310008E931A971093D2010093D10181E080939C
:102320002E02C3C081E090E09187808782E090E038
:102330004CC080819181019709F04AC060EE72E043
:1023400080E090E00E94CA0560ED77E080E090E0D8
:102350000E949F0384EB90E00E94B1071092D0018D
:1023600080E090E00E94FF0882E090E00E94500729
:1023700081E090E00E94500781E08093D00160EE00
:1023800072E081E090E00E94CA0560ED77E080E0B5
:1023900090E00E949F0360EE72E082E090E00E9475
:1023A000CA058091D1019091D2010E945315E0910C
:1023B0002F02F0913002F093D201E093D10182E03C
:1023C00090E09183808381E090E00E9450076DC08F
:1023D00061E089E00E94330360EE72E080E090E00B
:1023E0000E94CA0560ED77E080E090E00E949F03C4
:1023F00084EB90E00E94B1071092D00180E090E061
:102400000E94FF0881E090E00E94500760ED72E0BA
:1024100080E090E00E94CA0560E971E080E090E011
:102420000E949F0360ED72E081E090E00E94CA0587
:1024300060E273E080E090E00E949F0360ED72E054
:1024400080E090E00E94CA0560E971E080E090E0E1
:102450000E949F0360ED72E082E090E00E94CA0556
:102460006CEB72E080E090E00E949F0382E090E0DD
:102470000E94500781E08093D0018FEF90E00E948E
:10248000B10760EE72E081E090E00E94CA0560ED65
:1024900077E080E090E00E949F0360EE72E082E0CF
:1024A00090E00E94CA050E94AB0580910401811151
:1024B00046C0E091D101F091D20120912E02808599
:1024C00091850196DC01AA0FBB1FAE0FBF1F0D91B6
:1024D0001C91A0910003B091010312964D915C9163
:1024E00013974017510774F1A0910003B0910103B5
:1024F0006D917C91A8014A5F5F4F461757073CF4E6
:10250000609100037091010381E090E012C0A091FE
:102510000003B09101036D917C91A80146505109CF
:10252000641775077CF4609100037091010380E0EB
:1025300090E00E94CA051093CF020093CE020E9441
:102540004F019EC8222321F010922E0281E009C083
:10255000918780878230910539F481E090E09187FE
:1025600080878093D301EBCF009731F0019709F07A
:10257000A6CF82E090E002C081E090E00E94500788
:1025800098CF80919F039091A0030C945315E2E0A3
:10259000F3E01382128288EE93E0A0E0B0E084833F
:1025A0009583A683B7832FE031E03183208325EC28
:1025B00030E03587248724EC30E03787268720EC0D
:1025C00030E0318B208B21EC30E0338B228B22ECFE
:1025D00030E0358B248B26EC30E0378B268B118E48
:1025E000128E138E148EE6EAF3E013821282848335
:1025F0009583A683B7838FE191E091838083EFE990
:10260000F3E011821082138212821582148240E05C
:1026100050E06CE371E0CF010C94440881E08093BA
:10262000CD0280E28093A5031092CC021092CB02DF
:1026300061E086EA93E00E9441026AEA71E082E08A
:1026400093E00E94650881E090E00E94FF0890916D
:10265000CB028091A503913208F046C02091AA02D6
:102660002111FCCF22E02093AA0221E02093A902AD
:102670002FEF2093A8021092A7029093A602ABEA34
:10268000B2E046E852E0FA012E2F241B291718F475
:102690002D912193F9CF1092850290918502880F98
:1026A000892B8093850280918402813061F410929D
:1026B0008402809185028093BB008091BC0083FDE1
:1026C000F8CF85EC01C085EE8093BC008091AA0212
:1026D0008230E1F38091A8028F3F31F08091A8020F
:1026E000803211F08091A8021092CC021092CB029D
:1026F0001092CD02089597FB072E16F4009407D090
:1027000077FD09D00E948F1307FC05D03EF4909509
:1027100081959F4F0895709561957F4F0895AA1BED
:10272000BB1B51E107C0AA1FBB1FA617B70710F0BC
:10273000A61BB70B881F991F5A95A9F780959095EE
:10274000BC01CD010895EE0FFF1F0590F491E02D1F
:1027500009940E94B0136894B1110C941C17089549
:102760000E94011788F09F5798F0B92F9927B75109
:10277000B0F0E1F0660F771F881F991F1AF0BA9525
:10278000C9F714C0B13091F00E941B17B1E0089551
:102790000C941B17672F782F8827B85F39F0B93F43
:1027A000CCF3869577956795B395D9F73EF49095D8
:1027B0008095709561957F4F8F4F9F4F0895A0E052
:1027C000B0E0E5EEF3E10C944817EC01009721F43A
:1027D000CB010E94BE14B8C0FC01E60FF71F9C019C
:1027E00022503109E217F30708F4ACC0D9010D916A
:1027F0001C91119706171707B0F00530110508F462
:102800009FC0C80104978617970708F499C0025023
:102810001109061B170B019311936D937C93CF0144
:102820000E9453158DC05B01A01AB10A4C01800EA5
:10283000911EA091B403B091B50340E050E0E12CAB
:10284000F12C109709F44AC0A815B905D1F56D907F
:102850007C901197630182E0C80ED11CCA14DB047E
:1028600080F1A3014A195B096A0182E0C80ED11CFC
:102870001296BC9012971396AC91B5E0CB16D1048A
:1028800040F0B282A38351834083D9016D937C933E
:102890000AC00E5F1F4FC301800F911FF901918382
:1028A0008083EB2DFA2FE114F10431F0D701139658
:1028B000FC93EE93129744C0F093B503E093B403F6
:1028C0003FC08D919C9111974817590708F4AC01AE
:1028D0007D0112960D90BC91A02DB3CF8091B203D3
:1028E0009091B30388159905E1F446175707C8F48A
:1028F0008091050190910601009741F48DB79EB734
:102900004091090150910A01841B950BE817F907C2
:10291000C8F4F093B303E093B203F90171836083C9
:102920000FC0CB010E94BE147C01009759F0A80192
:10293000BE010E94AE14CE010E945315C70104C00F
:10294000CE0102C080E090E0CDB7DEB7EEE00C949F
:10295000641781E090E0F8940C947B17FB01DC0194
:1029600002C001900D9241505040D8F70895FB01EC
:10297000DC0101900D920020E1F70895CF93DF93E1
:102980008230910510F482E090E0E091B403F09180
:10299000B50320E030E0C0E0D0E0309711F1408195
:1029A000518148175907C0F04817590761F48281CF
:1029B0009381209719F09B838A832BC09093B50352
:1029C0008093B40326C02115310519F0421753072F
:1029D00018F49A01BE01DF01EF010280F381E02DBE
:1029E000DCCF2115310509F1281B390B24303105C5
:1029F00090F412968D919C9113976115710521F0B9
:102A0000FB019383828304C09093B5038093B40346
:102A1000FD01329644C0FD01E20FF31F81939193B3
:102A2000225031092D933C933AC02091B20330914A
:102A3000B303232B41F42091070130910801309317
:102A4000B3032093B20320910501309106012115B3
:102A5000310541F42DB73EB74091090150910A016B
:102A6000241B350BE091B203F091B303E217F30797
:102A7000A0F42E1B3F0B2817390778F0AC014E5FEE
:102A80005F4F2417350748F04E0F5F1F5093B30375
:102A90004093B2038193919302C0E0E0F0E0CF0154
:102AA000DF91CF9108950F931F93CF93DF930097FA
:102AB00009F48CC0FC013297138212820091B40396
:102AC0001091B5030115110581F420813181820F28
:102AD000931F2091B2033091B3032817390779F57A
:102AE000F093B303E093B20371C0D80140E050E02B
:102AF000AE17BF0750F412962D913C911397AD017C
:102B00002115310509F1D901F3CF9D01DA01338394
:102B1000228360817181860F971F8217930769F462
:102B2000EC0128813981260F371F2E5F3F4F3183FB
:102B300020838A819B8193838283452B29F4F093A0
:102B4000B503E093B40342C01396FC93EE9312973F
:102B5000ED01499159919E01240F351FE217F307AA
:102B600071F480819181840F951F029611969C9338
:102B70008E938281938113969C938E931297E0E0BB
:102B8000F0E0D80112968D919C911397009719F05F
:102B9000F8018C01F6CF8D919C9198012E5F3F4FEB
:102BA000820F931F2091B2033091B3032817390786
:102BB00069F4309729F41092B5031092B40302C05F
:102BC000138212821093B3030093B203DF91CF916B
:102BD0001F910F9108951F93FC0199278827BC012D
:102BE000E89411911032E9F3193010F01E30C8F357
:102BF0001B3251F01D3249F4689406C00E9412162F
:102C0000610F711D811D911D119110531A30B0F388
:102C10003EF490958095709561957F4F8F4F9F4FB3
:102C20001F910895592F482F372F262F660F771F92
:102C3000881F991F660F771F881F991F620F731FC8
:102C4000841F951F660F771F881F991F0895E894AA
:102C500009C097FB3EF490958095709561957F4FE4
:102C60008F4F9F4F9923A9F0F92F96E9BB27939592
:102C7000F695879577956795B795F111F8CFFAF4A2
:102C8000BB0F11F460FF1BC06F5F7F4F8F4F9F4FD3
:102C900016C0882311F096E911C0772321F09EE831
:102CA000872F762F05C0662371F096E8862F70E097
:102CB00060E02AF09A95660F771F881FDAF7880F71
:102CC0009695879597F908950E9477160C94E816C3
:102CD0000E94DA1638F00E94E11620F0952311F0D8
:102CE0000C94D1160C94D71611240C941C170E9426
:102CF000F91670F3959FC1F3950F50E0551F629F31
:102D0000F001729FBB27F00DB11D639FAA27F00D44
:102D1000B11DAA1F649F6627B00DA11D661F829F6B
:102D20002227B00DA11D621F739FB00DA11D621F50
:102D3000839FA00D611D221F749F3327A00D611D6D
:102D4000231F849F600D211D822F762F6A2F11244F
:102D50009F5750409AF0F1F088234AF0EE0FFF1F82
:102D6000BB1F661F771F881F91505040A9F79E3FD9
:102D7000510580F00C94D1160C941C175F3FE4F3BE
:102D8000983ED4F3869577956795B795F795E7952F
:102D90009F5FC1F7FE2B880F911D9695879597F938
:102DA000089597F99F6780E870E060E008959FEFCD
:102DB00080EC089500240A941616170618060906D2
:102DC000089500240A9412161306140605060895A1
:102DD000092E0394000C11F4882352F0BB0F40F429
:102DE000BF2B11F460FF04C06F5F7F4F8F4F9F4F69
:102DF000089557FD9058440F551F59F05F3F71F0EB
:102E00004795880F97FB991F61F09F3F79F0879551
:102E10000895121613061406551FF2CF4695F1DFDA
:102E200008C0161617061806991FF1CF869571056A
:102E3000610508940895E894BB2766277727CB019E
:102E400097F90895A1E21A2EAA1BBB1BFD010DC024
:102E5000AA1FBB1FEE1FFF1FA217B307E407F5074A
:102E600020F0A21BB30BE40BF50B661F771F881F26
:102E7000991F1A9469F760957095809590959B01BC
:102E8000AC01BD01CF0108952F923F924F925F9206
:102E90006F927F928F929F92AF92BF92CF92DF926A
:102EA000EF92FF920F931F93CF93DF93CDB7DEB7CF
:102EB000CA1BDB0B0FB6F894DEBF0FBECDBF099463
:102EC0002A88398848885F846E847D848C849B84BA
:102ED000AA84B984C884DF80EE80FD800C811B81C8
:102EE000AA81B981CE0FD11D0FB6F894DEBF0FBEF7
:102EF000CDBFED01089510E0C2E6D0E004C0FE01B0
:102F00000E94A3132196C336D107C9F7F894FFCFC7
:102F1000D001D001010000B603800000000000E6EF
:102F2000002507AF008D00A1002D01000000004129
:102F30000211020A02070204020302564D445056CF
:102F40005F317C315F564D4450560D0A0042656634
:102F50006F726520476574496E7374727563746926
:102F60006F6E004E6F20696E737472756374696F53
:102F70006E20637265617465642E002C20002070E1
:102F8000726F6772657373706F696E74002062721E
:102F900069636B00207800207A0020790052414D4F
:102FA000465245453A20006F6B657920736F206269
:102FB0007269636B2069733A20004552524F522068
:0E2FC000454E434F554E54455245443A20006D
:00000001FF
