:100000000C9463000C944A040C9423040C948B000D
:100010000C948B000C948B000C948B000C948B0034
:100020000C948B000C948B000C948B000C948B0024
:100030000C948B000C948B000C948B000C948B0014
:100040000C94D9030C948B000C9401030C94DB02E8
:100050000C948B000C948B000C948B000C948B00F4
:100060000C9471040C948B00000000002400270005
:100070002A0000000000250028002B0000000000DE
:1000800023002600290004040404040404040202DA
:100090000202020203030303030301020408102007
:1000A0004080010204081020010204081020000012
:1000B0000008000201000003040700000000000027
:1000C00000005912531211241FBECFEFD8E0DEBF3B
:1000D000CDBF11E0A0E0B1E0E0E3FEE202C0059098
:1000E0000D92A03BB107D9F723E0A0EBB1E001C02E
:1000F0001D92A137B207E1F710E0C2E6D0E004C0DC
:100100002197FE010E945513C136D107C9F70E94FD
:10011000FD080C940B170C940000FC01918D828D4E
:10012000981761F0828DDF01A80FB11D5D968C914B
:10013000928D9F5F9F73928F90E008958FEF9FEF56
:100140000895FC01918D828D981731F0828DE80F12
:10015000F11D858D90E008958FEF9FEF0895FC01CC
:10016000918D228D892F90E0805C9F4F821B910999
:100170008F73992708958DEB92E00E94AF0021E0E4
:10018000892B09F420E0822F0895FC01848DDF0182
:10019000A80FB11DA35ABF4F2C91848D90E00196FA
:1001A0008F739927848FA689B7892C93A089B189E9
:1001B0008C9180648C93938D848D981306C00288F3
:1001C000F389E02D80818F7D80830895EF92FF92E7
:1001D0000F931F93CF93DF93EC0181E0888F9B8D6A
:1001E0008C8D981305C0E889F989808185FD24C02C
:1001F000F62E0B8D10E00F5F1F4F0F731127E02EAF
:100200008C8DE8120CC00FB607FCFACFE889F9898B
:10021000808185FFF5CFCE010E94C500F1CF8B8D87
:10022000FE01E80FF11DE35AFF4FF0820B8FEA89C0
:10023000FB898081806207C0EE89FF896083E8893D
:10024000F98980818064808381E090E0DF91CF91A3
:100250001F910F91FF90EF900895CF93DF93EC01E2
:10026000888D8823C9F0EA89FB89808185FD05C0D6
:10027000A889B9898C9186FD0FC00FB607FCF5CF10
:10028000808185FFF2CFA889B9898C9185FFEDCF58
:10029000CE010E94C500E7CFDF91CF91089580E0A5
:1002A00090E0892B29F00E94BB0081110C94000082
:1002B0000895833081F028F4813099F08230A1F0E4
:1002C00008958730A9F08830B9F08430D1F4809156
:1002D00080008F7D03C0809180008F7780938000A5
:1002E000089584B58F7702C084B58F7D84BD08954D
:1002F0008091B0008F7703C08091B0008F7D809394
:10030000B0000895CF93DF93282F30E0F901E25534
:10031000FF4F8491F901E656FF4FD491F901EA5756
:10032000FF4FC491CC2391F081110E945901EC2F11
:10033000F0E0EE0FFF1FE458FF4FA591B491EC9150
:10034000ED2381E090E021F480E002C080E090E0C5
:10035000DF91CF9108953FB7F89480913B0290913F
:100360003C02A0913D02B0913E0226B5A89B05C07B
:100370002F3F19F00196A11DB11D3FBFBA2FA92F24
:10038000982F8827820F911DA11DB11DBC01CD01A1
:1003900042E0660F771F881F991F4A95D1F708958D
:1003A000089585ED8093BC008091BC0084FDFCCF56
:1003B00010926502089540911102262F30E0240F1B
:1003C000311D21323105DCF4209165022430C9F45D
:1003D000FC0180E090E0861758F4309111022191E1
:1003E000DC01A151BE4FA30FB11D2C930196F3CF99
:1003F00080911102680F6093110280E0089581E0FE
:10040000089582E0089508958FEF9FEF08958FEF8C
:100410009FEF08958091EE0190E09195819591096B
:100420000895CF92DF92EF92FF920F931F93CF9395
:10043000DF937C01262F972F8A01809188028823E1
:1004400091F0C62FD72F6E01C40ED51ECC15DD0539
:1004500071F06991D701ED91FC910190F081E02D4F
:10046000C7010995F3CF642F822F0E94DB01C801D9
:10047000DF91CF911F910F91FF90EF90DF90CF9080
:100480000895CF93DF931F92CDB7DEB76983209194
:1004900088022223D1F020918602203240F021E010
:1004A00030E0FC013383228380E090E015C080912E
:1004B0008702E82FF0E0EA59FD4F998190838F5F22
:1004C000809387028093860205C061E0CE01019689
:1004D0000E94DB0181E090E00F90DF91CF910895C1
:1004E000DC01ED91FC918081918108950E945B1463
:1004F000CF93DF93FC01A081B181CD91DC91119765
:1005000012968D919C9113979183808324853585D4
:100510002150310935872487CD010E940515CE0170
:10052000DF91CF910895CF92DF92EF92FF920F93D8
:100530001F93CF93DF9300D0CDB7DEB76C0184E07B
:1005400090E069837A830E9470148C01D60114961E
:10055000ED90FC901597C7010E947014F8019183EB
:10056000808313821282A70169817A810E946014BC
:10057000D6018D919C911197892B19F40D931C93A1
:1005800007C0D6011296ED91FC9113971383028355
:10059000F601138302838485958501969587848768
:1005A0000F900F90DF91CF911F910F91FF90EF90DF
:1005B000DF90CF9008951F920F920FB60F921124E3
:1005C0002F933F934F935F936F937F938F939F935B
:1005D000AF93BF93EF93FF938DEB92E00E94C50022
:1005E000FF91EF91BF91AF919F918F917F916F910B
:1005F0005F914F913F912F910F900FBE0F901F90E1
:1006000018951F920F920FB60F9211242F938F936C
:100610009F93EF93FF93E091CD02F091CE02808102
:10062000E091D302F091D40282FD12C090818091BA
:10063000D6028F5F8F732091D702821751F0E0911D
:10064000D602F0E0E354FD4F958F8093D60201C0AF
:100650008081FF91EF919F918F912F910F900FBE0D
:100660000F901F9018951F93CF93DF93282F30E0A2
:10067000F901E255FF4F8491F901E656FF4FD491FD
:10068000F901EA57FF4FC491CC23C9F0162F81110D
:100690000E945901EC2FF0E0EE0FFF1FEE58FF4FC4
:1006A000A591B4918FB7F894111105C09C91ED2FCD
:1006B000E095E92302C0EC91ED2BEC938FBFDF9125
:1006C000CF911F910895CF93DF9390E0FC01E65600
:1006D000FF4F2491FC01EA57FF4F8491882361F179
:1006E00090E0880F991FFC01E859FF4FC591D49104
:1006F000FC01EE58FF4FA591B491611109C09FB75D
:10070000F8948881209582238883EC912E230BC056
:10071000623061F49FB7F8943881822F80958323EB
:100720008883EC912E2B2C939FBF06C08FB7F89433
:10073000E8812E2B28838FBFDF91CF9108958F9270
:100740009F92AF92BF92CF92DF92EF92FF926B0196
:100750007C010E94AB014B015C01C114D104E10496
:10076000F104F1F00E94AB01DC01CB018819990979
:10077000AA09BB09883E9340A105B10570F321E0A9
:10078000C21AD108E108F10888EE880E83E0981EAD
:10079000A11CB11CC114D104E104F10419F7DDCF8F
:1007A000FF90EF90DF90CF90BF90AF909F908F9091
:1007B00008951F920F920FB60F9211242F933F931B
:1007C0008F939F93AF93BF9380913702909138029C
:1007D000A0913902B0913A023091360223E0230F02
:1007E0002D3720F40196A11DB11D05C026E8230F69
:1007F0000296A11DB11D209336028093370290937B
:100800003802A0933902B0933A0280913B02909152
:100810003C02A0913D02B0913E020196A11DB11D86
:1008200080933B0290933C02A0933D02B0933E0222
:10083000BF91AF919F918F913F912F910F900FBEDC
:100840000F901F9018951F920F920FB60F921124C0
:100850002F933F934F935F936F937F938F939F93C8
:10086000AF93BF93EF93FF93E0910201F0910301E7
:100870000995FF91EF91BF91AF919F918F917F91DA
:100880006F915F914F913F912F910F900FBE0F90FD
:100890001F9018951F920F920FB60F9211242F934D
:1008A0003F934F935F936F937F938F939F93AF93F8
:1008B000BF93EF93FF93E0910001F091010109953F
:1008C000FF91EF91BF91AF919F918F917F916F9128
:1008D0005F914F913F912F910F900FBE0F901F90FE
:1008E00018951F920F920FB60F9211242F933F93DA
:1008F0004F935F936F937F938F939F93AF93BF9328
:10090000EF93FF938091B900887F803609F49CC0F3
:1009100068F5883209F45BC090F4803109F454C062
:1009200038F4882309F4F6C0883009F44DC0F6C0C5
:10093000883109F44CC0803209F45DC0EFC08034C6
:1009400009F468C048F4803309F455C0883309F0CD
:10095000E5C080936302D8C0803509F44FC0883564
:1009600009F45DC0883409F0D9C0D6C0883909F4CB
:10097000C7C0A8F4883709F467C038F4883609F48A
:1009800063C0803709F460C0C9C0883809F4B8C0B2
:10099000803909F45FC0803809F0C0C05BC0803B7B
:1009A00009F486C038F4803A09F466C0883A09F43C
:1009B0007FC0B4C0803C09F4A7C0883C09F4A4C03F
:1009C000883B09F48AC0AAC08091400210C090916F
:1009D000620280916102981770F5E091620281E0F5
:1009E0008E0F80936202F0E0EF5BFD4F8081809379
:1009F000BB0085EC86C0809363028EC0E0916202EA
:100A000081E08E0F809362028091BB00F0E0EF5B8B
:100A1000FD4F808390916202809161026EC0E091EF
:100A2000620281E08E0F809362028091BB00F0E051
:100A3000EF5BFD4F80838091640281116DC081E086
:100A400080933F0284EA61C083E080936502109244
:100A50003502CFCF80913502803208F051C0E0914D
:100A6000350281E08E0F809335028091BB00F0E06B
:100A7000EB5EFD4F8083BDCF85EC8093BC00109270
:100A8000650280913502803230F4E0913502F0E069
:100A9000EB5EFD4F10826091350270E0E091130231
:100AA000F091140285E192E009951092350236C06A
:100AB00084E0809365021092120210921102E0917C
:100AC0000F02F0911002099580911102811105C069
:100AD00081E0809311021092EF01E091120281E017
:100AE0008E0F80931202F0E0E151FE4F80818093DF
:100AF000BB009091120280911102981708F479CFEF
:100B000085E88093BC000AC085EC8093BC001092FD
:100B1000650204C0109263020E94D101FF91EF911F
:100B2000BF91AF919F918F917F916F915F914F9105
:100B30003F912F910F900FBE0F901F90189581E05D
:100B400090E00E9466078091BF019091C0010E94D1
:100B500005158091BC019091BD01892B21F481E0A4
:100B60008093040102C01092040180EB91E00E9486
:100B700078029093C0018093BF0108950F931F9353
:100B80008FB7F89400913702109138022091390202
:100B900030913A028FBF4091EA015091EB01609190
:100BA000EC017091ED01485A5D4F6F4F7F4F81E02E
:100BB000401751076207730708F480E01F910F91F7
:100BC00008950F931F93CF93DF938C01EB01813036
:100BD000910581F082309105E9F0892B39F51B866A
:100BE0001A868E819F8161E00E94330388859985F2
:100BF00060E00AC09B878A878E819F8160E00E94A7
:100C000033038885998561E0DF91CF911F910F9122
:100C10000C9433038E819F8160E00E9433038885AA
:100C2000998560E00E9433031B870A87DF91CF918B
:100C30001F910F9108950E9466076091BB02709109
:100C4000BC0281E090E00E94E1052FB7F89480910A
:100C5000370290913802A0913902B0913A022FBF29
:100C60008093EA019093EB01A093EC01B093ED0126
:100C70000E94BE058111FCCF6091BB027091BC0245
:100C800082E090E00E94E105E091BB02F091BC029D
:100C9000118210820895CF93DF932FB7F89480913B
:100CA000370290913802A0913902B0913A022FBFD9
:100CB0008093EA019093EB01A093EC01B093ED01D6
:100CC0008091BE01882309F473C0E091BB02F091CA
:100CD000BC0282859385009721F0019709F444C0F6
:100CE00067C040815181C091BF01D091C001A885EA
:100CF000B9851196AA0FBB1FAC0FBD1F8D919C919A
:100D00009C01265031094217530784F08FEF90E081
:100D10000E9449086091BB027091BC0282E090E0A1
:100D20000E94E10581E08093C10142C04081518170
:100D30009C0128573109421753074CF0EB5AF240F7
:100D400019F480E590E00CC08EE690E009C02081A7
:100D50003181885592402817390754F18CE890E08A
:100D6000DF91CF910C94490840815181C091BF011E
:100D7000D091C001A885B9851196AA0FBB1FAC0FF1
:100D8000BD1F8D919C919C012A5F3F4F2417350711
:100D90000CF0BCCF408151812E583F4F24173507AE
:100DA0006CF620813181885A9D4F82179307B4F6E3
:100DB000DF91CF91089583E00E948201E091BB0210
:100DC000F091BC02268537852817390719F19787D6
:100DD0008687009719F0019771F01AC08485958570
:100DE000892B21F480819181019603C080819181BA
:100DF00001979183808384859585892B21F4808157
:100E00009181019703C080819181019691838083B4
:100E10000C944B06089582E00E948201E091BB028F
:100E2000F091BC02248535852817390719F195877B
:100E30008487009719F0019771F01AC0868597850D
:100E4000892B21F480819181019703C08081918158
:100E500001969183808386859785892B21F48081F3
:100E60009181019603C08081918101979183808354
:100E70000C944B060895CF92DF92EF92FF920F935E
:100E80001F93CF93DF936C017A018B01C0E0D0E018
:100E9000CE15DF0589F0D8016D918D01D601ED9158
:100EA000FC910190F081E02DC6010995892B11F488
:100EB0007E0102C02196ECCFC701DF91CF911F9137
:100EC0000F91FF90EF90DF90CF90089581309105C2
:100ED000A1F08230910501F1892B81F560E08CE071
:100EE0000E94330361E08BE00E94330360E08AE0FC
:100EF0000E9433038BE992E01DC061E08CE00E9408
:100F0000330360E08BE00E94330360E08AE00E94DC
:100F100033038BE892E00EC060E08CE00E94330364
:100F200060E08BE00E94330360E08AE00E943303BC
:100F30008BEA92E09093BC028093BB0208950097E5
:100F400069F0FC0101900020E9F73197AF01481BDF
:100F5000590BBC018DEB92E00C943B0780E090E0D4
:100F600008958F929F92AF92BF920F931F93CF934A
:100F7000DF93CDB7DEB7A1970FB6F894DEBF0FBEF3
:100F8000CDBF19A2423008F44AE08E010F5D1F4F19
:100F9000842E912CA12CB12CA50194010E941F1329
:100FA000E62FB901CA0101501109EA3014F4E05DDD
:100FB00001C0E95CD801EC93232B242B252B61F78E
:100FC000C8010E949F07A1960FB6F894DEBF0FBE1E
:100FD000CDBFDF91CF911F910F91BF90AF909F90A8
:100FE0008F900895CF92DF92EF92FF92CF93DF938D
:100FF0006B017C01E091BD02F091BE020190F08195
:10100000E02D6DE28DEB92E00995EC0166277727E4
:10101000CB016C197D098E099F094AE00E94B10736
:101020008C0F9D1FDF91CF91FF90EF90DF90CF90BD
:101030000895CF93DF93BC01990F880B990B97FF0D
:1010400003C00E94F20703C04AE00E94B107EC010E
:1010500088E991E00E949F078C0F9D1FDF91CF913F
:101060000895CF93DF930E949F07EC0188E991E0F8
:101070000E949F078C0F9D1FDF91CF910895BC01A7
:10108000990F880B990B97FD0C94F2074AE00C948A
:10109000B107CF93DF93EC0161E089E00E94630325
:1010A000209711F460E004C0CF3FD10531F461E036
:1010B00089E0DF91CF910C943303E7EBF0E0E4910A
:1010C000E330F9F048F4E130B9F0E230A1F584B54D
:1010D000806284BDC8BD34C0E730E9F0E83019F162
:1010E000E43049F580918000806280938000D09345
:1010F0008B00C0938A0024C084B5806884BDC7BDBE
:101100001FC080918000806880938000D093890008
:10111000C093880015C08091B00080688093B000B3
:10112000C093B3000DC08091B00080628093B00086
:10113000C093B40005C0C038D1050CF0B8CFB2CF11
:10114000DF91CF9108950F931F93CF93DF93EC011D
:1011500088819981009729F02A813B8126173707DA
:1011600088F48B016F5F7F4F0E949113009761F0AD
:10117000998388831B830A832C813D81232B11F45F
:10118000FC01108281E001C080E0DF91CF911F91CE
:101190000F910895CF93DF93EC0188819981009797
:1011A00011F00E940515198218821D821C821B8273
:1011B0001A82DF91CF910895EF92FF920F931F93C0
:1011C000CF93DF93EC017B018A01BA010E94A3084F
:1011D000811104C0CE010E94CA0807C01D830C8380
:1011E000B701888199810E946914CE01DF91CF9166
:1011F0001F910F91FF90EF900895CF93DF93CDB79C
:10120000DEB7CE5AD1090FB6F894DEBF0FBECDBF00
:10121000789484B5826084BD84B5816084BD85B5D1
:10122000826085BD85B5816085BD80916E008160DD
:1012300080936E0010928100809181008260809383
:101240008100809181008160809381008091800085
:101250008160809380008091B10084608093B100B0
:101260008091B00081608093B00080917A008460AA
:1012700080937A0080917A00826080937A008091D6
:101280007A00816080937A0080917A0080688093F0
:101290007A001092C10061E08AE00E94630361E07D
:1012A0008BE00E94630361E08CE00E94630361E0D5
:1012B00085E00E94630361E084E00E94630361E0D3
:1012C00086E00E94630361E087E00E94630361E0BF
:1012D0008DE00E94630361E088E00E94630361E0A7
:1012E00089E00E94630362E082E00E94630362E09F
:1012F00083E00E9463038BE097E090930101809369
:101300000001809169008C7F816080936900E89A78
:101310008BED96E090930301809302018091690028
:10132000837F846080936900E99AE091CD02F09117
:10133000CE0282E08083E091C902F091CA0210825D
:10134000E091CB02F091CC028FEC80831092D50219
:10135000E091D102F091D20286E08083E091CF0249
:10136000F091D002808180618083E091CF02F09182
:10137000D002808188608083E091CF02F091D0021A
:10138000808180688083E091CF02F091D0028081DB
:101390008F7D80831092B1011092B0011092B30141
:1013A0001092B2018CE090E09093B5018093B4016B
:1013B00063E972E07093B7016093B60148E752E0C9
:1013C0005093B9014093B80180E792E09093BB013C
:1013D0008093BA011092BD011092BC011092D0010D
:1013E0001092CF011092D2011092D1011092D4012B
:1013F0001092D3011092D8011092D7011092DA0105
:101400001092D90125E030E03093DC012093DB011C
:101410007093DE016093DD015093E0014093DF01A2
:101420009093E2018093E1011092E4011092E301B4
:101430001EAA1DAA4AEE5BE058AF4FAB1AAE19AE1A
:101440008DE090E09CAF8BAF88E090E09EAF8DAFD9
:1014500082E090E021969FAF8EAF219723961FAE3A
:101460001EAE239725961FAE1EAE259727961FAE5C
:101470001EAE279729965FAF4EAF29972B961FAECA
:101480001EAE2B9746E050E02D965FAF4EAF2D97E6
:1014900047E050E02F965FAF4EAF2F9761969FAF1A
:1014A0008EAF619763961FAE1EAE639765961FAEB3
:1014B0001EAE659767961FAE1EAE679748EB5BE062
:1014C00069965FAF4EAF69976B961FAE1EAE6B9776
:1014D0006D963FAF2EAF6D9724E030E06F963FAF33
:1014E0002EAF6F97A1969FAF8EAFA197A3961FAE19
:1014F0001EAEA397A5961FAE1EAEA597CE018B5923
:101500009F4F20E1FE01EB5AFF4FDC0101900D924D
:101510002A95E1F720E1FE01EB5BFF4FDE01AB58BE
:10152000BF4F01900D922A95E1F720E1FE01F5965B
:10153000DE01AB57BF4F01900D922A95E1F71A8259
:10154000198220E1FC01DE01139601900D922A958B
:10155000E1F720E1FE01EB58FF4FDE0153960190C9
:101560000D922A95E1F720E1FE01EB57FF4FDE01D6
:10157000939601900D922A95E1F79CAB8BAB84E397
:10158000FE013196A9E8B2E001900D928A95E1F74B
:1015900084EB90E00E94490880E090E00E941B06E6
:1015A0008CE890E00E94490882E090E00E941B06CF
:1015B0008CE890E00E94490881E090E00E941B06C0
:1015C00081E08093BE018FEF90E00E9449087E0188
:1015D00025E9E20EF11C2E0131EA430E511CFDE219
:1015E000DF2E8091E8019091E901892B09F0D3C0A9
:1015F0008DEB92E00E94AF00892B09F492C08DEB35
:1016000092E00E94A1008B3609F45DC08DEB92E060
:101610000E948D00182FD70111961C921E921396CE
:101620001C921E92129715961C921E92149760910E
:101630005A0370915B036115710541F040915E039F
:1016400050915F03C7010E94DC0803C0C7010E94DC
:10165000CA08F20110831182D70114960D911C91D2
:1016600015970F5F1F4FB801C7010E94A308882379
:1016700081F0F7012081318184819581B201820F4F
:10168000931F0E946914D70115961C930E9314970B
:1016900003C0C7010E94CA08F7016081718161150A
:1016A000710539F0448155818AE593E00E94DC0898
:1016B00004C08AE593E00E94CA08D7018D919C91ED
:1016C0000E9405152EC08DEB92E00E948D00809146
:1016D000CC019091CD019C012F5F3F4F3093CD0104
:1016E0002093CC0165E070E00E940B138C01809187
:1016F0005A0390915B03009719F00E949D1501C059
:1017000060E0000F111FF801EE53FE4F70E071838F
:10171000608340E050E06AE971E08AE593E00E946E
:10172000DC082091CC013091CD01C90165E070E069
:101730000E940B13892BF9F4232BE9F085E090E04C
:101740000E947014FC018091C20180838091C401C9
:1017500081838091C60182838091C80183838091B7
:10176000CA018483BF0187ED91E00E949302109229
:10177000CD011092CC018DEB92E00E94A100853644
:1017800051F48DEB92E00E948D0081E090E0909307
:10179000E9018093E8018091E8019091E9018130AD
:1017A000910509F0C7C089EA92E00E9470148C018B
:1017B00020E030E080E090E040E050E0BC01620FCB
:1017C000731FFA01E60FF71FE00FF11F10824F5F42
:1017D0005F4F4F305105A9F70F968D32910561F794
:1017E000235D3F4F233AB2E03B0721F780916D0321
:1017F00090916E03009711F481E793E0F701E81BE5
:10180000F90BCF010E941908F801ED55FD4F118227
:101810001082329611821082329611821082CC246C
:10182000C3948091E3019091E401892B09F47BC07A
:1018300087ED91E00E947802DC0114962C911497B8
:101840008FEF820F833008F06BC09C919F3008F0BF
:1018500067C01196EC911197EF3008F061C01296B5
:101860003C9112973F3008F05BC013968C918F30FB
:1018700008F056C0931328C0E81709F451C06E2F22
:1018800070E0A82FB0E0E81718F4AB01BD0101C06B
:10189000AD0130E0FDE29F9FC00111246417750780
:1018A0000CF4BFCFFA01E80FF91FE00FF11FC0825F
:1018B0002130310519F44F5F5F4FF0CFC7862330D9
:1018C0003105C9F7C68EF7CFE8132AC0492F50E07B
:1018D000632F70E0931718F4CA01AB0101C0CB016C
:1018E00030E0D89EB001D99E700D11246E0F711D8D
:1018F000A0E0B0E0481759070CF493CFFD01E60FC4
:10190000F71FE00FF11FC0822130310519F4019655
:101910009D96F0CFC78623303105C9F7C68EF7CF25
:101920000E94A0127ECF1093D6010093D50182E0D1
:1019300090E00EC4029709F00FC400E010E08AE9BD
:1019400091E00E943108A12CB12C2FE0209F400192
:10195000219F900C11248AE991E00E943108612CAA
:10196000712C2091D5013091D601D69CC001D79C15
:10197000900D1124880D991D820F931FFC01EA0D13
:10198000FB1D608170E080E090E04AE00E94B107BA
:101990003FEF631A730A4FE06416710411F75FEFAB
:1019A000A51AB50A6FE0A616B104A9F60F5F1F4F7E
:1019B0000330110521F68AE991E00E9431088BE29B
:1019C00091E00E9431088090D5019090D6016091FD
:1019D000D1017091D201862FE091CF015091D001B9
:1019E0009091CE010091D3011091D40140E0833059
:1019F0000CF01DC3282F217827FF03C021502E6F24
:101A00002F5F213019F4911101C041E080FF90E077
:101A1000FFE08F02D0011124C755DF4FB983A8839F
:101A2000C95AD0402E2F352F682E082E000C77086B
:101A30000F3011050CF0F1C2D29EF001D39EF00DD3
:101A40001124C755DF4F68817981C95AD040600F92
:101A5000711FDB01AE0FBF1FC555DF4FB983A883D0
:101A6000CB5AD040CD55DF4F19821882C35AD0408F
:101A7000F8013296CB55DF4FF983E883C55AD04041
:101A8000B80162507109C955DF4F79836883C75A1D
:101A9000D0402F3031050CF0BBC21301CD55DF4FC4
:101AA00068817981C35AD040C555DF4FA881B9817B
:101AB000CB5AD0406A0F7B1F680D791DFB01508106
:101AC000513009F095C25901F2E0AF0EB11CFB0193
:101AD000E65AFF4F5081513009F070C02C3031056B
:101AE00008F06CC087FD6AC017FD68C00E30110594
:101AF00009F464C0411160C09093CE013093D001CD
:101B00002093CF017092D2016092D1011093D40141
:101B10000093D301D29ED001D39EB00D11244FE08B
:101B2000469DC001479D900D1124A80FB91FA80D17
:101B3000B91DFD01E00FF11F72E0C72EC082B9018F
:101B40006F5F7F4FD69EF001D79EF00D1124E80FF6
:101B5000F91F3F01680C791CA301400F511FFA01C6
:101B6000C082DA9CA001DB9C500D1124480F591F44
:101B7000480D591D5A01A00EB11EF501C0822D5FFE
:101B80003F4FD29E5001D39EB00C11248A0D9B1D55
:101B9000880E991EC401800F911FFC01C08258015C
:101BA000FFEFAF1ABF0AAA0DBB1DCC92F301EA0DDD
:101BB000FB1DC082FA0182C091E040E0590152E071
:101BC000A51AB108FB01EA55F1095081513009F01D
:101BD000A0C0D9011397C355DF4FB983A883CD5A4D
:101BE000D0401C9708F095C087FD93C010161106D1
:101BF0000CF08FC041118BC09093CE013093D00177
:101C00002093CF017092D2016092D1011093D40140
:101C10000093D301D29EF001D39EF00D1124BFE0BA
:101C2000B69DC001B79D900D1124E80FF91FE80D76
:101C3000F91DAF01400F511F62E0C62EDA01CC92B0
:101C4000B90161507109D69EA001D79E500D112493
:101C5000480F591F480D591D9A01200F311FD901F6
:101C6000CC92DA9C9001DB9C300D1124280F391F97
:101C7000280D391D5901A00EB11ED501CC92C355B6
:101C8000DF4FA881B981CD5AD040DA9E5001DB9E4A
:101C9000B00C11248A0D9B1D880E991ED401A00F33
:101CA000B11FCC925801BFEFAB1ABB0AEA0DFB1D66
:101CB000C082FA01EA0DFB1DC082F901EA0DFB1D8D
:101CC000C082F401EA0DFB1DC082072E000C880BB8
:101CD000990B0E94DB1520E030E041EE52E40E94B7
:101CE00016160E945B135B01B801110F880B990B4C
:101CF0000E94DB1520E030E041EE52E40E9416160F
:101D00000E945B136F5B7F4F82E090E0AAC191E07D
:101D100040E0FB015281D9011196513009F066C0B3
:101D20002E30310508F062C087FD60C00C3011050F
:101D300008F05CC0411158C09093CE013093D0019F
:101D40002093CF017092D2016092D1011093D401FF
:101D50000093D301D29EA001D39E500D1124FFE029
:101D6000F69DB001F79D700D1124460F571F480DC9
:101D7000591DFA01E00FF11F92E0908338018FEFB7
:101D8000681A780AFA01E60DF71D9083CB55DF4FEC
:101D9000E881F981C55AD040E40FF51F9083F8011E
:101DA0003396CD55DF4FF983E883C35AD0404E0FA9
:101DB0005F1FFA019083DA9E5001DB9EB00C112464
:101DC0006A0D7B1D5401A60EB71ED501A00FB11FD1
:101DD0009C93D501A60DB71D9C93CB55DF4FA881D1
:101DE000B981C55AD0406BC091E040E0FB01329709
:101DF0005081513009F093C02E30310508F08FC06A
:101E000087FD8DC00C30110508F089C0411185C0D7
:101E10009093CE013093D0012093CF017092D201E4
:101E20006092D1011093D4010093D301D29EA001FE
:101E3000D39E500D1124FFE0F69DB001F79D700D6B
:101E40001124460F571F480D591DFA01E00FF11FCD
:101E500092E09083380181E0681A7108FA01E60D7A
:101E6000F71D9083C955DF4FE881F981C75AD040EB
:101E7000E40FF51F9083F8013397CD55DF4FF983B9
:101E8000E883C35AD0404E0F5F1FFA019083DA9E59
:101E90005001DB9EB00C11246A0D7B1D5401A60E6F
:101EA000B71ED501A00FB11F9C93D501A60DB71D7C
:101EB0009C93C955DF4FA881B981C75AD040AA0D5C
:101EC000BB1D9C93CD55DF4FE881F981C35AD040AB
:101ED000EA0DFB1D9083B901330F880B990B0E940B
:101EE000DB1520E030E041EE52E40E9416160E941D
:101EF0005B135B01B301770C880B990B0E94DB1518
:101F000020E030E041EE52E40E9416160E945B137E
:101F10006F5B7F4F81E090E0A4C091E040E02E3005
:101F2000310508F065C087FD63C017FD61C00E3044
:101F3000110509F45DC09093CE013093D001209338
:101F4000CF017092D2016092D1011093D40100931D
:101F5000D301D29EA001D39E500D1124FFE0F69D27
:101F6000C001F79D900D1124480F591F480D591DB0
:101F7000FA01E00FF11F62E06083DA9E5001DB9E00
:101F8000B00C11248A0D9B1D880E991EF401E00FE0
:101F9000F11F608358017FEFA71AB70AFA01EA0D13
:101FA000FB1D6083F401EA0DFB1D6083B901330F53
:101FB000880B990B0E94DB1520E030E041EE52E4E3
:101FC0000E9416160E945B135B01B801110F880B6B
:101FD000990B0E94DB1520E030E041EE52E40E94B4
:101FE00016160E945B136F5B7F4F80E090E039C054
:101FF0002F5F3F4FCD55DF4FA881B981C35AD040E5
:102000009D96CD55DF4FB983A883C35AD04041CDAB
:102010000F5F1F4F20E030E00BCD682F082E000C23
:10202000770B8F5FE22F532F00E010E0E0CC90930E
:10203000CE01E093CF015093D0017093D201609311
:10204000D1011093D4010093D30181E491E00E9467
:10205000310883E090E0212C312C61E470E0A12C68
:10206000B12CF70111821082B382A282758364833E
:102070003782268211861086938782878091CF01CE
:102080009091D0010E943F0889E591E00E949F074E
:102090008091D3019091D4010E943F0889E591E09D
:1020A0000E949F078091D1019091D2010E943F0828
:1020B0008CE591E00E943108D7011A968D919C9190
:1020C0001B970E943F088BE691E00E943108F701C0
:1020D000828193810E943F0882E791E00E9431084B
:1020E000D70114968D919C9115970E943F0885E722
:1020F00091E00E943108F701868197810E943F0894
:1021000088E791E00E9431088BE791E00E949F07E9
:1021100080916D0390916E03009711F481E793E035
:102120009201281B390BC9010E9419088AE991E024
:102130000E943108D7011A968D919C911B9783308C
:10214000910531F0B70180EB91E00E949302F5CB4D
:102150009093E9018093E8018091E8019091E90171
:102160008330910561F40E949F0581E08093C10155
:1021700084E090E09093E9018093E80162C00497C5
:1021800009F05FC08091C101882309F45AC00E9400
:10219000BE05811156C01092C101E091BF01F091BE
:1021A000C00180859185009709F05EC08081918192
:1021B000892B09F052C0F093E701E093E601A28475
:1021C000B3848CE090E00E9470148C0185E891E06B
:1021D0000E949F07C5010E941908B1E0AB16B10427
:1021E00099F1E2E0AE16B10491F1AB2899F584E5DE
:1021F00093E021E030E0D80111963C932E931396A2
:102200001C921E92129715969C938E931497179674
:102210001C921E92169719961C921E92189783E094
:1022200090E01B969C938E931A971093C001009395
:10223000BF0181E08093E50180910401882309F4C6
:102240006AC00E944F01CDC981E490E0D2CF88E6F8
:1022500096E0CFCF80E090E0CCCF81E090E0918716
:10226000808782E090E04EC0019731F780819181B4
:10227000019709F09BC06BE972E080E090E00E945A
:10228000E10560ED77E080E090E00E949F0384EB41
:1022900090E00E9449081092BE0180E090E00E9408
:1022A000190882E090E00E94660781E090E00E94B9
:1022B000660781E08093BE016BE972E081E090E007
:1022C0000E94E10560ED77E080E090E00E949F03CE
:1022D0006BE972E082E090E00E94E1058091BF012D
:1022E0009091C0010E940515E091E601F091E7018F
:1022F000F093C001E093BF0182E090E0918380837E
:1023000081E090E00E94660797CF0097D1F481E0CA
:1023100090E00E946607E091BF01F091C0018085C6
:102320009185DC011196AA0FBB1FAE0FBF1F0D9147
:102330001C91A8014A5F5F4FB80166507109209156
:10234000E501A091BB02B091BC0212960D90BC9128
:10235000A02DA017B1070CF497C0A091BB02B091BB
:10236000BC020D90BC91A02D4A175B073CF4609114
:10237000BB027091BC0281E090E011C0A091BB0251
:10238000B091BC020D90BC91A02DA617B7070CF020
:102390007BC06091BB027091BC0280E090E00E9423
:1023A000E10510938A02009389024BCF61E089E036
:1023B0000E9433036BE972E080E090E00E94E10547
:1023C00060ED77E080E090E00E949F0384EB90E076
:1023D0000E9449081092BE0180E090E00E94190816
:1023E00081E090E00E9466076BE872E080E090E098
:1023F0000E94E10560E971E080E090E00E949F03A7
:102400006BE872E081E090E00E94E10560E273E039
:1024100080E090E00E949F036BE872E080E090E033
:102420000E94E10560E971E080E090E00E949F0376
:102430006BE872E082E090E00E94E1056CEB72E0F4
:1024400080E090E00E949F0382E090E00E94660797
:1024500081E08093BE018FEF90E00E9449086BE914
:1024600072E081E090E00E94E10560ED77E080E0BD
:1024700090E00E949F036BE972E082E090E00E948E
:10248000E1050E949F05D8CE222319F01092E501A4
:1024900006C08130910509F038CF9187808781E0AF
:1024A0008093C101CECE80915A0390915B030C942E
:1024B0000515EDEBF2E01382128288EE93E0A0E0C6
:1024C000B0E084839583A683B7832FE031E0318326
:1024D000208325EC30E03587248724EC30E03787F3
:1024E000268720EC30E0318B208B21EC30E0338BE1
:1024F000228B22EC30E0358B248B26EC30E0378BBE
:10250000268B118E128E138E148EE1E6F3E0138269
:10251000128284839583A683B7838FE191E09183B0
:102520008083EAE5F3E01182108213821282158221
:10253000148240E050E06AE971E0CF010C94DC08BD
:1025400081E08093880280E280936003109287028A
:102550001092860261E081E693E00E9441028BE9DD
:1025600091E00E949F0781E090E00E9419089091FD
:10257000860280916003913208F046C02091650286
:102580002111FCCF22E02093650221E02093640218
:102590002FEF209363021092620290936102A6E6ED
:1025A000B2E041E452E0FA012E2F241B291718F45F
:1025B0002D912193F9CF1092400290914002880F03
:1025C000892B8093400280913F02813061F4109208
:1025D0003F02809140028093BB008091BC0083FD4C
:1025E000F8CF85EC01C085EE8093BC008091650238
:1025F0008230E1F3809163028F3F31F0809163027A
:10260000803211F08091630210928702109286024C
:1026100010928802089597FB072E16F4009407D0B5
:1026200077FD09D00E94411307FC05D03EF4909538
:1026300081959F4F0895709561957F4F0895A1E210
:102640001A2EAA1BBB1BFD010DC0AA1FBB1FEE1F2C
:10265000FF1FA217B307E407F50720F0A21BB30B77
:10266000E40BF50B661F771F881F991F1A9469F7F3
:1026700060957095809590959B01AC01BD01CF014F
:102680000895AA1BBB1B51E107C0AA1FBB1FA617B9
:10269000B70710F0A61BB70B881F991F5A95A9F70B
:1026A00080959095BC01CD010895EE0FFF1F059018
:1026B000F491E02D09940E9462136894B1110C9476
:1026C000CE1608950E94B31688F09F5798F0B92F40
:1026D0009927B751B0F0E1F0660F771F881F991F57
:1026E0001AF0BA95C9F714C0B13091F00E94CD1616
:1026F000B1E008950C94CD16672F782F8827B85F26
:1027000039F0B93FCCF3869577956795B395D9F7AE
:102710003EF490958095709561957F4F8F4F9F4FB8
:102720000895A0E0B0E0E7E9F3E10C94D816EC01DD
:10273000009721F4CB010E947014B8C0FC01E60F91
:10274000F71F9C0122503109E217F30708F4ACC0CF
:10275000D9010D911C91119706171707B0F005309C
:10276000110508F49FC0C80104978617970708F45D
:1027700099C002501109061B170B019311936D9319
:102780007C93CF010E9405158DC05B01A01AB10A90
:102790004C01800E911EA0916F03B091700340E038
:1027A00050E0E12CF12C109709F44AC0A815B905A6
:1027B000D1F56D907C901197630182E0C80ED11C19
:1027C000CA14DB0480F1A3014A195B096A0182E0A3
:1027D000C80ED11C1296BC9012971396AC91B5E01E
:1027E000CB16D10440F0B282A38351834083D90138
:1027F0006D937C930AC00E5F1F4FC301800F911F22
:10280000F90191838083EB2DFA2FE114F10431F06B
:10281000D7011396FC93EE93129744C0F093700384
:10282000E0936F033FC08D919C9111974817590712
:1028300008F4AC017D0112960D90BC91A02DB3CF90
:1028400080916D0390916E0388159905E1F4461708
:102850005707C8F48091050190910601009741F453
:102860008DB79EB74091090150910A01841B950BC9
:10287000E817F907C8F4F0936E03E0936D03F901CC
:10288000718360830FC0CB010E9470147C0100979C
:1028900059F0A801BE010E946014CE010E940515E6
:1028A000C70104C0CE0102C080E090E0CDB7DEB722
:1028B000EEE00C94F41681E090E0F8940C940B1781
:1028C000FB01DC0102C001900D9241505040D8F74D
:1028D0000895FB01DC0101900D920020E1F70895BD
:1028E000CF93DF938230910510F482E090E0E09185
:1028F0006F03F091700320E030E0C0E0D0E030974B
:1029000011F14081518148175907C0F04817590704
:1029100061F482819381209719F09B838A832BC075
:102920009093700380936F0326C02115310519F031
:102930004217530718F49A01BE01DF01EF0102802C
:10294000F381E02DDCCF2115310509F1281B390B6E
:102950002430310590F412968D919C911397611556
:10296000710521F0FB019383828304C0909370036F
:1029700080936F03FD01329644C0FD01E20FF31F07
:1029800081939193225031092D933C933AC0209129
:102990006D0330916E03232B41F420910701309198
:1029A000080130936E0320936D032091050130914F
:1029B00006012115310541F42DB73EB740910901BB
:1029C00050910A01241B350BE0916D03F0916E03C9
:1029D000E217F307A0F42E1B3F0B2817390778F0F6
:1029E000AC014E5F5F4F2417350748F04E0F5F1F55
:1029F00050936E0340936D038193919302C0E0E086
:102A0000F0E0CF01DF91CF9108950F931F93CF9303
:102A1000DF93009709F48CC0FC0132971382128275
:102A200000916F03109170030115110581F420814D
:102A30003181820F931F20916D0330916E0328170F
:102A4000390779F5F0936E03E0936D0371C0D801F7
:102A500040E050E0AE17BF0750F412962D913C9124
:102A60001397AD012115310509F1D901F3CF9D016E
:102A7000DA013383228360817181860F971F821769
:102A8000930769F4EC0128813981260F371F2E5FE7
:102A90003F4F318320838A819B8193838283452B9F
:102AA00029F4F0937003E0936F0342C01396FC93F4
:102AB000EE931297ED01499159919E01240F351F14
:102AC000E217F30771F480819181840F951F0296BC
:102AD00011969C938E938281938113969C938E93EF
:102AE0001297E0E0F0E0D80112968D919C91139737
:102AF000009719F0F8018C01F6CF8D919C91980107
:102B00002E5F3F4F820F931F20916D0330916E0314
:102B10002817390769F4309729F41092700310923E
:102B20006F0302C01382128210936E0300936D0331
:102B3000DF91CF911F910F9108951F93FC01992769
:102B40008827BC01E89411911032E9F3193010F094
:102B50001E30C8F31B3251F01D3249F4689406C090
:102B60000E94C415610F711D811D911D119110539B
:102B70001A30B0F33EF490958095709561957F4F33
:102B80008F4F9F4F1F910895592F482F372F262F72
:102B9000660F771F881F991F660F771F881F991F61
:102BA000620F731F841F951F660F771F881F991F61
:102BB0000895E89409C097FB3EF490958095709530
:102BC00061957F4F8F4F9F4F9923A9F0F92F96E979
:102BD000BB279395F695879577956795B795F111EE
:102BE000F8CFFAF4BB0F11F460FF1BC06F5F7F4F8B
:102BF0008F4F9F4F16C0882311F096E911C077239D
:102C000021F09EE8872F762F05C0662371F096E8A5
:102C1000862F70E060E02AF09A95660F771F881F74
:102C2000DAF7880F9695879597F908950E942916E7
:102C30000C949A160E948C1638F00E94931620F07D
:102C4000952311F00C9483160C94891611240C947E
:102C5000CE160E94AB1670F3959FC1F3950F50E00E
:102C6000551F629FF001729FBB27F00DB11D639F3E
:102C7000AA27F00DB11DAA1F649F6627B00DA11DE4
:102C8000661F829F2227B00DA11D621F739FB00D8A
:102C9000A11D621F839FA00D611D221F749F3327FA
:102CA000A00D611D231F849F600D211D822F762F93
:102CB0006A2F11249F5750409AF0F1F088234AF070
:102CC000EE0FFF1FBB1F661F771F881F91505040DC
:102CD000A9F79E3F510580F00C9483160C94CE16F4
:102CE0005F3FE4F3983ED4F3869577956795B79563
:102CF000F795E7959F5FC1F7FE2B880F911D96957D
:102D0000879597F9089597F99F6780E870E060E0EC
:102D100008959FEF80EC089500240A941616170674
:102D200018060906089500240A94121613061406BC
:102D300005060895092E0394000C11F4882352F01F
:102D4000BB0F40F4BF2B11F460FF04C06F5F7F4FD7
:102D50008F4F9F4F089557FD9058440F551F59F0BE
:102D60005F3F71F04795880F97FB991F61F09F3F78
:102D700079F087950895121613061406551FF2CFA1
:102D80004695F1DF08C0161617061806991FF1CFF1
:102D900086957105610508940895E894BB27662718
:102DA0007727CB0197F908952F923F924F925F9228
:102DB0006F927F928F929F92AF92BF92CF92DF924B
:102DC000EF92FF920F931F93CF93DF93CDB7DEB7B0
:102DD000CA1BDB0B0FB6F894DEBF0FBECDBF099444
:102DE0002A88398848885F846E847D848C849B849B
:102DF000AA84B984C884DF80EE80FD800C811B81A9
:102E0000AA81B981CE0FD11D0FB6F894DEBF0FBED7
:102E1000CDBFED01089510E0C2E6D0E004C0FE0190
:102E20000E9455132196C336D107C9F7F894FFCFF6
:102E3000D001D0010100007103800000000000E615
:102E4000003B07AF008D00A1002D010000000041F4
:102E50000211020A020702040203024265666F724F
:102E60006520476574496E737472756374696F6E1B
:102E7000004E6F20696E737472756374696F6E2093
:102E8000637265617465642E002C20002070726F7F
:102E90006772657373706F696E7400206272696324
:102EA0006B00207800207A0020790052414D465274
:102EB00045453A20006F6B657920736F2062726917
:102EC000636B2069733A20000D0A004552524F523D
:102ED00020454E434F554E54455245443A2000003C
:00000001FF
