:100000000C9463000C944A040C9423040C948B000D
:100010000C948B000C948B000C948B000C948B0034
:100020000C948B000C948B000C948B000C948B0024
:100030000C948B000C948B000C948B000C948B0014
:100040000C94D9030C948B000C9401030C94DB02E8
:100050000C948B000C948B000C948B000C948B00F4
:100060000C9471040C948B00000000002400270005
:100070002A0000000000250028002B0000000000DE
:1000800023002600290004040404040404040202DA
:100090000202020203030303030301020408102007
:1000A0004080010204081020010204081020000012
:1000B0000008000201000003040700000000000027
:1000C0000000EF11E91111241FBECFEFD8E0DEBF11
:1000D000CDBF11E0A0E0B1E0E6E8FCE202C005908F
:1000E0000D92AE36B107D9F723E0AEE6B1E001C01C
:1000F0001D92AF32B207E1F710E0C2E6D0E004C0D3
:100100002197FE010E948012C136D107C9F70E94D3
:1001100052090C9436160C940000FC01918D828DCE
:10012000981761F0828DDF01A80FB11D5D968C914B
:10013000928D9F5F9F73928F90E008958FEF9FEF56
:100140000895FC01918D828D981731F0828DE80F12
:10015000F11D858D90E008958FEF9FEF0895FC01CC
:10016000918D228D892F90E0805C9F4F821B910999
:100170008F73992708958BE792E00E94AF0021E0EA
:10018000892B09F420E0822F0895FC01848DDF0182
:10019000A80FB11DA35ABF4F2C91848D90E00196FA
:1001A0008F739927848FA689B7892C93A089B189E9
:1001B0008C9180648C93938D848D981306C00288F3
:1001C000F389E02D80818F7D80830895EF92FF92E7
:1001D0000F931F93CF93DF93EC0181E0888F9B8D6A
:1001E0008C8D981305C0E889F989808185FD24C02C
:1001F000F62E0B8D10E00F5F1F4F0F731127E02EAF
:100200008C8DE8120CC00FB607FCFACFE889F9898B
:10021000808185FFF5CFCE010E94C500F1CF8B8D87
:10022000FE01E80FF11DE35AFF4FF0820B8FEA89C0
:10023000FB898081806207C0EE89FF896083E8893D
:10024000F98980818064808381E090E0DF91CF91A3
:100250001F910F91FF90EF900895CF93DF93EC01E2
:10026000888D8823C9F0EA89FB89808185FD05C0D6
:10027000A889B9898C9186FD0FC00FB607FCF5CF10
:10028000808185FFF2CFA889B9898C9185FFEDCF58
:10029000CE010E94C500E7CFDF91CF91089580E0A5
:1002A00090E0892B29F00E94BB0081110C94000082
:1002B0000895833081F028F4813099F08230A1F0E4
:1002C00008958730A9F08830B9F08430D1F4809156
:1002D00080008F7D03C0809180008F7780938000A5
:1002E000089584B58F7702C084B58F7D84BD08954D
:1002F0008091B0008F7703C08091B0008F7D809394
:10030000B0000895CF93DF93282F30E0F901E25534
:10031000FF4F8491F901E656FF4FD491F901EA5756
:10032000FF4FC491CC2391F081110E945901EC2F11
:10033000F0E0EE0FFF1FE458FF4FA591B491EC9150
:10034000ED2381E090E021F480E002C080E090E0C5
:10035000DF91CF9108953FB7F8948091F901909182
:10036000FA01A091FB01B091FC0126B5A89B05C044
:100370002F3F19F00196A11DB11D3FBFBA2FA92F24
:10038000982F8827820F911DA11DB11DBC01CD01A1
:1003900042E0660F771F881F991F4A95D1F708958D
:1003A000089585ED8093BC008091BC0084FDFCCF56
:1003B0001092230208954091CF01262F30E0240FA0
:1003C000311D21323105DCF4209123022430C9F49F
:1003D000FC0180E090E0861758F43091CF01219124
:1003E000DC01A355BE4FA30FB11D2C930196F3CF93
:1003F0008091CF01680F6093CF0180E0089581E084
:10040000089582E0089508958FEF9FEF08958FEF8C
:100410009FEF08958091AC0190E0919581959109AD
:100420000895CF92DF92EF92FF920F931F93CF9395
:10043000DF937C01262F972F8A0180914602882323
:1004400091F0C62FD72F6E01C40ED51ECC15DD0539
:1004500071F06991D701ED91FC910190F081E02D4F
:10046000C7010995F3CF642F822F0E94DB01C801D9
:10047000DF91CF911F910F91FF90EF90DF90CF9080
:100480000895CF93DF931F92CDB7DEB76983209194
:1004900046022223D1F020914402203240F021E094
:1004A00030E0FC013383228380E090E015C080912E
:1004B0004502E82FF0E0EC5DFD4F998190838F5F5E
:1004C000809345028093440205C061E0CE0101960D
:1004D0000E94DB0181E090E00F90DF91CF910895C1
:1004E000DC01ED91FC918081918108950E94861339
:1004F000CF93DF93FC01A081B181CD91DC91119765
:1005000012968D919C9113979183808324853585D4
:100510002150310935872487CD010E943014CE0146
:10052000DF91CF910895CF92DF92EF92FF920F93D8
:100530001F93CF93DF9300D0CDB7DEB76C0184E07B
:1005400090E069837A830E949B138C01D6011496F4
:10055000ED90FC901597C7010E949B13F8019183C1
:10056000808313821282A70169817A810E948B1392
:10057000D6018D919C911197892B19F40D931C93A1
:1005800007C0D6011296ED91FC9113971383028355
:10059000F601138302838485958501969587848768
:1005A0000F900F90DF91CF911F910F91FF90EF90DF
:1005B000DF90CF9008951F920F920FB60F921124E3
:1005C0002F933F934F935F936F937F938F939F935B
:1005D000AF93BF93EF93FF938BE792E00E94C50028
:1005E000FF91EF91BF91AF919F918F917F916F910B
:1005F0005F914F913F912F910F900FBE0F901F90E1
:1006000018951F920F920FB60F9211242F938F936C
:100610009F93EF93FF93E0918B02F0918C02808186
:10062000E0919102F091920282FD12C0908180913E
:1006300094028F5F8F7320919502821751F0E091A1
:100640009402F0E0E558FD4F958F8093940201C02D
:100650008081FF91EF919F918F912F910F900FBE0D
:100660000F901F9018951F93CF93DF93282F30E0A2
:10067000F901E255FF4F8491F901E656FF4FD491FD
:10068000F901EA57FF4FC491CC23C9F0162F81110D
:100690000E945901EC2FF0E0EE0FFF1FEE58FF4FC4
:1006A000A591B4918FB7F894111105C09C91ED2FCD
:1006B000E095E92302C0EC91ED2BEC938FBFDF9125
:1006C000CF911F910895CF93DF9390E0FC01E65600
:1006D000FF4F2491FC01EA57FF4F8491882361F179
:1006E00090E0880F991FFC01E859FF4FC591D49104
:1006F000FC01EE58FF4FA591B491611109C09FB75D
:10070000F8948881209582238883EC912E230BC056
:10071000623061F49FB7F8943881822F80958323EB
:100720008883EC912E2B2C939FBF06C08FB7F89433
:10073000E8812E2B28838FBFDF91CF9108958F9270
:100740009F92AF92BF92CF92DF92EF92FF926B0196
:100750007C010E94AB014B015C01C114D104E10496
:10076000F104F1F00E94AB01DC01CB018819990979
:10077000AA09BB09883E9340A105B10570F321E0A9
:10078000C21AD108E108F10888EE880E83E0981EAD
:10079000A11CB11CC114D104E104F10419F7DDCF8F
:1007A000FF90EF90DF90CF90BF90AF909F908F9091
:1007B00008951F920F920FB60F9211242F933F931B
:1007C0008F939F93AF93BF938091F5019091F60122
:1007D000A091F701B091F8013091F40123E0230FCB
:1007E0002D3720F40196A11DB11D05C026E8230F69
:1007F0000296A11DB11D2093F4018093F501909301
:10080000F601A093F701B093F8018091F90190915E
:10081000FA01A091FB01B091FC010196A11DB11D4F
:100820008093F9019093FA01A093FB01B093FC012E
:10083000BF91AF919F918F913F912F910F900FBEDC
:100840000F901F9018951F920F920FB60F921124C0
:100850002F933F934F935F936F937F938F939F93C8
:10086000AF93BF93EF93FF93E0910201F0910301E7
:100870000995FF91EF91BF91AF919F918F917F91DA
:100880006F915F914F913F912F910F900FBE0F90FD
:100890001F9018951F920F920FB60F9211242F934D
:1008A0003F934F935F936F937F938F939F93AF93F8
:1008B000BF93EF93FF93E0910001F091010109953F
:1008C000FF91EF91BF91AF919F918F917F916F9128
:1008D0005F914F913F912F910F900FBE0F901F90FE
:1008E00018951F920F920FB60F9211242F933F93DA
:1008F0004F935F936F937F938F939F93AF93BF9328
:10090000EF93FF938091B900887F803609F49CC0F3
:1009100068F5883209F45BC090F4803109F454C062
:1009200038F4882309F4F6C0883009F44DC0F6C0C5
:10093000883109F44CC0803209F45DC0EFC08034C6
:1009400009F468C048F4803309F455C0883309F0CD
:10095000E5C080932102D8C0803509F44FC08835A6
:1009600009F45DC0883409F0D9C0D6C0883909F4CB
:10097000C7C0A8F4883709F467C038F4883609F48A
:1009800063C0803709F460C0C9C0883809F4B8C0B2
:10099000803909F45FC0803809F0C0C05BC0803B7B
:1009A00009F486C038F4803A09F466C0883A09F43C
:1009B0007FC0B4C0803C09F4A7C0883C09F4A4C03F
:1009C000883B09F48AC0AAC08091FE0110C09091B2
:1009D000200280911F02981770F5E091200281E0BB
:1009E0008E0F80932002F0E0E150FE4F80818093D3
:1009F000BB0085EC86C0809321028EC0E09120026E
:100A000081E08E0F809320028091BB00F0E0E150E6
:100A1000FE4F80839091200280911F026EC0E09172
:100A2000200281E08E0F809320028091BB00F0E0D5
:100A3000E150FE4F80838091220281116DC081E0E0
:100A40008093FD0184EA61C083E0809323021092C9
:100A5000F301CFCF8091F301803208F051C0E091D3
:100A6000F30181E08E0F8093F3018091BB00F0E0F1
:100A7000ED52FE4F8083BDCF85EC8093BC00109279
:100A800023028091F301803230F4E091F301F0E031
:100A9000ED52FE4F10826091F30170E0E091D101C0
:100AA000F091D20183ED91E009951092F30136C0E7
:100AB00084E0809323021092D0011092CF01E09144
:100AC000CD01F091CE0109958091CF01811105C032
:100AD00081E08093CF011092AD01E091D00181E0DF
:100AE0008E0F8093D001F0E0E355FE4F808180931C
:100AF000BB009091D0018091CF01981708F479CF75
:100B000085E88093BC000AC085EC8093BC001092FD
:100B1000230204C0109221020E94D101FF91EF91A3
:100B2000BF91AF919F918F917F916F915F914F9105
:100B30003F912F910F900FBE0F901F90189581E05D
:100B400090E00E94660780917D0190917E010E9455
:100B5000301480917A0190917B01892B21F481E0FE
:100B60008093040102C0109204018EE691E00E947D
:100B7000780290937E0180937D0108950F931F93D7
:100B80008FB7F8940091F5011091F6012091F701CB
:100B90003091F8018FBF4091A8015091A901609157
:100BA000AA017091AB01485A5D4F6F4F7F4F81E0B2
:100BB000401751076207730708F480E01F910F91F7
:100BC00008950F931F93CF93DF938C01EB01813036
:100BD000910581F082309105E9F0892B39F51B866A
:100BE0001A868E819F8161E00E94330388859985F2
:100BF00060E00AC09B878A878E819F8160E00E94A7
:100C000033038885998561E0DF91CF911F910F9122
:100C10000C9433038E819F8160E00E9433038885AA
:100C2000998560E00E9433031B870A87DF91CF918B
:100C30001F910F9108950E9466076091790270914B
:100C40007A0281E090E00E94E1052FB7F89480914C
:100C5000F5019091F601A091F701B091F8012FBF35
:100C60008093A8019093A901A093AA01B093AB012E
:100C70000E94BE058111FCCF6091790270917A02C9
:100C800082E090E00E94E105E0917902F0917A0221
:100C9000118210820895CF93DF932FB7F89480913B
:100CA000F5019091F601A091F701B091F8012FBFE5
:100CB0008093A8019093A901A093AA01B093AB01DE
:100CC00080917C01882309F473C0E0917902F0914E
:100CD0007A0282859385009721F0019709F444C038
:100CE00067C040815181C0917D01D0917E01A8856E
:100CF000B9851196AA0FBB1FAC0FBD1F8D919C919A
:100D00009C01265031094217530784F08FEF90E081
:100D10000E949E086091790270917A0282E090E0D0
:100D20000E94E10581E080937F0142C040815181B2
:100D30009C0128573109421753074CF0E956F240FD
:100D400019F480E590E00CC08EE690E009C02081A7
:100D50003181885592402817390754F18CE890E08A
:100D6000DF91CF910C949E0840815181C0917D010B
:100D7000D0917E01A885B9851196AA0FBB1FAC0F33
:100D8000BD1F8D919C919C012A5F3F4F2417350711
:100D90000CF0BCCF408151812E583F4F24173507AE
:100DA0006CF620813181885A9D4F82179307B4F6E3
:100DB000DF91CF91089583E00E948201E091790252
:100DC000F0917A02268537852817390719F1978718
:100DD0008687009719F0019771F01AC08485958570
:100DE000892B21F480819181019603C080819181BA
:100DF00001979183808384859585892B21F4808157
:100E00009181019703C080819181019691838083B4
:100E10000C944B06089582E00E948201E0917902D1
:100E2000F0917A02248535852817390719F19587BD
:100E30008487009719F0019771F01AC0868597850D
:100E4000892B21F480819181019703C08081918158
:100E500001969183808386859785892B21F48081F3
:100E60009181019603C08081918101979183808354
:100E70000C944B060895CF92DF92EF92FF920F935E
:100E80001F93CF93DF936C017A018B01C0E0D0E018
:100E9000CE15DF0589F0D8016D918D01D601ED9158
:100EA000FC910190F081E02DC6010995892B11F488
:100EB0007E0102C02196ECCFC701DF91CF911F9137
:100EC0000F91FF90EF90DF90CF90089581309105C2
:100ED000A1F08230910501F1892B81F560E08CE071
:100EE0000E94330361E08BE00E94330360E08AE0FC
:100EF0000E94330389E592E01DC061E08CE00E940E
:100F0000330360E08BE00E94330360E08AE00E94DC
:100F1000330389E492E00EC060E08CE00E9433036A
:100F200060E08BE00E94330360E08AE00E943303BC
:100F300089E692E090937A0280937902089500976F
:100F400069F0FC0101900020E9F73197AF01481BDF
:100F5000590BBC018BE792E00C943B0780E090E0DA
:100F600008958F929F92AF92BF92CF92DF92EF92AD
:100F7000FF920F931F93CF93DF93CDB7DEB7A19767
:100F80000FB6F894DEBF0FBECDBF6C01990FEE080F
:100F9000FF08F7FE31C0E0917B02F0917C020190E6
:100FA000F081E02D6DE28BE792E009958C0122271C
:100FB0003327A9012C193D094E095F0919A2CE0159
:100FC00081967C019AE0892E912CA12CB12CCA012A
:100FD000B901A50194010E944A12605DF701629374
:100FE0007F01211531054105510589F7CF010E9487
:100FF0009F07080F191F1EC0A701960119A28E0195
:101000000F5D1F4F8AE0C82ED12CE12CF12CCA01B4
:10101000B901A70196010E944A12605DF80162932E
:101020008F01211531054105510589F7CF010E9436
:101030009F078C0183E491E00E949F07800F911F1E
:10104000A1960FB6F894DEBF0FBECDBFDF91CF9152
:101050001F910F91FF90EF90DF90CF90BF90AF90D6
:101060009F908F90089581E08093460280E2809364
:101070001E03109245021092440261E08FE193E05A
:101080000E94410289E591E00E949F0781E090E083
:101090000E94B1079091440280911E03913208F0A2
:1010A00046C0209123022111FCCF22E0209323028D
:1010B00021E0209322022FEF2093210210922002A0
:1010C00090931F02A4E2B2E04FEF51E0FA012E2FFD
:1010D000241B291718F42D912193F9CF1092FE01AA
:1010E0009091FE01880F892B8093FE018091FD0174
:1010F000813061F41092FD018091FE018093BB006C
:101100008091BC0083FDF8CF85EC01C085EE809313
:10111000BC00809123028230E1F3809121028F3F55
:1011200031F080912102803211F0809121021092E1
:10113000450210924402109246020895CF93DF9325
:10114000EC0161E089E00E946303209711F460E004
:1011500004C0CF3FD10531F461E089E0DF91CF9148
:101160000C943303E7EBF0E0E491E330F9F048F45A
:10117000E130B9F0E230A1F584B5806284BDC8BD2C
:1011800034C0E730E9F0E83019F1E43049F58091F6
:101190008000806280938000D0938B00C0938A008F
:1011A00024C084B5806884BDC7BD1FC08091800005
:1011B000806880938000D0938900C093880015C018
:1011C0008091B00080688093B000C093B3000DC0E0
:1011D0008091B00080628093B000C093B40005C0DD
:1011E000C038D1050CF0B8CFB2CFDF91CF910895C0
:1011F0000F931F93CF93DF93EC0188819981009720
:1012000029F02A813B812617370788F48B016F5F0D
:101210007F4F0E94BC12009761F0998388831B83E3
:101220000A832C813D81232B11F4FC01108281E083
:1012300001C080E0DF91CF911F910F910895CF936E
:10124000DF93EC0188819981009711F00E9430149E
:10125000198218821D821C821B821A82DF91CF9113
:101260000895EF92FF920F931F93CF93DF93EC01BA
:101270007B018A01BA010E94F808811104C0CE01E5
:101280000E941F0907C01D830C83B70188819981C3
:101290000E949413CE01DF91CF911F910F91FF9087
:1012A000EF900895CF93DF93CDB7DEB7CA5AD10937
:1012B0000FB6F894DEBF0FBECDBF789484B58260C0
:1012C00084BD84B5816084BD85B5826085BD85B5EA
:1012D000816085BD80916E00816080936E00109268
:1012E00081008091810082608093810080918100E3
:1012F0008160809381008091800081608093800074
:101300008091B10084608093B1008091B0008160D1
:101310008093B00080917A00846080937A008091FD
:101320007A00826080937A0080917A008160809355
:101330007A0080917A00806880937A001092C100D0
:1013400061E08AE00E94630361E08BE00E94630336
:1013500061E08CE00E94630361E085E00E9463032A
:1013600061E084E00E94630361E086E00E94630321
:1013700061E087E00E94630361E08DE00E94630307
:1013800061E088E00E94630361E089E00E946303FA
:1013900062E082E00E94630362E083E00E946303F4
:1013A0008BE097E0909301018093000180916900A8
:1013B0008C7F816080936900E89A8BED96E0909332
:1013C00003018093020180916900837F8460809390
:1013D0006900E99AE0918B02F0918C0282E08083AF
:1013E000E0918702F09188021082E0918902F091E9
:1013F0008A028FEC808310929302E0918F02F09129
:10140000900286E08083E0918D02F0918E028081CF
:1014100080618083E0918D02F0918E0280818860EE
:101420008083E0918D02F0918E02808180688083BC
:10143000E0918D02F0918E0280818F7D80831092E9
:101440006F0110926E0110927101109270018CE088
:1014500090E0909373018093720163E972E070935E
:1014600075016093740148E752E05093770140930F
:10147000760180E792E09093790180937801109251
:101480007B0110927A0110929C0110929B011092A4
:101490009E0110929D011092A00110929F01109246
:1014A0008D0110928C0110928F0110928E0125E017
:1014B00030E03093910120939001709393016093F9
:1014C00092015093950140939401909397018093DA
:1014D000960110929901109298011EAA1DAA4AEE37
:1014E0005BE058AF4FAB1AAE19AE8DE090E09CAF09
:1014F0008BAF88E090E09EAF8DAF82E090E02196C8
:101500009FAF8EAF219723961FAE1EAE23972596D1
:101510001FAE1EAE259727961FAE1EAE27972996A3
:101520005FAF4EAF29972B961FAE1EAE2B9746E0AE
:1015300050E02D965FAF4EAF2D9747E050E02F96CD
:101540005FAF4EAF2F9761969FAF8EAF6197639657
:101550001FAE1EAE639765961FAE1EAE659767966B
:101560001FAE1EAE679748EB5BE069965FAF4EAF6C
:1015700069976B961FAE1EAE6B976D963FAF2EAF01
:101580006D9724E030E06F963FAF2EAF6F97A19636
:101590009FAF8EAFA197A3961FAE1EAEA397A59641
:1015A0001FAE1EAEA597CE018B599F4F20E1FE01C5
:1015B000EB5AFF4FDC0101900D922A95E1F720E1F3
:1015C000FE01EB5BFF4FDE01AB58BF4F01900D9268
:1015D0002A95E1F720E1FE01F596DE01AB57BF4FFA
:1015E00001900D922A95E1F71A82198220E1FC01FF
:1015F000DE01139601900D922A95E1F720E1FE019C
:10160000EB58FF4FDE01539601900D922A95E1F7BA
:1016100020E1FE01EB57FF4FDE01939601900D9202
:101620002A95E1F79CAB8BAB84E3FE013196A7E4EE
:10163000B2E001900D928A95E1F784EB90E00E9470
:101640009E0880E090E00E941B068CE890E00E94DB
:101650009E0882E090E00E941B068CE890E00E94C9
:101660009E0881E090E00E941B0681E080937C014F
:101670008FEF90E00E949E084E0125E9820E911C9A
:1016800066246394772473948091A6019091A701B6
:10169000892B09F0DEC08BE792E00E94AF00892B16
:1016A00009F49DC08BE792E00E94A1008B3609F4FB
:1016B00068C08BE792E00E948D00182FD40111962C
:1016C0001C921E9213961C921E92129715961C92B3
:1016D0001E9214976091180370911903611571059A
:1016E00041F040911C0350911D03C4010E94310937
:1016F00003C0C4010E941F09CF55DF4F1883C15A90
:10170000D040CE55DF4F1882C25AD040F401048138
:1017100015810F5F1F4FB801C4010E94F80888238C
:1017200099F0D4012D913C91119714968D919C9133
:101730001597BE016F557F4F820F931F0E94941320
:10174000F4011583048303C0C4010E941F09D4015E
:101750006D917C9111976115710549F014964D9129
:101760005C91159788E193E00E94310904C088E1FB
:1017700093E00E941F09F401808191810E9430143E
:101780002EC08BE792E00E948D0080918A0190919B
:101790008B019C012F5F3F4F30938B0120938A0177
:1017A00065E070E00E9436128C01809118039091E0
:1017B0001903009719F00E94C81401C060E0000FDF
:1017C000111FF801E058FE4F70E07183608340E024
:1017D00050E065E471E088E193E00E9431092091D6
:1017E0008A0130918B01C90165E070E00E943612D8
:1017F000892BF9F4232BE9F085E090E00E949B13FC
:10180000FC0180918001808380918201818380919D
:1018100084018283809186018383809188018483FF
:10182000BF018CE891E00E94930210928B0110920C
:101830008A018BE792E00E94A100853651F48BE784
:1018400092E00E948D0081E090E09093A701809348
:10185000A6018091A6019091A7018130910509F020
:10186000C2C089EA92E00E949B138C0120E030E024
:1018700080E090E040E050E0BC01620F731FFA018D
:10188000E60FF71FE00FF11F10824F5F5F4F4F30E1
:101890005105A9F70F968D32910561F7235D3F4FF2
:1018A000233AF2E03F0721F780912B0390912C031C
:1018B000009711F48FE293E06401C81AD90AC601B7
:1018C0000E94B107F801ED55FD4F1182108232964A
:1018D000118210823296118210828DE2F82E809150
:1018E000980190919901892B09F476C08CE891E0D8
:1018F0000E947802FC0124818FEF820F833008F070
:1019000068C090819F3008F064C071817F3008F01A
:1019100060C032813F3008F05CC083818F3008F0B6
:1019200058C0931328C0781709F453C0E72FF0E08C
:10193000A82FB0E0781718F4AF01BD0102C0AD01C7
:10194000BF0130E0ADE29A9FC00111246417750712
:1019500034F2FA01E80FF91FE00FF11F6082213025
:10196000310519F44F5F5F4FF1CF678623303105A2
:10197000C9F7668EF7CF78132CC0492F50E0E32FBC
:10198000F0E0931718F4CA01AF0101C0CF0130E0B5
:10199000F89EF001F99EF00D11246F01C70ED11CC5
:1019A000B601A0E0B0E0481759070CF498CFFD014C
:1019B000E60FF71FE00FF11F60822130310519F4A7
:1019C00001969D96F0CF678623303105C9F7668E64
:1019D000F7CF0E94330883CF1093A2010093A10197
:1019E00082E090E050C3029709F051C32091A10119
:1019F0003091A20160919D0170919E01462FF0915E
:101A00009B01E0919C0150919A0100919F011091DE
:101A1000A001F12CADE2EA2E43300CF000C3842F7C
:101A2000817887FF03C081508E6F8F5F813021F4F2
:101A3000511102C0FF24F39440FF50E08FE04802B0
:101A4000B0011124C955DF4F79836883C75AD0404C
:101A50008F2F9E2FE42F042E000CFF0B0F3011054B
:101A60000CF0D3C2E89ED001E99EB00D1124C955F7
:101A7000DF4F68817981C75AD040600F711F6B01B9
:101A8000CA0EDB1EC755DF4FD982C882C95AD04063
:101A9000212C312CB8016E5F7F4FCD55DF4F7983FC
:101AA0006883C35AD040D8011297CB55DF4FB98312
:101AB000A883C55AD0408F3091050CF0A1C22F01E8
:101AC000C755DF4F68817981C95AD040620D731DB7
:101AD000620F731FDB01DC90B1E0DB128CC25C0192
:101AE000A2E0AA0EB11CDB01A65ABF4FAC91A130F7
:101AF00009F07AC08C30910508F076C047FD74C0BB
:101B000017FD72C00E30110509F46EC0F1106AC0E5
:101B100050939A0190939C0180939B01F0939E01B6
:101B2000E0939D011093A00100939F016DE2689FD7
:101B30007001699FF00C11247FE07E9FA0017F9FC0
:101B4000500D1124E40EF51EE20EF31EF701E00F16
:101B5000F11F72E070836C01BFEFCB1ADB0A6C9D42
:101B6000D0016D9DB00D1124A40FB51FA20FB31F9E
:101B7000FD01E00FF11F70836A9DF0016B9DF00D78
:101B80001124E40FF51F1F01220E331E5101A00E78
:101B9000B11EF50170830396689F5001699FB00CD8
:101BA00011244A0D5B1D240F351FC901800F911FA1
:101BB000FC0170835801FFEFAF1ABF0AEA0CFB1C4F
:101BC000F7017083AA0DBB1D7C93F101EA0DFB1D8B
:101BD0007083F901EA0DFB1D7083B601DD0C880BE3
:101BE000990B83C051E0F12C5C01A2E0AA1AB10864
:101BF000DB01AA55B109AC91A13009F096C06C0186
:101C0000B3E0CB1AD108ACE0CA16D10408F08DC0FD
:101C100047FD8BC0101611060CF087C0F11083C071
:101C200050939A0190939C0180939B01F0939E01A5
:101C3000E0939D011093A00100939F016DE2689FC6
:101C40007001699FF00C11247FE07E9FA0017F9FAF
:101C5000500D1124E40EF51EE20EF31EF701E00F05
:101C6000F11F72E070830197689FD001699FB00DEA
:101C70001124A40FB51FA20FB31FFD01E00FF11F28
:101C800070836A9DF0016B9DF00D1124E40FF51F28
:101C90001F01220E331E5101A00EB11EF5017083EB
:101CA0006C9D50016D9DB00C11244A0D5B1D240FDD
:101CB000351FA901400F511FFA0170835801FFEF32
:101CC000AF1ABF0AEA0CFB1CF7017083AA0DBB1DFB
:101CD0007C93F101EA0DFB1D7083F901EA0DFB1DF8
:101CE0007083BC01990F880B990B0E94061520E0A8
:101CF00030E041EE52E40E9441150E9486126B01D1
:101D0000B801110F880B990B0E94061520E030E0F6
:101D100041EE52E40E9441150E9486126F5B7F4F94
:101D200082E090E09AC151E0F12CDB011296BC9068
:101D3000DC0111966D01B1E0BB1263C08E309105DC
:101D400008F05FC047FD5DC00C30110508F059C0B8
:101D5000F11055C050939A0190939C0180939B0180
:101D6000F0939E01E0939D011093A00100939F01C9
:101D7000ADE2A89FA001A99F500D1124BFE0BE9F16
:101D8000B001BF9F700D1124460F571F420F531F04
:101D9000FA01E00FF11FB2E0B0837801EFEFEE1A25
:101DA000FE0AFA01EE0DFF1DB083CD55DF4FE8812D
:101DB000F981C35AD040E40FF51FB0835801F3E016
:101DC000AF0EB11C4A0D5B1DFA01B083AC9DA001A2
:101DD000AD9D500D1124640F751F620F731F060F08
:101DE000171FF801B0839B012E0D3F1DF901B08331
:101DF000CD55DF4F28813981C35AD04068C051E0AA
:101E0000F12CDB0112976C91613009F08CC08E309F
:101E1000910508F088C047FD86C00C30110508F018
:101E200082C0F1107EC050939A0190939C018093E0
:101E30009B01F0939E01E0939D011093A0010093FC
:101E40009F01ADE2A89FA001A99F500D1124BFE002
:101E5000BE9FB001BF9F700D1124460F571F420F48
:101E6000531FFA01E00FF11FB2E0B0837801F1E0F7
:101E7000EF1AF108FA01EE0DFF1DB083CB55DF4FCD
:101E8000E881F981C55AD040E40FF51FB0835801AD
:101E9000E3E0AE1AB1084A0D5B1DFA01B083AC9DB8
:101EA000A001AD9D500D1124640F751F620F731FAB
:101EB000060F171FF801B0839B012E0D3F1DF9017E
:101EC000B083CB55DF4F28813981C55AD040260FCA
:101ED000371FF901B083F501E60FF71FB083BC018E
:101EE000990F880B990B0E94061520E030E041EE17
:101EF00052E40E9441150E9486126B01B701FF0C4B
:101F0000880B990B0E94061520E030E041EE52E468
:101F10000E9441150E9486126F5B7F4F81E090E026
:101F20009CC051E0F12C8E30910508F064C047FD53
:101F300062C017FD60C00E30110509F45CC05093FB
:101F40009A0190939C0180939B01F0939E01E093F2
:101F50009D011093A00100939F01ADE2A89FA001F5
:101F6000A99F500D1124BFE0BE9FB001BF9F700D0F
:101F70001124460F571F420F531FFA01E00FF11FA4
:101F8000B2E0FB2EF082AC9DF001AD9DF00D11246E
:101F90006E0F7F1F260F371FF901E00FF11FF08230
:101FA000F80131964E0F5F1FDA01FC92E20FF31F2A
:101FB000F082BC01990F880B990B0E94061520E056
:101FC00030E041EE52E40E9441150E9486126B01FE
:101FD000B801110F880B990B0E94061520E030E024
:101FE00041EE52E40E9441150E9486126F5B7F4FC2
:101FF00080E090E032C00196BDE22B0E311C5BCD3B
:102000000F5F1F4F80E090E029CD642F042E000C5D
:10201000770B4F5FF82FE92F00E010E0FDCC5093D5
:102020009A01F0939B01E0939C0170939E01609351
:102030009D011093A00100939F018BE291E00E940B
:102040009F0783E491E00E949F0783E090E0412C8A
:10205000512C61E470E0C12CD12CF401118210826A
:10206000D382C2827583648357824682118610862A
:10207000938782878330910531F0B4018EE691E039
:102080000E949302B3CC9093A7018093A601809104
:10209000A6019091A7018330910559F40E949F05F4
:1020A00070927F0184E090E09093A7018093A60155
:1020B00061C0049709F05EC080917F01882309F414
:1020C00059C00E94BE05811155C010927F01E09158
:1020D0007D01F0917E0180859185009709F05DC0BA
:1020E00080819181892B09F051C0F093A501E09383
:1020F000A401E284F3848CE090E00E949B138C01A5
:1021000086E491E00E949F07C7010E94B107F1E0B9
:10211000EF16F10491F122E0E216F10489F1EF28C3
:1021200091F584E593E021E030E0D80111963C93ED
:102130002E9313961C921E92129715969C938E9333
:10214000149717961C921E92169719961C921E921F
:10215000189783E090E01B969C938E931A971093A8
:102160007E0100937D017092A30180910401882378
:1021700009F469C00E944F0187CA81E490E0D3CF7F
:1021800088E696E0D0CF80E090E0CDCF81E090E08F
:102190009187808782E090E04DC0019731F7808180
:1021A0009181019709F09AC069E572E080E090E0C2
:1021B0000E94E10560ED77E080E090E00E949F03DF
:1021C00084EB90E00E949E0810927C0180E090E0F9
:1021D0000E94B10782E090E00E94660781E090E0F3
:1021E0000E94660770927C0169E572E081E090E0F0
:1021F0000E94E10560ED77E080E090E00E949F039F
:1022000069E572E082E090E00E94E10580917D0145
:1022100090917E010E943014E091A401F091A501FB
:10222000F0937E01E0937D0182E090E091838083D2
:1022300081E090E00E94660798CF0097D1F481E09A
:1022400090E00E946607E0917D01F0917E0180851B
:102250009185DC011196AA0FBB1FAE0FBF1F0D9118
:102260001C91A8014A5F5F4FB80166507109209127
:10227000A301A0917902B0917A0212960D90BC91BF
:10228000A02DA017B1070CF496C0A0917902B091CF
:102290007A020D90BC91A02D4A175B073CF4609127
:1022A000790270917A0281E090E011C0A0917902E8
:1022B000B0917A020D90BC91A02DA617B7070CF033
:1022C0007AC06091790270917A0280E090E00E9479
:1022D000E10510934802009347024CCF61E089E08A
:1022E0000E94330369E572E080E090E00E94E1051E
:1022F00060ED77E080E090E00E949F0384EB90E047
:102300000E949E0810927C0180E090E00E94B1073C
:1023100081E090E00E94660769E472E080E090E06E
:102320000E94E10560E971E080E090E00E949F0377
:1023300069E472E081E090E00E94E10560E273E010
:1023400080E090E00E949F0369E472E080E090E00A
:102350000E94E10560E971E080E090E00E949F0347
:1023600069E472E082E090E00E94E1056CEB72E0CB
:1023700080E090E00E949F0382E090E00E94660768
:1023800070927C018FEF90E00E949E0869E572E0F8
:1023900081E090E00E94E10560ED77E080E090E070
:1023A0000E949F0369E572E082E090E00E94E105EF
:1023B0000E949F05DACE222319F01092A30106C0D5
:1023C0008130910509F039CF9187808770927F0124
:1023D000D1CE80911803909119030C943014EBE73F
:1023E000F2E01382128288EE93E0A0E0B0E08483F2
:1023F0009583A683B7832FE031E03183208325ECDA
:1024000030E03587248724EC30E03787268720ECBE
:1024100030E0318B208B21EC30E0338B228B22ECAF
:1024200030E0358B248B26EC30E0378B268B118EF9
:10243000128E138E148EEFE1F3E0138212828483E6
:102440009583A683B7838FE191E091838083E8E150
:10245000F3E011821082138212821582148240E00E
:1024600050E065E471E0CF010C94310997FB072E31
:1024700016F4009407D077FD09D00E946C1207FC77
:1024800005D03EF4909581959F4F08957095619584
:102490007F4F0895A1E21A2EAA1BBB1BFD010DC0A0
:1024A000AA1FBB1FEE1FFF1FA217B307E407F50704
:1024B00020F0A21BB30BE40BF50B661F771F881FE0
:1024C000991F1A9469F760957095809590959B0176
:1024D000AC01BD01CF010895AA1BBB1B51E107C090
:1024E000AA1FBB1FA617B70710F0A61BB70B881FA4
:1024F000991F5A95A9F780959095BC01CD01089533
:10250000EE0FFF1F0590F491E02D09940E948D12AB
:102510006894B1110C94F91508950E94DE1588F0A5
:102520009F5798F0B92F9927B751B0F0E1F0660F97
:10253000771F881F991F1AF0BA95C9F714C0B130D8
:1025400091F00E94F815B1E008950C94F815672FEA
:10255000782F8827B85F39F0B93FCCF38695779507
:102560006795B395D9F73EF49095809570956195F0
:102570007F4F8F4F9F4F0895A0E0B0E0E2ECF2E173
:102580000C940316EC01009721F4CB010E949B13DD
:10259000B8C0FC01E60FF71F9C0122503109E21779
:1025A000F30708F4ACC0D9010D911C9111970617DF
:1025B0001707B0F00530110508F49FC0C801049753
:1025C0008617970708F499C002501109061B170BCC
:1025D000019311936D937C93CF010E9430148DC0B1
:1025E0005B01A01AB10A4C01800E911EA0912D032F
:1025F000B0912E0340E050E0E12CF12C109709F44B
:102600004AC0A815B905D1F56D907C90119763016A
:1026100082E0C80ED11CCA14DB0480F1A3014A1960
:102620005B096A0182E0C80ED11C1296BC90129719
:102630001396AC91B5E0CB16D10440F0B282A383DF
:1026400051834083D9016D937C930AC00E5F1F4F65
:10265000C301800F911FF90191838083EB2DFA2F25
:10266000E114F10431F0D7011396FC93EE93129725
:1026700044C0F0932E03E0932D033FC08D919C91B5
:1026800011974817590708F4AC017D0112960D9077
:10269000BC91A02DB3CF80912B0390912C03881572
:1026A0009905E1F446175707C8F480910501909108
:1026B0000601009741F48DB79EB7409109015091F2
:1026C0000A01841B950BE817F907C8F4F0932C0353
:1026D000E0932B03F901718360830FC0CB010E944B
:1026E0009B137C01009759F0A801BE010E948B1337
:1026F000CE010E943014C70104C0CE0102C080E0A8
:1027000090E0CDB7DEB7EEE00C941F1681E090E0CC
:10271000F8940C943616FB01DC0102C001900D9276
:1027200041505040D8F70895FB01DC0101900D9213
:102730000020E1F70895CF93DF938230910510F4E4
:1027400082E090E0E0912D03F0912E0320E030E054
:10275000C0E0D0E0309711F140815181481759070E
:10276000C0F04817590761F482819381209719F0CE
:102770009B838A832BC090932E0380932D0326C0C6
:102780002115310519F04217530718F49A01BE01BB
:10279000DF01EF010280F381E02DDCCF211531054F
:1027A00009F1281B390B2430310590F412968D91D4
:1027B0009C9113976115710521F0FB01938382832E
:1027C00004C090932E0380932D03FD01329644C0E4
:1027D000FD01E20FF31F81939193225031092D9354
:1027E0003C933AC020912B0330912C03232B41F4CE
:1027F000209107013091080130932C0320932B0383
:1028000020910501309106012115310541F42DB7C4
:102810003EB74091090150910A01241B350BE0910C
:102820002B03F0912C03E217F307A0F42E1B3F0BB0
:102830002817390778F0AC014E5F5F4F2417350732
:1028400048F04E0F5F1F50932C0340932B0381934E
:10285000919302C0E0E0F0E0CF01DF91CF910895C5
:102860000F931F93CF93DF93009709F48CC0FC0163
:1028700032971382128200912D0310912E030115BD
:10288000110581F420813181820F931F20912B0348
:1028900030912C032817390779F5F0932C03E09336
:1028A0002B0371C0D80140E050E0AE17BF0750F4D1
:1028B00012962D913C911397AD012115310509F127
:1028C000D901F3CF9D01DA013383228360817181C5
:1028D000860F971F8217930769F4EC0128813981CD
:1028E000260F371F2E5F3F4F318320838A819B81C4
:1028F00093838283452B29F4F0932E03E0932D03D9
:1029000042C01396FC93EE931297ED0149915991B1
:102910009E01240F351FE217F30771F48081918126
:10292000840F951F029611969C938E9382819381BA
:1029300013969C938E931297E0E0F0E0D8011296E4
:102940008D919C911397009719F0F8018C01F6CFA7
:102950008D919C9198012E5F3F4F820F931F209184
:102960002B0330912C032817390769F4309729F489
:1029700010922E0310922D0302C013821282109324
:102980002C0300932B03DF91CF911F910F9108959A
:102990001F93FC0199278827BC01E89411911032FC
:1029A000E9F3193010F01E30C8F31B3251F01D321C
:1029B00049F4689406C00E94EF14610F711D811DD7
:1029C000911D119110531A30B0F33EF490958095FB
:1029D000709561957F4F8F4F9F4F1F910895592F8D
:1029E000482F372F262F660F771F881F991F660FD6
:1029F000771F881F991F620F731F841F951F660F13
:102A0000771F881F991F0895E89409C097FB3EF42B
:102A100090958095709561957F4F8F4F9F4F99232B
:102A2000A9F0F92F96E9BB279395F69587957795A9
:102A30006795B795F111F8CFFAF4BB0F11F460FF69
:102A40001BC06F5F7F4F8F4F9F4F16C0882311F0C1
:102A500096E911C0772321F09EE8872F762F05C0D5
:102A6000662371F096E8862F70E060E02AF09A9570
:102A7000660F771F881FDAF7880F9695879597F965
:102A800008950E9454150C94C5150E94B71538F08E
:102A90000E94BE1520F0952311F00C94AE150C94F5
:102AA000B41511240C94F9150E94D61570F3959F56
:102AB000C1F3950F50E0551F629FF001729FBB2735
:102AC000F00DB11D639FAA27F00DB11DAA1F649FD1
:102AD0006627B00DA11D661F829F2227B00DA11D84
:102AE000621F739FB00DA11D621F839FA00D611D0A
:102AF000221F749F3327A00D611D231F849F600D2B
:102B0000211D822F762F6A2F11249F5750409AF053
:102B1000F1F088234AF0EE0FFF1FBB1F661F771FDF
:102B2000881F91505040A9F79E3F510580F00C94AA
:102B3000AE150C94F9155F3FE4F3983ED4F38695F7
:102B400077956795B795F795E7959F5FC1F7FE2B4A
:102B5000880F911D9695879597F9089597F99F6726
:102B600080E870E060E008959FEF80EC0895002415
:102B70000A941616170618060906089500240A94E2
:102B800012161306140605060895092E0394000C68
:102B900011F4882352F0BB0F40F4BF2B11F460FFF7
:102BA00004C06F5F7F4F8F4F9F4F089557FD905820
:102BB000440F551F59F05F3F71F04795880F97FB01
:102BC000991F61F09F3F79F08795089512161306BB
:102BD0001406551FF2CF4695F1DF08C016161706EA
:102BE0001806991FF1CF869571056105089408951F
:102BF000E894BB2766277727CB0197F908952F9292
:102C00003F924F925F926F927F928F929F92AF927C
:102C1000BF92CF92DF92EF92FF920F931F93CF93C9
:102C2000DF93CDB7DEB7CA1BDB0B0FB6F894DEBF60
:102C30000FBECDBF09942A88398848885F846E8486
:102C40007D848C849B84AA84B984C884DF80EE80D0
:102C5000FD800C811B81AA81B981CE0FD11D0FB6D9
:102C6000F894DEBF0FBECDBFED01089510E0C2E6BF
:102C7000D0E004C0FE010E9480122196C336D10725
:062C8000C9F7F894FFCF34
:102C8600D001D0010100002F03800000000000E603
:102C9600003B07AF008D00A1002D010000000041A0
:102CA6000211020A020702040203024E6F20696E35
:102CB600737472756374696F6E206372656174658F
:102CC600642E000D0A006F6B657920736F206272A7
:102CD60069636B2069733A20004552524F52204572
:0E2CE6004E434F554E54455245443A2000008F
:00000001FF
