:100000000C9463000C94EB030C94C4030C948B00CD
:100010000C948B000C948B000C948B000C948B0034
:100020000C948B000C948B000C948B000C948B0024
:100030000C948B000C948B000C948B000C948B0014
:100040000C947A030C948B000C94DC020C94B60292
:100050000C948B000C948B000C948B000C948B00F4
:100060000C9412040C948B00000000002400270064
:100070002A0000000000250028002B0000000000DE
:1000800023002600290004040404040404040202DA
:100090000202020203030303030301020408102007
:1000A0004080010204081020010204081020000012
:1000B0000008000201000003040700000000000027
:1000C00000004812421211241FBECFEFD8E0DEBF5D
:1000D000CDBF11E0A0E0B1E0E8E1FEE202C0059092
:1000E0000D92A03BB107D9F723E0A0EBB1E001C02E
:1000F0001D92A137B207E1F710E0C2E6D0E004C0DC
:100100002197FE010E944913C136D107C9F70E9409
:100110009E080C94FF160C940000FC01918D828DBA
:10012000981761F0828DDF01A80FB11D5D968C914B
:10013000928D9F5F9F73928F90E008958FEF9FEF56
:100140000895FC01918D828D981731F0828DE80F12
:10015000F11D858D90E008958FEF9FEF0895FC01CC
:10016000918D228D892F90E0805C9F4F821B910999
:100170008F73992708958DEB92E00E94AF0021E0E4
:10018000892B09F420E0822F0895FC01848DDF0182
:10019000A80FB11DA35ABF4F2C91848D90E00196FA
:1001A0008F739927848FA689B7892C93A089B189E9
:1001B0008C9180648C93938D848D981306C00288F3
:1001C000F389E02D80818F7D80830895EF92FF92E7
:1001D0000F931F93CF93DF93EC0181E0888F9B8D6A
:1001E0008C8D981305C0E889F989808185FD24C02C
:1001F000F62E0B8D10E00F5F1F4F0F731127E02EAF
:100200008C8DE8120CC00FB607FCFACFE889F9898B
:10021000808185FFF5CFCE010E94C500F1CF8B8D87
:10022000FE01E80FF11DE35AFF4FF0820B8FEA89C0
:10023000FB898081806207C0EE89FF896083E8893D
:10024000F98980818064808381E090E0DF91CF91A3
:100250001F910F91FF90EF900895CF93DF93EC01E2
:10026000888D8823C9F0EA89FB89808185FD05C0D6
:10027000A889B9898C9186FD0FC00FB607FCF5CF10
:10028000808185FFF2CFA889B9898C9185FFEDCF58
:10029000CE010E94C500E7CFDF91CF91089580E0A5
:1002A00090E0892B29F00E94BB0081110C94000082
:1002B0000895833081F028F4813099F08230A1F0E4
:1002C00008958730A9F08830B9F08430D1F4809156
:1002D00080008F7D03C0809180008F7780938000A5
:1002E000089584B58F7702C084B58F7D84BD08954D
:1002F0008091B0008F7703C08091B0008F7D809394
:10030000B0000895CF93DF93282F30E0F901E25534
:10031000FF4F8491F901E656FF4FD491F901EA5756
:10032000FF4FC491CC2391F081110E945901EC2F11
:10033000F0E0EE0FFF1FE458FF4FA591B491EC9150
:10034000ED2381E090E021F480E002C080E090E0C5
:10035000DF91CF910895089585ED8093BC00809141
:10036000BC0084FDFCCF10926502089540911102FB
:10037000262F30E0240F311D21323105DCF420918D
:1003800065022430C9F4FC0180E090E0861758F43F
:10039000309111022191DC01A151BE4FA30FB11D7B
:1003A0002C930196F3CF80911102680F6093110294
:1003B00080E0089581E0089582E0089508958FEF28
:1003C0009FEF08958FEF9FEF08958091EE0190E0E9
:1003D0009195819591090895CF92DF92EF92FF92C6
:1003E0000F931F93CF93DF937C01262F972F8A01C2
:1003F00080918802882391F0C62FD72F6E01C40EFA
:10040000D51ECC15DD0571F06991D701ED91FC91F8
:100410000190F081E02DC7010995F3CF642F822F61
:100420000E94B601C801DF91CF911F910F91FF90FB
:10043000EF90DF90CF900895CF93DF931F92CDB7C9
:10044000DEB76983209188022223D1F020918602B1
:10045000203240F021E030E0FC013383228380E051
:1004600090E015C080918702E82FF0E0EA59FD4F37
:10047000998190838F5F809387028093860205C065
:1004800061E0CE0101960E94B60181E090E00F90FC
:10049000DF91CF910895DC01ED91FC9180819181F4
:1004A00008950E944F14CF93DF93FC01A081B18186
:1004B000CD91DC91119712968D919C911397918318
:1004C0008083248535852150310935872487CD01E6
:1004D0000E94F914CE01DF91CF910895CF92DF925F
:1004E000EF92FF920F931F93CF93DF9300D0CDB77E
:1004F000DEB76C0184E090E069837A830E94641423
:100500008C01D6011496ED90FC901597C7010E94BE
:100510006414F8019183808313821282A701698198
:100520007A810E945414D6018D919C911197892B48
:1005300019F40D931C9307C0D6011296ED91FC910E
:10054000139713830283F6011383028384859585B1
:100550000196958784870F900F90DF91CF911F911F
:100560000F91FF90EF90DF90CF9008951F920F9220
:100570000FB60F9211242F933F934F935F936F9376
:100580007F938F939F93AF93BF93EF93FF938DEBE5
:1005900092E00E94C500FF91EF91BF91AF919F91B2
:1005A0008F917F916F915F914F913F912F910F901C
:1005B0000FBE0F901F9018951F920F920FB60F92BB
:1005C00011242F938F939F93EF93FF93E091CD028C
:1005D000F091CE028081E091D302F091D40282FDAD
:1005E00012C090818091D6028F5F8F732091D702C5
:1005F000821751F0E091D602F0E0E354FD4F958F61
:100600008093D60201C08081FF91EF919F918F91DD
:100610002F910F900FBE0F901F9018951F93CF939F
:10062000DF93282F30E0F901E255FF4F8491F90163
:10063000E656FF4FD491F901EA57FF4FC491CC23FE
:10064000C9F0162F81110E945901EC2FF0E0EE0F36
:10065000FF1FEE58FF4FA591B4918FB7F894111179
:1006600005C09C91ED2FE095E92302C0EC91ED2BA4
:10067000EC938FBFDF91CF911F910895CF93DF93BC
:1006800090E0FC01E656FF4F2491FC01EA57FF4F32
:100690008491882361F190E0880F991FFC01E8594B
:1006A000FF4FC591D491FC01EE58FF4FA591B49135
:1006B000611109C09FB7F8948881209582238883AF
:1006C000EC912E230BC0623061F49FB7F89438810F
:1006D000822F809583238883EC912E2B2C939FBFB0
:1006E00006C08FB7F894E8812E2B28838FBFDF9147
:1006F000CF9108951F920F920FB60F9211242F934E
:100700003F938F939F93AF93BF93809137029091C4
:100710003802A0913902B0913A023091360223E0BA
:10072000230F2D3720F40196A11DB11D05C026E829
:10073000230F0296A11DB11D20933602809337022C
:1007400090933802A0933902B0933A0280913B0211
:1007500090913C02A0913D02B0913E020196A11DF4
:10076000B11D80933B0290933C02A0933D02B09355
:100770003E02BF91AF919F918F913F912F910F902A
:100780000FBE0F901F9018951F920F920FB60F92E9
:1007900011242F933F934F935F936F937F938F9386
:1007A0009F93AF93BF93EF93FF93E0910201F0917A
:1007B00003010995FF91EF91BF91AF919F918F91A7
:1007C0007F916F915F914F913F912F910F900FBE4D
:1007D0000F901F9018951F920F920FB60F92112431
:1007E0002F933F934F935F936F937F938F939F9339
:1007F000AF93BF93EF93FF93E0910001F09101015C
:100800000995FF91EF91BF91AF919F918F917F914A
:100810006F915F914F913F912F910F900FBE0F906D
:100820001F9018951F920F920FB60F9211242F93BD
:100830003F934F935F936F937F938F939F93AF9368
:10084000BF93EF93FF938091B900887F803609F4BE
:100850009CC068F5883209F45BC090F4803109F4DB
:1008600054C038F4882309F4F6C0883009F44DC028
:10087000F6C0883109F44CC0803209F45DC0EFC085
:10088000803409F468C048F4803309F455C08833D3
:1008900009F0E5C080936302D8C0803509F44FC0E9
:1008A000883509F45DC0883409F0D9C0D6C08839CC
:1008B00009F4C7C0A8F4883709F467C038F488364B
:1008C00009F463C0803709F460C0C9C0883809F4EE
:1008D000B8C0803909F45FC0803809F0C0C05BC07F
:1008E000803B09F486C038F4803A09F466C0883A3F
:1008F00009F47FC0B4C0803C09F4A7C0883C09F467
:10090000A4C0883B09F48AC0AAC08091400210C0EC
:100910009091620280916102981770F5E0916202F5
:1009200081E08E0F80936202F0E0EF5BFD4F8081EB
:100930008093BB0085EC86C0809363028EC0E091FB
:10094000620281E08E0F809362028091BB00F0E032
:10095000EF5BFD4F808390916202809161026EC0D7
:10096000E091620281E08E0F809362028091BB0071
:10097000F0E0EF5BFD4F80838091640281116DC0D8
:1009800081E080933F0284EA61C083E08093650246
:1009900010923502CFCF80913502803208F051C0DD
:1009A000E091350281E08E0F809335028091BB008B
:1009B000F0E0EB5EFD4F8083BDCF85EC8093BC0003
:1009C0001092650280913502803230F4E091350258
:1009D000F0E0EB5EFD4F10826091350270E0E09137
:1009E0001302F091140285E192E00995109235020C
:1009F00036C084E0809365021092120210921102B8
:100A0000E0910F02F091100209958091110281117D
:100A100005C081E0809311021092EF01E091120273
:100A200081E08E0F80931202F0E0E151FE4F808151
:100A30008093BB009091120280911102981708F4E4
:100A400079CF85E88093BC000AC085EC8093BC0018
:100A50001092650204C0109263020E94AC01FF91E3
:100A6000EF91BF91AF919F918F917F916F915F9126
:100A70004F913F912F910F900FBE0F901F9018959F
:100A800081E090E00E9407078091B1019091B2014E
:100A90000E94F9148091C0019091C101892B21F429
:100AA00081E08093040102C01092040184EB91E084
:100AB0000E9453029093B2018093B10108950F9365
:100AC0001F938FB7F894009137021091380220914C
:100AD000390230913A028FBF4091EA015091EB0107
:100AE0006091EC017091ED01485A5D4F6F4F7F4F5F
:100AF00081E0401751076207730708F480E01F91F7
:100B00000F9108950F931F93CF93DF938C01EB0107
:100B10008130910581F082309105E9F0892B39F51A
:100B20001B861A868E819F8161E00E940E03888554
:100B3000998560E00AC09B878A878E819F8160E0EB
:100B40000E940E038885998561E0DF91CF911F9106
:100B50000F910C940E038E819F8160E00E940E0322
:100B60008885998560E00E940E031B870A87DF91C4
:100B7000CF911F910F9108950E9407076091BB02CA
:100B80007091BC0281E090E00E9482052FB7F8943A
:100B90008091370290913802A0913902B0913A02C7
:100BA0002FBF8093EA019093EB01A093EC01B093E7
:100BB000ED010E945F058111FCCF6091BB02709135
:100BC000BC0282E090E00E948205E091BB02F091BD
:100BD000BC02118210820895CF93DF932FB7F8944F
:100BE0008091370290913802A0913902B0913A0277
:100BF0002FBF8093EA019093EB01A093EC01B09397
:100C0000ED018091B001882309F473C0E091BB022B
:100C1000F091BC0282859385009721F0019709F439
:100C200044C067C040815181C091B101D091B201EF
:100C3000A885B9851196AA0FBB1FAC0FBD1F8D915A
:100C40009C919C01265031094217530784F08FEF85
:100C500090E00E94E0076091BB027091BC0282E0CC
:100C600090E00E94820581E08093B30142C0408100
:100C700051819C0128573109421753074CF0EB5A18
:100C8000F24019F480E590E00CC08EE690E009C0D7
:100C900020813181885592402817390754F18CE81A
:100CA00090E0DF91CF910C94E00740815181C09199
:100CB000B101D091B201A885B9851196AA0FBB1FC9
:100CC000AC0FBD1F8D919C919C012A5F3F4F241753
:100CD00035070CF0BCCF408151812E583F4F24176F
:100CE00035076CF620813181885A9D4F8217930712
:100CF000B4F6DF91CF91089583E00E948201E091E4
:100D0000BB02F091BC02268537852817390719F1F7
:100D100097878687009719F0019771F01AC084852C
:100D20009585892B21F480819181019603C0808172
:100D3000918101979183808384859585892B21F406
:100D400080819181019703C0808191810196918377
:100D500080830C94EC05089582E00E948201E0916A
:100D6000BB02F091BC02248535852817390719F19B
:100D700095878487009719F0019771F01AC08685CE
:100D80009785892B21F480819181019703C080810F
:100D9000918101969183808386859785892B21F4A3
:100DA00080819181019603C0808191810197918317
:100DB00080830C94EC050895CF92DF92EF92FF921E
:100DC0000F931F93CF93DF936C017A018B01C0E0E7
:100DD000D0E0CE15DF0589F0D8016D918D01D601E7
:100DE000ED91FC910190F081E02DC6010995892BD0
:100DF00011F47E0102C02196ECCFC701DF91CF91A3
:100E00001F910F91FF90EF90DF90CF900895813068
:100E10009105A1F08230910501F1892B81F560E007
:100E20008CE00E940E0361E08BE00E940E0360E004
:100E30008AE00E940E038BE992E01DC061E08CE025
:100E40000E940E0360E08BE00E940E0360E08AE0E7
:100E50000E940E038BE892E00EC060E08CE00E94DE
:100E60000E0360E08BE00E940E0360E08AE00E94C7
:100E70000E038BEA92E09093BC028093BB0208952C
:100E8000009769F0FC0101900020E9F73197AF016C
:100E9000481B590BBC018DEB92E00C94DC0680E002
:100EA00090E008958F929F92AF92BF920F931F93FD
:100EB000CF93DF93CDB7DEB7A1970FB6F894DEBF1F
:100EC0000FBECDBF19A2423008F44AE08E010F5D7B
:100ED0001F4F842E912CA12CB12CA50194010E94AE
:100EE0001313E62FB901CA0101501109EA3014F4B5
:100EF000E05D01C0E95CD801EC93232B242B252B6A
:100F000061F7C8010E944007A1960FB6F894DEBFB2
:100F10000FBECDBFDF91CF911F910F91BF90AF90CA
:100F20009F908F900895CF92DF92EF92FF92CF9390
:100F3000DF936B017C01E091BD02F091BE02019054
:100F4000F081E02D6DE28DEB92E00995EC016627D2
:100F50007727CB016C197D098E099F094AE00E9411
:100F600052078C0F9D1FDF91CF91FF90EF90DF9084
:100F7000CF900895CF93DF93BC01990F880B990B05
:100F800097FF03C00E94930703C04AE00E945207E4
:100F9000EC0188E991E00E9440078C0F9D1FDF91D2
:100FA000CF910895CF93DF930E944007EC0188E929
:100FB00091E00E9440078C0F9D1FDF91CF91089513
:100FC000CF93DF93EC0161E089E00E943E0320971C
:100FD00011F460E004C0CF3FD10531F461E089E055
:100FE000DF91CF910C940E03E7EBF0E0E491E33056
:100FF000F9F048F4E130B9F0E230A1F584B580624F
:1010000084BDC8BD34C0E730E9F0E83019F1E43000
:1010100049F580918000806280938000D0938B009E
:10102000C0938A0024C084B5806884BDC7BD1FC03A
:1010300080918000806880938000D0938900C09365
:10104000880015C08091B00080688093B000C09384
:10105000B3000DC08091B00080628093B000C09357
:10106000B40005C0C038D1050CF0B8CFB2CFDF91C5
:10107000CF910895BC01990F880B990B97FD0C94A3
:1010800093074AE00C9452070F931F93CF93DF937B
:10109000EC0188819981009729F02A813B812617EC
:1010A000370788F48B016F5F7F4F0E94851300978D
:1010B00061F0998388831B830A832C813D81232BD4
:1010C00011F4FC01108281E001C080E0DF91CF913A
:1010D0001F910F910895CF93DF93EC01888199813F
:1010E000009711F00E94F914198218821D821C8247
:1010F0001B821A82DF91CF910895EF92FF920F9396
:101100001F93CF93DF93EC017B018A01BA010E9408
:101110004408811104C0CE010E946B0807C01D83E2
:101120000C83B701888199810E945D14CE01DF9103
:10113000CF911F910F91FF90EF900895CF93DF9380
:10114000CDB7DEB7CC5AD1090FB6F894DEBF0FBECB
:10115000CDBF789484B5826084BD84B5816084BD40
:1011600085B5826085BD85B5816085BD80916E0045
:10117000816080936E001092810080918100826076
:1011800080938100809181008160809381008091B3
:1011900080008160809380008091B10084608093A2
:1011A000B1008091B00081608093B00080917A009E
:1011B000846080937A0080917A00826080937A00C4
:1011C00080917A00816080937A0080917A008068B3
:1011D00080937A001092C10061E08AE00E943E0391
:1011E00061E08BE00E943E0361E08CE00E943E03E0
:1011F00061E085E00E943E0361E084E00E943E03DE
:1012000061E086E00E943E0361E087E00E943E03C9
:1012100061E08DE00E943E0361E088E00E943E03B1
:1012200061E089E00E943E0362E082E00E943E03AA
:1012300062E083E00E943E038CEA96E09093010115
:1012400080930001809169008C7F816080936900A8
:10125000E89A8CE796E090930301809302018091D5
:101260006900837F846080936900E99AE091CD02F0
:10127000F091CE0282E08083E091C902F091CA022F
:101280001082E091CB02F091CC028FEC808310921F
:10129000D502E091D102F091D20286E08083E09104
:1012A000CF02F091D002808180618083E091CF02F3
:1012B000F091D002808188608083E091CF02F0912C
:1012C000D002808180688083E091CF02F091D002CB
:1012D00080818F7D80831092B5011092B4011092AD
:1012E000B7011092B6018CE090E09093B901809321
:1012F000B8016EE672E07093BB016093BA0143E5FA
:1013000052E05093BD014093BC018BE492E0909376
:10131000BF018093BE011092C1011092C0011092D2
:10132000D3011092D2011092D5011092D4011092E3
:10133000D7011092D6011092DB011092DA011092BF
:10134000DD011092DC0125E030E03093DF012093D5
:10135000DE017093E1016093E0015093E30140935B
:10136000E2019093E5018093E4011092E70110926D
:10137000E6011EAA1DAA4AEE5BE058AF4FAB1AAEBB
:1013800019AE8DE090E09CAF8BAF88E090E09EAF0F
:101390008DAF82E090E021969FAF8EAF219723968C
:1013A0001FAE1EAE239725961FAE1EAE259727961D
:1013B0001FAE1EAE279729965FAF4EAF29972B968B
:1013C0001FAE1EAE2B9746E050E02D965FAF4EAF9E
:1013D0002D9747E050E02F965FAF4EAF2F97619665
:1013E0009FAF8EAF619763961FAE1EAE63976596F3
:1013F0001FAE1EAE659767961FAE1EAE679748EB91
:101400005BE069965FAF4EAF69976B961FAE1EAEFD
:101410006B976D963FAF2EAF6D9724E030E06F96DF
:101420003FAF2EAF6F97A1969FAF8EAFA197A396B8
:101430001FAE1EAEA397A5961FAE1EAEA597CE01FA
:101440008B599F4F20E1FE01EB5AFF4FDC010190C9
:101450000D922A95E1F720E1FE01EB5BFF4FDE01E3
:10146000AB58BF4F01900D922A95E1F720E1FE01A4
:10147000F596DE01AB57BF4F01900D922A95E1F72B
:101480001A82198220E1FC01DE01139601900D926F
:101490002A95E1F720E1FE01EB58FF4FDE0153965C
:1014A00001900D922A95E1F720E1FE01EB57FF4FE5
:1014B000DE01939601900D922A95E1F79CAB8BABE0
:1014C00084E3FE013196A9E8B2E001900D928A957D
:1014D000E1F784EB90E00E94E00780E090E00E945A
:1014E000BC058CE890E00E94E00782E090E00E945A
:1014F000BC058CE890E00E94E00781E090E00E944B
:10150000BC0581E08093B0018FEF90E00E94E0077E
:10151000FDE2DF2E7E0125E9E20EF11C2E0131EA0B
:10152000430E511C8091E8019091E901009709F068
:10153000D1C08DEB92E00E94AF00892B09F492C0DC
:101540008DEB92E00E94A1008B3609F45DC08DEB1B
:1015500092E00E948D00182FD70111961C921E92C6
:1015600013961C921E92129715961C921E92149717
:1015700060915A0370915B036115710541F04091D0
:101580005E0350915F03C7010E947D0803C0C7013D
:101590000E946B08F20110831182D70114960D91FD
:1015A0001C9115970F5F1F4FB801C7010E94440897
:1015B000882381F0F7012081318184819581B201F6
:1015C000820F931F0E945D14D70115961C930E93F2
:1015D000149703C0C7010E946B08F70160817181F5
:1015E0006115710539F0448155818AE593E00E94C7
:1015F0007D0804C08AE593E00E946B08D7018D91B5
:101600009C910E94F9142EC08DEB92E00E948D00F7
:101610008091CC019091CD019C012F5F3F4F309381
:10162000CD012093CC0165E070E00E94FF128C0197
:1016300080915A0390915B03009719F00E949115D5
:1016400001C060E0000F111FF801EE53FE4F70E083
:101650007183608340E050E06AE971E08AE593E0DD
:101660000E947D082091CC013091CD01C90165E037
:1016700070E00E94FF12892BF9F4232BE9F085E03A
:1016800090E00E946414FC018091C20180838091EB
:10169000C40181838091C60182838091C8018383C4
:1016A0008091CA018483BF018AED91E00E946E029D
:1016B0001092CD011092CC018DEB92E00E94A1001E
:1016C000853609F045C58DEB92E00E948D0081E0E2
:1016D00090E0C5C08130910509F0C6C089EA92E06A
:1016E0000E9464148C0120E030E080E090E040E053
:1016F00050E0BC01620F731FFA01E60FF71FE00F05
:10170000F11F10824F5F5F4F4F305105A9F70F96C1
:101710008D32910561F7235D3F4F233AB2E03B07DD
:1017200021F780916D0390916E03009711F481E78A
:1017300093E0F701E81BF90BCF010E94BA07F8010B
:10174000ED55FD4F11821082329611821082329631
:1017500011821082CC24C3948091E6019091E7011C
:10176000892B09F476C08AED91E00E945302FC01B6
:1017700024818FEF820F833008F068C090819F3002
:1017800008F064C071817F3008F060C032813F3062
:1017900008F05CC083818F3008F058C0931328C0D4
:1017A000781709F453C0E72FF0E0A82FB0E07817BE
:1017B00018F4AF01BD0102C0AD01BF0130E0FDE290
:1017C0009F9FC00111246417750734F2FA01E80FD6
:1017D000F91FE00FF11FC0822130310519F44F5F6E
:1017E0005F4FF1CFC78623303105C9F7C68EF7CFDB
:1017F00078132CC0492F50E0E32FF0E0931718F432
:10180000CA01AF0101C0CF0130E0D89EF001D99EDE
:10181000F00D1124DF01A70FB11DBD01A0E0B0E064
:10182000481759070CF498CFFD01E60FF71FE00F9A
:10183000F11FC0822130310519F401969D96F0CF39
:10184000C78623303105C9F7C68EF7CF0E948F12A5
:1018500083CF1093D9010093D80182E090E0909358
:10186000E9018093E80174C48230910509F00EC447
:1018700000E010E08AE991E00E94D207A12CB12C8F
:10188000BFE0B09F4001B19F900C11248AE991E024
:101890000E94D207612C712C8091D8019091D901BE
:1018A000D69CF001D79CF00D1124E80DF91DE80F2E
:1018B000F91FEA0DFB1D608170E080E090E04AE0D6
:1018C0000E945207EFEF6E1A7E0AFFE06F16710456
:1018D00019F72FEFA21AB20A3FE0A316B104B1F62E
:1018E0000F5F1F4F0330110529F68AE991E00E942E
:1018F000D2078BE291E00E94D2078090D8019090AD
:10190000D9014091D4015091D501842F7091D20119
:101910006091D3019091D1010091D6011091D7012E
:10192000C12C83300CF017C3282F217827FF03C068
:1019300021502E6F2F5F213021F4911102C0CC2451
:10194000C39480FF90E0EFE08E02D0011124C955CE
:10195000DF4FB983A883C75AD040272F362F482F8F
:10196000082E000C550B0F3011050CF0EAC2D29E68
:10197000F001D39EF00D1124C955DF4F68817981A4
:10198000C75AD040600F711FDB01AE0FBF1FC75594
:10199000DF4FB983A883C95AD040612C712CF8015C
:1019A0003296CD55DF4FF983E883C35AD040B80152
:1019B00062507109CB55DF4F79836883C55AD04097
:1019C0002F3031050CF0B8C21A01C755DF4F6881BE
:1019D0007981C95AD040660D771D680D791DDB01EC
:1019E000EC91E13009F0A2C25901B2E0AB0EB11C9A
:1019F000FB01E65AFF4FE081E13009F070C02C3066
:101A0000310508F06CC087FD6AC017FD68C00E3054
:101A1000110509F464C0C11060C09093D1013093E6
:101A2000D3012093D2015093D5014093D401109358
:101A3000D7010093D601D29ED001D39EB00D1124C0
:101A4000EFE0E49FC001E59F900D1124A80FB91F9E
:101A5000A80DB91DFD01E00FF11F72E0C72EC08275
:101A6000B9016F5F7F4FD69EF001D79EF00D112414
:101A7000E80FF91F3F01680C791CA301400F511FAB
:101A8000FA01C082DA9CA001DB9C500D1124480FA2
:101A9000591F480D591D5A01A00EB11EF501C082F3
:101AA0002D5F3F4FD29E5001D39EB00C11248A0D62
:101AB0009B1D880E991EC401800F911FFC01C082DE
:101AC0005801FFEFAF1ABF0AAA0DBB1DCC92F3015C
:101AD000EA0DFB1DC082FA0182C091E0C12C5901C0
:101AE000A2E0AA1AB108FB01EA55F109E081E13050
:101AF00009F0A0C0F9013397C555DF4FF983E8839A
:101B0000CB5AD0403C9708F095C087FD93C0101683
:101B100011060CF08FC0C1108BC09093D10130938F
:101B2000D3012093D2015093D5014093D401109357
:101B3000D7010093D601D29EF001D39EF00D11245F
:101B40006FE0649FC001659F900D1124E80FF91F9D
:101B5000E80DF91DAF01400F511F62E0C62EDA01FA
:101B6000CC92B90161507109D69EA001D79E500D4B
:101B70001124480F591F480D591D9A01200F311F7C
:101B8000D901CC92DA9C9001DB9C300D1124280FF6
:101B9000391F280D391D5901A00EB11ED501CC9257
:101BA000C555DF4FA881B981CB5AD040DA9E50018C
:101BB000DB9EB00C11248A0D9B1D880E991ED4014A
:101BC000A00FB11FCC925801BFEFAB1ABB0AEA0DB0
:101BD000FB1DC082FA01EA0DFB1DC082F901EA0D6E
:101BE000FB1DC082F401EA0DFB1DC082072E000C14
:101BF000880B990B0E94CF1520E030E041EE52E4B3
:101C00000E940A160E944F135B01B801110F880B46
:101C1000990B0E94CF1520E030E041EE52E40E9483
:101C20000A160E944F136F5B7F4F82E090E0ADC1B8
:101C300091E0C12CDB011296EC91D9011196E130B3
:101C400009F070C02E30310508F06CC087FD6AC005
:101C50000C30110508F066C0C11062C09093D1012C
:101C60003093D3012093D2015093D5014093D401F6
:101C70001093D7010093D601D29EC001D39E900D40
:101C80001124EFE0E49FB001E59F700D1124AC0139
:101C9000460F571F480D591DFA01E00FF11F92E042
:101CA00090833801FFEF6F1A7F0AFA01E60DF71DE6
:101CB0009083CD55DF4FE881F981C35AD040E40FBE
:101CC000F51F9083F8013396CB55DF4FF983E883F6
:101CD000C55AD0404E0F5F1FFA019083DA9E500123
:101CE000DB9EB00C11246A0D7B1D5401A60EB71E9D
:101CF000D501A00FB11F9C93D501A60DB71D9C93D4
:101D0000CD55DF4FA881B981C35AD040AA0DBB1D64
:101D10009C93CB55DF4FE881F981C55AD04075C0FF
:101D200091E0C12CFB0132976081613009F094C0D1
:101D30002E30310508F090C087FD8EC00C301105A3
:101D400008F08AC0C11086C09093D1013093D301AE
:101D50002093D2015093D5014093D4011093D70121
:101D60000093D601D29EC001D39E900D1124FFE0B6
:101D7000F49FB001F59F700D1124AC01460F571F61
:101D8000480D591DFA01E00FF11F92E090833801D0
:101D900081E0681A7108FA01E60DF71D9083CB55B2
:101DA000DF4FE881F981C55AD040E40FF51F9083D9
:101DB000F8013397CD55DF4FF983E883C35AD040FC
:101DC0004E0F5F1FFA019083DA9E5001DB9EB00C2C
:101DD00011246A0D7B1D5401A60EB71ED501A00F5C
:101DE000B11F9C93D501A60DB71D9C93CB55DF4F1A
:101DF000A881B981C55AD040AA0DBB1D9C93CD5571
:101E0000DF4FE881F981C35AD040EA0DFB1D908372
:101E1000B901330F880B990B0E94CF1520E030E0F9
:101E200041EE52E40E940A160E944F135B01B30177
:101E3000770C880B990B0E94CF1520E030E041EE23
:101E400052E40E940A160E944F136F5B7F4F81E09D
:101E500090E09BC091E0C12C2E30310508F066C0A7
:101E600087FD64C017FD62C00E30110509F45EC025
:101E70009093D1013093D3012093D2015093D50197
:101E80004093D4011093D7010093D601D29EB001A4
:101E9000D39E700D1124FFE0F49FC001F59F900DBB
:101EA0001124AB01480F591F480D591DFA01E00FCD
:101EB000F11F62E06083DA9E5001DB9EB00C1124BA
:101EC0008A0D9B1D880E991EF401E00FF11F60839F
:101ED00058017FEFA71AB70AFA01EA0DFB1D6083CC
:101EE000F401EA0DFB1D6083B901330F880B990BD8
:101EF0000E94CF1520E030E041EE52E40E940A1625
:101F00000E944F135B01B801110F880B990B0E94BF
:101F1000CF1520E030E041EE52E40E940A160E9404
:101F20004F136F5B7F4F80E090E02FC02F5F3F4FDC
:101F3000ADE26A0E711C44CD0F5F1F4F20E030E010
:101F400012CD482F082E000C550B8F5F722F632F78
:101F500000E010E0E6CC9093D1017093D201609341
:101F6000D3015093D5014093D4011093D70100932E
:101F7000D60181E491E00E94D20783E090E0212C19
:101F8000312C61E470E0A12CB12CF7011182108298
:101F9000B382A2827583648337822682118610867B
:101FA000938782878091D2019091D3010E943A0851
:101FB00089E591E00E9440078091D6019091D70178
:101FC0000E943A0889E591E00E9440078091D4017F
:101FD0009091D5010E943A088CE591E00E94D207C9
:101FE000D7011A968D919C911B970E943A088BE617
:101FF00091E00E94D207F701828193810E943A0802
:1020000082E791E00E94D207D70114968D919C91AE
:1020100015970E943A0885E791E00E94D207F701E0
:10202000868197810E943A0888E791E00E94D20752
:102030008BE791E00E94400780916D0390916E03C1
:10204000009711F481E793E09201281B390BC90135
:102050000E94BA078AE991E00E94D207D7011A9636
:102060000D911C911B970330110531F0B70184EBE2
:1020700091E00E946E02FCCB0E94400581E08093BB
:10208000B3011093E9010093E80162C0039709F0DE
:102090005FC08091B301882309F45AC00E945F0594
:1020A000811156C01092B301E091B101F091B201DB
:1020B00080859185009709F05EC080819181892B90
:1020C00009F052C0F093D001E093CF01A284B38411
:1020D0008CE090E00E9464148C0185E891E00E94FD
:1020E0004007C5010E94BA07B1E0AB16B10499F1EF
:1020F000E2E0AE16B10491F1AB2899F584E593E0E6
:1021000021E030E0D80111963C932E9313961C9257
:102110001E92129715969C938E93149717961C9265
:102120001E92169719961C921E92189783E090E0C3
:102130001B969C938E931A971093B2010093B10152
:1021400081E08093CE0180910401882309F46BC063
:102150000E944F01E7C981E490E0D2CF88E696E083
:10216000CFCF80E090E0CCCF81E090E09187808776
:1021700082E090E04EC0019731F780819181019714
:1021800009F09AC06BE972E080E090E00E9482055D
:1021900060ED77E080E090E00E94081284EB90E030
:1021A0000E94E0071092B00180E090E00E94BA0720
:1021B00082E090E00E94070781E090E00E9407071C
:1021C00081E08093B0016BE972E081E090E00E94D1
:1021D000820560ED77E080E090E00E9408126BE9F4
:1021E00072E082E090E00E9482058091B1019091BE
:1021F000B2010E94F914E091CF01F091D001F09367
:10220000B201E093B10182E090E09183808381E0AC
:1022100090E00E94070797CF009709F0CEC081E0B9
:1022200090E00E940707E091B101F091B201209186
:10223000CE01808591850196DC01AA0FBB1FAE0FF0
:10224000BF1F0D911C91A091BB02B091BC021296D0
:102250004D915C911397401751070CF49BC0A091CE
:10226000BB02B091BC026D917C91A8014A5F5F4FA7
:10227000461757073CF46091BB027091BC0281E0A5
:1022800090E013C0A091BB02B091BC026D917C9113
:10229000A80146505109641775070CF07BC0609186
:1022A000BB027091BC0280E090E00E948205109316
:1022B0008A02009389024CCF61E089E00E940E03FC
:1022C0006BE972E080E090E00E94820560ED77E0CB
:1022D00080E090E00E94081284EB90E00E94E0070A
:1022E0001092B00180E090E00E94BA0781E090E097
:1022F0000E9407076BE872E080E090E00E94820590
:1023000060E971E080E090E00E9408126BE872E002
:1023100081E090E00E94820560E273E080E090E05E
:102320000E9408126BE872E080E090E00E94820553
:1023300060E971E080E090E00E9408126BE872E0D2
:1023400082E090E00E9482056CEB72E080E090E019
:102350000E94081282E090E00E94070781E08093CB
:10236000B0018FEF90E00E94E0076BE972E081E03E
:1023700090E00E94820560ED77E080E090E00E94AE
:1023800008126BE972E082E090E00E9482050E94F0
:102390004005D9CE222321F01092CE0181E00AC05F
:1023A000918780878230910509F036CF81E090E0F7
:1023B000918780878093B301CBCE019709F039CF05
:1023C00082E090E02ECF3FB7F89480913B0290914D
:1023D0003C02A0913D02B0913E0226B5A89B05C0EB
:1023E0002F3F19F00196A11DB11D3FBFBA2FA92F94
:1023F000982F8827820F911DA11DB11DBC01CD0111
:1024000042E0660F771F881F991F4A95D1F70895FC
:102410008F929F92AF92BF92CF92DF92EF92FF92F4
:102420006B017C010E94E3114B015C01C114D104DA
:10243000E104F104F1F00E94E311DC01CB01881901
:102440009909AA09BB09883E9340A105B10570F31B
:1024500021E0C21AD108E108F10888EE880E83E075
:10246000981EA11CB11CC114D104E104F10419F798
:10247000DDCFFF90EF90DF90CF90BF90AF909F9017
:102480008F90089580915A0390915B030C94F914F6
:10249000EDEBF2E01382128288EE93E0A0E0B0E070
:1024A00084839583A683B7832FE031E03183208333
:1024B00025EC30E03587248724EC30E03787268709
:1024C00020EC30E0318B208B21EC30E0338B228B01
:1024D00022EC30E0358B248B26EC30E0378B268BDA
:1024E000118E128E138E148EE1E6F3E013821282A7
:1024F00084839583A683B7838FE191E09183808362
:10250000EAE5F3E0118210821382128215821482AE
:1025100040E050E06AE971E0CF010C947D0881E071
:102520008093880280E28093600310928702109269
:10253000860262E181E693E00E941C0261E081E68E
:1025400093E00E941C028BE991E00E94400781E029
:1025500090E00E94BA0790918602809160039132C8
:1025600008F046C0209165022111FCCF22E02093A3
:10257000650221E0209364022FEF20936302109202
:10258000620290936102A6E6B2E041E452E0FA01F1
:102590002E2F241B291718F42D912193F9CF109277
:1025A000400290914002880F892B809340028091D5
:1025B0003F02813061F410923F028091400280938B
:1025C000BB008091BC0083FDF8CF85EC01C085EE97
:1025D0008093BC00809165028230E1F380916302B8
:1025E0008F3F31F080916302803211F0809163025D
:1025F000109287021092860210928802089597FB2B
:10260000072E16F4009407D077FD09D00E943513E9
:1026100007FC05D03EF4909581959F4F08957095E5
:1026200061957F4F0895A1E21A2EAA1BBB1BFD01E5
:102630000DC0AA1FBB1FEE1FFF1FA217B307E407A1
:10264000F50720F0A21BB30BE40BF50B661F771FF9
:10265000881F991F1A9469F76095709580959095D9
:102660009B01AC01BD01CF010895AA1BBB1B51E129
:1026700007C0AA1FBB1FA617B70710F0A61BB70BF2
:10268000881F991F5A95A9F780959095BC01CD0197
:102690000895EE0FFF1F0590F491E02D09940E941C
:1026A00056136894B1110C94C21608950E94A7168F
:1026B00088F09F5798F0B92F9927B751B0F0E1F003
:1026C000660F771F881F991F1AF0BA95C9F714C0B3
:1026D000B13091F00E94C116B1E008950C94C1167A
:1026E000672F782F8827B85F39F0B93FCCF38695EC
:1026F00077956795B395D9F73EF490958095709549
:1027000061957F4F8F4F9F4F0895A0E0B0E0EBE8B9
:10271000F3E10C94CC16EC01009721F4CB010E945C
:102720006414B8C0FC01E60FF71F9C012250310968
:10273000E217F30708F4ACC0D9010D911C91119771
:1027400006171707B0F00530110508F49FC0C8013F
:1027500004978617970708F499C002501109061BC1
:10276000170B019311936D937C93CF010E94F91481
:102770008DC05B01A01AB10A4C01800E911EA09180
:102780006F03B091700340E050E0E12CF12C109702
:1027900009F44AC0A815B905D1F56D907C90119740
:1027A000630182E0C80ED11CCA14DB0480F1A301CE
:1027B0004A195B096A0182E0C80ED11C1296BC90CE
:1027C00012971396AC91B5E0CB16D10440F0B282CB
:1027D000A38351834083D9016D937C930AC00E5F1C
:1027E0001F4FC301800F911FF90191838083EB2D4F
:1027F000FA2FE114F10431F0D7011396FC93EE9314
:10280000129744C0F0937003E0936F033FC08D9123
:102810009C9111974817590708F4AC017D01129655
:102820000D90BC91A02DB3CF80916D0390916E035C
:1028300088159905E1F446175707C8F480910501FA
:1028400090910601009741F48DB79EB74091090120
:1028500050910A01841B950BE817F907C8F4F0930F
:102860006E03E0936D03F901718360830FC0CB01A8
:102870000E9464147C01009759F0A801BE010E94D7
:102880005414CE010E94F914C70104C0CE0102C045
:1028900080E090E0CDB7DEB7EEE00C94E81681E082
:1028A00090E0F8940C94FF16FB01DC0102C001904B
:1028B0000D9241505040D8F70895FB01DC01019082
:1028C0000D920020E1F70895CF93DF9382309105B8
:1028D00010F482E090E0E0916F03F091700320E04B
:1028E00030E0C0E0D0E0309711F1408151814817CD
:1028F0005907C0F04817590761F4828193812097E6
:1029000019F09B838A832BC09093700380936F038D
:1029100026C02115310519F04217530718F49A0102
:10292000BE01DF01EF010280F381E02DDCCF211534
:10293000310509F1281B390B2430310590F412962A
:102940008D919C9113976115710521F0FB01938383
:10295000828304C09093700380936F03FD013296CD
:1029600044C0FD01E20FF31F81939193225031097E
:102970002D933C933AC020916D0330916E03232B2D
:1029800041F4209107013091080130936E032093A8
:102990006D0320910501309106012115310541F4A7
:1029A0002DB73EB74091090150910A01241B350B08
:1029B000E0916D03F0916E03E217F307A0F42E1B74
:1029C0003F0B2817390778F0AC014E5F5F4F241793
:1029D000350748F04E0F5F1F50936E0340936D0311
:1029E0008193919302C0E0E0F0E0CF01DF91CF91BD
:1029F00008950F931F93CF93DF93009709F48CC032
:102A0000FC0132971382128200916F0310917003C0
:102A10000115110581F420813181820F931F2091CE
:102A20006D0330916E032817390779F5F0936E0323
:102A3000E0936D0371C0D80140E050E0AE17BF07CE
:102A400050F412962D913C911397AD01211531054B
:102A500009F1D901F3CF9D01DA013383228360812B
:102A60007181860F971F8217930769F4EC01288103
:102A70003981260F371F2E5F3F4F318320838A8194
:102A80009B8193838283452B29F4F0937003E09319
:102A90006F0342C01396FC93EE931297ED01499198
:102AA00059919E01240F351FE217F30771F48081BD
:102AB0009181840F951F029611969C938E9382812B
:102AC000938113969C938E931297E0E0F0E0D801E7
:102AD00012968D919C911397009719F0F8018C0133
:102AE000F6CF8D919C9198012E5F3F4F820F931FDF
:102AF00020916D0330916E032817390769F43097E0
:102B000029F41092700310926F0302C01382128294
:102B100010936E0300936D03DF91CF911F910F917E
:102B200008951F93FC0199278827BC01E89411910F
:102B30001032E9F3193010F01E30C8F31B3251F097
:102B40001D3249F4689406C00E94B815610F711DCA
:102B5000811D911D119110531A30B0F33EF49095E0
:102B60008095709561957F4F8F4F9F4F1F9108956E
:102B7000592F482F372F262F660F771F881F991F31
:102B8000660F771F881F991F620F731F841F951F81
:102B9000660F771F881F991F0895E89409C097FB57
:102BA0003EF490958095709561957F4F8F4F9F4F24
:102BB0009923A9F0F92F96E9BB279395F695879568
:102BC00077956795B795F111F8CFFAF4BB0F11F42B
:102BD00060FF1BC06F5F7F4F8F4F9F4F16C08823D2
:102BE00011F096E911C0772321F09EE8872F762F08
:102BF00005C0662371F096E8862F70E060E02AF049
:102C00009A95660F771F881FDAF7880F9695879534
:102C100097F908950E941D160C948E160E94801636
:102C200038F00E94871620F0952311F00C94771647
:102C30000C947D1611240C94C2160E949F1670F3FA
:102C4000959FC1F3950F50E0551F629FF001729F51
:102C5000BB27F00DB11D639FAA27F00DB11DAA1F60
:102C6000649F6627B00DA11D661F829F2227B00DAD
:102C7000A11D621F739FB00DA11D621F839FA00D38
:102C8000611D221F749F3327A00D611D231F849F88
:102C9000600D211D822F762F6A2F11249F575040DF
:102CA0009AF0F1F088234AF0EE0FFF1FBB1F661F5A
:102CB000771F881F91505040A9F79E3F510580F023
:102CC0000C9477160C94C2165F3FE4F3983ED4F34D
:102CD000869577956795B795F795E7959F5FC1F7C7
:102CE000FE2B880F911D9695879597F9089597F972
:102CF0009F6780E870E060E008959FEF80EC0895A2
:102D000000240A94161617061806090608950024CA
:102D10000A9412161306140605060895092E039444
:102D2000000C11F4882352F0BB0F40F4BF2B11F4B8
:102D300060FF04C06F5F7F4F8F4F9F4F089557FD17
:102D40009058440F551F59F05F3F71F04795880F19
:102D500097FB991F61F09F3F79F0879508951216B0
:102D600013061406551FF2CF4695F1DF08C016165C
:102D700017061806991FF1CF86957105610508940D
:102D80000895E894BB2766277727CB0197F9089524
:102D90002F923F924F925F926F927F928F929F926B
:102DA000AF92BF92CF92DF92EF92FF920F931F9359
:102DB000CF93DF93CDB7DEB7CA1BDB0B0FB6F8940A
:102DC000DEBF0FBECDBF09942A88398848885F844A
:102DD0006E847D848C849B84AA84B984C884DF80BB
:102DE000EE80FD800C811B81AA81B981CE0FD11D9F
:102DF0000FB6F894DEBF0FBECDBFED01089510E011
:102E0000C2E6D0E004C0FE010E9449132196C336F9
:082E1000D107C9F7F894FFCFC8
:102E1800AB01AB010100007103800000000000E677
:102E280000DC06AF008D00A1002D01000000001C91
:102E380002EC01E501E201DF01DE014265666F7225
:102E48006520476574496E737472756374696F6E33
:102E5800004E6F20696E737472756374696F6E20AB
:102E6800637265617465642E002C20002070726F97
:102E78006772657373706F696E740020627269633C
:102E88006B00207800207A0020790052414D46528C
:102E980045453A20006F6B657920736F206272692F
:102EA800636B2069733A20000D0A004552524F5255
:102EB80020454E434F554E54455245443A20000054
:00000001FF
