:100000000C9463000C9456040C942F040C948B00F5
:100010000C948B000C948B000C948B000C948B0034
:100020000C948B000C948B000C948B000C948B0024
:100030000C948B000C948B000C948B000C948B0014
:100040000C94E5030C948B000C9401030C94DB02DC
:100050000C948B000C948B000C948B000C948B00F4
:100060000C947D040C948B000000000024002700F9
:100070002A0000000000250028002B0000000000DE
:1000800023002600290004040404040404040202DA
:100090000202020203030303030301020408102007
:1000A0004080010204081020010204081020000012
:1000B0000008000201000003040700000000000027
:1000C000000080117A1111241FBECFEFD8E0DEBFEF
:1000D000CDBF11E0A0E0B1E0E8EAFBE202C005908C
:1000E0000D92A237B107D9F723E0A2E7B1E001C032
:1000F0001D92A636B207E1F710E0C2E6D0E004C0D8
:100100002197FE010E94EF11C136D107C9F70E9465
:1001100075090C94C7150C940000FC01918D828D1B
:10012000981761F0828DDF01A80FB11D5D968C914B
:10013000928D9F5F9F73928F90E008958FEF9FEF56
:100140000895FC01918D828D981731F0828DE80F12
:10015000F11D858D90E008958FEF9FEF0895FC01CC
:10016000918D228D892F90E0805C9F4F821B910999
:100170008F739927089582EB92E00E94AF0021E0EF
:10018000892B09F420E0822F0895FC01848DDF0182
:10019000A80FB11DA35ABF4F2C91848D90E00196FA
:1001A0008F739927848FA689B7892C93A089B189E9
:1001B0008C9180648C93938D848D981306C00288F3
:1001C000F389E02D80818F7D80830895EF92FF92E7
:1001D0000F931F93CF93DF93EC0181E0888F9B8D6A
:1001E0008C8D981305C0E889F989808185FD24C02C
:1001F000F62E0B8D10E00F5F1F4F0F731127E02EAF
:100200008C8DE8120CC00FB607FCFACFE889F9898B
:10021000808185FFF5CFCE010E94C500F1CF8B8D87
:10022000FE01E80FF11DE35AFF4FF0820B8FEA89C0
:10023000FB898081806207C0EE89FF896083E8893D
:10024000F98980818064808381E090E0DF91CF91A3
:100250001F910F91FF90EF900895CF93DF93EC01E2
:10026000888D8823C9F0EA89FB89808185FD05C0D6
:10027000A889B9898C9186FD0FC00FB607FCF5CF10
:10028000808185FFF2CFA889B9898C9185FFEDCF58
:10029000CE010E94C500E7CFDF91CF91089580E0A5
:1002A00090E0892B29F00E94BB0081110C94000082
:1002B0000895833081F028F4813099F08230A1F0E4
:1002C00008958730A9F08830B9F08430D1F4809156
:1002D00080008F7D03C0809180008F7780938000A5
:1002E000089584B58F7702C084B58F7D84BD08954D
:1002F0008091B0008F7703C08091B0008F7D809394
:10030000B0000895CF93DF93282F30E0F901E25534
:10031000FF4F8491F901E656FF4FD491F901EA5756
:10032000FF4FC491CC2391F081110E945901EC2F11
:10033000F0E0EE0FFF1FE458FF4FA591B491EC9150
:10034000ED2381E090E021F480E002C080E090E0C5
:10035000DF91CF9108953FB7F8948091300290914A
:100360003102A0913202B091330226B5A89B05C09C
:100370002F3F19F00196A11DB11D3FBFBA2FA92F24
:10038000982F8827820F911DA11DB11DBC01CD01A1
:1003900042E0660F771F881F991F4A95D1F708958D
:1003A000089585ED8093BC008091BC0084FDFCCF56
:1003B00010925A02089540910602262F30E0240F31
:1003C000311D21323105DCF420915A022430C9F468
:1003D000FC0180E090E0861758F4309106022191EC
:1003E000DC01AC51BE4FA30FB11D2C930196F3CF8E
:1003F00080910602680F6093060280E0089581E014
:10040000089582E0089508958FEF9FEF08958FEF8C
:100410009FEF08958091E30190E091958195910976
:100420000895CF92DF92EF92FF920F931F93CF9395
:10043000DF937C01262F972F8A0180917D028823EC
:1004400091F0C62FD72F6E01C40ED51ECC15DD0539
:1004500071F06991D701ED91FC910190F081E02D4F
:10046000C7010995F3CF642F822F0E94DB01C801D9
:10047000DF91CF911F910F91FF90EF90DF90CF9080
:100480000895CF93DF931F92CDB7DEB76983209194
:100490007D022223D1F020917B02203240F021E026
:1004A00030E0FC013383228380E090E015C080912E
:1004B0007C02E82FF0E0E55AFD4F998190838F5F31
:1004C00080937C0280937B0205C061E0CE0101969F
:1004D0000E94DB0181E090E00F90DF91CF910895C1
:1004E000DC01ED91FC918081918108950E94F512CB
:1004F000CF93DF93FC01A081B181CD91DC91119765
:1005000012968D919C9113979183808324853585D4
:100510002150310935872487CD010E949F13CE01D8
:10052000DF91CF910895CF92DF92EF92FF920F93D8
:100530001F93CF93DF9300D0CDB7DEB76C0184E07B
:1005400090E069837A830E940A138C01D601149685
:10055000ED90FC901597C7010E940A13F801918352
:10056000808313821282A70169817A810E94FA1224
:10057000D6018D919C911197892B19F40D931C93A1
:1005800007C0D6011296ED91FC9113971383028355
:10059000F601138302838485958501969587848768
:1005A0000F900F90DF91CF911F910F91FF90EF90DF
:1005B000DF90CF9008951F920F920FB60F921124E3
:1005C0002F933F934F935F936F937F938F939F935B
:1005D000AF93BF93EF93FF9382EB92E00E94C5002D
:1005E000FF91EF91BF91AF919F918F917F916F910B
:1005F0005F914F913F912F910F900FBE0F901F90E1
:1006000018951F920F920FB60F9211242F938F936C
:100610009F93EF93FF93E091C202F091C302808118
:10062000E091C802F091C90282FD12C090818091D0
:10063000CB028F5F8F732091CC02821751F0E09133
:10064000CB02F0E0EE54FD4F958F8093CB0201C0BA
:100650008081FF91EF919F918F912F910F900FBE0D
:100660000F901F9018951F93CF93DF93282F30E0A2
:10067000F901E255FF4F8491F901E656FF4FD491FD
:10068000F901EA57FF4FC491CC23C9F0162F81110D
:100690000E945901EC2FF0E0EE0FFF1FEE58FF4FC4
:1006A000A591B4918FB7F894111105C09C91ED2FCD
:1006B000E095E92302C0EC91ED2BEC938FBFDF9125
:1006C000CF911F910895CF93DF9390E0FC01E65600
:1006D000FF4F2491FC01EA57FF4F8491882361F179
:1006E00090E0880F991FFC01E859FF4FC591D49104
:1006F000FC01EE58FF4FA591B491611109C09FB75D
:10070000F8948881209582238883EC912E230BC056
:10071000623061F49FB7F8943881822F80958323EB
:100720008883EC912E2B2C939FBF06C08FB7F89433
:10073000E8812E2B28838FBFDF91CF9108958F9270
:100740009F92AF92BF92CF92DF92EF92FF926B0196
:100750007C010E94AB014B015C01C114D104E10496
:10076000F104F1F00E94AB01DC01CB018819990979
:10077000AA09BB09883E9340A105B10570F321E0A9
:10078000C21AD108E108F10888EE880E83E0981EAD
:10079000A11CB11CC114D104E104F10419F7DDCF8F
:1007A000FF90EF90DF90CF90BF90AF909F908F9091
:1007B00008952FB7F89460912C0270912D028091CA
:1007C0002E0290912F022FBF08951F920F920FB605
:1007D0000F9211242F933F938F939F93AF93BF93C7
:1007E00080912C0290912D02A0912E02B0912F02A7
:1007F00030912B0223E0230F2D3720F40196A11D09
:10080000B11D05C026E8230F0296A11DB11D20933E
:100810002B0280932C0290932D02A0932E02B09372
:100820002F028091300290913102A0913202B0915A
:1008300033020196A11DB11D8093300290933102C5
:10084000A0933202B0933302BF91AF919F918F91E9
:100850003F912F910F900FBE0F901F9018951F92F0
:100860000F920FB60F9211242F933F934F935F93E4
:100870006F937F938F939F93AF93BF93EF93FF9368
:10088000E0910201F09103010995FF91EF91BF9171
:10089000AF919F918F917F916F915F914F913F9118
:1008A0002F910F900FBE0F901F9018951F920F92CF
:1008B0000FB60F9211242F933F934F935F936F9333
:1008C0007F938F939F93AF93BF93EF93FF93E091A9
:1008D0000001F09101010995FF91EF91BF91AF9156
:1008E0009F918F917F916F915F914F913F912F9148
:1008F0000F900FBE0F901F9018951F920F920FB67A
:100900000F9211242F933F934F935F936F937F9395
:100910008F939F93AF93BF93EF93FF938091B90011
:10092000887F803609F49CC068F5883209F45BC082
:1009300090F4803109F454C038F4882309F4F6C0E7
:10094000883009F44DC0F6C0883109F44CC08032BB
:1009500009F45DC0EFC0803409F468C048F4803306
:1009600009F455C0883309F0E5C080935802D8C017
:10097000803509F44FC0883509F45DC0883409F02A
:10098000D9C0D6C0883909F4C7C0A8F4883709F49B
:1009900067C038F4883609F463C0803709F460C052
:1009A000C9C0883809F4B8C0803909F45FC08038FC
:1009B00009F0C0C05BC0803B09F486C038F4803ABF
:1009C00009F466C0883A09F47FC0B4C0803C09F4D9
:1009D000A7C0883C09F4A4C0883B09F48AC0AAC017
:1009E0008091350210C0909157028091560298175D
:1009F00070F5E091570281E08E0F80935702F0E08E
:100A0000EA5CFD4F80818093BB0085EC86C08093BB
:100A100058028EC0E091570281E08E0F80935702FA
:100A20008091BB00F0E0EA5CFD4F8083909157021B
:100A3000809156026EC0E091570281E08E0F809344
:100A400057028091BB00F0E0EA5CFD4F808380910B
:100A5000590281116DC081E08093340284EA61C043
:100A600083E080935A0210922A02CFCF80912A020B
:100A7000803208F051C0E0912A0281E08E0F80930D
:100A80002A028091BB00F0E0E65FFD4F8083BDCF7E
:100A900085EC8093BC0010925A0280912A02803229
:100AA00030F4E0912A02F0E0E65FFD4F10826091A1
:100AB0002A0270E0E0910802F09109028AE092E0D7
:100AC000099510922A0236C084E080935A0210924F
:100AD000070210920602E0910402F09105020995C6
:100AE00080910602811105C081E080930602109278
:100AF000E401E091070281E08E0F80930702F0E0AD
:100B0000EC51FE4F80818093BB0090910702809151
:100B10000602981708F479CF85E88093BC000AC0D4
:100B200085EC8093BC0010925A0204C010925802C7
:100B30000E94D101FF91EF91BF91AF919F918F9151
:100B40007F916F915F914F913F912F910F900FBEC9
:100B50000F901F90189581E090E00E9450078091BF
:100B60007701909178010E949F1380918601909166
:100B70008701892B21F481E08093040102C0109247
:100B800004018AE791E00E947802909378018093B3
:100B9000770108950F931F93CF93DF938C01EB019F
:100BA0008130910581F082309105E9F0892B39F58A
:100BB0001B861A868E819F8161E00E94330388859F
:100BC000998560E00AC09B878A878E819F8160E05B
:100BD0000E9433038885998561E0DF91CF911F9151
:100BE0000F910C9433038E819F8160E00E94330348
:100BF0008885998560E00E9433031B870A87DF910F
:100C0000CF911F910F9108950F931F930E9450074A
:100C10006091B0027091B10281E090E00E94CA053B
:100C20000E94D903609373017093740180937501DE
:100C3000909376010E94D903009173011091740181
:100C4000209175013091760108531F4F2F4F3F4F70
:100C5000061717072807390768F76091B0027091E7
:100C6000B10282E090E00E94CA05E091B002F091EA
:100C7000B102118210821F910F910895CF93DF93DB
:100C80000E94D9036093730170937401809375017E
:100C90009093760180917201882309F473C0E091EA
:100CA000B002F091B10282859385009721F00197FF
:100CB00009F444C067C040815181C0917701D0914F
:100CC0007801A885B9851196AA0FBB1FAC0FBD1F6F
:100CD0008D919C919C01225031094217530784F059
:100CE0008FEF90E00E9416086091B0027091B102FF
:100CF00082E090E00E94CA0581E08093790142C0C1
:100D0000408151819C0128523109421753074CF010
:100D1000E05AF24019F488E790E00CC08EE690E0CB
:100D200009C0208131818C5291402817390754F134
:100D30008CE890E0DF91CF910C94160840815181AE
:100D4000C0917701D0917801A885B9851196AA0F35
:100D5000BB1FAC0FBD1F8D919C919C012E5F3F4F1F
:100D6000241735070CF0BCCF408151812A5D3F4FDD
:100D7000241735076CF620813181845D9E4F8217E0
:100D80009307B4F6DF91CF91089583E00E9482012A
:100D9000E091B002F091B102268537852817390716
:100DA00019F197878687009719F0019771F01AC09B
:100DB00084859585892B21F480819181019603C0DA
:100DC0008081918101979183808384859585892B8A
:100DD00021F480819181019703C0808191810196E6
:100DE000918380830C943E06089582E00E948201E4
:100DF000E091B002F091B1022485358528173907BA
:100E000019F195878487009719F0019771F01AC03E
:100E100086859785892B21F480819181019703C074
:100E20008081918101969183808386859785892B26
:100E300021F480819181019603C080819181019785
:100E4000918380830C943E060895CF92DF92EF92B7
:100E5000FF920F931F93CF93DF936C017A018B0165
:100E6000C0E0D0E0CE15DF0589F0D8016D918D018D
:100E7000D601ED91FC910190F081E02DC60109951C
:100E8000892B11F47E0102C02196ECCFC701DF91BE
:100E9000CF911F910F91FF90EF90DF90CF90089529
:100EA00081309105A1F08230910501F1892B81F506
:100EB00060E08CE00E94330361E08BE00E9433032A
:100EC00060E08AE00E94330380E992E01DC061E0A7
:100ED0008CE00E94330360E08BE00E94330360E00B
:100EE0008AE00E94330380E892E00EC060E08CE06C
:100EF0000E94330360E08BE00E94330360E08AE0ED
:100F00000E94330380EA92E09093B1028093B00292
:100F10000895E2EBF2E0A089B18982E08C93A48588
:100F2000B5851C92A685B7858FEC8C93108EA4890D
:100F3000B58986E08C93A289B3898C9180618C936A
:100F4000A289B3898C9188608C93A289B3898C9192
:100F500080688C930288F389E02D80818F7D808367
:100F6000089581E080937D0280E280935503109282
:100F70007C0210927B0262E186E593E00E944102CE
:100F800061E086E593E00E94410280917B0281321C
:100F900008F045C090915A029111FCCF92E09093D5
:100FA0005A0291E0909359029FEF90935802109249
:100FB000570280935602ABE5B2E026E332E0F90136
:100FC0009E2F921B981718F49D919193F9CF109230
:100FD000350280913502806480933502809134021D
:100FE000813061F410923402809135028093BB000D
:100FF0008091BC0083FDF8CF85EC01C085EE809325
:10100000BC0080915A028230E1F3809158028F3FF8
:1010100031F080915802803211F080915802109284
:101020007C0210927B0210927D020895CF93DF9391
:10103000EC0161E089E00E946303209711F460E015
:1010400004C0CF3FD10531F461E089E0DF91CF9159
:101050000C943303E7EBF0E0E491E330F9F048F46B
:10106000E130B9F0E230A1F584B5806284BDC8BD3D
:1010700034C0E730E9F0E83019F1E43049F5809107
:101080008000806280938000D0938B00C0938A00A0
:1010900024C084B5806884BDC7BD1FC08091800016
:1010A000806880938000D0938900C093880015C029
:1010B0008091B00080688093B000C093B3000DC0F1
:1010C0008091B00080628093B000C093B40005C0EE
:1010D000C038D1050CF0B8CFB2CFDF91CF910895D1
:1010E0000F931F93CF93DF93EC0188819981009731
:1010F00029F02A813B812617370788F48B016F5F1F
:101100007F4F0E942B12009761F0998388831B8385
:101110000A832C813D81232B11F4FC01108281E094
:1011200001C080E0DF91CF911F910F910895CF937F
:10113000DF93EC0188819981009711F00E949F1341
:10114000198218821D821C821B821A82DF91CF9124
:101150000895EF92FF920F931F93CF93DF93EC01CB
:101160007B018A01BA010E947008811104C0CE017E
:101170000E94970807C01D830C83B701888199815D
:101180000E940313CE01DF91CF911F910F91FF9029
:10119000EF9008956115710579F0FB010190002031
:1011A000E9F73197AF01461B570BDC01ED91FC913C
:1011B0000280F381E02D099480E090E00895CF93C0
:1011C000DF93BC0182EB92E00E94CA08EC016AE363
:1011D00071E082EB92E00E94CA088C0F9D1FDF91A4
:1011E000CF9108954F925F926F927F92EF92FF920C
:1011F0000F931F93CF93DF93CDB7DEB7A1970FB6B1
:10120000F894DEBF0FBECDBF7C01FA01CB0119A25D
:10121000223008F42AE08E010F5D1F4F422E512C20
:10122000612C712CBF01A30192010E946E15F9017E
:10123000CA01015011096A3014F4605D01C0695C93
:10124000D8016C93232B242B252B61F7B801C70100
:101250000E94CA08A1960FB6F894DEBF0FBECDBF9C
:10126000DF91CF911F910F91FF90EF907F906F9042
:101270005F904F900895CF92DF92EF92FF92CF93BD
:10128000DF936C01990FEE08FF08F7FE21C0E09193
:10129000B202F091B3020190F081E02D6DE282EB99
:1012A00092E00995EC0144275527BA014C195D09D4
:1012B0006E097F092AE082EB92E00E94F2088C0F0F
:1012C0009D1FDF91CF91FF90EF90DF90CF90089519
:1012D0002AE0B701A60182EB92E0DF91CF91FF9067
:1012E000EF90DF90CF900C94F208CF93DF93CDB7BF
:1012F000DEB7C45BD1090FB6F894DEBF0FBECDBF19
:10130000789484B5826084BD84B5816084BD85B5E0
:10131000826085BD85B5816085BD80916E008160EC
:1013200080936E0010928100809181008260809392
:101330008100809181008160809381008091800094
:101340008160809380008091B10084608093B100BF
:101350008091B00081608093B00080917A008460B9
:1013600080937A0080917A00826080937A008091E5
:101370007A00816080937A0080917A0080688093FF
:101380007A001092C1001092BB011092BC01109221
:10139000BD011092BE011092890110928A01109233
:1013A0008B0110928C0160ED77E080E090E00E946C
:1013B0009F0382EB92E09093BA018093B9010E945F
:1013C00089070E94D9030091890110918A01209117
:1013D0008B0130918C01DC01CB01801B910BA20BA6
:1013E000B30BC297A105B10538F463E070E080E06B
:1013F00090E00E949F03E5CF0E94D903609389018A
:1014000070938A0180938B0190938C016BE271E061
:101410008091B9019091BA010E94CA086AE070E017
:1014200080E090E00E949F0311E010938D0161E045
:101430008AE00E94630361E08BE00E94630361E045
:101440008CE00E94630361E084E00E94630361E03A
:1014500085E00E94630361E086E00E94630361E02F
:1014600087E00E94630361E088E00E94630361E01B
:101470008DE00E94630361E089E00E94630362E003
:1014800082E00E94630362E083E00E94630385EFD1
:1014900096E09093010180930001809169008C7F18
:1014A000816080936900E89A85EC96E0909303014F
:1014B0008093020180916900837F8460809369003A
:1014C000E99A0E94890710927B0110927A0110928A
:1014D0007D0110927C018CE090E090937F018093DD
:1014E0007E0163E972E0709381016093800128E7D7
:1014F00032E0309383012093820180E792E0909361
:1015000085018093840110928701109286011092C8
:10151000CE011092CF011092D0011092D4011092FE
:10152000D3011092D6011092D50145E050E05093BE
:10153000D8014093D7017093DA016093D9013093B9
:10154000DC012093DB019093DE018093DD0110929A
:10155000E0011092DF011EAA1DAA2AE134E038AF93
:101560002FAB1AAE19AE88E090E09CAF8BAF8DE048
:1015700090E09EAF8DAF82E090E021969FAF8EAF5E
:10158000219723961FAE1EAE239725961FAE1EAE43
:10159000259727961FAE1EAE279729963FAF2EAFF1
:1015A00029972B961FAE1EAE2B9766E070E02D9606
:1015B0007FAF6EAF2D9767E070E02F967FAF6EAF75
:1015C0002F9761969FAF8EAF619763961FAE1EAE49
:1015D000639765961FAE1EAE659767961FAE1EAEEB
:1015E000679769963FAF2EAF69976B961FAE1EAE99
:1015F0006B9724E030E06D963FAF2EAF6D976F96FE
:101600005FAF4EAF6F97A1969FAF8EAFA197A39696
:101610001FAE1EAEA397A5961FAE1EAEA597CE0118
:101620008B599F4F20E1FE01EB5AFF4FDC010190E7
:101630000D922A95E1F720E1FE01EB5BFF4FDE0101
:10164000AB58BF4F01900D922A95E1F720E1FE01C2
:10165000F596DE01AB57BF4F01900D922A95E1F749
:101660001A82198220E1FC01DE01139601900D928D
:101670002A95E1F720E1FE01EB58FF4FDE0153967A
:1016800001900D922A95E1F720E1FE01EB57FF4F03
:10169000DE01939601900D922A95E1F79CAB8BABFE
:1016A00084E3FE013196AEE7B2E001900D928A9597
:1016B000E1F78BEB90E0C956DF4F99838883C759D8
:1016C000D040C756DF4F99838883C959D040C5564B
:1016D000DF4F19821882CB59D040C156DF4F198293
:1016E0001882CF59D040C356DF4F19821882CD5986
:1016F000D040CB56DF4F19821882C559D040BE0169
:101700006B567F4F8AE791E00E94930282EC91E052
:10171000C956DF4F99838883C759D040C756DF4FDA
:1017200099838883C959D040C556DF4F19821882E2
:10173000CB59D040C156DF4F19821882CF59D040C3
:10174000C356DF4F19821882CD59D040CB56DF4F98
:1017500019821882C559D040BE016B567F4F8AE767
:1017600091E00E9493020E94AB0584EB90E00E94FE
:10177000160880E090E00E94040684EB90E00E944E
:10178000160882E090E00E94040684EB90E00E943C
:10179000160881E090E00E940406109372018FEF1A
:1017A00090E00E9416081093790145E0242E312C18
:1017B00088248394912C6DE2D62ECC24C39472E0BD
:1017C000672E712C8091E1019091E201892B09F043
:1017D000F9C082EB92E00E94AF00892B09F4BBC0F4
:1017E00082EB92E00E94A1008B3609F487C082EB65
:1017F00092E00E948D00182FCB56DF4F198218827D
:10180000C559D040C956DF4F19821882C759D040F8
:10181000C756DF4F19821882C959D04060914F03D3
:10182000709150036115710551F04091530350912F
:101830005403CE018B569F4F0E94A90805C0CE01CC
:101840008B569F4F0E949708CF55DF4F1883C15A80
:10185000D040CE55DF4F1882C25AD040C756DF4F16
:1018600008811981C959D0400F5F1F4FB801CE01BF
:101870008B569F4F0E9470088823D1F0CB56DF4FC4
:1018800028813981C559D040C756DF4F8881998159
:10189000C959D040BE016F557F4F820F931F0E94E0
:1018A0000313C756DF4F19830883C959D04005C0B9
:1018B000CE018B569F4F0E949708CB56DF4F688111
:1018C0007981C559D0406115710559F0C756DF4F70
:1018D00048815981C959D0408FE493E00E94A908FA
:1018E00004C08FE493E00E949708CB56DF4F8881B5
:1018F0009981C559D0400E949F132DC082EB92E080
:101900000E948D008091C9019091CA019C012F5FB6
:101910003F4F3093CA012093C901B1010E94C71102
:101920008C0180914F0390915003009719F00E9411
:10193000371401C060E0000F111FF801E154FE4FA1
:1019400070E07183608340E050E06CE371E08FE40D
:1019500093E00E94A9082091C9013091CA01C901F0
:10196000B1010E94C711892BF9F4232BE9F085E01E
:1019700090E00E940A13FC018091BF018083809156
:10198000C10181838091C30182838091C5018383DA
:101990008091C7018483BF0183ED91E00E9493028F
:1019A0001092CA011092C90182EB92E00E94A1003C
:1019B000853641F482EB92E00E948D009092E20124
:1019C0008092E1018091E1019091E201019709F09B
:1019D000E4C08DE391E00E94DF0885E994E00E9475
:1019E0000A138C0120E030E080E090E040E050E01D
:1019F000BC01620F731FFA01E60FF71FE00FF11F22
:101A000010824F5F5F4F4F305105A9F70F968D320F
:101A1000910561F7235D3F4F223944E0340721F7F8
:101A2000F801EE56FB4F10823196108231961082EB
:101A300061E471E082EB92E00E94CA08D801DD9671
:101A40004C9150E060E070E02AE082EB92E00E946E
:101A5000F2086AE371E082EB92E00E94CA0880918A
:101A6000DF019091E001892B09F476C083ED91E0CC
:101A70000E947802FC0124818FEF820F833008F0EE
:101A800068C090819A3108F064C071817F3008F09D
:101A900060C032813A3108F05CC083818F3008F039
:101AA00058C0931328C0781709F453C0E72FF0E00B
:101AB000A82FB0E0781718F4AF01BD0102C0AD0146
:101AC000BF0130E0BDE29B9FC00111246417750780
:101AD00034F2FA01E80FF91FE00FF11FC082213044
:101AE000310519F44F5F5F4FF1CFC78623303105C1
:101AF000C9F7C68EF7CF78132CC0492F50E0E32FDB
:101B0000F0E0931718F4CA01AF0101C0CF0130E033
:101B1000D89EF001D99EF00D1124DF01A70FB11D51
:101B2000BD01A0E0B0E0481759070CF498CFFD01C3
:101B3000E60FF71FE00FF11FC0822130310519F4C5
:101B400001969D96F0CFC78623303105C9F7C68E22
:101B5000F7CF0E94B10783CF1093D2010093D10138
:101B600061E471E082EB92E00E94CA08E091D10149
:101B7000F091D20145AD50E060E070E02AE082EBE8
:101B800092E00E94F2086AE371E082EB92E00E9428
:101B9000CA087092E2016092E1018091E1019091A6
:101BA000E201029709F085C2809186019091870138
:101BB00080970CF075C28091D1019091D201209153
:101BC000CF01E22EF12C3091D001E32FF0E0C1558E
:101BD000DF4FF983E883CF5AD0404091CE01642F84
:101BE00070E0CF54DF4F79836883C15BD0407FE0E2
:101BF000279F900111245901ADE24A9FA00CB11C0E
:101C0000112420E030E043E0E416F1040CF0DAC1E6
:101C1000C155DF4F08811981CF5AD040A9014A0D23
:101C20005B1DFA01E65AFF4FC355DF4FF983E88386
:101C3000CD5AD040A70142505109CD54DF4F5983AE
:101C40004883C35BD0400F3011050CF0B5C1C355BC
:101C5000DF4FE881F981CD5AD040E00FF11FE80F46
:101C6000F91FCF54DF4F68817981C15BD0406A3161
:101C700071050CF09EC1DF01AA55B1094C91DB0141
:101C800012962D01413009F090C14081413029F078
:101C900068F1423009F089C129C0D69EF001D79E73
:101CA000F00D11244FE04E9D90014F9D300D1124F9
:101CB000E20FF31FE80FF91FE00FF11FA2E0A0836E
:101CC000D49CA001D59C500D1124240F351F820FE8
:101CD000931FFC01E00FF11FA0836093CE01E092FF
:101CE000CF010093D0016F5F7F4F36C0AB014250F0
:101CF0005109DF01A45BB109AC91A13031F008F4C6
:101D00006CC0A23009F051C168C0D69EF001D79EC8
:101D1000F00D1124AFE0AE9D9001AF9D300D112468
:101D2000E20FF31FE80FF91FE00FF11FA2E0A083FD
:101D3000D49EF001D59EF00D1124E20FF31FE80FA1
:101D4000F91FE00FF11FA0836093CE01E092CF0155
:101D50000093D00161507109072E000C880B990B7C
:101D60000E94751420E030E046E152E40E94B01475
:101D70000E94F511CD55DF4F79836883C35AD04057
:101D8000B801110F880B990B0E94751420E030E008
:101D900046E152E40E94B0140E94F511CB55DF4F8A
:101DA00079836883C55AD040C955DF4FF982E882EC
:101DB000C75AD040C555DF4F79826882CB5AD04090
:101DC000C755DF4F19821882C95AD040CF55DF4F0F
:101DD00019821882C15AD04000C1DF01DC974C91B2
:101DE000413029F0B8F1423009F0DFC033C0D69E4F
:101DF000F001D79EF00D11244FE04E9D90014F9DB4
:101E0000300D1124E20FF31F8E0F9F1FFC01E00F16
:101E1000F11F82E0808382836093CE01E092CF0144
:101E20000093D001072E000C880B990B0E947514AB
:101E300020E030E046E152E40E94B0140E94F51127
:101E4000CD55DF4F79836883C35AD040B8016F5FA7
:101E50007F4F4FC0DF01A857B1094C91413031F09D
:101E600008F468C0423009F0A0C064C0D69EA0014A
:101E7000D79E500D1124AFE0AE9DF001AF9DF00D47
:101E80001124E40FF51FE80FF91FE00FF11FB2E076
:101E9000B083CD54DF4FE881F981C35BD040AE9F62
:101EA0009001AF9F300D1124240F351F820F931F17
:101EB000FC01E00FF11FB0836093CE01E092CF01EF
:101EC0000093D001072E000C880B990B0E9475140B
:101ED00020E030E046E152E40E94B0140E94F51187
:101EE000CD55DF4F79836883C35AD040B801615024
:101EF0007109072E000C880B990B0E94751420E0C5
:101F000030E046E152E40E94B0140E94F511CB5536
:101F1000DF4F79836883C55AD040C955DF4FF982B6
:101F2000E882C75AD040C555DF4F99828882CB5A84
:101F3000D04046CF6093CE01E092CF010093D00114
:101F4000072E000C880B990B0E94751420E030E0DE
:101F500046E152E40E94B0140E94F511CD55DF4FC6
:101F600079836883C35AD040B801110F880B990B4D
:101F70000E94751420E030E046E152E40E94B01463
:101F80000E94F511CB55DF4F79836883C55AD04045
:101F9000C955DF4FF982E882C75AD040C555DF4F97
:101FA00019821882CB5AD0400BCFB201E65AFF4FAC
:101FB0005ECE0E5F1F4F47CEFFEFEF1AFF0A215F85
:101FC0003F4F21CE8CE0FE01EB56FF4FDE01AF55B7
:101FD000BF4F01900D928A95E1F7BE016F557F4F7B
:101FE0008AE791E00E949302E0917A01F0917B01EF
:101FF000008111814091CE0150E060E070E02AE064
:1020000082EB92E00E94F20860E571E082EB92E0E0
:102010000E94CA084091D00150E060E070E02AE0E0
:1020200082EB92E00E94F20860E571E082EB92E0C0
:102030000E94CA084091CF0150E060E070E02AE0C1
:1020400082EB92E00E94F20883E591E00E94DF08B3
:10205000D8011A968D919C911B970E943B0982E6AC
:1020600091E00E94DF08F801828193810E943B0980
:1020700089E691E00E94DF08D80114968D919C9129
:1020800015970E943B098CE691E00E94DF08F80159
:10209000868197810E943B098FE691E00E94DF08CC
:1020A0008091E1019091E20101969093E201809389
:1020B000E10180917901882309F4F3C00E94D903DA
:1020C0000091730110917401209175013091760196
:1020D00008531F4F2F4F3F4F061717072807390781
:1020E00008F0DFC01092790100917701109178011A
:1020F000D80118968D919C911997009719F0019726
:1021000051F185C0F80180819181892BF9F41093F8
:10211000CD010093CC018CE090E00E940A13FC01F9
:102120009182808213821282158214821782168213
:102130001186108643E050E05387428790937801E0
:102140008093770151E05093CB0161C091868086E6
:1021500082E090E036C0F8018081918161E00197D2
:1021600099F589E00E94330360E972E080E090E035
:102170000E94CA0568EE73E080E090E00E949F0331
:1021800060E972E081E090E00E94CA0568EE73E0C9
:1021900080E090E00E949F0360E972E082E090E0BE
:1021A0000E94CA05C8010E949F13E091CC01F091E2
:1021B000CD01F0937801E09377017182608281E034
:1021C00090E00E94500723C089E00E94330360E939
:1021D00072E080E090E00E94CA0560ED77E080E068
:1021E00090E00E949F0360E972E081E090E00E942D
:1021F000CA0560ED77E080E090E00E949F0360E90F
:1022000072E082E090E00E94CA050E94AB058091D6
:102210000401811146C0E0917701F091780160914D
:10222000CB01808591850196DC01AA0FBB1FAE0F03
:10223000BF1F0D911C91A091B002B091B1021296F6
:102240002D913C91139720173107A4F1A091B00272
:10225000B091B1024D915C9198012E5F3F4F2417D0
:1022600035073CF46091B0027091B10281E090E0DA
:1022700012C0A091B002B091B1024D915C91980151
:102280002250310942175307ACF46091B0027091AB
:10229000B10280E090E00E94CA0510937F02009393
:1022A0007E026AE070E080E090E00E949F030E945E
:1022B0004F0188CA662331F01092CB01F1E0F09310
:1022C0007901EFCF918780878230910531F4918633
:1022D000808641E040937901E4CF009731F0019787
:1022E00009F09FCF82E090E002C081E090E00E9480
:1022F000500791CF80914F03909150030C949F13FE
:10230000E2EBF2E01382128288EE93E0A0E0B0E00C
:1023100084839583A683B7832FE031E031832083C4
:1023200025EC30E03587248724EC30E0378726879A
:1023300020EC30E0318B208B21EC30E0338B228B92
:1023400022EC30E0358B248B26EC30E0378B268B6B
:10235000118E128E138E148EE6E5F3E01382128234
:1023600084839583A683B7838FE191E091838083F3
:10237000EFE4F3E01182108213821282158214823C
:1023800040E050E06CE371E0CF010C94A90897FBAA
:10239000072E16F4009407D077FD09D00E94DB11B8
:1023A00007FC05D03EF4909581959F4F0895709558
:1023B00061957F4F0895AA1BBB1B51E107C0AA1F5F
:1023C000BB1FA617B70710F0A61BB70B881F991FD6
:1023D0005A95A9F780959095BC01CD010895EE0F0F
:1023E000FF1F0590F491E02D09940E94FC11689460
:1023F000B1110C94681508950E944D1588F09F57EF
:1024000098F0B92F9927B751B0F0E1F0660F771F18
:10241000881F991F1AF0BA95C9F714C0B13091F00E
:102420000E946715B1E008950C946715672F782F07
:102430008827B85F39F0B93FCCF3869577956795D3
:10244000B395D9F73EF490958095709561957F4F3F
:102450008F4F9F4F0895A0E0B0E0E1E3F2E10C94CC
:102460009415EC01009721F4CB010E940A13B8C027
:10247000FC01E60FF71F9C0122503109E217F30718
:1024800008F4ACC0D9010D911C91119706171707DC
:10249000B0F00530110508F49FC0C80104978617F5
:1024A000970708F499C002501109061B170B0193F6
:1024B00011936D937C93CF010E949F138DC05B019C
:1024C000A01AB10A4C01800E911EA0916403B09134
:1024D000650340E050E0E12CF12C109709F44AC06C
:1024E000A815B905D1F56D907C901197630182E034
:1024F000C80ED11CCA14DB0480F1A3014A195B0980
:102500006A0182E0C80ED11C1296BC9012971396F5
:10251000AC91B5E0CB16D10440F0B282A3835183D5
:102520004083D9016D937C930AC00E5F1F4FC30196
:10253000800F911FF90191838083EB2DFA2FE11415
:10254000F10431F0D7011396FC93EE93129744C037
:10255000F0936503E09364033FC08D919C911197C4
:102560004817590708F4AC017D0112960D90BC91F3
:10257000A02DB3CF809162039091630388159905D4
:10258000E1F446175707C8F48091050190910601C0
:10259000009741F48DB79EB74091090150910A010F
:1025A000841B950BE817F907C8F4F0936303E093D5
:1025B0006203F901718360830FC0CB010E940A138B
:1025C0007C01009759F0A801BE010E94FA12CE01C9
:1025D0000E949F13C70104C0CE0102C080E090E0BA
:1025E000CDB7DEB7EEE00C94B01581E090E0F89442
:1025F0000C94C715FB01DC0102C001900D92415003
:102600005040D8F70895FB01DC0101900D920020A5
:10261000E1F70895CF93DF938230910510F482E0C3
:1026200090E0E0916403F091650320E030E0C0E0C9
:10263000D0E0309711F14081518148175907C0F01F
:102640004817590761F482819381209719F09B8381
:102650008A832BC0909365038093640326C0211561
:10266000310519F04217530718F49A01BE01DF0132
:10267000EF010280F381E02DDCCF2115310509F156
:10268000281B390B2430310590F412968D919C91C2
:1026900013976115710521F0FB019383828304C0B8
:1026A0009093650380936403FD01329644C0FD015D
:1026B000E20FF31F81939193225031092D933C93A4
:1026C0003AC02091620330916303232B41F420919F
:1026D0000701309108013093630320936203209136
:1026E0000501309106012115310541F42DB73EB7A2
:1026F0004091090150910A01241B350BE0916203BE
:10270000F0916303E217F307A0F42E1B3F0B281789
:10271000390778F0AC014E5F5F4F2417350748F05A
:102720004E0F5F1F50936303409362038193919315
:1027300002C0E0E0F0E0CF01DF91CF9108950F9368
:102740001F93CF93DF93009709F48CC0FC0132975D
:102750001382128200916403109165030115110523
:1027600081F420813181820F931F20916203309187
:1027700063032817390779F5F0936303E093620345
:1027800071C0D80140E050E0AE17BF0750F4129678
:102790002D913C911397AD012115310509F1D90116
:1027A000F3CF9D01DA013383228360817181860F2B
:1027B000971F8217930769F4EC0128813981260F4E
:1027C000371F2E5F3F4F318320838A819B81938304
:1027D0008283452B29F4F0936503E093640342C0A0
:1027E0001396FC93EE931297ED01499159919E0136
:1027F000240F351FE217F30771F480819181840F54
:10280000951F029611969C938E93828193811396C5
:102810009C938E931297E0E0F0E0D80112968D9190
:102820009C911397009719F0F8018C01F6CF8D91C8
:102830009C9198012E5F3F4F820F931F209162035E
:10284000309163032817390769F4309729F41092FF
:1028500065031092640302C0138212821093630313
:1028600000936203DF91CF911F910F9108951F9301
:10287000FC0199278827BC01E89411911032E9F3F3
:10288000193010F01E30C8F31B3251F01D3249F4DC
:10289000689406C00E945E14610F711D811D911D18
:1028A000119110531A30B0F33EF4909580957095C5
:1028B00061957F4F8F4F9F4F1F910895592F482F3C
:1028C000372F262F660F771F881F991F660F771FD8
:1028D000881F991F620F731F841F951F660F771F34
:1028E000881F991F0895E89409C097FB3EF49095BE
:1028F0008095709561957F4F8F4F9F4F9923A9F0D9
:10290000F92F96E9BB279395F69587957795679567
:10291000B795F111F8CFFAF4BB0F11F460FF1BC0AB
:102920006F5F7F4F8F4F9F4F16C0882311F096E93E
:1029300011C0772321F09EE8872F762F05C06623EC
:1029400071F096E8862F70E060E02AF09A95660FA5
:10295000771F881FDAF7880F9695879597F908955E
:102960000E94C3140C9434150E94261538F00E945E
:102970002D1520F0952311F00C941D150C942315A2
:1029800011240C9468150E94451570F3959FC1F3AE
:10299000950F50E0551F629FF001729FBB27F00D0D
:1029A000B11D639FAA27F00DB11DAA1F649F662762
:1029B000B00DA11D661F829F2227B00DA11D621FB1
:1029C000739FB00DA11D621F839FA00D611D221F6B
:1029D000749F3327A00D611D231F849F600D211D4F
:1029E000822F762F6A2F11249F5750409AF0F1F0D2
:1029F00088234AF0EE0FFF1FBB1F661F771F881F3B
:102A000091505040A9F79E3F510580F00C941D1540
:102A10000C9468155F3FE4F3983ED4F38695779560
:102A20006795B795F795E7959F5FC1F7FE2B880FE0
:102A3000911D9695879597F9089597F99F6780E876
:102A400070E060E008959FEF80EC089500240A9400
:102A50001616170618060906089500240A94121679
:102A60001306140605060895092E0394000C11F4AC
:102A7000882352F0BB0F40F4BF2B11F460FF04C059
:102A80006F5F7F4F8F4F9F4F089557FD9058440FB2
:102A9000551F59F05F3F71F04795880F97FB991FBD
:102AA00061F09F3F79F0879508951216130614067A
:102AB000551FF2CF4695F1DF08C016161706180607
:102AC000991FF1CF86957105610508940895E894E2
:102AD000BB2766277727CB0197F90895A1E21A2E25
:102AE000AA1BBB1BFD010DC0AA1FBB1FEE1FFF1FB2
:102AF000A217B307E407F50720F0A21BB30BE40B02
:102B0000F50B661F771F881F991F1A9469F7609548
:102B10007095809590959B01AC01BD01CF01089502
:102B20002F923F924F925F926F927F928F929F92DD
:102B3000AF92BF92CF92DF92EF92FF920F931F93CB
:102B4000CF93DF93CDB7DEB7CA1BDB0B0FB6F8947C
:102B5000DEBF0FBECDBF09942A88398848885F84BC
:102B60006E847D848C849B84AA84B984C884DF802D
:102B7000EE80FD800C811B81AA81B981CE0FD11D11
:102B80000FB6F894DEBF0FBECDBFED01089510E083
:102B9000C2E6D0E004C0FE010E94EF112196C336C8
:082BA000D107C9F7F894FFCF3B
:102BA800D001D0010100006603800000000000E6AB
:102BB800002507AF008D00A1002D01000000004195
:102BC8000211020A02070204020302564D4450563B
:102BD8005F317C315F564D4450560D0A0068656A76
:102BE80000436F6F726428312C312C31293A200050
:102BF8002C20002070726F6772657373706F696E36
:102C0800740020627269636B00207800207A0020CB
:022C1800790041
:00000001FF
