:100000000C9463000C9477050C9450050C948B00B1
:100010000C948B000C948B000C948B000C948B0034
:100020000C948B000C948B000C948B000C948B0024
:100030000C948B000C948B000C948B000C948B0014
:100040000C9406050C948B000C9401030C94DB02B9
:100050000C948B000C948B000C948B000C948B00F4
:100060000C949E050C948B000000000024002700D7
:100070002A0000000000250028002B0000000000DE
:1000800023002600290004040404040404040202DA
:100090000202020203030303030301020408102007
:1000A0004080010204081020010204081020000012
:1000B0000008000201000003040700000000000027
:1000C000000062105C1011241FBECFEFD8E0DEBF2D
:1000D000CDBF11E0A0E0B1E0ECE6F9E202C005908E
:1000E0000D92AA37B107D9F723E0AAE7B1E001C022
:1000F0001D92AB36B207E1F710E0C2E6D0E004C0D3
:100100002197FE010E94D110C136D107C9F70E9484
:1001100053090C94A9140C940000FC01918D828D5C
:10012000981761F0828DDF01A80FB11D5D968C914B
:10013000928D9F5F9F73928F90E008958FEF9FEF56
:100140000895FC01918D828D981731F0828DE80F12
:10015000F11D858D90E008958FEF9FEF0895FC01CC
:10016000918D228D892F90E0805C9F4F821B910999
:100170008F739927089587EB92E00E94AF0021E0EA
:10018000892B09F420E0822F0895FC01848DDF0182
:10019000A80FB11DA35ABF4F2C91848D90E00196FA
:1001A0008F739927848FA689B7892C93A089B189E9
:1001B0008C9180648C93938D848D981306C00288F3
:1001C000F389E02D80818F7D80830895EF92FF92E7
:1001D0000F931F93CF93DF93EC0181E0888F9B8D6A
:1001E0008C8D981305C0E889F989808185FD24C02C
:1001F000F62E0B8D10E00F5F1F4F0F731127E02EAF
:100200008C8DE8120CC00FB607FCFACFE889F9898B
:10021000808185FFF5CFCE010E94C500F1CF8B8D87
:10022000FE01E80FF11DE35AFF4FF0820B8FEA89C0
:10023000FB898081806207C0EE89FF896083E8893D
:10024000F98980818064808381E090E0DF91CF91A3
:100250001F910F91FF90EF900895CF93DF93EC01E2
:10026000888D8823C9F0EA89FB89808185FD05C0D6
:10027000A889B9898C9186FD0FC00FB607FCF5CF10
:10028000808185FFF2CFA889B9898C9185FFEDCF58
:10029000CE010E94C500E7CFDF91CF91089580E0A5
:1002A00090E0892B29F00E94BB0081110C94000082
:1002B0000895833081F028F4813099F08230A1F0E4
:1002C00008958730A9F08830B9F08430D1F4809156
:1002D00080008F7D03C0809180008F7780938000A5
:1002E000089584B58F7702C084B58F7D84BD08954D
:1002F0008091B0008F7703C08091B0008F7D809394
:10030000B0000895CF93DF93282F30E0F901E25534
:10031000FF4F8491F901E656FF4FD491F901EA5756
:10032000FF4FC491CC2391F081110E945901EC2F11
:10033000F0E0EE0FFF1FE458FF4FA591B491EC9150
:10034000ED2381E090E021F480E002C080E090E0C5
:10035000DF91CF9108953FB7F89480913502909145
:100360003602A0913702B091380226B5A89B05C08D
:100370002F3F19F00196A11DB11D3FBFBA2FA92F24
:10038000982F8827820F911DA11DB11DBC01CD01A1
:1003900042E0660F771F881F991F4A95D1F708958D
:1003A000089585ED8093BC008091BC0084FDFCCF56
:1003B00010925F02089540910B02262F30E0240F27
:1003C000311D21323105DCF420915F022430C9F463
:1003D000FC0180E090E0861758F430910B022191E7
:1003E000DC01A751BE4FA30FB11D2C930196F3CF93
:1003F00080910B02680F60930B0280E0089581E00A
:10040000089582E0089508958FEF9FEF08958FEF8C
:100410009FEF08958091E80190E091958195910971
:100420000895CF92DF92EF92FF920F931F93CF9395
:10043000DF937C01262F972F8A01809182028823E7
:1004400091F0C62FD72F6E01C40ED51ECC15DD0539
:1004500071F06991D701ED91FC910190F081E02D4F
:10046000C7010995F3CF642F822F0E94DB01C801D9
:10047000DF91CF911F910F91FF90EF90DF90CF9080
:100480000895CF93DF931F92CDB7DEB76983209194
:1004900082022223D1F020918002203240F021E01C
:1004A00030E0FC013383228380E090E015C080912E
:1004B0008102E82FF0E0E05AFD4F998190838F5F31
:1004C000809381028093800205C061E0CE01019695
:1004D0000E94DB0181E090E00F90DF91CF910895C1
:1004E000DC01ED91FC918081918108950E94D711EA
:1004F000CF93DF93FC01A081B181CD91DC91119765
:1005000012968D919C9113979183808324853585D4
:100510002150310935872487CD010E948112CE01F7
:10052000DF91CF910895CF92DF92EF92FF920F93D8
:100530001F93CF93DF9300D0CDB7DEB76C0184E07B
:1005400090E069837A830E94EC118C01D6011496A5
:10055000ED90FC901597C7010E94EC11F801918372
:10056000808313821282A70169817A810E94DC1143
:10057000D6018D919C911197892B19F40D931C93A1
:1005800007C0D6011296ED91FC9113971383028355
:10059000F601138302838485958501969587848768
:1005A0000F900F90DF91CF911F910F91FF90EF90DF
:1005B000DF90CF9008951F920F920FB60F921124E3
:1005C0002F933F934F935F936F937F938F939F935B
:1005D000AF93BF93EF93FF9387EB92E00E94C50028
:1005E000FF91EF91BF91AF919F918F917F916F910B
:1005F0005F914F913F912F910F900FBE0F901F90E1
:1006000018951F920F920FB60F9211242F938F936C
:100610009F93EF93FF93E091C702F091C80280810E
:10062000E091CD02F091CE0282FD12C090818091C6
:10063000D0028F5F8F732091D102821751F0E09129
:10064000D002F0E0E954FD4F958F8093D00201C0B5
:100650008081FF91EF919F918F912F910F900FBE0D
:100660000F901F9018951F93CF93DF93282F30E0A2
:10067000F901E255FF4F8491F901E656FF4FD491FD
:10068000F901EA57FF4FC491CC23C9F0162F81110D
:100690000E945901EC2FF0E0EE0FFF1FEE58FF4FC4
:1006A000A591B4918FB7F894111105C09C91ED2FCD
:1006B000E095E92302C0EC91ED2BEC938FBFDF9125
:1006C000CF911F9108950F931F93CF93DF938C01C8
:1006D000EB018130910581F082309105E9F0892BA1
:1006E00039F51B861A868E819F8161E00E94330353
:1006F0008885998560E00AC09B878A878E819F8163
:1007000060E00E9433038885998561E0DF91CF9195
:100710001F910F910C9433038E819F8160E00E94A2
:1007200033038885998560E00E9433031B870A871D
:10073000DF91CF911F910F910895CF93DF9390E0B8
:10074000FC01E656FF4F2491FC01EA57FF4F8491CC
:10075000882361F190E0880F991FFC01E859FF4F51
:10076000C591D491FC01EE58FF4FA591B491611150
:1007700009C09FB7F8948881209582238883EC91E3
:100780002E230BC0623061F49FB7F8943881822F1A
:10079000809583238883EC912E2B2C939FBF06C0DA
:1007A0008FB7F894E8812E2B28838FBFDF91CF91EC
:1007B00008958F929F92AF92BF92CF92DF92EF9265
:1007C000FF926B017C010E94AB014B015C01C114E3
:1007D000D104E104F104F1F00E94AB01DC01CB0192
:1007E00088199909AA09BB09883E9340A105B1055A
:1007F00070F321E0C21AD108E108F10888EE880EF2
:1008000083E0981EA11CB11CC114D104E104F104C1
:1008100019F7DDCFFF90EF90DF90CF90BF90AF90B2
:100820009F908F9008952FB7F89460913102709146
:10083000320280913302909134022FBF0895CF93FA
:10084000DF930E9413046093E4017093E5018093A9
:10085000E6019093E70180917C01882309F473C03D
:10086000E091B502F091B60282859385009721F060
:10087000019709F444C067C040815181C0917A0159
:10088000D0917B01A885B9851196AA0FBB1FAC0F2B
:10089000BD1F8D919C919C01225031094217530735
:1008A00084F08FEF90E00E94F6076091B50270919E
:1008B000B60282E090E00E94630381E080937D01B4
:1008C00042C0408151819C0128523109421753078F
:1008D0004CF0E55AF24019F488E790E00CC08EE63F
:1008E00090E009C0208131818C529140281739074E
:1008F00054F18CE890E0DF91CF910C94F6074081A1
:100900005181C0917A01D0917B01A885B98511965A
:10091000AA0FBB1FAC0FBD1F8D919C919C012E5F38
:100920003F4F241735070CF0BCCF408151812A5D21
:100930003F4F241735076CF620813181845D9E4F2F
:1009400082179307B4F6DF91CF91089583E00E9458
:100950008201E091B502F091B6022685378528170D
:10096000390719F197878687009719F0019771F079
:100970001AC084859585892B21F480819181019607
:1009800003C08081918101979183808384859585BF
:10099000892B21F480819181019703C0808191810D
:1009A0000196918380830C941F04089582E00E9435
:1009B0008201E091B502F091B602248535852817B1
:1009C000390719F195878487009719F0019771F01D
:1009D0001AC086859785892B21F4808191810197A2
:1009E00003C080819181019691838083868597855C
:1009F000892B21F480819181019603C080819181AE
:100A00000197918380830C941F0408951F920F9285
:100A10000FB60F9211242F933F938F939F93AF9311
:100A2000BF938091310290913202A0913302B09134
:100A300034023091300223E0230F2D3720F4019649
:100A4000A11DB11D05C026E8230F0296A11DB11DF1
:100A5000209330028093310290933202A0933302AC
:100A6000B09334028091350290913602A091370202
:100A7000B09138020196A11DB11D8093350290936B
:100A80003602A0933702B0933802BF91AF919F9185
:100A90008F913F912F910F900FBE0F901F9018953F
:100AA0001F920F920FB60F9211242F933F934F93E3
:100AB0005F936F937F938F939F93AF93BF93EF93C6
:100AC000FF93E0910201F09103010995FF91EF91ED
:100AD000BF91AF919F918F917F916F915F914F9156
:100AE0003F912F910F900FBE0F901F9018951F925E
:100AF0000F920FB60F9211242F933F934F935F9352
:100B00006F937F938F939F93AF93BF93EF93FF93D5
:100B1000E0910001F09101010995FF91EF91BF91E2
:100B2000AF919F918F917F916F915F914F913F9185
:100B30002F910F900FBE0F901F9018951F920F923C
:100B40000FB60F9211242F933F934F935F936F93A0
:100B50007F938F939F93AF93BF93EF93FF93809176
:100B6000B900887F803609F49CC068F5883209F4A2
:100B70005BC090F4803109F454C038F4882309F440
:100B8000F6C0883009F44DC0F6C0883109F44CC075
:100B9000803209F45DC0EFC0803409F468C048F4C5
:100BA000803309F455C0883309F0E5C080935D02B5
:100BB000D8C0803509F44FC0883509F45DC0883449
:100BC00009F0D9C0D6C0883909F4C7C0A8F488375D
:100BD00009F467C038F4883609F463C0803709F433
:100BE00060C0C9C0883809F4B8C0803909F45FC052
:100BF000803809F0C0C05BC0803B09F486C038F47F
:100C0000803A09F466C0883A09F47FC0B4C0803CD9
:100C100009F4A7C0883C09F4A4C0883B09F48AC041
:100C2000AAC080913A0210C090915C0280915B0250
:100C3000981770F5E0915C0281E08E0F80935C0262
:100C4000F0E0E55CFD4F80818093BB0085EC86C0C1
:100C500080935D028EC0E0915C0281E08E0F8093F4
:100C60005C028091BB00F0E0E55CFD4F80839091D9
:100C70005C0280915B026EC0E0915C0281E08E0FAD
:100C800080935C028091BB00F0E0E55CFD4F8083C7
:100C900080915E0281116DC081E08093390284EA07
:100CA00061C083E080935F0210922F02CFCF8091CA
:100CB0002F02803208F051C0E0912F0281E08E0FA8
:100CC00080932F028091BB00F0E0E15FFD4F8083B5
:100CD000BDCF85EC8093BC0010925F0280912F0203
:100CE000803230F4E0912F02F0E0E15FFD4F10829E
:100CF00060912F0270E0E0910D02F0910E028FE002
:100D000092E0099510922F0236C084E080935F0232
:100D100010920C0210920B02E0910902F0910A026B
:100D2000099580910B02811105C081E080930B022F
:100D30001092E901E0910C0281E08E0F80930C0289
:100D4000F0E0E751FE4F80818093BB0090910C0250
:100D500080910B02981708F479CF85E88093BC0046
:100D60000AC085EC8093BC0010925F0204C0109210
:100D70005D020E94D101FF91EF91BF91AF919F91D0
:100D80008F917F916F915F914F913F912F910F9034
:100D90000FBE0F901F901895CF92DF92EF92FF92A7
:100DA0000E9430076091B5027091B60281E090E038
:100DB0000E9463030E9413046093E4017093E501B1
:100DC0008093E6019093E7016B017C0128ECC20E51
:100DD000D11CE11CF11C0E941304C616D706E806BC
:100DE000F906C8F76091B5027091B60282E090E012
:100DF0000E946303E091B502F091B6021182108265
:100E0000FF90EF90DF90CF900895CF92DF92EF9216
:100E1000FF920F931F93CF93DF936C017A018B01A5
:100E2000C0E0D0E0CE15DF0589F0D8016D918D01CD
:100E3000D601ED91FC910190F081E02DC60109955C
:100E4000892B11F47E0102C02196ECCFC701DF91FE
:100E5000CF911F910F91FF90EF90DF90CF90089569
:100E600081309105A1F08230910501F1892B81F546
:100E700060E08CE00E94330361E08BE00E9433036A
:100E800060E08AE00E94330385E992E01DC061E0E2
:100E90008CE00E94330360E08BE00E94330360E04B
:100EA0008AE00E94330385E892E00EC060E08CE0A7
:100EB0000E94330360E08BE00E94330360E08AE02D
:100EC0000E94330385EA92E09093B6028093B502C4
:100ED0000895E7EBF2E0A089B18982E08C93A485C4
:100EE000B5851C92A685B7858FEC8C93108EA4894E
:100EF000B58986E08C93A289B3898C9180618C93AB
:100F0000A289B3898C9188608C93A289B3898C91D2
:100F100080688C930288F389E02D80818F7D8083A7
:100F2000089581E08093820280E280935A031092B8
:100F300081021092800262E18BE593E00E944102FF
:100F400061E08BE593E00E94410280918002813252
:100F500008F045C090915F029111FCCF92E0909310
:100F60005F0291E090935E029FEF90935D0210927A
:100F70005C0280935B02A0E6B2E02BE332E0F90171
:100F80009E2F921B981718F49D919193F9CF109270
:100F90003A0280913A02806480933A028091390249
:100FA000813061F41092390280913A028093BB0043
:100FB0008091BC0083FDF8CF85EC01C085EE809365
:100FC000BC0080915F028230E1F380915D028F3F2F
:100FD00031F080915D02803211F080915D021092BB
:100FE000810210928002109282020895CF93DF93C3
:100FF000EC0161E089E00E949D03209711F460E01C
:1010000004C0CF3FD10531F461E089E0DF91CF9199
:101010000C943303E7EBF0E0E491E330F9F048F4AB
:10102000E130B9F0E230A1F584B5806284BDC8BD7D
:1010300034C0E730E9F0E83019F1E43049F5809147
:101040008000806280938000D0938B00C0938A00E0
:1010500024C084B5806884BDC7BD1FC08091800056
:10106000806880938000D0938900C093880015C069
:101070008091B00080688093B000C093B3000DC031
:101080008091B00080628093B000C093B40005C02E
:10109000C038D1050CF0B8CFB2CFDF91CF91089511
:1010A0000F931F93CF93DF93EC0188819981009771
:1010B00029F02A813B812617370788F48B016F5F5F
:1010C0007F4F0E940D11009761F0998388831B83E5
:1010D0000A832C813D81232B11F4FC01108281E0D5
:1010E00001C080E0DF91CF911F910F910895CF93C0
:1010F000DF93EC0188819981009711F00E948112A1
:10110000198218821D821C821B821A82DF91CF9164
:101110000895EF92FF920F931F93CF93DF93EC010B
:101120007B018A01BA010E945008811104C0CE01DE
:101130000E94770807C01D830C83B70188819981BD
:101140000E94E511CE01DF91CF911F910F91FF9089
:10115000EF9008956115710579F0FB010190002071
:10116000E9F73197AF01461B570BDC01ED91FC917C
:101170000280F381E02D099480E090E00895CF9300
:10118000DF93BC0187EB92E00E94AA08EC016AE3BE
:1011900071E087EB92E00E94AA088C0F9D1FDF91FF
:1011A000CF9108954F925F926F927F92EF92FF924C
:1011B0000F931F93CF93DF93CDB7DEB7A1970FB6F1
:1011C000F894DEBF0FBECDBF7C01FA01CB0119A29E
:1011D000223008F42AE08E010F5D1F4F422E512C61
:1011E000612C712CBF01A30192010E945014F901DE
:1011F000CA01015011096A3014F4605D01C0695CD4
:10120000D8016C93232B242B252B61F7B801C70140
:101210000E94AA08A1960FB6F894DEBF0FBECDBFFC
:10122000DF91CF911F910F91FF90EF907F906F9082
:101230005F904F900895CF92DF92EF92FF92CF93FD
:10124000DF936B017C01E091B702F091B80201904D
:10125000F081E02D6DE287EB92E00995EC014427E7
:101260005527BA014C195D096E097F092AE087EB01
:1012700092E00E94D2088C0F9D1FDF91CF91FF90CA
:10128000EF90DF90CF900895AC01990F660B770B2C
:1012900077FF04C0CB01BA010C941B092AE087EB4D
:1012A00092E00C94D208CF93DF93CDB7DEB7C25B48
:1012B000D1090FB6F894DEBF0FBECDBF789484B5C8
:1012C000826084BD84B5816084BD85B5826085BD42
:1012D00085B5816085BD80916E00816080936E00D0
:1012E00010928100809181008260809381008091C2
:1012F0008100816080938100809180008160809373
:1013000080008091B10084608093B1008091B00032
:1013100081608093B00080917A00846080937A002D
:1013200080917A00826080937A0080917A00816057
:1013300080937A0080917A00806880937A0010927E
:10134000C1001092B1011092B2011092B30110923B
:10135000B40110927F0110928001109281011092CD
:10136000820160ED77E080E090E00E94D90387EB96
:1013700092E09093B0018093AF010E9469070E94B0
:10138000130400917F01109180012091810130911F
:101390008201DC01CB01801B910BA20BB30BC29726
:1013A000A105B10538F463E070E080E090E00E94B0
:1013B000D903E5CF0E94130460937F0170938001ED
:1013C00080938101909382016BE271E08091AF0183
:1013D0009091B0010E94AA086AE070E080E090E07D
:1013E0000E94D90311E01093830161E08AE00E941A
:1013F0009D0361E08BE00E949D0361E08CE00E9410
:101400009D0361E084E00E949D0361E085E00E940D
:101410009D0361E086E00E949D0361E087E00E94F9
:101420009D0361E088E00E949D0361E08DE00E94E1
:101430009D0361E089E00E949D0362E082E00E94DA
:101440009D0362E083E00E949D0386ED94E090930B
:10145000010180930001809169008C7F81608093FD
:101460006900E89A86EA94E0909303018093020170
:1014700080916900837F846080936900E99A0E946B
:1014800069071092C5011092C4011092C701109211
:10149000C6018CE090E09093C9018093C80163E994
:1014A00072E07093CB016093CA0128E732E0309379
:1014B000CD012093CC0180E792E09093CF018093FF
:1014C000CE011092D1011092D0011092C101109260
:1014D000C2011092C3011092D5011092D401109252
:1014E000D7011092D60145E050E05093D9014093C6
:1014F000D8017093DB016093DA013093DD01209312
:10150000DC019093DF018093DE011092E1011092E3
:10151000E0011EAA1DAA2AE134E038AF2FAB1AAEB3
:1015200019AE88E090E09CAF8BAF8DE090E09EAF6D
:101530008DAF82E090E021969FAF8EAF21972396EA
:101540001FAE1EAE239725961FAE1EAE259727967B
:101550001FAE1EAE279729963FAF2EAF29972B9629
:101560001FAE1EAE2B9766E070E02D967FAF6EAF7C
:101570002D9767E070E02F967FAF6EAF2F97619643
:101580009FAF8EAF619763961FAE1EAE6397659651
:101590001FAE1EAE659767961FAE1EAE6797699623
:1015A0003FAF2EAF69976B961FAE1EAE6B9724E0D0
:1015B00030E06D963FAF2EAF6D976F965FAF4EAF39
:1015C0006F97A1969FAF8EAFA197A3961FAE1EAE49
:1015D000A397A5961FAE1EAEA597CE018B599F4F20
:1015E00020E1FE01EB5AFF4FDC0101900D922A959C
:1015F000E1F720E1FE01EB5BFF4FDE01AB58BF4F8F
:1016000001900D922A95E1F720E1FE01F596DE01A9
:10161000AB57BF4F01900D922A95E1F71A821982BC
:1016200020E1FC01DE01139601900D922A95E1F76D
:1016300020E1FE01EB58FF4FDE01539601900D9221
:101640002A95E1F720E1FE01EB57FF4FDE0193966B
:1016500001900D922A95E1F79CAB8BAB84E3FE01E0
:101660003196A3E8B2E001900D928A95E1F77E01F0
:1016700025E9E20EF11C8BEB90E0D70113969C93C9
:101680008E93129715969C938E93149717961C928F
:101690001E9216971B961C921E921A9719961C92D0
:1016A0001E9218971D921C92B70184EC91E00E9443
:1016B000930282EC91E0F701938382839583848384
:1016C0001782168213861286118610861182108266
:1016D000B70184EC91E00E94930281E090E00E94C7
:1016E000300780917A0190917B010E948112809154
:1016F000D0019091D101892B19F41093040102C0FB
:101700001092040184EC91E00E94780290937B0196
:1017100080937A0184EB90E00E94F60780E090E0ED
:101720000E94CC0684EB90E00E94F60782E090E0F5
:101730000E94CC0684EB90E00E94F60781E090E0E6
:101740000E94CC0611E010937C018FEF90E00E9484
:10175000F60710937D0195E0492E512C2DE2D22EF3
:101760003FE0C32E8091E2019091E301892B09F0C3
:10177000DCC087EB92E00E94AF00892B09F49CC08B
:1017800087EB92E00E94A1008B3609F468C087EBDA
:1017900092E00E948D00182FD70111961C921E9284
:1017A00013961C921E92129715961C921E921497D5
:1017B00060915403709155036115710541F040919A
:1017C000580350915903C7010E94890803C0C701FB
:1017D0000E947708CF55DF4F1883C15AD040CE55AD
:1017E000DF4F1882C25AD040F701048115810F5F84
:1017F0001F4FB801C7010E945008882399F0D701F4
:101800002D913C91119714968D919C911597BE0145
:101810006F557F4F820F931F0E94E511F7011583CB
:10182000048303C0C7010E947708D7016D917C91A2
:1018300011976115710549F014964D915C911597BA
:1018400084E593E00E94890804C084E593E00E9447
:101850007708F701808191810E9481122DC087EB6A
:1018600092E00E948D008091BF019091C0019C0187
:101870002F5F3F4F3093C0012093BF01B2010E9400
:10188000A9108C018091540390915503009719F091
:101890000E94191301C060E0000F111FF801EB5402
:1018A000FE4F70E07183608340E050E06CE371E0D4
:1018B00084E593E00E9489082091BF013091C00126
:1018C000C901B2010E94A910892BF9F4232BE9F078
:1018D00085E090E00E94EC11FC018091B5018083CD
:1018E0008091B70181838091B90182838091BB018E
:1018F00083838091BD018483BF0184ED91E00E94C8
:1019000093021092C0011092BF0187EB92E00E94F7
:10191000A100853651F487EB92E00E948D0081E0B2
:1019200090E09093E3018093E2018091E201909135
:10193000E301019709F004C186EA92E00E94EC11EC
:101940008C0120E030E080E090E040E050E0BC011D
:10195000620F731FFA01E60FF71FE00FF11F1082ED
:101960004F5F5F4F4F305105A9F70F968D329105AC
:1019700061F7235D3F4F233AF2E03F0721F7809163
:10198000670390916803009711F48BE693E0A70139
:10199000481B590B052E000C660B770B77FF05C013
:1019A000CB01BA010E941B0905C02AE087EB92E037
:1019B0000E94D2086AE371E087EB92E00E94AA08D5
:1019C000F801ED55FD4F108231961082319610824C
:1019D0006DE371E087EB92E00E94AA08D801DD96E2
:1019E0004C9150E060E070E02AE087EB92E00E94CA
:1019F000D2086AE371E087EB92E00E94AA08BB2458
:101A0000B3948091E0019091E101892B09F475C0B4
:101A100084ED91E00E947802FC0124818FEF820F17
:101A2000833008F067C090819F3008F063C07181F7
:101A30007F3008F05FC032813F3008F05BC08381A7
:101A40008F3008F057C0931328C0781709F452C09C
:101A5000E72FF0E0A82FB0E0781718F4AF01BD0130
:101A600002C0AD01BF0130E0BDE29B9FC001112467
:101A70006417750734F2FA01E80FF91FE00FF11F40
:101A8000B0822130310519F44F5F5F4FF1CFB78637
:101A900023303105C9F7B68EF7CF78132BC0492F05
:101AA00050E0E32FF0E0931718F4CA01AF0101C032
:101AB000CF0130E0D89ED001D99EB00D1124A70FE0
:101AC000B11D60E070E0481759070CF49ACFFB0194
:101AD000EA0FFB1FE00FF11FB0822130310521F426
:101AE0000196635D7F4FEFCFB78623303105C1F795
:101AF000B68EF6CF0E94910784CF1093D301009346
:101B0000D2016DE371E087EB92E00E94AA08E091B8
:101B1000D201F091D30145AD50E060E070E02AE0E1
:101B200087EB92E00E94D2086AE371E087EB92E0D3
:101B30000E94AA0882E090E09093E3018093E20182
:101B40008091E2019091E301029709F0B2C2809185
:101B5000D0019091D101803291050CF0AAC20E946F
:101B600044098CE491E00E94BF088091D2019091D9
:101B7000D3012091C201A22EB12C3091C301E32FD9
:101B8000F0E0C155DF4FF983E883CF5AD040409150
:101B9000C101642F70E0CF54DF4F79836883C15B4C
:101BA000D0407FE0279F90011124D901EDE24E9FA4
:101BB000A00DB11D1124C355DF4FB983A883CD5AA1
:101BC000D04040E050E0E3E0AE16B1040CF0C3C1F9
:101BD000C155DF4F08811981CF5AD040C355DF4F1F
:101BE00028803980CD5AD040240E351EFAE52F0EBC
:101BF000311C350122E0621A71080F3011050CF01A
:101C0000A4C1F101E00FF11FE80FF91FCF54DF4F1E
:101C100068817981C15BD0406F3071050CF092C151
:101C2000DF01AA55B1092C91DB0112964D0121303B
:101C300009F084C12081213029F060F1223009F0BF
:101C40007DC128C0D69EF001D79EF00D1124CA9CFC
:101C50009001CB9C300D1124E20FF31FE80FF91F08
:101C6000E00FF11FA2E0A083D89CA001D99C500DE9
:101C70001124240F351F820F931FFC01E00FF11F69
:101C8000A0836093C101A092C2010093C3016F5F62
:101C90007F4F35C09B0122503109DF01A45BB109A0
:101CA000AC91A13031F008F46DC0A23009F046C10A
:101CB00069C0D69EF001D79EF00D1124CA9CA001E8
:101CC000CB9C500D1124E40FF51FE80FF91FE00F16
:101CD000F11FA2E0A083D29EF001D39EF00D11244B
:101CE000E40FF51FE80FF91FE00FF11FA0836093C9
:101CF000C101A092C2010093C30161507109072E76
:101D0000000C880B990B0E94571320E030E046E14D
:101D100052E40E9492130E94D710CD55DF4F798371
:101D20006883C35AD040B801110F880B990B0E94E9
:101D3000571320E030E046E152E40E9492130E94E3
:101D4000D710CB55DF4F79836883C55AD040C9552A
:101D5000DF4FB982A882C75AD04082E090E0C555D3
:101D6000DF4F99838883CB5AD040C755DF4F198204
:101D70001882C95AD040CF55DF4F19821882C15AF4
:101D8000D040F2C0DF01DC972C91213029F0B0F176
:101D9000223009F0D3C032C0D69EF001D79EF00D9C
:101DA0001124CA9C9001CB9C300D1124E20FF31F2B
:101DB0008E0F9F1FFC01E00FF11F82E08083828362
:101DC0006093C101A092C2010093C301072E000CD1
:101DD000880B990B0E94571320E030E046E152E453
:101DE0000E9492130E94D710CD55DF4F79836883EC
:101DF000C35AD040B8016F5F7F4F48C0DF01A8577A
:101E0000B1092C91213031F008F45DC0223009F085
:101E100095C059C0D69EA001D79E500D1124CA9CD2
:101E2000F001CB9CF00D1124E40FF51FE80FF91F12
:101E3000E00FF11FA2E0A083C69C9001C79C300D6B
:101E40001124240F351F820F931FFC01E00FF11F97
:101E5000A0836093C101A092C2010093C301072E29
:101E6000000C880B990B0E94571320E030E046E1EC
:101E700052E40E9492130E94D710CD55DF4F798310
:101E80006883C35AD040B80161507109072E000C15
:101E9000880B990B0E94571320E030E046E152E492
:101EA0000E9492130E94D710CB55DF4F798368832D
:101EB000C55AD040C955DF4FB982A882C75AD04011
:101EC00081E090E04CCF6093C101A092C2010093E9
:101ED000C301072E000C880B990B0E94571320E0BA
:101EE00030E046E152E40E9492130E94D710CD5593
:101EF000DF4F79836883C35AD040B801110F880B34
:101F0000990B0E94571320E030E046E152E40E9412
:101F100092130E94D710CB55DF4F79836883C55A3F
:101F2000D040C955DF4FB982A882C75AD040C555A5
:101F3000DF4F19821882CB5AD04017CFB401E65A2E
:101F4000FF4F6ACE0E5F1F4F58CEBFEFAB1ABB0AD2
:101F5000415F5F4F38CE8CE0F701DE01AF55BF4FD8
:101F600001900D928A95E1F7BE016F557F4F84EC89
:101F700091E00E949302E091C401F091C5010081BB
:101F800011814091C10150E060E070E02AE087EBF0
:101F900092E00E94D20868E571E087EB92E00E942F
:101FA000AA084091C30150E060E070E02AE087EBAE
:101FB00092E00E94D20868E571E087EB92E00E940F
:101FC000AA084091C20150E060E070E02AE087EB8F
:101FD00092E00E94D2088BE591E00E94BF08D801F0
:101FE0001A968D919C911B970E9444098AE691E074
:101FF0000E94BF08F801828193810E94440981E711
:1020000091E00E94BF08D80114968D919C9115977C
:102010000E94440984E791E00E94BF08F80186818C
:1020200097810E94440987E791E00E94BF0800E081
:1020300010E08CE391E00E94BF08A12CB12CD09E4F
:102040003001D19E700C11248CE391E00E94BF08F6
:10205000812C912C8091D2019091D301C89CF001E8
:10206000C99CF00D1124E60DF71DE80FF91FEA0DCC
:10207000FB1D408150E060E070E02AE087EB92E0D9
:102080000E94D208FFEF8F1A9F0A23E08216910464
:1020900009F74FEFA41AB40A53E0A516B104A1F64C
:1020A0000F5F1F4F0330110521F684EC91E00E9471
:1020B00078020E944F0156CB8091540390915503B2
:1020C0000C948112E7EBF2E01382128288EE93E027
:1020D000A0E0B0E084839583A683B7832FE031E04E
:1020E0003183208325EC30E03587248724EC30E0F1
:1020F0003787268720EC30E0318B208B21EC30E0D5
:10210000338B228B22EC30E0358B248B26EC30E0B5
:10211000378B268B118E128E138E148EEBE5F3E027
:102120001382128284839583A683B7838FE191E023
:1021300091838083E4E5F3E011821082138212829E
:102140001582148240E050E06CE371E0CF010C9402
:10215000890897FB072E16F4009407D077FD09D065
:102160000E94BD1007FC05D03EF4909581959F4FCD
:102170000895709561957F4F0895AA1BBB1B51E18F
:1021800007C0AA1FBB1FA617B70710F0A61BB70BE7
:10219000881F991F5A95A9F780959095BC01CD018C
:1021A0000895EE0FFF1F0590F491E02D09940E9411
:1021B000DE106894B1110C944A1408950E942F14F3
:1021C00088F09F5798F0B92F9927B751B0F0E1F0F8
:1021D000660F771F881F991F1AF0BA95C9F714C0A8
:1021E000B13091F00E944914B1E008950C94491463
:1021F000672F782F8827B85F39F0B93FCCF38695E1
:1022000077956795B395D9F73EF49095809570953D
:1022100061957F4F8F4F9F4F0895A0E0B0E0E3E1BD
:10222000F1E10C947614EC01009721F4CB010E94AB
:10223000EC11B8C0FC01E60FF71F9C0122503109D8
:10224000E217F30708F4ACC0D9010D911C91119766
:1022500006171707B0F00530110508F49FC0C80134
:1022600004978617970708F499C002501109061BB6
:10227000170B019311936D937C93CF010E948112F0
:102280008DC05B01A01AB10A4C01800E911EA09175
:102290006903B0916A0340E050E0E12CF12C109703
:1022A00009F44AC0A815B905D1F56D907C90119735
:1022B000630182E0C80ED11CCA14DB0480F1A301C3
:1022C0004A195B096A0182E0C80ED11C1296BC90C3
:1022D00012971396AC91B5E0CB16D10440F0B282C0
:1022E000A38351834083D9016D937C930AC00E5F11
:1022F0001F4FC301800F911FF90191838083EB2D44
:10230000FA2FE114F10431F0D7011396FC93EE9308
:10231000129744C0F0936A03E09369033FC08D9124
:102320009C9111974817590708F4AC017D0112964A
:102330000D90BC91A02DB3CF80916703909168035D
:1023400088159905E1F446175707C8F480910501EF
:1023500090910601009741F48DB79EB74091090115
:1023600050910A01841B950BE817F907C8F4F09304
:102370006803E0936703F901718360830FC0CB01A9
:102380000E94EC117C01009759F0A801BE010E9447
:10239000DC11CE010E948112C70104C0CE0102C02F
:1023A00080E090E0CDB7DEB7EEE00C94921481E0CF
:1023B00090E0F8940C94A914FB01DC0102C0019098
:1023C0000D9241505040D8F70895FB01DC01019077
:1023D0000D920020E1F70895CF93DF9382309105AD
:1023E00010F482E090E0E0916903F0916A0320E04C
:1023F00030E0C0E0D0E0309711F1408151814817C2
:102400005907C0F04817590761F4828193812097DA
:1024100019F09B838A832BC090936A03809369038E
:1024200026C02115310519F04217530718F49A01F7
:10243000BE01DF01EF010280F381E02DDCCF211529
:10244000310509F1281B390B2430310590F412961F
:102450008D919C9113976115710521F0FB01938378
:10246000828304C090936A0380936903FD013296CE
:1024700044C0FD01E20FF31F819391932250310973
:102480002D933C933AC02091670330916803232B2E
:1024900041F42091070130910801309368032093A3
:1024A000670320910501309106012115310541F4A2
:1024B0002DB73EB74091090150910A01241B350BFD
:1024C000E0916703F0916803E217F307A0F42E1B75
:1024D0003F0B2817390778F0AC014E5F5F4F241788
:1024E000350748F04E0F5F1F509368034093670312
:1024F0008193919302C0E0E0F0E0CF01DF91CF91B2
:1025000008950F931F93CF93DF93009709F48CC026
:10251000FC013297138212820091690310916A03C1
:102520000115110581F420813181820F931F2091C3
:102530006703309168032817390779F5F09368032A
:10254000E093670371C0D80140E050E0AE17BF07C9
:1025500050F412962D913C911397AD012115310540
:1025600009F1D901F3CF9D01DA0133832283608120
:102570007181860F971F8217930769F4EC012881F8
:102580003981260F371F2E5F3F4F318320838A8189
:102590009B8193838283452B29F4F0936A03E09314
:1025A000690342C01396FC93EE931297ED01499193
:1025B00059919E01240F351FE217F30771F48081B2
:1025C0009181840F951F029611969C938E93828120
:1025D000938113969C938E931297E0E0F0E0D801DC
:1025E00012968D919C911397009719F0F8018C0128
:1025F000F6CF8D919C9198012E5F3F4F820F931FD4
:1026000020916703309168032817390769F43097E0
:1026100029F410926A031092690302C01382128295
:102620001093680300936703DF91CF911F910F917F
:1026300008951F93FC0199278827BC01E894119104
:102640001032E9F3193010F01E30C8F31B3251F08C
:102650001D3249F4689406C00E944013610F711D39
:10266000811D911D119110531A30B0F33EF49095D5
:102670008095709561957F4F8F4F9F4F1F91089563
:10268000592F482F372F262F660F771F881F991F26
:10269000660F771F881F991F620F731F841F951F76
:1026A000660F771F881F991F0895E89409C097FB4C
:1026B0003EF490958095709561957F4F8F4F9F4F19
:1026C0009923A9F0F92F96E9BB279395F69587955D
:1026D00077956795B795F111F8CFFAF4BB0F11F420
:1026E00060FF1BC06F5F7F4F8F4F9F4F16C08823C7
:1026F00011F096E911C0772321F09EE8872F762FFD
:1027000005C0662371F096E8862F70E060E02AF03D
:102710009A95660F771F881FDAF7880F9695879529
:1027200097F908950E94A5130C9416140E9408149A
:1027300038F00E940F1420F0952311F00C94FF1331
:102740000C94051411240C944A140E94271470F35D
:10275000959FC1F3950F50E0551F629FF001729F46
:10276000BB27F00DB11D639FAA27F00DB11DAA1F55
:10277000649F6627B00DA11D661F829F2227B00DA2
:10278000A11D621F739FB00DA11D621F839FA00D2D
:10279000611D221F749F3327A00D611D231F849F7D
:1027A000600D211D822F762F6A2F11249F575040D4
:1027B0009AF0F1F088234AF0EE0FFF1FBB1F661F4F
:1027C000771F881F91505040A9F79E3F510580F018
:1027D0000C94FF130C944A145F3FE4F3983ED4F337
:1027E000869577956795B795F795E7959F5FC1F7BC
:1027F000FE2B880F911D9695879597F9089597F967
:102800009F6780E870E060E008959FEF80EC089596
:1028100000240A94161617061806090608950024BF
:102820000A9412161306140605060895092E039439
:10283000000C11F4882352F0BB0F40F4BF2B11F4AD
:1028400060FF04C06F5F7F4F8F4F9F4F089557FD0C
:102850009058440F551F59F05F3F71F04795880F0E
:1028600097FB991F61F09F3F79F0879508951216A5
:1028700013061406551FF2CF4695F1DF08C0161651
:1028800017061806991FF1CF869571056105089402
:102890000895E894BB2766277727CB0197F9089519
:1028A000A1E21A2EAA1BBB1BFD010DC0AA1FBB1F54
:1028B000EE1FFF1FA217B307E407F50720F0A21BC6
:1028C000B30BE40BF50B661F771F881F991F1A9433
:1028D00069F760957095809590959B01AC01BD015D
:1028E000CF0108952F923F924F925F926F927F9205
:1028F0008F929F92AF92BF92CF92DF92EF92FF9210
:102900000F931F93CF93DF93CDB7DEB7CA1BDB0BBB
:102910000FB6F894DEBF0FBECDBF09942A88398860
:1029200048885F846E847D848C849B84AA84B98467
:10293000C884DF80EE80FD800C811B81AA81B98173
:10294000CE0FD11D0FB6F894DEBF0FBECDBFED0187
:10295000089510E0C2E6D0E004C0FE010E94D1104C
:0C2960002196C336D107C9F7F894FFCFC9
:10296C00D001D0010100006B03800000000000E6E4
:10297C00000507AF008D00A1002D010000000041F3
:10298C000211020A02070204020302564D44505679
:10299C005F317C315F564D4450560D0A00436F6FCA
:1029AC00726428312C312C31293A20002071756544
:1029BC0075652073697A65002C20002070726F6732
:1029CC0072657373706F696E740020627269636BE9
:0A29DC0000207800207A0020790026
:00000001FF
