:100000000C9462000C94C0050C9499050C948A0021
:100010000C948A000C948A000C948A000C948A0038
:100020000C948A000C948A000C948A000C948A0028
:100030000C948A000C948A000C948A000C948A0018
:100040000C944F050C948A000C946B040C9445049A
:100050000C948A000C948A000C948A000C948A00F8
:100060000C94E7050C948A000000000800020100CF
:100070000003040700000000000000000000000072
:10008000240027002A0000000000250028002B0083
:1000900000000000230026002900040404040404D6
:1000A0000404020202020202030303030303010227
:1000B00004081020408001020408102001020408F6
:1000C0001020750811241FBECFEFD8E0DEBFCDBFD2
:1000D00011E0A0E0B1E0ECE3FDE102C005900D927B
:1000E000A036B107D9F723E0A0E6B1E001C01D9228
:1000F000A131B207E1F710E0C2E6D0E004C02197D9
:10010000FE010E94390DC136D107C9F70E94AE0821
:100110000C949C0E0C940000EAEAF1E0A089B189ED
:1001200082E08C93A485B5851C92A685B7858FEC5B
:100130008C93108EA489B58986E08C93A289B389AB
:100140008C9180618C93A289B3898C9188608C9307
:10015000A289B3898C9180688C930288F389E02D01
:1001600080818F7D80830895CF92DF92EF92FF92FE
:100170000F931F93CF93DF936C017A018B01C0E043
:10018000D0E0CE15DF0589F0D8016D918D01D60143
:10019000ED91FC910190F081E02DC6010995892B2C
:1001A00011F47E0102C02196ECCFC701DF91CF91FF
:1001B0001F910F91FF90EF90DF90CF900895611500
:1001C000710579F0FB0101900020E9F73197AF014B
:1001D000461B570BDC01ED91FC910280F381E02D71
:1001E000099480E090E008954F925F926F927F9221
:1001F000EF92FF920F931F93CF93DF93CDB7DEB7AC
:10020000A1970FB6F894DEBF0FBECDBF7C01FA01F7
:10021000CB0119A2223008F42AE08E010F5D1F4F96
:10022000422E512C612C712CBF01A30192010E941E
:100230007A0EF901CA01015011096A3014F4605DA7
:1002400001C0695CD8016C93232B242B252B61F70B
:10025000B801C7010E94DF00A1960FB6F894DEBF77
:100260000FBECDBFDF91CF911F910F91FF90EF9007
:100270007F906F905F904F900895CF92DF92EF92B2
:10028000FF92CF93DF936B017C01E091AA01F09183
:10029000AB010190F081E02D6DE28AEA91E00995D1
:1002A000EC0144275527BA014C195D096E097F09F5
:1002B0002AE08AEA91E00E94F4008C0F9D1FDF91F2
:1002C000CF91FF90EF90DF90CF900895CF93DF9381
:1002D00097FF03C00E943D0107C02AE0AB01BC01AB
:1002E0008AEA91E00E94F400EC016DE571E08AEA8F
:1002F00091E00E94DF008C0F9D1FDF91CF91089548
:1003000081309105A1F08230910501F1892B81F5B1
:1003100060E08CE00E949D0461E08BE00E949D04FF
:1003200060E08AE00E949D0488E891E01DC061E0E1
:100330008CE00E949D0460E08BE00E949D0460E0E0
:100340008AE00E949D0488E791E00EC060E08CE0A6
:100350000E949D0460E08BE00E949D0460E08AE0C2
:100360000E949D0488E991E09093A9018093A801DF
:100370000895CF93DF93AC01990F660B770B77FF4E
:1003800005C0CB01BA010E943D0105C02AE08AEAFE
:1003900091E00E94F400EC016DE571E08AEA91E0E1
:1003A0000E94DF008C0F9D1FDF91CF910895CF93A6
:1003B000DF93EC0161E089E00E94CD04209711F405
:1003C00060E004C0CF3FD10531F461E089E0DF9106
:1003D000CF910C949D04E1E7F0E0E491E330F9F073
:1003E00048F4E130B9F0E230A1F584B5806284BD13
:1003F000C8BD34C0E730E9F0E83019F1E43049F520
:1004000080918000806280938000D0938B00C093A5
:100410008A0024C084B5806884BDC7BD1FC0809198
:100420008000806880938000D0938900C09388000A
:1004300015C08091B00080688093B000C093B30075
:100440000DC08091B00080628093B000C093B40072
:1004500005C0C038D1050CF0B8CFB2CFDF91CF9135
:100460000895FC01918D828D981761F0828DDF01D6
:10047000A80FB11D5D968C91928D9F5F9F73928F97
:1004800090E008958FEF9FEF0895FC01918D828D8C
:10049000981731F0828DE80FF11D858D90E0089559
:1004A0008FEF9FEF0895FC01918D228D892F90E0B1
:1004B000805C9F4F821B91098F73992708958AEA68
:1004C00091E00E94530221E0892B09F420E0822F61
:1004D0000895FC01848DDF01A80FB11DA35ABF4F01
:1004E0002C91848D90E001968F739927848FA68933
:1004F000B7892C93A089B1898C9180648C93938D5A
:10050000848D981306C00288F389E02D80818F7D49
:1005100080830895EF92FF920F931F93CF93DF9301
:10052000EC0181E0888F9B8D8C8D981305C0E88944
:10053000F989808185FD24C0F62E0B8D10E00F5FB8
:100540001F4F0F731127E02E8C8DE8120CC00FB6D1
:1005500007FCFACFE889F989808185FFF5CFCE01C4
:100560000E946902F1CF8B8DFE01E80FF11DE35A65
:10057000FF4FF0820B8FEA89FB898081806207C080
:10058000EE89FF896083E889F989808180648083AE
:1005900081E090E0DF91CF911F910F91FF90EF905C
:1005A0000895CF93DF93EC01888D8823C9F0EA8901
:1005B000FB89808185FD05C0A889B9898C9186FD5C
:1005C0000FC00FB607FCF5CF808185FFF2CFA88959
:1005D000B9898C9185FFEDCFCE010E946902E7CFEA
:1005E000DF91CF91089580E090E0892B29F00E945F
:1005F0005F0281110C9400000895833081F028F48B
:10060000813099F08230A1F008958730A9F08830C8
:10061000B9F08430D1F4809180008F7D03C0809147
:1006200080008F7780938000089584B58F7702C013
:1006300084B58F7D84BD08958091B0008F7703C00D
:100640008091B0008F7D8093B0000895CF93DF93A9
:10065000282F30E0F901E859FF4F8491F901E25564
:10066000FF4FD491F901E656FF4FC491CC2391F08E
:1006700081110E94FD02EC2FF0E0EE0FFF1FE0570A
:10068000FF4FA591B491EC91ED2381E090E021F42E
:1006900080E002C080E090E0DF91CF9108953FB705
:1006A000F8948091090390910A03A0910B03B091F3
:1006B0000C0326B5A89B05C02F3F19F00196A11D7C
:1006C000B11D3FBFBA2FA92F982F8827820F911DE8
:1006D000A11DB11DBC01CD0142E0660F771F881F2F
:1006E000991F4A95D1F70895089585ED8093BC0030
:1006F0008091BC0084FDFCCF1092DE0208954091F1
:10070000B802262F30E0240F311D21323105DCF4F0
:100710002091DE022430C9F4FC0180E090E08617CD
:1007200058F43091B8022191DC01AA56BD4FA30FB5
:10073000B11D2C930196F3CF8091B802680F60939E
:10074000B80280E0089581E0089582E00895089558
:100750008FEF9FEF08958FEF9FEF0895809195029F
:1007600090E09195819591090895CF93DF9300D002
:10077000CDB7DEB7CB01642F49835A830E947F0334
:100780004981842F5A81952F0F900F90DF91CF913F
:100790000895CF93DF931F92CDB7DEB7698361E0F1
:1007A000CE0101960E947F0381E090E00F90DF91DF
:1007B000CF910895DC01ED91FC91808191810895A4
:1007C0000E946C0ECF93DF93FC01A081B181CD918B
:1007D000DC91119712968D919C9113979183808350
:1007E000268537852150310937872687CD010E941C
:1007F000D40DCE01DF91CF910895CF92DF92EF9289
:10080000FF920F931F93CF93DF9300D0CDB7DEB746
:100810006C0184E090E069837A830E943F0D8C0133
:10082000D6011496ED90FC901597C7010E943F0DDC
:10083000F8019183808313821282A70169817A81F2
:100840000E94710ED6018D919C911197892B19F4FC
:100850000D931C9307C0D6011296ED91FC9113974E
:1008600013830283F601138302838685978501969D
:10087000978786870F900F90DF91CF911F910F91EF
:10088000FF90EF90DF90CF9008951F920F920FB6D8
:100890000F9211242F933F934F935F936F937F9306
:1008A0008F939F93AF93BF93EF93FF938AEA91E067
:1008B0000E946902FF91EF91BF91AF919F918F913B
:1008C0007F916F915F914F913F912F910F900FBE4C
:1008D0000F901F9018951F920F920FB60F92112430
:1008E0002F938F939F93EF93FF93E091BA01F09131
:1008F000BB018081E091C001F091C10182FD12C075
:1009000090818091C3018F5F8F732091C401821702
:1009100051F0E091C301F0E0E655FE4F958F8093D2
:10092000C30101C08081FF91EF919F918F912F9121
:100930000F900FBE0F901F9018951F93CF93DF93CA
:10094000282F30E0F901E859FF4F8491F901E25571
:10095000FF4FD491F901E656FF4FC491CC23C9F063
:10096000162F81110E94FD02EC2FF0E0EE0FFF1F09
:10097000EA57FF4FA591B4918FB7F894111105C0B4
:100980009C91ED2FE095E92302C0EC91ED2BEC93C7
:100990008FBFDF91CF911F910895CF93DF9390E0A8
:1009A000FC01E255FF4F2491FC01E656FF4F849174
:1009B000882361F190E0880F991FFC01E458FF4FF4
:1009C000C591D491FC01EA57FF4FA591B4916111F3
:1009D00009C09FB7F8948881209582238883EC9181
:1009E0002E230BC0623061F49FB7F8943881822FB8
:1009F000809583238883EC912E2B2C939FBF06C078
:100A00008FB7F894E8812E2B28838FBFDF91CF9189
:100A100008958F929F92AF92BF92CF92DF92EF9202
:100A2000FF926B017C010E944F034B015C01C114DA
:100A3000D104E104F104F1F00E944F03DC01CB0189
:100A400088199909AA09BB09883E9340A105B105F7
:100A500070F321E0C21AD108E108F10888EE880E8F
:100A600083E0981EA11CB11CC114D104E104F1045F
:100A700019F7DDCFFF90EF90DF90CF90BF90AF9050
:100A80009F908F9008952FB7F8946091050370910F
:100A9000060380910703909108032FBF08951F92CA
:100AA0000F920FB60F9211242F933F938F939F9322
:100AB000AF93BF938091050390910603A091070324
:100AC000B09108033091040323E0230F2D3720F465
:100AD0000196A11DB11D05C026E8230F0296A11D98
:100AE000B11D209304038093050390930603A09304
:100AF0000703B09308038091090390910A03A09122
:100B00000B03B0910C030196A11DB11D8093090345
:100B100090930A03A0930B03B0930C03BF91AF9182
:100B20009F918F913F912F910F900FBE0F901F902B
:100B300018951F920F920FB60F9211242F933F9387
:100B40004F935F936F937F938F939F93AF93BF93D5
:100B5000EF93FF93E0910201F09103010995FF915A
:100B6000EF91BF91AF919F918F917F916F915F9125
:100B70004F913F912F910F900FBE0F901F9018959E
:100B80001F920F920FB60F9211242F933F934F9302
:100B90005F936F937F938F939F93AF93BF93EF93E5
:100BA000FF93E0910001F09101010995FF91EF9110
:100BB000BF91AF919F918F917F916F915F914F9175
:100BC0003F912F910F900FBE0F901F9018951F927D
:100BD0000F920FB60F9211242F933F934F935F9371
:100BE0006F937F938F939F93AF93BF93EF93FF93F5
:100BF0008091B900887F803609F49CC068F58832FE
:100C000009F45BC090F4803109F454C038F48823AF
:100C100009F4F6C0883009F44DC0F6C0883109F4F3
:100C20004CC0803209F45DC0EFC0803409F468C064
:100C300048F4803309F455C0883309F0E5C0809347
:100C4000DD02D8C0803509F44FC0883509F45DC095
:100C5000883409F0D9C0D6C0883909F4C7C0A8F4CF
:100C6000883709F467C038F4883609F463C08037E0
:100C700009F460C0C9C0883809F4B8C0803909F4E3
:100C80005FC0803809F0C0C05BC0803B09F486C0FB
:100C900038F4803A09F466C0883A09F47FC0B4C0D9
:100CA000803C09F4A7C0883C09F4A4C0883B09F43F
:100CB0008AC0AAC08091030310C090910203809162
:100CC0000103981770F5E091020381E08E0F809385
:100CD0000203F0E0EF51FD4F80818093BB0085EC73
:100CE00086C08093DD028EC0E091020381E08E0F0A
:100CF000809302038091BB00F0E0EF51FD4F8083B1
:100D000090910203809101036EC0E091020381E0A3
:100D10008E0F809302038091BB00F0E0EF51FD4FF6
:100D200080838091E00281116DC081E08093DF02B9
:100D300084EA61C083E08093DE021092DC02CFCFB0
:100D40008091DC02803208F051C0E091DC0281E049
:100D50008E0F8093DC028091BB00F0E0E454FD4FE5
:100D60008083BDCF85EC8093BC001092DE02809121
:100D7000DC02803230F4E091DC02F0E0E454FD4F1C
:100D800010826091DC0270E0E091BA02F091BB0247
:100D90008CEB92E009951092DC0236C084E08093DF
:100DA000DE021092B9021092B802E091B602F09100
:100DB000B70209958091B802811105C081E0809346
:100DC000B80210929602E091B90281E08E0F8093F2
:100DD000B902F0E0EA56FD4F80818093BB0090910C
:100DE000B9028091B802981708F479CF85E880930A
:100DF000BC000AC085EC8093BC001092DE0204C0E7
:100E00001092DD020E947503FF91EF91BF91AF91A7
:100E10009F918F917F916F915F914F913F912F9112
:100E20000F900FBE0F901F90189581E090E00E94E8
:100E3000800180917301909174010E94D40D809182
:100E40006F0190917001892B21F481E0809304015E
:100E500002C01092040181E691E00E94E2039093A7
:100E600074018093730108950F931F93CF93DF93C1
:100E70008C01EB018130910569F082309105C1F060
:100E8000892B01F51B861A8661E08E810E949D04E4
:100E900060E007C09B878A8760E08E810E949D0486
:100EA00061E08885DF91CF911F910F910C949D0493
:100EB00060E08E810E949D0460E088850E949D0410
:100EC0001B870A87DF91CF911F910F9108950F9390
:100ED0001F930E9480016091A8017091A90181E097
:100EE00090E00E9434070E94430570937201609362
:100EF00071010E94430520917101309172012851C6
:100F00003C4F8901330F220B330B061717072807B5
:100F1000390778F76091A8017091A90182E090E00B
:100F20000E943407E091A801F091A901118210827A
:100F30001F910F910895CF93DF930E944305709303
:100F400072016093710180916001882309F46AC085
:100F5000E091A801F091A90182859385009719F08D
:100F6000019771F15FC040815181C0917301D091AF
:100F70007401A885B9851196AA0FBB1FAC0FBD1FC0
:100F80008D919C919C0122503109421753076CF5B9
:100F9000408151819C0128523109421753071CF0AE
:100FA00088EC90E009C0208131818456910928178E
:100FB0003907C4F186E990E0DF91CF910C94D70115
:100FC00040815181C0917301D0917401A885B98588
:100FD0001196AA0FBB1FAC0FBD1F8D919C919C0158
:100FE0002E5F3F4F2417350774F0BF0182E090E079
:100FF0000E94340781E08093750181E090E0DF91E9
:10100000CF910C94B901408151819C01285D3F4FE3
:10101000241735072CF6208131818C599F4F821778
:10102000930744F6DF91CF91089583E00E94260351
:10103000E091A801F091A901268537852817390785
:1010400019F197878687009719F0019771F01AC0F8
:1010500084859585892B21F480819181019603C037
:101060008081918101979183808384859585892BE7
:1010700021F480819181019703C080819181019643
:10108000918380830C949B07089582E00E9426033D
:10109000E091A801F091A901248535852817390729
:1010A00019F195878487009719F0019771F01AC09C
:1010B00086859785892B21F480819181019703C0D2
:1010C0008081918101969183808386859785892B84
:1010D00021F480819181019603C0808191810197E3
:1010E000918380830C949B070895EAEAF1E01382D0
:1010F000128288EE93E0A0E0B0E084839583A6831B
:10110000B7832FE031E03183208325EC30E0358751
:10111000248724EC30E03787268720EC30E0318BC1
:10112000208B21EC30E0338B228B22EC30E0358BAE
:10113000248B26EC30E0378B268B118E128E138E8B
:10114000148EE9E8F2E01382128284839583A683E9
:10115000B7838FE191E0918380830895CF93DF93EC
:10116000CDB7DEB7C05AD1090FB6F894DEBF0FBEB7
:10117000CDBF789484B5826084BD84B5816084BD20
:1011800085B5826085BD85B5816085BD80916E0025
:10119000816080936E001092810080918100826056
:1011A0008093810080918100816080938100809193
:1011B00080008160809380008091B1008460809382
:1011C000B1008091B00081608093B00080917A007E
:1011D000846080937A0080917A00826080937A00A4
:1011E00080917A00816080937A0080917A00806893
:1011F00080937A001092C10010927D0210927E02BC
:1012000010927F021092800210924B0210924C02B8
:1012100010924D0210924E0260ED77E080E090E077
:101220000E9409058AEA91E090937C0280937B02F8
:101230000E948C000E94430500914B0210914C02C9
:1012400020914D0230914E02DC01CB01801B910BAD
:10125000A20BB30BC297A105B10538F463E070E0AF
:1012600080E090E00E940905E5CF0E94430560936D
:101270004B0270934C0280934D0290934E026BE2AE
:1012800071E080917B0290917C020E94DF006AE015
:1012900070E080E090E00E94090511E010934F0299
:1012A00061E08AE00E94CD0461E08BE00E94CD0401
:1012B00061E08CE00E94CD0461E084E00E94CD04F6
:1012C00061E085E00E94CD0461E086E00E94CD04EB
:1012D00061E087E00E94CD0461E088E00E94CD04D7
:1012E00061E08DE00E94CD0461E089E00E94CD04C0
:1012F00062E082E00E94CD0462E083E00E94CD04BF
:1013000085E498E090930101809300018091690049
:101310008C7F816080936900E89A85E198E09093E2
:1013200003018093020180916900837F8460809330
:101330006900E99A0E948C0010926201109261018A
:1013400010926401109263018CE090E0909366012A
:10135000809365018DEF93E090936801809367011E
:1013600082EE93E090936A01809369018AED93E0A5
:1013700090936C0180936B011092700110926F0139
:101380001EAA1DAA2AE134E038AF2FAB1AAE19AE5F
:1013900088E090E09CAF8BAF8DE090E09EAF8DAF8A
:1013A00082E090E021969FAF8EAF219723961FAEEB
:1013B0001EAE239725961FAE1EAE259727961FAE0D
:1013C0001EAE279729963FAF2EAF29972B961FAEBB
:1013D0001EAE2B9746E050E02D965FAF4EAF2D9797
:1013E00047E050E02F965FAF4EAF2F9761969FAFCB
:1013F0008EAF619763961FAE1EAE639765961FAE64
:101400001EAE659767961FAE1EAE679769963FAF93
:101410002EAF69976B961FAE1EAE6B9724E030E03F
:101420006D963FAF2EAF6D9725E030E06F963FAFE2
:101430002EAF6F97A1969FAF8EAFA197A3961FAEC9
:101440001EAEA397A5961FAE1EAEA597CE018B59D3
:101450009F4F20E1FE01EB5AFF4FDC0101900D92FE
:101460002A95E1F720E1FE01EB5BFF4FDE01AB586F
:10147000BF4F01900D922A95E1F720E1FE01F5960C
:10148000DE01AB57BF4F01900D922A95E1F720E1A5
:10149000FC01DE01139601900D922A95E1F720E1FF
:1014A000FE01EB58FF4FDE01539601900D922A95F5
:1014B000E1F720E1FE01EB57FF4FDE01939601902B
:1014C0000D922A95E1F79CAB8BAB84E3FE0131963C
:1014D000A6E7B1E001900D928A95E1F74BEBC42E9F
:1014E000D12CC956DF4FD982C882C759D040C756C0
:1014F000DF4FD982C882C959D040C556DF4F198203
:101500001882CB59D040C156DF4F19821882CF596B
:10151000D040C356DF4F19821882CD59D040CB56E8
:10152000DF4F19821882C559D040BE016B567F4FDC
:1015300081E691E00E94FD0352ECE52EFF24F39436
:10154000C956DF4FF982E882C759D040C756DF4FEE
:10155000F982E882C959D040C556DF4F19821882F6
:10156000CB59D040C156DF4F19821882CF59D04095
:10157000C356DF4F19821882CD59D040CB56DF4F6A
:1015800019821882C559D040BE016B567F4F81E643
:1015900091E00E94FD03C956DF4FD982C882C75926
:1015A000D040C756DF4FF982E882C959D040C556AE
:1015B000DF4F19821882CB59D040C156DF4F1982B4
:1015C0001882CF59D040C356DF4F19821882CD59A7
:1015D000D040CB56DF4F19821882C559D040BE018A
:1015E0006B567F4F81E691E00E94FD030E94150734
:1015F00084EB90E00E94D70180E090E00E946707B2
:1016000084EB90E00E94D70182E090E00E9467079F
:1016100084EB90E00E94D70181E090E00E94670790
:10162000109360018FEF90E00E94D7011093750135
:10163000DD24D39403E010E00E944305672B682B60
:10164000692B09F047C10E9443056230710581058D
:10165000910508F03FC13DC00E94430560934B02D5
:1016600070934C0280934D0290934E026DE371E0B3
:1016700080917B0290917C020E94DF0065E471E022
:1016800080917B0290917C020E94DF000E944305C2
:10169000AB01BC012AE080917B0290917C020E9408
:1016A000F40067E471E080917B0290917C020E94DB
:1016B000DF0065E070E080E090E00E9409056AE0EC
:1016C00070E080E090E00E94090580914F02811156
:1016D0005BC180917501882309F4EBC00E9443052A
:1016E000209171013091720128513C4F4901330F13
:1016F000AA08BB0886169706A806B90608F0D9C03E
:1017000010927501E0917301F091740180859185CB
:101710000E94B901E0917301F0917401808191817F
:101720000E94B901E0907301F0907401F701808587
:101730009185009719F00197D1F17EC08081918148
:10174000892B11F5F0924902E09248028CE090E07A
:101750000E943F0DFC0181E090E091838083138221
:1017600012821582148217821682118610861387C0
:101770000287F0937401E0937301D092470267E00F
:1017800072EB81E090E04DC068E072EB81E090E0A8
:101790000E946601E0917301F091740181E090E094
:1017A0009187808782E090E00E94800145C0F70128
:1017B000808191810197C1F568E871E080E090E057
:1017C0000E94340768EE73E080E090E00E94090513
:1017D00068E871E081E090E00E94340768EE73E011
:1017E00080E090E00E94090568E871E082E090E006
:1017F0000E943407C7010E94D40DE0914802F09185
:101800004902F0937401E093730182E090E09183C8
:10181000808381E090E00E9480016DE074E683E0C7
:1018200090E00E94660108C06EE074E683E090E0FC
:101830000E9466010E94150780910401811139C040
:10184000E0917301F09174016091A8017091A90178
:10185000DB0112964D915C91139720914702808590
:1018600091850196DC01AA0FBB1FAE0FBF1FED9043
:10187000FC904E155F050CF4DEC0DB01AD90BC9012
:10188000D7011296AA15BB051CF481E090E00BC0AD
:10189000DB01AD90BC90D7011297AA16BB060CF0E5
:1018A000CAC080E090E00E943407F0927701E09295
:1018B00076016AE070E080E090E00E940905E09126
:1018C000A801F091A901808191810E94B9010E9433
:1018D000F302B2CE0E9443056093850270938602A4
:1018E0008093870290938802809081029090820278
:1018F000A0908302B0908402681579058A059B0543
:1019000040F46093810270938202809383029093EB
:1019100084028090810290908202A0908302B09015
:1019200084029B01AC01281939094A095B09490164
:101930005A013AEF83169104A104B10408F4C9CE08
:101940006093810270938202809383029093840259
:101950000E94430580904B0290904C02A0904D0253
:10196000B0904E02DC01CB0188199909AA09BB0984
:10197000C297A105B10508F06FCE63E070E080E08A
:1019800090E00E940905E4CF80917B0290917C0257
:10199000DC01ED91FC910480F581E02D0995892B06
:1019A00099F380917B0290917C02DC01ED91FC9196
:1019B0000480F581E02D0995181619060CF089CEE2
:1019C00080917B0290917C02DC01ED91FC9106807C
:1019D000F781E02D099599278336910551F08637D7
:1019E000910509F476CE88359105D9F610924F020B
:1019F000D8CF60E571E080917B0290917C020E94DB
:101A0000DF002AE041E050E060E070E080917B027E
:101A100090917C020E94F40067E571E080917B0266
:101A200090917C020E94DF0062E370E080E090E031
:101A30000E9409054ECE222319F01092470209C0D8
:101A4000918780878230910539F481E090E0918719
:101A50008087D09275012DCF009731F0019709F062
:101A6000FECE82E090E002C081E090E00E94800122
:101A7000E7CEEE0FFF1F0590F491E02D0994CF9370
:101A8000DF938230910510F482E090E0E0910F0343
:101A9000F091100320E030E0C0E0D0E0309711F189
:101AA0004081518148175907C0F04817590761F420
:101AB00082819381209719F09B838A832BC0909316
:101AC000100380930F0326C02115310519F042172A
:101AD000530718F49A01BE01DF01EF010280F38180
:101AE000E02DDCCF2115310509F1281B390B2430FD
:101AF000310590F412968D919C91139761157105A3
:101B000021F0FB019383828304C0909310038093A0
:101B10000F03FD01329644C0FD01E20FF31F8193D4
:101B20009193225031092D933C933AC020910D039B
:101B300030910E03232B41F42091070130910801CD
:101B400030930E0320930D0320910501309106017F
:101B50002115310541F42DB73EB74091090150914F
:101B60000A01241B350BE0910D03F0910E03E217DF
:101B7000F307A0F42E1B3F0B2817390778F0AC01B0
:101B80004E5F5F4F2417350748F04E0F5F1F50938D
:101B90000E0340930D038193919302C0E0E0F0E0C7
:101BA000CF01DF91CF9108950F931F93CF93DF93D0
:101BB000009709F48CC0FC013297138212820091C5
:101BC0000F03109110030115110581F4208131815B
:101BD000820F931F20910D0330910E0328173907B0
:101BE00079F5F0930E03E0930D0371C0D80140E046
:101BF00050E0AE17BF0750F412962D913C91139709
:101C0000AD012115310509F1D901F3CF9D01DA01AB
:101C10003383228360817181860F971F8217930718
:101C200069F4EC0128813981260F371F2E5F3F4F61
:101C3000318320838A819B8193838283452B29F47E
:101C4000F0931003E0930F0342C01396FC93EE93BE
:101C50001297ED01499159919E01240F351FE2170A
:101C6000F30771F480819181840F951F029611967C
:101C70009C938E938281938113969C938E9312975B
:101C8000E0E0F0E0D80112968D919C9113970097B7
:101C900019F0F8018C01F6CF8D919C9198012E5F7F
:101CA0003F4F820F931F20910D0330910E03281791
:101CB000390769F4309729F41092100310920F033A
:101CC00002C01382128210930E0300930D03DF9162
:101CD000CF911F910F91089581E090E0F8940C94BA
:101CE0009C0EFB01DC0102C001900D92415050405E
:101CF000D8F70895A1E21A2EAA1BBB1BFD010DC047
:101D0000AA1FBB1FEE1FFF1FA217B307E407F507AB
:101D100020F0A21BB30BE40BF50B661F771F881F87
:101D2000991F1A9469F760957095809590959B011D
:0C1D3000AC01BD01CF010895F894FFCF75
:101D3C007403740301000011038000000000008A8A
:101D4C0002B400530231024502D10200000000C966
:101D5C0003B503AE03AB03A803A703564D4450567B
:101D6C005F317C315F564D4450560D0A00564D4440
:101D7C0050455F31007C005F564D4450450D0A00C4
:101D8C00564D4450435F005F564D4450430D0A007E
:00000001FF
